S010000052544F5344656D6F2E7372656347
S315200000000000012089010020F9010020FB010020C9
S31520000010FD010020FF010020010200200000000059
S315200000200000000000000000000000002144002025
S31520000030050200200000000051460020A1460020B5
S315200000400B0200200D0200200F02002011020020CA
S31520000050130200201502002017020020190200209A
S315200000601B0200201D0200201559002039590020AE
S31520000070230200202502002027020020290200203A
S315200000802B0200202D0200202F020020310200200A
S3152000009033020020350200203702002039020020DA
S315200000A03B0200203D0200203F02002041020020AA
S315200000B0430200204502002047020020490200207A
S315200000C04B0200204D020020655400207954002068
S315200000D08D540020A1540020B5540020C95400207E
S315200000E05B0200205D0200205F02002061020020EA
S315200000F063020020650200206702002069020020BA
S315200001006B0200206D0200206F0200207102002089
S315200001107302002075020020770200207902002059
S315200001207B0200207D0200207F0200208102002029
S3152000013083020020850200208702002089020020F9
S315200001408B0200208D0200208F02002091020020C9
S315200001509302002095020020970200209902002099
S315200001609B0200209D0200209F020020A102002069
S31520000170A3020020A5020020A7020020A902002039
S31520000180AB020020AD02002049488047494800289C
S315200001900BD1494849494A4A884206D091421CBF58
S315200001A050F8043B41F8043BF8D146484649474AB3
S315200001B0884206D091421CBF50F8043B41F8043BCC
S315200001C0F8D143484349444A914218BF41F8040BA9
S315200001D0FAD100000000000000000000000000002E
S315200001E0DFF8F8000FF2030E00474FF000004FF043
S315200001F00001DFF8ECF0FEE7FEE7FEE7FEE7FEE7AC
S31520000200FEE7FEE7FEE7FEE7FEE7FEE7FEE7FEE7A0
S31520000210FEE7FEE7FEE7FEE7FEE7FEE7FEE7FEE790
S31520000220FEE7FEE7FEE7FEE7FEE7FEE7FEE7FEE780
S31520000230FEE7FEE7FEE7FEE7FEE7FEE7FEE7FEE770
S31520000240FEE7FEE7FEE7FEE7FEE7FEE7FEE7FEE760
S31520000250FEE7FEE7FEE7FEE7FEE7FEE7FEE7FEE750
S31520000260FEE7FEE7FEE7FEE7FEE7FEE7FEE7FEE740
S31520000270FEE7FEE7FEE7FEE7FEE7FEE7FEE7FEE730
S31520000280FEE7FEE7FEE7FEE7FEE7FEE7FEE7FEE720
S31520000290FEE7FEE7FEE7FEE7FEE7FEE7FEE7FEE710
S315200002A0FEE7FEE7FEE7FEE7FEE7FEE7FEE770472E
S315200002B01571002000000000000000200000002032
S315200002C0807800208078002080780020E078002048
S315200002D000000000E078002030E400202175002096
S315200002E00D040020000000000000000000000000B7
S315200002F047F6E003C2F200031A780AB90120187003
S31520000300704700BF47F68000C2F2000008B50368B8
S315200003102BB140F20003C0F2000303B1984708BD99
S3152000032080B400AF4EF6FC53CEF200034EF6FC52DC
S31520000330CEF20002126842F080721A6041F2040383
S31520000340CEF200034FF000021A6041F20003CEF213
S31520000350000341F20002CEF20002126842F00102CE
S315200003601A60BD4680BC704780B483B000AF41F2AE
S315200003700403CEF200031B687B6047F6E403C2F257
S3152000038000031B687A689A420BD247F6E803C2F24A
S3152000039000031B6803F1010247F6E803C2F20003DB
S315200003A01A6047F6E403C2F200037A681A6047F639
S315200003B0C403C2F200031A6841F67F53C0F22C43ED
S315200003C09A420ED87B684FEA53337B6047F6E803A0
S315200003D0C2F200031B684FEAC3437A6813447B606A
S315200003E00DE07B684FEA93337B6047F6E803C2F261
S315200003F000031B684FEA83437A6813447B607B685B
S31520000400184607F10C07BD4680BC704780B500AF83
S3152000041004F072FE4FF00003184680BD80B483B00E
S3152000042000AF4FF0A00383F31188BFF36F8FBFF3A4
S315200004304F8F7B60FEE700BF80B400AFBD4680BC17
S31520000440704700BF80B485B000AF786039604FF048
S31520000450A00383F31188BFF36F8FBFF34F8FFB6029
S31520000460FEE700BF80B483B000AF02460B46FA71A8
S31520000470BB71F979BB791A464FEA4212C3EB0202E5
S315200004804FEA820213444FEAC30398B24EF2E402C3
S31520000490C2F200020B464FEAC3030B444FEA430362
S315200004A0134403F1100302461A8007F10C07BD46D8
S315200004B080BC704780B592B004AFF860B9607A60AE
S315200004C047F2D873C2F200031B88BB864FF028037D
S315200004D087F830304FF02A0387F82C304FF02C0362
S315200004E087F828304FF0290387F824304FF02B0364
S315200004F087F820304FF02D033B774FF0000387F825
S31520000500363007F134034FF0000200924EF2FC1011
S31520000510C2F200004FF06A011A464FF0020305F0BE
S3152000052031FE07F118034FF0000200924EF2FC1044
S31520000530C2F200004FF06A011A464FF0010305F09F
S3152000054093FE4EF2FC10C2F200004FF0000105F0BF
S3152000055095FF034687F8373097F8362097F83730D7
S31520000560134487F8363007F1280307F11802009262
S315200005704FF0010201924FF0000202924EF2FC105F
S31520000580C2F200004FF06A011A464FF0010305F04F
S31520000590DDFE4EF2FC10C2F200004FF0000105F025
S315200005A06DFF034687F8373097F8362097F83730AF
S315200005B0134487F8363007F11C0307F11402009222
S315200005C04FF0010201924FF0000202924EF2FC100F
S315200005D0C2F200004FF06A011A464FF0010305F0FF
S315200005E0B5FE4EF2FC10C2F200004FF0000105F0FD
S315200005F045FF034687F8373097F8362097F8373087
S31520000600134487F836303B7D4FEA03239AB23B7E6C
S3152000061042EA03039BB29AB27B681A807B681B88E6
S31520000620B3F5004F06D97B681B886FEA03039AB29D
S315200006307B681A8007F12C0307F1180200924FF00D
S31520000640010201924FF0000202924EF2FC10C2F219
S3152000065000004FF06A011A464FF0010305F076FEBE
S315200006604EF2FC10C2F200004FF0000105F006FF2A
S31520000670034687F8373097F8362097F837301344F3
S3152000068087F8363007F1200307F1140200924FF065
S31520000690010201924FF0000202924EF2FC10C2F2C9
S315200006A000004FF06A011A464FF0010305F04EFE96
S315200006B04EF2FC10C2F200004FF0000105F0DEFE03
S315200006C0034687F8373097F8362097F837301344A3
S315200006D087F836303B7D4FEA03239AB23B7E42EAC7
S315200006E003039BB29AB2BB681A80BB681B88B3F51A
S315200006F0004F06D9BB681B886FEA03039AB2BB6812
S315200007001A8007F1300307F1180200924FF0010218
S3152000071001924FF0000202924EF2FC10C2F200004B
S315200007204FF06A011A464FF0010305F00FFE4EF214
S31520000730FC10C2F200004FF0000105F09FFE0346B8
S3152000074087F8373097F8362097F83730134487F8EC
S31520000750363007F1240307F1140200924FF001020C
S3152000076001924FF0000202924EF2FC10C2F20000FB
S315200007704FF06A011A464FF0010305F0E7FD4EF2ED
S31520000780FC10C2F200004FF0000105F077FE034690
S3152000079087F8373097F8362097F83730134487F89C
S315200007A036303B7D4FEA03239AB23B7E42EA03036F
S315200007B09BB29AB2FB681A80FB681B88B3F5004F80
S315200007C006D9FB681B886FEA03039AB2FB681A8076
S315200007D097F83730184607F13807BD4680BD00BF69
S315200007E080B592B004AFF860B9607A6047F2D473EE
S315200007F0C2F200031B883B864FF0180387F82C3083
S315200008004FF01A0387F828304FF01C0387F824305E
S315200008104FF0190387F820304FF01B033B774FF03A
S315200008201D033B764FF06A0387F835304FF00003FF
S3152000083087F8363097F8352007F1300307F1140191
S3152000084000914FF0010101914FF0000102914EF20B
S31520000850FC10C2F2000011461A464FF0020305F0C2
S3152000086075FD4EF2FC10C2F200004FF0000105F0BB
S3152000087005FE034687F8373097F8362097F8373045
S31520000880134487F8363097F8352007F1240307F10B
S31520000890140100914FF0010101914FF000010291E6
S315200008A04EF2FC10C2F2000011461A464FF0010328
S315200008B005F04CFD4EF2FC10C2F200004FF0000194
S315200008C005F0DCFD034687F8373097F8362097F891
S315200008D03730134487F8363097F8352007F1180358
S315200008E007F1100100914FF0010101914FF0000135
S315200008F002914EF2FC10C2F2000011461A464FF049
S31520000900010305F023FD4EF2FC10C2F200004FF069
S31520000910000105F0B3FD034687F8373097F83620F7
S3152000092097F83730134487F836303B7C4FEA032359
S315200009309AB23B7D42EA03039BB29AB2FB681A80C5
S3152000094097F8352007F1280307F1140100914FF09D
S31520000950010101914FF0000102914EF2FC10C2F20A
S31520000960000011461A464FF0010305F0EFFC4EF247
S31520000970FC10C2F200004FF0000105F07FFD034697
S3152000098087F8373097F8362097F83730134487F8AA
S31520000990363097F8352007F11C0307F11001009136
S315200009A04FF0010101914FF0000102914EF2FC102F
S315200009B0C2F2000011461A464FF0010305F0C6FCAC
S315200009C04EF2FC10C2F200004FF0000105F056FD79
S315200009D0034687F8373097F8362097F83730134490
S315200009E087F836303B7C4FEA03239AB23B7D42EAB6
S315200009F003039BB29AB2BB681A8097F8352007F199
S31520000A002C0307F1140100914FF0010101914FF0E1
S31520000A10000102914EF2FC10C2F2000011461A4665
S31520000A204FF0010305F092FC4EF2FC10C2F20000DA
S31520000A304FF0000105F022FD034687F8373097F87E
S31520000A40362097F83730134487F8363097F8352014
S31520000A5007F1200307F1100100914FF001010191E8
S31520000A604FF0000102914EF2FC10C2F20000114636
S31520000A701A464FF0010305F069FC4EF2FC10C2F253
S31520000A8000004FF0000105F0F9FC034687F83730E7
S31520000A9097F8362097F83730134487F836303B7C62
S31520000AA04FEA03239AB23B7D42EA03039BB29AB2F2
S31520000AB07B681A8097F83730184607F13807BD4605
S31520000AC080BD00BF80B58AB004AF78604FF01503B3
S31520000AD03B754FF016033B744FF06A03BB75BA7D26
S31520000AE007F1140307F10C0100914FF00101019168
S31520000AF04FF0000102914EF2FC10C2F200001146A6
S31520000B001A464FF0010305F021FC4EF2FC10C2F20A
S31520000B1000004FF0000105F0B1FC0346FB75BA7DDD
S31520000B2007F1100307F1080100914FF0010101912F
S31520000B304FF0000102914EF2FC10C2F20000114665
S31520000B401A464FF0010305F001FC4EF2FC10C2F2EA
S31520000B5000004FF0000105F091FC0346FB753B7B3E
S31520000B601A463B7A4FEA03239BB242EA03039BB21F
S31520000B709AB27B681A804FF00003184607F11807CF
S31520000B80BD4680BD80B586B002AFB9601346024629
S31520000B90FA73FB714EF22013C2F200034FF00002EB
S31520000BA01A7032E0FB79FA7B4FF0000100914DF686
S31520000BB03440C2F200001146BA6805F0E3FA4DF659
S31520000BC03440C2F200004FF0000105F057FC034606
S31520000BD01A464EF22213C2F200031A704EF2221364
S31520000BE0C2F200031B78002B02D14FF0000318E05D
S31520000BF04EF22013C2F200031B7803F10103DAB28E
S31520000C004EF22013C2F200031A704EF22013C2F2E3
S31520000C1000031B78092BC5D94EF22013C2F200031C
S31520000C201B78184607F11007BD4680BD80B586B0F3
S31520000C3002AFB96013460246FA73FB714EF22013D7
S31520000C40C2F200034FF000021A7032E0FB79FA7B01
S31520000C504FF0000100914DF63440C2F200001146DB
S31520000C60BA6805F001FB4DF63440C2F200004FF0A1
S31520000C70000105F003FC03461A464EF22213C2F287
S31520000C8000031A704EF22213C2F200031B78002BC7
S31520000C9002D14FF0000318E04EF22013C2F20003F7
S31520000CA01B7803F10103DAB24EF22013C2F20003DD
S31520000CB01A704EF22013C2F200031B78092BC5D9F5
S31520000CC04EF22013C2F200031B78184607F11007D4
S31520000CD0BD4680BD80B582B000AF0B463A60024665
S31520000CE0FA71BB71FA7907F10603104619464FF0DF
S31520000CF00102FFF747FF0346092B02D94FF00103F4
S31520000D000EE0FB79184639684FF00202FFF78EFF96
S31520000D100346092B02D94FF0010301E04FF00003EF
S31520000D20184607F10807BD4680BD00BF80B582B0D2
S31520000D3000AF0B463A600246FA71BB714EF21C13A5
S31520000D40C2F200034FF000021A704EF21C13C2F2D8
S31520000D5000034FF000025A704EF21E13C2F2000337
S31520000D604FF000021A80BB794FEA4303DBB2FA79CF
S31520000D70104619464EF21C12C2F20002FFF7AAFFD5
S31520000D800346002B1AD14EF21C13C2F200031B7825
S31520000D904FEA03239AB24EF21C13C2F200035B7889
S31520000DA042EA03039BB29AB24EF21E13C2F200032A
S31520000DB01A803B684FF000021A700AE03B684FF039
S31520000DC001021A704EF21E13C2F200034FF0000207
S31520000DD01A804EF21E13C2F200031B88184607F132
S31520000DE00807BD4680BD00BF80B582B000AF0B4668
S31520000DF03A600246FA71BB714EF21C13C2F200032E
S31520000E004FF000021A704EF21C13C2F200034FF08C
S31520000E1000025A704EF21E13C2F200034FF0000277
S31520000E201A80BB794FEA4303DBB203F1FF33DBB20F
S31520000E30FA79104619464EF21C12C2F20002FFF74A
S31520000E4049FF0346002B1AD14EF21C13C2F20003AF
S31520000E501B784FEA03239AB24EF21C13C2F2000308
S31520000E605B7842EA03039BB29AB24EF21E13C2F299
S31520000E7000031A803B684FF000021A700AE03B68B4
S31520000E804FF001021A704EF21E13C2F200034FF009
S31520000E9000021A804EF21E13C2F200031B88184667
S31520000EA007F10807BD4680BD80B58CB004AFF86059
S31520000EB07B600B46FB721346BB72BB7A3B753B7D50
S31520000EC043F00803DBB23B753B7D4FEA0313DBB2ED
S31520000ED03B75FA7A07F1140307F1180100914FF0D8
S31520000EE0020101914FF000010291F86811461A465D
S31520000EF04FF0010305F02AFAF8684FF0000105F0DB
S31520000F00BDFA03467B777B7F002B04D07B684FF0AE
S31520000F1001021A7012E03B7E4FEA03239AB27B7ECF
S31520000F2042EA03039BB2FB83FB8B4FEA03534FEA50
S31520000F301353FB837B684FF000021A70FB8B184615
S31520000F4007F12007BD4680BD80B584B000AF0346BB
S31520000F503960FB71FB79002B0ED13B68BB60BB6807
S31520000F605968BB689A68BB681B7B084611464FF0D8
S31520000F70880205F091F830E0FB790A2B0ED13B6808
S31520000F80FB60FB685A68FB689B68104619464FF061
S31520000F9088024FF0000305F07FF81EE0FB790B2B4B
S31520000FA01BD14EF2FC10C2F2000045F20001C5F240
S31520000FB000014FF088024FF0000305F06DF84DF662
S31520000FC03440C2F2000042F20001C5F200014FF0A7
S31520000FD088024FF0000305F05FF807F11007BD46C1
S31520000FE080BD00BF80B483B000AF0346FB80FB8882
S31520000FF04FF47A7202FB03F244F6D353C1F2620332
S31520001000A3FB02134FEA9313184607F10C07BD46BC
S3152000101080BC704780B483B000AF78604FF0010386
S31520001020184607F10C07BD4680BC704780B485B0D2
S3152000103000AF78607B681A785B784FEA032343EA2F
S3152000104002039BB24FEA03239AB27B6819785B7836
S315200010504FEA032343EA01039BB24FEA13239BB2D1
S3152000106042EA03039BB2FB814EF26033C2F20003D5
S315200010701A68FB894FEA43534FEA535303F0FF01A3
S315200010804FF0000040EA010151704FEA13239BB252
S315200010904FF0000141EA03039370FB894FEAD32303
S315200010A09BB203F00103DBB2002B02D04FF0010309
S315200010B001E04FF00003184607F11407BD4680BC37
S315200010C0704700BF80B483B000AF0B463A6002463B
S315200010D0FA71BB80F9794EF24832C2F200020B4611
S315200010E04FEAC303C1EB03031344FA791A70F97963
S315200010F04EF24832C2F200020B464FEAC303C1EB5E
S31520001100030313443A794FF0000141EA02025A7070
S315200011107A794FF0000141EA02029A70F8793A682A
S315200011204EF24831C2F2000103464FEAC303C0EB38
S3152000113003030B4402F0FF014FF0000040EA0101D7
S31520001140D9704FEA122101F0FF014FF0000040EA6A
S31520001150010119714FEA124101F0FF014FF0000021
S3152000116040EA010159714FEA12624FF0000141EA4B
S3152000117002029A7107F10C07BD4680BC704700BF7A
S3152000118080B500AF4EF21013C2F200031B689A78A6
S31520001190DB784FEA032343EA02039BB203F1FF31D4
S315200011A04EF24832C2F200020B464FEAC303C1EBAD
S315200011B003031344DA7819794FEA012141EA02023E
S315200011C059794FEA014141EA02029B794FEA0363CA
S315200011D043EA02031A464EF21013C2F200031B68BA
S315200011E01846904780BD00BF90B585B002AF7860A5
S315200011F041F20D33C2F200034FF000004FF0100110
S315200012001A46FFF75FFF41F22133C2F200034FF087
S3152000121001004FF010011A46FFF754FF41F2B13397
S31520001220C2F200034FF002004FF010011A46FFF7FA
S3152000123049FF7868FFF7FAFE0346002B3BD07B6810
S315200012401B791A4644F24023C0F20F0303FB02F334
S315200012501A4644F6D353C1F26203A3FB02134FEAA4
S31520001260931241F28113C2F20003009347F2DC701D
S31520001270C2F2000011464FF000024FF0000302F0C8
S3152000128093FA02464EF21413C2F200031A604EF28B
S315200012901413C2F200031C6801F074FA03464FF0DF
S315200012A00002009220464FF001011A464FF000033B
S315200012B002F0CCFA25E07B689A78DB784FEA0323A4
S315200012C043EA02039BB203F1FF314EF24832C2F2E7
S315200012D000020B464FEAC303C1EB03031344DA783B
S315200012E019794FEA012141EA020259794FEA01416F
S315200012F041EA02029B794FEA036343EA02037868D4
S31520001300984707F10C07BD4690BD00BF80B485B055
S3152000131000AF786007F11407BD4680BC704700BF58
S3152000132090B585B002AF78607B68DB79002B25D03D
S315200013307B689B791A464EF20813C2F2000353F8D3
S3152000134022407B68DB791A464FEA4212C3EB02023F
S315200013504FEA820213444FEAC3039BB21846FFF7B3
S3152000136041FE03464FF00002009220464FF0040152
S315200013701A464FF0000302F069FA14E07B689B7965
S315200013801A464EF20813C2F2000353F822304FF0E9
S315200013900002009218464FF003014FF000024FF072
S315200013A0000302F053FA07F10C07BD4690BD00BFBB
S315200013B080B483B000AF78604EF26433C2F200038B
S315200013C04FF000021A8007F10C07BD4680BC70471B
S315200013D080B483B000AF78607B6803F108031A46B7
S315200013E07B685A607B684FF0FF329A607B6803F116
S315200013F008031A467B68DA607B6803F108031A46FD
S315200014007B681A617B684FF000021A6007F10C07AF
S31520001410BD4680BC704700BF80B483B000AF786003
S315200014207B684FF000021A6107F10C07BD4680BCAD
S31520001430704700BF80B485B000AF786039607B68A4
S315200014405B68FB603B68FA685A60FB689A683B6891
S315200014509A60FB689B683A685A60FB683A689A60AB
S315200014603B687A681A617B681B6803F101027B6816
S315200014701A6007F11407BD4680BC704780B485B05A
S3152000148000AF786039603B681B68FB60FB68B3F18E
S31520001490FF3F03D17B681B69BB600DE07B6803F1CE
S315200014A00803BB6002E0BB685B68BB60BB685B6827
S315200014B01A68FB689A42F6D9BB685A683B685A6034
S315200014C03B685B683A689A603B68BA689A60BB6812
S315200014D03A685A603B687A681A617B681B6803F130
S315200014E001027B681A6007F11407BD4680BC70476D
S315200014F080B485B000AF78607B681B69FB607B6831
S315200015005B687A6892689A607B689B687A6852689A
S315200015105A60FB685A687B689A4203D17B689A684E
S31520001520FB685A607B684FF000021A61FB681B68F3
S3152000153003F1FF32FB681A60FB681B68184607F147
S315200015401407BD4680BC704780B584B000AF786074
S3152000155039607B68BB60BB68002B09D14FF0A003C4
S3152000156083F31188BFF36F8FBFF34F8FFB60FEE7C6
S3152000157003F004F8BB681A68BB68DB6BB968096CB2
S3152000158001FB03F31A44BB685A60BB684FF00002A4
S315200015909A63BB681A68BB689A60BB681A68BB689E
S315200015A0DB6B03F1FF33B968096C01FB03F31A44C3
S315200015B0BB68DA60BB684FF0FF3283F84420BB6813
S315200015C04FF0FF3283F845203B68002B18D1BB68CB
S315200015D01B69002B21D0BB6803F11003184601F0CC
S315200015E00FFB0346002B1AD04EF60453CEF200030F
S315200015F04FF080521A60BFF34F8FBFF36F8F0FE00B
S31520001600BB6803F110031846FFF7E2FEBB6803F13F
S3152000161024031846FFF7DCFE02E000BF00E000BF0F
S3152000162002F0E4FF4FF00103184607F11007BD460C
S3152000163080BD00BF80B58AB002AFF860B96013469E
S31520001640FB71FB68002B09D14FF0A00383F31188AF
S31520001650BFF36F8FBFF34F8FFB61FEE7BB68002B95
S3152000166003D14FF000037B6104E0FB68BA6802FBFC
S3152000167003F37B617B6903F15003184602F02EFCCD
S3152000168003463B613B69002B0BD03B6903F15003BA
S31520001690BB61FB793A690092F868B968BA6900F0CB
S315200016A007F83B69184607F12007BD4680BD00BFF5
S315200016B080B584B000AFF860B9607A60FB70BB6813
S315200016C0002B03D1BA69BB691A6002E07A68BB694C
S315200016D01A60BB69FA68DA63BB69BA681A64B869C2
S315200016E04FF00101FFF730FFBB69FA7883F84C20F1
S315200016F007F11007BD4680BD80B582B000AF786087
S315200017007B68002B14D07B684FF000025A607B6800
S315200017104FF000021A607B684FF00002DA607868AA
S315200017204FF000014FF000024FF0000300F020F8C8
S3152000173007F10807BD4680BD80B586B000AF0346D9
S31520001740FB714FF001033B614FF000037B61FB7996
S31520001750386979691A46FFF76DFF0346FB60F8681A
S31520001760FFF7CAFFFB68184607F11807BD4680BD7C
S3152000177080B58EB000AFF860B9607A603B604FF0FC
S315200017800003FB61FB687B627B6A002B09D14FF06B
S31520001790A00383F31188BFF36F8FBFF34F8FBB6214
S315200017A0FEE7BB68002B03D17B6A1B6C002B02D1A2
S315200017B04FF0010301E04FF00003002B09D14FF059
S315200017C0A00383F31188BFF36F8FBFF34F8FFB62A4
S315200017D0FEE73B68022B03D17B6ADB6B012B02D130
S315200017E04FF0010301E04FF00003002B09D14FF029
S315200017F0A00383F31188BFF36F8FBFF34F8F3B6333
S31520001800FEE701F005FC0346002B02D17B68002B86
S3152000181002D14FF0010301E04FF00003002B0AD163
S315200018204FF0A00383F31188BFF36F8FBFF34F8F61
S315200018307B63FEE700BF02F0A1FE7B6A9A6B7B6AA0
S31520001840DB6B9A4202D33B68022B34D1786AB968A3
S315200018503A6800F07BFA03463B627B6A5B6A002BA0
S3152000186014D07B6A03F12403184601F0C9F9034614
S31520001870002B1AD04EF60453CEF200034FF08052BE
S315200018801A60BFF34F8FBFF36F8F0FE03B6A002BB9
S315200018900CD04EF60453CEF200034FF080521A605D
S315200018A0BFF34F8FBFF36F8F00E000BF02F09EFEA5
S315200018B04FF001036FE07B68002B04D102F096FE07
S315200018C04FF0000367E0FB69002B07D107F11403F3
S315200018D0184601F00DFA4FF00103FB6102F086FE77
S315200018E000F06EFE02F04AFE7B6A93F84430DBB2CB
S315200018F05BB2B3F1FF3F04D17B6A4FF0000283F85D
S3152000190044207B6A93F84530DBB25BB2B3F1FF3FEC
S3152000191004D17B6A4FF0000283F8452002F066FE70
S3152000192007F1140207F104031046194601F004FAE0
S315200019300346002B28D1786A00F018FB0346002BBB
S315200019401CD07B6A03F110027B681046194601F011
S3152000195005F9786A00F09AFA00F044FE0346002B57
S315200019607FF468AF4EF60453CEF200034FF0805258
S315200019701A60BFF34F8FBFF36F8F5CE7786A00F072
S3152000198085FA00F02FFE56E7786A00F07FFA00F01D
S3152000199029FE4FF00003184607F13807BD4680BDE3
S315200019A080B58EB000AFF860B9607A603B60FB68A6
S315200019B0BB61BB69002B09D14FF0A00383F31188CB
S315200019C0BFF36F8FBFF34F8F3B62FEE7BB68002BE1
S315200019D003D1BB691B6C002B02D14FF0010301E040
S315200019E04FF00003002B09D14FF0A00383F3118899
S315200019F0BFF36F8FBFF34F8F7B62FEE73B68022BEF
S31520001A0003D1BB69DB6B012B02D14FF0010301E04F
S31520001A104FF00003002B09D14FF0A00383F3118868
S31520001A20BFF36F8FBFF34F8FBB62FEE702F07AFEE4
S31520001A30EFF311824FF0A00383F31188BFF36F8F6A
S31520001A40BFF34F8F3A63FB623B6B7B61BB699A6B3B
S31520001A50BB69DB6B9A4202D33B68022B34D1BB694C
S31520001A6093F84530FB77B869B9683A6800F06EF9A3
S31520001A7097F91F30B3F1FF3F14D1BB695B6A002B86
S31520001A8019D0BB6903F12403184601F0B9F80346BF
S31520001A90002B12D07B68002B11D07B684FF00102FF
S31520001AA01A600DE0FB7F03F10103DBB21A46BB6926
S31520001AB083F8452004E000BF02E000BF00E000BF3D
S31520001AC04FF001033B6102E04FF000033B617B696D
S31520001AD07B637B6B83F311883B69184607F13807D4
S31520001AE0BD4680BD80B58EB000AFF860B9607A6023
S31520001AF03B604FF00003FB61FB687B627B6A002B37
S31520001B0009D14FF0A00383F31188BFF36F8FBFF382
S31520001B104F8FFB62FEE7BB68002B03D17B6A1B6CF1
S31520001B20002B02D14FF0010301E04FF00003002B00
S31520001B3009D14FF0A00383F31188BFF36F8FBFF352
S31520001B404F8F3B63FEE701F063FA0346002B02D179
S31520001B507B68002B02D14FF0010301E04FF0000318
S31520001B60002B0CD14FF0A00383F31188BFF36F8FA6
S31520001B70BFF34F8F7B63FEE700BF00E000BF02F09C
S31520001B80FDFC7B6A9B6BBB62BB6A002B55D07B6AD4
S31520001B90DB683B62786AB96800F050F93B68002B35
S31520001BA027D1BB6A03F1FF327B6A9A637B6A1B6883
S31520001BB0002B05D101F09CFB03461A467B6A5A602E
S31520001BC07B6A1B69002B30D07B6A03F11003184611
S31520001BD001F016F80346002B29D04EF60453CEF218
S31520001BE000034FF080521A60BFF34F8FBFF36F8F01
S31520001BF01EE07B6A3A6ADA607B6A5B6A002B17D042
S31520001C007B6A03F12403184600F0FAFF0346002BF3
S31520001C100ED04EF60453CEF200034FF080521A60D7
S31520001C20BFF34F8FBFF36F8F02E000BF00E000BF0E
S31520001C3002F0DCFC4FF0010383E07B68002B04D12B
S31520001C4002F0D4FC4FF000037BE0FB69002B07D1A8
S31520001C5007F11403184601F04BF84FF00103FB611E
S31520001C6002F0C4FC00F0ACFC02F088FC7B6A93F81E
S31520001C704430DBB25BB2B3F1FF3F04D17B6A4FF055
S31520001C80000283F844207B6A93F84530DBB25BB2CE
S31520001C90B3F1FF3F04D17B6A4FF0000283F8452061
S31520001CA002F0A4FC07F1140207F1040310461946BA
S31520001CB001F042F80346002B35D1786A00F03CF952
S31520001CC00346002B29D07B6A1B68002B08D102F023
S31520001CD055FC7B6A5B68184601F0BEF902F086FC6B
S31520001CE07B6A03F124027B681046194600F036FF12
S31520001CF0786A00F0CBF800F075FC0346002B7FF4E1
S31520001D003BAF4EF60453CEF200034FF080521A60DA
S31520001D10BFF34F8FBFF36F8F31E7786A00F0B6F8C5
S31520001D2000F060FC2BE7786A00F0B0F800F05AFC6F
S31520001D30786A00F001F90346002B3FF41FAF4FF0FD
S31520001D400003184607F13807BD4680BD80B586B02A
S31520001D5000AFF860B9607A604FF000033B61FB6822
S31520001D609B6B7B61FB681B6C002B0FD1FB681B6890
S31520001D70002B55D1FB685B68184601F013FA034621
S31520001D803B61FB684FF000025A604CE07B68002BF9
S31520001D901AD1FB689A68FB681B6C1046B9681A460C
S31520001DA005F0E6FBFB689A68FB681B6C1A44FB6827
S31520001DB09A60FB689A68FB685B689A4232D3FB6834
S31520001DC01A68FB689A602EE0FB68DA68FB681B6C71
S31520001DD01046B9681A4605F0CBFBFB68DA68FB6843
S31520001DE01B6CC3F100031A44FB68DA60FB68DA68EF
S31520001DF0FB681B689A4208D2FB685A68FB681B6C12
S31520001E00C3F100031A44FB68DA607B68022B0AD10F
S31520001E107B69002B07D07B6903F1FF337B6102E0EE
S31520001E2000BF00E000BF7B6903F10102FB689A63F3
S31520001E303B69184607F11807BD4680BD80B582B0BC
S31520001E4000AF786039607B681B6C002B19D07B68EB
S31520001E50DA687B681B6C1A447B68DA607B68DA6810
S31520001E607B685B689A4203D37B681A687B68DA6072
S31520001E707B68DA687B681B6C386811461A4605F061
S31520001E8077FB07F10807BD4680BD00BF80B584B04B
S31520001E9000AF786002F072FB7B6893F84530BB7325
S31520001EA012E07B685B6A002B13D07B6803F1240366
S31520001EB0184600F0A5FE0346002B01D000F0A4FF33
S31520001EC0BB7B03F1FF33BB7397F90E30002BE8DCA5
S31520001ED000E000BF7B684FF0FF3283F8452002F018
S31520001EE085FB02F04BFB7B6893F84430FB7312E0D2
S31520001EF07B681B69002B13D07B6803F110031846FF
S31520001F0000F07EFE0346002B01D000F07DFFFB7B18
S31520001F1003F1FF33FB7397F90F30002BE8DC00E069
S31520001F2000BF7B684FF0FF3283F8442002F05EFB4F
S31520001F3007F11007BD4680BD80B584B000AF78603C
S31520001F4002F01CFB7B689B6B002B03D14FF0010337
S31520001F50FB6002E04FF00003FB6002F047FBFB68EA
S31520001F60184607F11007BD4680BD00BF80B584B076
S31520001F7000AF786002F002FB7B689A6B7B68DB6BB4
S31520001F809A4203D14FF00103FB6002E04FF00003B9
S31520001F90FB6002F02BFBFB68184607F11007BD46D5
S31520001FA080BD00BF80B586B000AFF860B9607A60AA
S31520001FB0FB687B6102F0E2FA7B6993F84430DBB27E
S31520001FC05BB2B3F1FF3F04D17B694FF0000283F887
S31520001FD044207B6993F84530DBB25BB2B3F1FF3F17
S31520001FE004D17B694FF0000283F8452002F0FEFA07
S31520001FF07B699B6B002B07D17B6903F12403184671
S31520002000B9687A6800F0D0FD7869FFF73FFF07F1DD
S315200020101807BD4680BD00BF80B58CB004AFF86000
S31520002020B9603B601346FB80FB884FEA8303184662
S3152000203001F054FF0346FB61FB69002B10D04FF0E3
S315200020405C0001F04BFF03467B617B69002B03D0CC
S315200020507B69FA691A6306E0F86902F03BF802E048
S315200020604FF000037B617B69002B16D0FB88BA6A90
S315200020700092FA6A01927A6902924FF00002039264
S31520002080F868B9681A463B6800F010F8786900F0DD
S31520002090A3F84FF00103BB6102E04FF0FF33BB61B1
S315200020A0BB69184607F12007BD4680BD80B588B0BC
S315200020B000AFF860B9607A603B603B6B1A6B7B6857
S315200020C04FEA830310464FF0A5011A4605F018FB88
S315200020D03B6B1A6B7B6803F1FF334FEA8303134490
S315200020E07B617B6923F007037B617B6903F0070330
S315200020F0002B09D04FF0A00383F31188BFF36F8F15
S31520002100BFF34F8FFB61FEE74FF00003BB6112E088
S31520002110B969BA68BB6913441A783B6B0B4483F8D8
S315200021203420BA68BB6913441B78002B07D0BB69DF
S3152000213003F10103BB61BB69092BE9D900E000BFAC
S315200021403B6B4FF0000283F83D20BB6A042B02D97B
S315200021504FF00403BB623B6BBA6ADA623B6BBA6A26
S315200021609A643B6B4FF00002DA643B6B03F1040385
S315200021701846FFF751F93B6B03F118031846FFF792
S315200021804BF93B6B3A6B1A61BB6AC3F105023B6B99
S315200021909A613B6B3A6B5A623B6B4FF000021A65B1
S315200021A03B6B4FF000025A653B6B4FF0000283F801
S315200021B058207869F9683A6802F0D8F803461A4632
S315200021C03B6B1A60FB6A002B02D0FB6A3A6B1A60E3
S315200021D007F12007BD4680BD80B582B000AF78608C
S315200021E002F0CCF947F6C413C2F200031B6803F1D0
S315200021F0010247F6C413C2F200031A6047F6EC0345
S31520002200C2F200031B68002B0FD147F6EC03C2F283
S3152000221000037A681A6047F6C413C2F200031B68EB
S31520002220012B1AD100F018FE18E047F6D013C2F29F
S3152000223000031B68002B11D147F6EC03C2F2000302
S315200022401B68DA6A7B68DB6A9A4207D847F6EC0392
S31520002250C2F200037A681A6000E000BF47F6E01376
S31520002260C2F200031B6803F1010247F6E013C2F233
S3152000227000031A6047F6E013C2F200031A687B686F
S315200022801A647B68DB6A4FF0010202FA03F247F612
S31520002290CC13C2F200031B6842EA030247F6CC13B2
S315200022A0C2F200031A607B68DA6A13464FEA830398
S315200022B013444FEA83031A4647F6F003C2F200039B
S315200022C01A447B6803F1040310461946FFF7B2F857
S315200022D002F08CF947F6D013C2F200031B68002BDC
S315200022E014D047F6EC03C2F200031B68DA6A7B6857
S315200022F0DB6A9A420AD24EF60453CEF200034FF01E
S3152000230080521A60BFF34F8FBFF36F8F07F1080714
S31520002310BD4680BD80B584B000AF786002F02EF94E
S315200023207B68002B05D147F6EC03C2F200031B683D
S3152000233000E07B68BB60BB68DB6AFB6002F056F995
S31520002340FB68184607F11007BD4680BD80B588B0EA
S3152000235000AF786039604FF00003BB613B68042B07
S3152000236009D94FF0A00383F31188BFF36F8FBFF312
S315200023704F8FFB61FEE73B68042B02D94FF0040325
S315200023803B6002F0FBF87B68002B05D147F6EC0397
S31520002390C2F200031B6800E07B68FB60FB689B6C55
S315200023A03B613A693B689A4200F0A9803A683B69EA
S315200023B09A4214D947F6EC03C2F200031B68FA6866
S315200023C09A4218D047F6EC03C2F200031B68DA6A79
S315200023D03B689A4211D84FF00103BB610EE047F6E5
S315200023E0EC03C2F200031B68FA689A4206D14FF04A
S315200023F00103BB6102E000BF00E000BFFB68DB6AAF
S315200024007B61FB689A6CFB68DB6A9A4202D1FB68A7
S315200024103A68DA62FB683A689A64FB689B69002B23
S3152000242004DB3B68C3F10502FB689A61FB685969C6
S315200024307A6913464FEA830313444FEA83031A4605
S3152000244047F6F003C2F200031344994202D14FF03B
S31520002450010301E04FF00003002B42D0FB6803F19B
S3152000246004031846FFF744F80346002B12D17B6974
S315200024704FF0010202FA03F36FEA030247F6CC1388
S31520002480C2F200031B6802EA030247F6CC13C2F22B
S3152000249000031A60FB68DB6A4FF0010202FA03F2BE
S315200024A047F6CC13C2F200031B6842EA030247F642
S315200024B0CC13C2F200031A60FB68DA6A13464FEAAD
S315200024C0830313444FEA83031A4647F6F003C2F206
S315200024D000031A44FB6803F1040310461946FEF76D
S315200024E0A9FFBB69002B0AD04EF60453CEF2000397
S315200024F04FF080521A60BFF34F8FBFF36F8F02F0F9
S3152000250075F807F12007BD4680BD00BF80B586B0AF
S3152000251002AF4FF00003009347F6E813C2F2000320
S31520002520019342F62160C2F2000047F2E871C2F23E
S3152000253000014FF050024FF00003FFF76DFD0346F8
S315200025407B607B68012B03D101F0F4F803467B60A6
S315200025507B68012B22D14FF0A00383F31188BFF3B0
S315200025606F8FBFF34F8FBB6047F6E413C2F20003B1
S315200025704FF0FF321A6047F6D013C2F200034FF035
S3152000258001021A6047F6C813C2F200034FF0000298
S315200025901A60FDF7C5FE01F06BFF0DE07B68B3F115
S315200025A0FF3F09D14FF0A00383F31188BFF36F8F4C
S315200025B0BFF34F8FFB60FEE707F11007BD4680BDD6
S315200025C080B400AF47F6EC13C2F200031B6803F198
S315200025D0010247F6EC13C2F200031A60BD4680BC26
S315200025E0704700BF80B584B000AF4FF000033B605A
S315200025F04FF000037B6047F6EC13C2F200031B6822
S31520002600002B09D14FF0A00383F31188BFF36F8FFE
S31520002610BFF34F8FFB60FEE701F0B0FF47F6EC13E8
S31520002620C2F200031B6803F1FF3247F6EC13C2F235
S3152000263000031A6047F6EC13C2F200031B68002B56
S3152000264040F0988047F6C413C2F200031B68002BA3
S3152000265000F090804AE047F68413C2F20003DB685C
S31520002660DB683B603B6803F118031846FEF740FF22
S315200026703B6803F104031846FEF73AFF3B68DB6A22
S315200026804FF0010202FA03F247F6CC13C2F200031E
S315200026901B6842EA030247F6CC13C2F200031A6013
S315200026A03B68DA6A13464FEA830313444FEA8303EF
S315200026B01A4647F6F003C2F200031A443B6803F1B8
S315200026C0040310461946FEF7B5FE3B68DA6A47F65C
S315200026D0EC03C2F200031B68DB6A9A4206D347F674
S315200026E0D813C2F200034FF001021A6047F6841392
S315200026F0C2F200031B68002BADD13B68002B01D032
S3152000270000F058FC47F6D413C2F200031B68BB60E6
S31520002710BB68002B19D000F045F80346002B06D0E5
S3152000272047F6D813C2F200034FF001021A60BB68C5
S3152000273003F1FF33BB60BB68002BECD147F6D41303
S31520002740C2F200034FF000021A6047F6D813C2F215
S3152000275000031B68002B0DD04FF001037B604EF663
S315200027600453CEF200034FF080521A60BFF34F8F0E
S31520002770BFF36F8F01F03AFF7B68184607F1100709
S31520002780BD4680BD80B483B000AF47F6C813C2F201
S3152000279000031B687B607B68184607F10C07BD4663
S315200027A080BC704780B586B000AF4FF00003BB6099
S315200027B047F6EC13C2F200031B68002B40F0DC80C6
S315200027C047F6C813C2F200031B6803F10103FB603E
S315200027D047F6C813C2F20003FA681A60FB68002B9A
S315200027E035D147F67C13C2F200031B681B68002B09
S315200027F009D04FF0A00383F31188BFF36F8FBFF387
S315200028004F8F7B61FEE747F67C13C2F200031B68FD
S315200028103B6147F68013C2F200031A6847F67C1321
S31520002820C2F200031A6047F68013C2F200033A6927
S315200028301A6047F6DC13C2F200031B6803F101029B
S3152000284047F6DC13C2F200031A6000F0B3FB47F62A
S31520002850E413C2F200031B68FA689A4273D300E0BD
S3152000286000BF47F67C13C2F200031B681B68002BCF
S3152000287002D14FF0010301E04FF00003002B07D0F7
S3152000288047F6E413C2F200034FF0FF321A605AE013
S3152000289047F67C13C2F200031B68DB68DB683B60EB
S315200028A03B685B687B60FA687B689A4206D247F68B
S315200028B0E413C2F200037A681A6044E03B6803F12D
S315200028C004031846FEF714FE3B689B6A002B05D0CE
S315200028D03B6803F118031846FEF70AFE3B68DB6ADD
S315200028E04FF0010202FA03F247F6CC13C2F20003BC
S315200028F01B6842EA030247F6CC13C2F200031A60B1
S315200029003B68DA6A13464FEA830313444FEA83038C
S315200029101A4647F6F003C2F200031A443B6803F155
S31520002920040310461946FEF785FD3B68DA6A47F62A
S31520002930EC03C2F200031B68DB6A9A4290D34FF085
S315200029400103BB608DE747F6EC03C2F200031B6868
S31520002950DA6A13464FEA830313444FEA83031A467F
S3152000296047F6F003C2F2000313441B68012B10D96B
S315200029704FF00103BB600DE047F6D413C2F200030B
S315200029801B6803F1010247F6D413C2F200031A6052
S3152000299000E000BF47F6D813C2F200031B68002BE5
S315200029A002D04FF00103BB60BB68184607F1180739
S315200029B0BD4680BD80B588B000AF47F6EC13C2F2A5
S315200029C000031B68002B07D047F6D813C2F200037A
S315200029D04FF001021A60BCE047F6D813C2F200039A
S315200029E04FF000021A60FDF7BFFC024647F6F413CB
S315200029F0C2F200031A6047F6F413C2F200031A6803
S31520002A0047F6F013C2F200031B689A4213D947F621
S31520002A10EC03C2F200031A68116D47F6F413C2F2F2
S31520002A200003186847F6F013C2F200031B68C3EBD5
S31520002A3000030B44136547F6F413C2F200031A6829
S31520002A4047F6F013C2F200031A6047F6EC03C2F20F
S31520002A5000031B681B6B7B604FF0A533BB607B6854
S31520002A601A68BB689A4214D17B6803F104031A687A
S31520002A70BB689A420DD17B6803F108031A68BB68CC
S31520002A809A4206D17B6803F10C031A68BB689A4206
S31520002A900FD047F6EC03C2F200031A6847F6EC03A0
S31520002AA0C2F200031B6803F1340310461946FDF7F2
S31520002AB0C9FC47F6CC13C2F200031B687B617B6915
S31520002AC0B3FA83F3FB76FB7EC3F11F03FB60FA6840
S31520002AD013464FEA830313444FEA83031A4647F605
S31520002AE0F003C2F2000313441B68002B09D14FF0F8
S31520002AF0A00383F31188BFF36F8FBFF34F8FFB6162
S31520002B00FEE7FA6813464FEA830313444FEA83032A
S31520002B101A4647F6F003C2F2000313443B613B69B1
S31520002B205B685A683B695A603B695A683B6903F19E
S31520002B3008039A4204D13B695B685A683B695A602C
S31520002B403B695B68DB681A4647F6EC03C2F2000372
S31520002B501A6007F12007BD4680BD00BF80B584B04E
S31520002B6000AF786039607B68002B09D14FF0A00355
S31520002B7083F31188BFF36F8FBFF34F8FFB60FEE7A0
S31520002B8047F6EC03C2F200031B6803F118037868CA
S31520002B901946FEF773FC38684FF0010100F042FD3C
S31520002BA007F11007BD4680BD80B586B000AFF8603E
S31520002BB0B9607A60FB68002B09D14FF0A00383F33C
S31520002BC01188BFF36F8FBFF34F8F7B61FEE747F608
S31520002BD0EC03C2F200031B6803F11803F8681946D8
S31520002BE0FEF728FC7B68002B02D04FF0FF33BB603A
S31520002BF0B868796800F016FD07F11807BD4680BD54
S31520002C0080B586B000AF78607B68DB68DB68FB60E8
S31520002C10FB68002B09D14FF0A00383F31188BFF383
S31520002C206F8FBFF34F8F7B61FEE7FB6803F11803BD
S31520002C301846FEF75DFC47F6EC13C2F200031B684C
S31520002C40002B2DD1FB6803F104031846FEF750FC38
S31520002C50FB68DB6A4FF0010202FA03F247F6CC1357
S31520002C60C2F200031B6842EA030247F6CC13C2F203
S31520002C7000031A60FB68DA6A13464FEA830313449B
S31520002C804FEA83031A4647F6F003C2F200031A44BA
S31520002C90FB6803F1040310461946FEF7CBFB09E057
S31520002CA0FB6803F1180347F68410C2F200001946A8
S31520002CB0FEF7C0FBFB68DA6A47F6EC03C2F20003B4
S31520002CC01B68DB6A9A420AD94FF001033B6147F63B
S31520002CD0D813C2F200034FF001021A6002E04FF04F
S31520002CE000033B613B69184607F11807BD4680BDC6
S31520002CF080B485B000AF78607B68002B09D14FF097
S31520002D00A00383F31188BFF36F8FBFF34F8FFB6050
S31520002D10FEE747F6DC13C2F200031A687B681A60E6
S31520002D2047F6C813C2F200031A687B685A6007F197
S31520002D301407BD4680BC704780B586B000AF78606A
S31520002D4039607B68002B09D14FF0A00383F31188EB
S31520002D50BFF36F8FBFF34F8F3B61FEE73B68002BBE
S31520002D6009D14FF0A00383F31188BFF36F8FBFF310
S31520002D704F8F7B61FEE701F001FC47F6C813C2F2D4
S31520002D8000031B68FB603B681B68B3F1FF3F03D160
S31520002D904FF00003BB602EE07B681A6847F6DC1311
S31520002DA0C2F200031B689A4208D07B685A68FB6807
S31520002DB09A4203D84FF00103BB601CE07B685B6836
S31520002DC0FA68C3EB02023B681B689A4210D23B6842
S31520002DD01A687B685968FB68C3EB01031A443B6891
S31520002DE01A607868FFF784FF4FF00003BB6002E0AB
S31520002DF04FF00103BB6001F0F9FBBB68184607F1F1
S31520002E001807BD4680BD00BF80B400AF47F6D81373
S31520002E10C2F200034FF001021A60BD4680BC704723
S31520002E2080B582B000AF786000F068F847F6F0030E
S31520002E30C2F200031B68012B0AD94EF60453CEF2C8
S31520002E4000034FF080521A60BFF34F8FBFF36F8F8E
S31520002E50FDF7F2FAE8E700BF80B582B000AF4FF089
S31520002E6000037B6013E07A6813464FEA830313441A
S31520002E704FEA83031A4647F6F003C2F200031344CF
S31520002E801846FEF7A5FA7B6803F101037B607B6891
S31520002E90042BE8D947F65410C2F20000FEF798FA40
S31520002EA047F66810C2F20000FEF792FA47F6841041
S31520002EB0C2F20000FEF78CFA47F69810C2F2000024
S31520002EC0FEF786FA47F6B010C2F20000FEF780FA47
S31520002ED047F67C13C2F2000347F65412C2F20002F0
S31520002EE01A6047F68013C2F2000347F66812C2F250
S31520002EF000021A6007F10807BD4680BD80B582B082
S31520002F0000AF3CE0FFF75CFB47F69813C2F20003E4
S31520002F101B68002B14BF002301233B60FFF762FBD5
S31520002F203B68002B2BD101F029FB47F69813C2F200
S31520002F300003DB68DB687B607B6803F104031846CB
S31520002F40FEF7D6FA47F6C413C2F200031B6803F154
S31520002F50FF3247F6C413C2F200031A6047F6AC13D9
S31520002F60C2F200031B6803F1FF3247F6AC13C2F22C
S31520002F7000031A6001F03AFB786800F00BF847F678
S31520002F80AC13C2F200031B68002BBBD107F1080764
S31520002F90BD4680BD80B582B000AF78607B681B6B74
S31520002FA0184601F097F8786801F094F807F10807B9
S31520002FB0BD4680BD80B483B000AF47F67C13C2F215
S31520002FC000031B681B68002B02D14FF0010301E0B0
S31520002FD04FF00003002B07D047F6E413C2F200039C
S31520002FE04FF0FF321A600EE047F67C13C2F2000360
S31520002FF01B68DB68DB687B607B685A6847F6E413EE
S31520003000C2F200031A6007F10C07BD4680BC704768
S3152000301080B483B000AF47F6D013C2F200031B681A
S31520003020002B03D14FF001037B600DE047F6EC1334
S31520003030C2F200031B68002B03D14FF002037B6012
S3152000304002E04FF000037B607B68184607F10C070F
S31520003050BD4680BC704700BF80B584B000AF7860A5
S315200030607B68FB607B68002B00F09880FB68DA6A3F
S3152000307047F6EC03C2F200031B68DB6A9A4280F033
S315200030808D80FB689B69002B09DB47F6EC03C2F2B7
S3152000309000031B68DB6AC3F10502FB689A61FB68C3
S315200030A05969FB68DA6A13464FEA830313444FEAE9
S315200030B083031A4647F6F003C2F2000313449942EB
S315200030C002D14FF0010301E04FF00003002B5DD049
S315200030D0FB6803F104031846FEF70AFA0346002BA1
S315200030E024D1FB68DA6A13464FEA830313444FEA76
S315200030F083031A4647F6F003C2F2000313441B6803
S31520003100002B13D1FB68DB6A4FF0010202FA03F3AE
S315200031106FEA030247F6CC13C2F200031B6802EAE9
S31520003120030247F6CC13C2F200031A6047F6EC03FB
S31520003130C2F200031B68DA6AFB68DA62FB68DB6AA4
S315200031404FF0010202FA03F247F6CC13C2F2000353
S315200031501B6842EA030247F6CC13C2F200031A6048
S31520003160FB68DA6A13464FEA830313444FEA830364
S315200031701A4647F6F003C2F200031A44FB6803F12D
S31520003180040310461946FEF755F907E047F6EC0307
S31520003190C2F200031B68DA6AFB68DA6207F11007DD
S315200031A0BD4680BD80B586B000AF78607B68BB60C9
S315200031B04FF00003FB607B68002B00F0928047F6FF
S315200031C0EC03C2F200031B68BA689A4209D04FF09A
S315200031D0A00383F31188BFF36F8FBFF34F8F3B613B
S315200031E0FEE7BB68DB6C002B09D14FF0A00383F30D
S315200031F01188BFF36F8FBFF34F8F7B61FEE7BB68EC
S31520003200DB6C03F1FF32BB68DA64BB68DA6ABB6841
S315200032109B6C9A4265D0BB68DB6C002B61D1BB6886
S3152000322003F104031846FEF763F90346002B24D165
S31520003230BB68DA6A13464FEA830313444FEA8303D3
S315200032401A4647F6F003C2F2000313441B68002B0C
S3152000325013D1BB68DB6A4FF0010202FA03F36FEA6F
S31520003260030247F6CC13C2F200031B6802EA0302EC
S3152000327047F6CC13C2F200031A60BB689A6CBB688F
S31520003280DA62BB68DB6AC3F10502BB689A61BB6878
S31520003290DB6A4FF0010202FA03F247F6CC13C2F2C0
S315200032A000031B6842EA030247F6CC13C2F200036E
S315200032B01A60BB68DA6A13464FEA830313444FEA5F
S315200032C083031A4647F6F003C2F200031A44BB688A
S315200032D003F1040310461946FEF7ACF84FF001033C
S315200032E0FB60FB68184607F11807BD4680BD00BF86
S315200032F080B400AF47F6EC03C2F200031B68002B34
S3152000330008D047F6EC03C2F200031B68DA6C02F120
S315200033100102DA6447F6EC03C2F200031B68184682
S31520003320BD4680BC704700BF80B584B000AF7860D2
S31520003330396001F023F947F6EC03C2F200031B685B
S315200033405B6D002B1BD147F6EC03C2F200031B6812
S315200033504FF0010283F858203B68002B0FD03868C5
S315200033604FF0010100F05EF94EF60453CEF2000351
S315200033704FF080521A60BFF34F8FBFF36F8F01F06B
S3152000338035F901F0FBF847F6EC03C2F200031B689F
S315200033905B6DFB60FB68002B14D07B68002B08D08C
S315200033A047F6EC03C2F200031B684FF000025A6591
S315200033B008E047F6EC03C2F200031B68FA6802F144
S315200033C0FF325A6547F6EC03C2F200031B684FF042
S315200033D0000283F8582001F009F9FB68184607F126
S315200033E01007BD4680BD00BF80B586B000AFF8602F
S315200033F0B9607A603B6001F0C1F847F6EC03C2F28F
S3152000340000031B6893F85830DBB2022B27D047F60F
S31520003410EC03C2F200031B68596DFA686FEA0202D8
S3152000342001EA02025A6547F6EC03C2F200031B6862
S315200034304FF0010283F858203B68002B0FD03868E4
S315200034404FF0010100F0EEF84EF60453CEF20003E1
S315200034504FF080521A60BFF34F8FBFF36F8F01F08A
S31520003460C5F801F08BF87B68002B07D047F6EC03F4
S31520003470C2F200031B685A6D7B681A6047F6EC039C
S31520003480C2F200031B6893F85830DBB2012B03D13C
S315200034904FF000037B610EE047F6EC03C2F2000317
S315200034A01B68596DBA686FEA020201EA02025A6580
S315200034B04FF001037B6147F6EC03C2F200031B6861
S315200034C04FF0000283F8582001F090F87B691846E7
S315200034D007F11807BD4680BD80B58AB000AF786079
S315200034E039607B68002B09D14FF0A00383F3118844
S315200034F0BFF36F8FBFF34F8F7B61FEE701F012F9A9
S315200035007B68BB60EFF311824FF0A00383F3118831
S31520003510BFF36F8FBFF34F8FFA61BB61FB693B61CE
S31520003520BB6893F85830FB73BB684FF0020283F8F0
S315200035305820BB685B6D03F10102BB685A65FB7BB3
S31520003540012B65D1BB689B6A002B09D04FF0A003E5
S3152000355083F31188BFF36F8FBFF34F8F3B62FEE774
S3152000356047F6EC13C2F200031B68002B2DD1BB6873
S3152000357003F104031846FDF7BBFFBB68DB6A4FF077
S31520003580010202FA03F247F6CC13C2F200031B68CB
S3152000359042EA030247F6CC13C2F200031A60BB6864
S315200035A0DA6A13464FEA830313444FEA83031A4623
S315200035B047F6F003C2F200031A44BB6803F1040382
S315200035C010461946FDF736FF09E0BB6803F11803DC
S315200035D047F68410C2F200001946FDF72BFFBB68A0
S315200035E0DA6A47F6EC03C2F200031B68DB6A9A42EA
S315200035F00ED93B68002B04D03B684FF001021A60BD
S3152000360006E047F6D813C2F200034FF001021A6013
S315200036103B697B627B6A83F3118807F12807BD46E5
S3152000362080BD00BF80B584B000AF7860396047F6B2
S31520003630C813C2F200031B68FB6047F6EC03C2F214
S3152000364000031B6803F104031846FDF751FF0346E8
S31520003650002B17D147F6EC03C2F200031B68DB6A86
S315200036604FF0010202FA03F36FEA030247F6CC1386
S31520003670C2F200031B6802EA030247F6CC13C2F229
S3152000368000031A607B68B3F1FF3F11D13B68002B22
S315200036900ED047F6EC03C2F200031B6803F10403C5
S315200036A047F6B010C2F200001946FDF7C3FE3DE012
S315200036B0FA687B681344BB6047F6EC03C2F200034A
S315200036C01B68BA685A60BA68FB689A4210D247F6F5
S315200036D08013C2F200031A6847F6EC03C2F2000315
S315200036E01B6803F1040310461946FDF7C7FE1DE0CB
S315200036F047F67C13C2F200031A6847F6EC03C2F2BF
S3152000370000031B6803F1040310461946FDF7B6FEB5
S3152000371047F6E413C2F200031B68BA689A4205D240
S3152000372047F6E413C2F20003BA681A6007F11007DD
S31520003730BD4680BD80B584B002AF4FF000033B602C
S3152000374000F072FB47F62823C2F200031B68002B09
S3152000375017D04FF00203009347F62C23C2F2000342
S31520003760019343F6A510C2F2000047F61801C2F2F3
S3152000377000014FF0A0024FF00003FEF74DFC034678
S315200037803B603B68002B09D14FF0A00383F31188DF
S31520003790BFF36F8FBFF34F8F7B60FEE73B68184602
S315200037A007F10807BD4680BD80B588B002AFF86036
S315200037B0B9607A603B604FF02C0000F08FFB034627
S315200037C07B617B69002B09D03B6A00937B6901935F
S315200037D0F868B9687A683B6800F006F87B6918468D
S315200037E007F11807BD4680BD80B586B000AFF860EA
S315200037F0B9607A603B60BB68002B09D14FF0A0030B
S3152000380083F31188BFF36F8FBFF34F8F7B61FEE782
S315200038107B6A002B16D000F007FB7B6AFA681A60D9
S315200038207B6ABA689A617B6A7A68DA617B6A3A68E7
S315200038301A627B6A3A6A5A627B6A03F10403184663
S31520003840FDF7EAFD07F11807BD4680BD80B58AB0B1
S3152000385000AFF860B9607A603B604FF000033B62CE
S31520003860FB68002B09D14FF0A00383F31188BFF327
S315200038706F8FBFF34F8F7B62FEE747F62823C2F296
S3152000388000031B68002B40D0BB683B617B687B61D3
S31520003890FB68BB61BB68052B27DCFFF7B9FB03463A
S315200038A0022B10D147F62823C2F200031A6807F12B
S315200038B01003104619463A6B4FF00003FDF758FFE8
S315200038C003463B6221E047F62823C2F200031A682A
S315200038D007F11003104619464FF000024FF000037F
S315200038E0FDF746FF03463B620FE047F62823C2F268
S315200038F000031A6807F11003104619463A684FF07C
S315200039000003FEF74DF803463B623B6A184607F173
S315200039102807BD4680BD00BF80B588B002AF78605D
S31520003920396047F62023C2F200031B68DB68DB6898
S315200039303B613B6903F104031846FDF7D9FD3B695A
S31520003940DB69012B26D13B699A697B681344386968
S3152000395019463A687B6800F0DFF80346002B19D039
S315200039604FF00003009338694FF000017A684FF05A
S315200039700003FFF76BFF0346FB60FB68002B09D1B2
S315200039804FF0A00383F31188BFF36F8FBFF34F8FE0
S315200039907B61FEE73B695B6A3869984707F1180740
S315200039A0BD4680BD80B584B000AF786007F10803BE
S315200039B0184600F061F80346FB60BB68F8681946B4
S315200039C000F004F800F0F4F8F0E700BF80B584B00A
S315200039D000AF78603960FEF7F3FD07F1080318465B
S315200039E000F072F80346FB60BB68002B3BD13B68B6
S315200039F0002B0BD17A68FB689A4207D8FEF7F2FDB6
S31520003A007868F968FFF788FF00BF30E03B68002B35
S31520003A100AD047F62423C2F200031B681B68002B3A
S31520003A2014BF002301233B6047F62823C2F200037C
S31520003A301A687968FB68C3EB0103104619463A6891
S31520003A40FEF7B0FAFEF7CEFD0346002B0ED14EF65A
S31520003A500453CEF200034FF080521A60BFF34F8F0B
S31520003A60BFF36F8F03E0FEF7BDFD00E000BF07F157
S31520003A701007BD4680BD00BF80B485B000AF78601A
S31520003A8047F62023C2F200031B681B68002B14BFD5
S31520003A90002201227B681A607B681B68002B08D1F4
S31520003AA047F62023C2F200031B68DB681B68FB6015
S31520003AB002E04FF00003FB60FB68184607F114078D
S31520003AC0BD4680BC704700BF80B584B000AF78602B
S31520003AD0FEF758FE0346FB6047F63023C2F200038A
S31520003AE01B68FA689A4206D200F024F97B684FF0E8
S31520003AF001021A6003E07B684FF000021A6047F665
S31520003B003023C2F20003FA681A60FB68184607F1F0
S31520003B101007BD4680BD00BF80B586B000AFF860F7
S31520003B20B9607A603B604FF000037B61FB68BA683E
S31520003B305A60FB68FA681A61BA687B689A4218D894
S31520003B407A683B68C3EB0202FB689B699A4203D3FF
S31520003B504FF001037B6124E047F62423C2F20003E1
S31520003B601A68FB6803F1040310461946FDF786FC24
S31520003B7017E07A683B689A4207D2BA683B689A424D
S31520003B8003D34FF001037B610BE047F62023C2F2FB
S31520003B9000031A68FB6803F1040310461946FDF773
S31520003BA06DFC7B69184607F11807BD4680BD00BF2E
S31520003BB080B58EB002AFA5E07B68002B1ADA07F13C
S31520003BC0040303F104033B623B6A002B09D14FF047
S31520003BD0A00383F31188BFF36F8FBFF34F8F7B62F0
S31520003BE0FEE73B6A1B683A6A51683A6A9268084659
S31520003BF0114698477B68002BC0F28480FB687B6166
S31520003C007B695B69002B05D07B6903F104031846A9
S31520003C10FDF76EFC3B461846FFF756FF0346FB6151
S31520003C207B68092B6ED801A252F823F0553C002060
S31520003C30553C0020553C0020053D0020BB3C002083
S31520003C40F33C0020553C0020553C0020053D00203B
S31520003C50BB3C0020BA687B699B691A44BB687869BB
S31520003C601146FA69FFF758FF0346002B45D07B69BA
S31520003C705B6A786998477B69DB69012B3FD1BA6813
S31520003C807B699B6913444FF00002009278694FF0DC
S31520003C9000011A464FF00003FFF7D8FD0346BB612B
S31520003CA0BB69002B2DD14FF0A00383F31188BFF3FE
S31520003CB06F8FBFF34F8FBB62FEE7BA687B699A614D
S31520003CC07B699B69002B09D14FF0A00383F31188F0
S31520003CD0BFF36F8FBFF34F8FFB62FEE77B699A6955
S31520003CE0FB69134478691946FA69FB69FFF714FFE3
S31520003CF008E0786900F0EEF904E000BF02E000BFBA
S31520003D0000E000BF47F62823C2F200031A6807F135
S31520003D100403104619464FF000024FF00003FDF74A
S31520003D20E1FE0346002B7FF447AF07F13007BD467F
S31520003D3080BD00BF80B588B002AF53E047F6202390
S31520003D40C2F200031B68DB681B683B6047F6202332
S31520003D50C2F200031B68DB68DB68FB60FB6803F1CB
S31520003D6004031846FDF7C4FBFB685B6AF8689847AE
S31520003D70FB68DB69012B35D1FB689A693B681344E4
S31520003D807B607A683B689A4212D9FB687A685A60E7
S31520003D90FB68FA681A6147F62023C2F200031A6804
S31520003DA0FB6803F1040310461946FDF767FB19E08B
S31520003DB04FF000030093F8684FF000013A684FF087
S31520003DC00003FFF743FD03463B613B69002B09D106
S31520003DD04FF0A00383F31188BFF36F8FBFF34F8F8C
S31520003DE07B61FEE747F62023C2F200031B681B68AF
S31520003DF0002BA3D147F62023C2F200031B68BB6029
S31520003E0047F62423C2F200031A6847F62023C2F29B
S31520003E1000031A6047F62423C2F20003BA681A6028
S31520003E2007F11807BD4680BD80B500AF00F0A6FBA0
S31520003E3047F62823C2F200031B68002B2BD147F636
S31520003E40F810C2F20000FDF7C3FA47F60C20C2F2C2
S31520003E500000FDF7BDFA47F62023C2F2000347F61D
S31520003E60F812C2F200021A6047F62423C2F20003B7
S31520003E7047F60C22C2F200021A604FF005004FF0FE
S31520003E8010014FF00002FDF7D5FB024647F6282326
S31520003E90C2F200031A6000F0A9FB80BD80B586B08F
S31520003EA000AF78607B68FB607B68002B09D14FF000
S31520003EB0A00383F31188BFF36F8FBFF34F8F7B610E
S31520003EC0FEE700F05BFBFB681B6A3B6100F08EFBA4
S31520003ED03B69184607F11807BD4680BD80B58AB0F4
S31520003EE000AF78604FF00003BB61FEF769FB4DF62B
S31520003EF0E433C2F200031B68002B01D100F056F90F
S31520003F004DF6F033C2F200031A687B6802EA030317
S31520003F10002B40F0C2807B68002B21D047F620037F
S31520003F20C2F200031B687A6813447B607B6803F047
S31520003F300703002B14D07B6823F0070303F1080343
S31520003F407B607B6803F00703002B09D04FF0A003AA
S31520003F5083F31188BFF36F8FBFF34F8FFB61FEE7AB
S31520003F607B68002B00F099804DF6E833C2F20003FF
S31520003F701B687A689A4200F290804DF6DC33C2F2D2
S31520003F8000033B614DF6DC33C2F200031B68FB6085
S31520003F9004E0FB683B61FB681B68FB60FB685A68B2
S31520003FA07B689A4203D2FB681B68002BF1D14DF641
S31520003FB0E433C2F200031B68FA689A426DD03B696B
S31520003FC01A6847F62003C2F200031B681344BB613C
S31520003FD0FB681A683B691A60FB685A687B68C3EB02
S31520003FE0020247F62003C2F200031B684FEA43038E
S31520003FF09A421FD9FA687B6813447B617B6903F078
S315200040000703002B09D04FF0A00383F31188BFF3D9
S315200040106F8FBFF34F8F3B62FEE7FB685A687B6862
S31520004020C3EB02027B695A60FB687A685A6078693A
S3152000403000F03EF94DF6E833C2F200031A68FB6839
S315200040405B68C3EB02024DF6E833C2F200031A6046
S315200040504DF6E833C2F200031A684DF6EC33C2F28D
S3152000406000031B689A4209D24DF6E833C2F20003D8
S315200040701A684DF6EC33C2F200031A60FB685A68E0
S315200040804DF6F033C2F200031B6842EA0302FB68D6
S315200040905A60FB684FF000021A60FEF7A3FABB696C
S315200040A0002B01D1FCF7BAF9BB6903F00703002BFB
S315200040B009D04FF0A00383F31188BFF36F8FBFF3AE
S315200040C04F8F7B62FEE7BB69184607F12807BD467E
S315200040D080BD00BF80B586B000AF78607B68BB60CE
S315200040E07B68002B5ED047F62003C2F200031B68D4
S315200040F0C3F10003BA681344BB60BB68FB60FB686E
S315200041005A684DF6F033C2F200031B6802EA030335
S31520004110002B09D14FF0A00383F31188BFF36F8FD3
S31520004120BFF34F8F3B61FEE7FB681B68002B09D06E
S315200041304FF0A00383F31188BFF36F8FBFF34F8F28
S315200041407B61FEE7FB685A684DF6F033C2F2000346
S315200041501B6802EA0303002B24D0FB681B68002B94
S3152000416020D1FB685A684DF6F033C2F200031B6873
S315200041706FEA030302EA0302FB685A60FEF720FA9D
S31520004180FB685A684DF6E833C2F200031B681A44EE
S315200041904DF6E833C2F200031A60F86800F088F89A
S315200041A0FEF720FA07F11807BD4680BD80B485B01A
S315200041B000AF46F2A813FB6047F63423C2F2000391
S315200041C0BB60BB6803F00703002B11D0BB6803F16B
S315200041D00703BB60BB6823F00703BB60FA68BB68B4
S315200041E0C3EB020247F63423C2F200031344FB60FA
S315200041F0BB687B607A684DF6DC33C2F200031A6036
S315200042004DF6DC33C2F200034FF000025A607A68A2
S31520004210FB681344BB6047F62003C2F200031B6809
S31520004220BA68C3EB0203BB60BB6823F00703BB601D
S31520004230BA684DF6E433C2F200031A604DF6E43351
S31520004240C2F200031B684FF000025A604DF6E433B9
S31520004250C2F200031B684FF000021A607B683B60C5
S315200042603B68BA68C3EB02023B685A604DF6E433FA
S31520004270C2F200031A683B681A603B685A684DF61A
S31520004280EC33C2F200031A603B685A684DF6E833F5
S31520004290C2F200031A604DF6F033C2F200034FF06B
S315200042A000421A6007F11407BD4680BC704700BF64
S315200042B080B485B000AF78604DF6DC33C2F20003DF
S315200042C0BB6002E0BB681B68BB60BB681A687B6882
S315200042D09A42F7D3BB68FB60BB685A68FB681A44EE
S315200042E07B689A4208D1BB685A687B685B681A4427
S315200042F0BB685A60BB687B607B68FB607B685A68DA
S31520004300FB681A44BB681B689A421ED1BB681A68B0
S315200043104DF6E433C2F200031B689A420DD07B6847
S315200043205A68BB681B685B681A447B685A60BB681E
S315200043301B681A687B681A600BE04DF6E433C2F2FC
S3152000434000031A687B681A6003E0BB681A687B68FA
S315200043501A60BA687B689A4202D0BB687A681A608B
S3152000436007F11407BD4680BC704700BF80B485B0F6
S3152000437000AFF860B9607A60FB68A3F10403FB60C4
S31520004380FB684FF080721A60FB68A3F10403FB60A0
S31520004390BB6823F00102FB681A60FB68A3F10403E3
S315200043A0FB6044F2D533C2F20003FA681360FB685F
S315200043B0A3F11403FB607A68FB681A60FB68A3F11B
S315200043C02003FB60FB68184607F11407BD4680BC36
S315200043D0704700BF80B483B000AF47F68403C2F2B3
S315200043E000031B68B3F1FF3F09D04FF0A00383F30E
S315200043F01188BFF36F8FBFF34F8F3B60FEE74FF0FF
S31520004400A00383F31188BFF36F8FBFF34F8F7B60B9
S31520004410FEE700BF000000000000000000000000D2
S31520004420074B19680868B0E8F00F80F30988BFF3D6
S315200044306F8F4FF0000080F311884EF00D0E7047FD
S31520004440EC780020AFF30080AFF30080AFF300805C
S3152000445006480068006880F3088862B661B6BFF334
S315200044604F8FBFF36F8F00DF00BF000008ED00E025
S3152000447080B584B000AF4EF20043CEF20003FB605D
S31520004480FB681B78DBB2BB60FB684FF0FF321A700B
S31520004490FB681B78DBB2FB71FB79DBB21A4602F0B4
S315200044A0A0024DF6F433C2F200031A704DF6F8332B
S315200044B0C2F200034FF007021A6011E04DF6F833FE
S315200044C0C2F200031B6803F1FF324DF6F833C2F245
S315200044D000031A60FB79DBB24FEA4303DBB2FB71C0
S315200044E0FB79DBB25BB2002BE8DB4DF6F833C2F288
S315200044F000031B684FEA03224DF6F833C2F200038D
S315200045001A604DF6F833C2F200031B6803F4E0622A
S315200045104DF6F833C2F200031A60BB68DAB2FB68C4
S315200045201A704EF62053CEF200034EF62052CEF2EB
S315200045300002126842F470021A604EF62053CEF240
S3152000454000034EF62052CEF20002126842F070426C
S315200045501A6000F0C7F847F68403C2F200034FF052
S3152000456000021A60FFF774FFFFF734FF4FF00003D5
S31520004570184607F11007BD4680BD00BF80B483B042
S3152000458000AF4FF0A00383F31188BFF36F8FBFF303
S315200045904F8F3B6047F68403C2F200031B6803F18A
S315200045A0010247F68403C2F200031A6047F6840329
S315200045B0C2F200031B68012B12D14EF60453CEF231
S315200045C000031B6803F0FF03002B09D04FF0A00364
S315200045D083F31188BFF36F8FBFF34F8F7B60FEE7A6
S315200045E007F10C07BD4680BC704700BF80B483B07E
S315200045F000AF47F68403C2F200031B68002B09D1E3
S315200046004FF0A00383F31188BFF36F8FBFF34F8F53
S315200046103B60FEE747F68403C2F200031B6803F102
S31520004620FF3247F68403C2F200031A6047F684037A
S31520004630C2F200031B68002B05D14FF000037B60FC
S315200046407B6883F3118807F10C07BD4680BC704751
S31520004650EFF30980BFF36F8F0D4B1A6820E9F00F37
S3152000466010602DE908404FF0A00080F31188FEF776
S31520004670A1F94FF0000080F31188BDE808401968C1
S315200046800868B0E8F00F80F30988BFF36F8F704792
S31520004690EC780020AFF30080AFF30080AFF300800A
S315200046A080B582B000AF4FF0A00383F31188BFF32B
S315200046B06F8FBFF34F8F3B60FEF774F80346002BD6
S315200046C006D04EF60453CEF200034FF080521A6005
S315200046D04FF000037B607B6883F3118807F108079E
S315200046E0BD4680BD80B400AF4EF21403CEF2000367
S315200046F047F6C402C2F20002116844F6D352C1F250
S315200047006202A2FB01024FEA921202F1FF321A6004
S315200047104EF21003CEF200034FF007021A60BD4698
S3152000472080BC704780B485B000AFEFF305833B6053
S315200047303B680F2B1AD947F62403C2F200031A68E6
S315200047403B6813441B78FB714DF6F433C2F2000329
S315200047501B78FA799A4209D24FF0A00383F3118885
S31520004760BFF36F8FBFF34F8FBB60FEE74EF60C5340
S31520004770CEF200031B6803F4E0624DF6F833C2F272
S3152000478000031B689A4209D94FF0A00383F31188CE
S31520004790BFF36F8FBFF34F8FFB60FEE707F1140760
S315200047A0BD4680BC704700BF80B483B000AF0346CF
S315200047B0FB714EF20013CEF2000397F907204FEA61
S315200047C05212F97901F01F014FF0010000FA01F1B0
S315200047D043F8221007F10C07BD4680BC704700BF86
S315200047E080B483B000AF03463960FB7197F9073078
S315200047F0002B10DA4EF60053CEF20003FA7902F0BF
S315200048000F02A2F104013A68D2B24FEA0212D2B2E2
S315200048100B441A760DE04EF20013CEF2000397F900
S3152000482007103A68D2B24FEA0212D2B20B4483F88A
S31520004830002307F10C07BD4680BC704790B589B0B0
S3152000484000AF78604EF27033C2F200031B68184640
S31520004850FDF760FD0346BB614EF28C33C2F20003C6
S315200048601B68002B00F0E8814FF00003BB774FF068
S315200048700003FB774DF6E042C2F200024EF2783397
S31520004880C2F200031A6007F1160107F1140207F1BC
S315200048901203084611461A46FBF70CFE0346BB7761
S315200048A007F10E0107F10C0207F10A03084611462B
S315200048B01A46FBF795FF0346BB774EF27833C2F2D2
S315200048C000031A684EF26433C2F200031B8803F019
S315200048D0FF014FF0000040EA010191734FEA1323D4
S315200048E09BB24FF0000141EA0303D3734EF27833B3
S315200048F0C2F200031A684EF2A433C2F200031B88E8
S3152000490003F0FF014FF0000040EA010111744FEA65
S3152000491013239BB24FF0000141EA030353744EF276
S315200049207833C2F200031B68FA8A02F0FF014FF0C7
S31520004930000040EA010199744FEA122292B24FF028
S31520004940000141EA0202DA744EF27833C2F2000321
S315200049501B68BA8A02F0FF014FF0000040EA01010D
S3152000496019754FEA122292B24FF0000141EA020273
S315200049705A754EF27833C2F200031B687A8A02F027
S31520004980FF014FF0000040EA010199754FEA12221B
S3152000499092B24FF0000141EA0202DA754EF2783304
S315200049A0C2F200031B68FA8902F0FF014FF00000F3
S315200049B040EA010119764FEA122292B24FF0000125
S315200049C041EA02025A764EF27833C2F200031B689D
S315200049D0BA8902F0FF014FF0000040EA0101997602
S315200049E04FEA122292B24FF0000141EA0202DA7631
S315200049F04EF27833C2F200031B687A8902F0FF0177
S31520004A004FF0000040EA010119774FEA122292B2D4
S31520004A104FF0000141EA02025A7707F108031846CF
S31520004A20FCF750F80346BB774EF27833C2F2000308
S31520004A301B683A8902F0FF014FF0000040EA0101AD
S31520004A4099774FEA122292B24FF0000141EA020210
S31520004A50DA774EF27833C2F200031C6807F11103AD
S31520004A604FF040004FF001011A46FCF75FF903466C
S31520004A709BB203F0FF024FF0000141EA020284F8E4
S31520004A8021204FEA13239BB24FF0000242EA030390
S31520004A9084F822307A7CFB7F1344FB774EF27833FE
S31520004AA0C2F200031C6807F111034FF040004FF0DB
S31520004AB002011A46FCF73AF903469BB203F0FF02BD
S31520004AC04FF0000141EA020284F825204FEA132321
S31520004AD09BB24FF0000242EA030384F826307A7C28
S31520004AE0FB7F1344FB774EF27833C2F200031C6837
S31520004AF007F111034FF040004FF003011A46FCF76F
S31520004B0015F903469BB203F0FF024FF0000141EA7C
S31520004B10020284F829204FEA13239BB24FF00002A9
S31520004B2042EA030384F82A307A7CFB7F1344FB771E
S31520004B304EF27833C2F200031C6807F111034FF0DE
S31520004B4040004FF001011A46FCF74EF903469BB28E
S31520004B5003F0FF024FF0000141EA020284F823200D
S31520004B604FEA13239BB24FF0000242EA030384F874
S31520004B7024307A7CFB7F1344FB774EF27833C2F2E3
S31520004B8000031C6807F111034FF040004FF00201AB
S31520004B901A46FCF729F903469BB203F0FF024FF0B1
S31520004BA0000141EA020284F827204FEA13239BB230
S31520004BB04FF0000242EA030384F828307A7CFB7F18
S31520004BC01344FB774EF27833C2F200031C6807F1D8
S31520004BD011034FF040004FF003011A46FCF704F989
S31520004BE003469BB203F0FF024FF0000141EA0202A6
S31520004BF084F82B204FEA13239BB24FF0000242EA9F
S31520004C00030384F82C307A7CFB7F1344FB774DF624
S31520004C10E043C2F200034FF0010283F8FF214EF277
S31520004C207033C2F200031A68BB6903F10103104610
S31520004C301946FDF78BFB26E607F12407BD4690BDF6
S31520004C40B0B584B000AF78604FF00000FDF762FB8E
S31520004C500346BB604EF29833C2F200031B68002B5A
S31520004C604FD04DF60042C2F200024EF2A033C2F2FD
S31520004C7000031A604FF00003FB732EE04EF2A033C0
S31520004C80C2F200031C68FD7BBB7BFA7B4EF2DC2064
S31520004C90C2F200004FF02101FCF706F9034619463F
S31520004CA005F1040201F0FF004FEA420323444FF0CE
S31520004CB0000C4CEA000098714FEA112398B24FEA93
S31520004CC0420323444FF000021146024641EA020203
S31520004CD0DA71FB7B03F10103FB73FB7B062BCDD93A
S31520004CE04DF60043C2F200034FF0020283F8312052
S31520004CF0BB68A3F102034FF000001946FDF726FB1F
S31520004D00B8E707F11007BD46B0BD00BF80B588B033
S31520004D1000AFB96013460246FA73FB71FB7B3B7505
S31520004D20BB68BB61FB793B77F97B4EF2E402C2F2AA
S31520004D3000020B464FEAC3030B444FEA43031344D6
S31520004D4003F110031B88002B11D04EF29C33C2F2C4
S31520004D5000031A6807F11403104619464FF00002A3
S31520004D604FF00003FCF704FD00F026F90EE04EF2AA
S31520004D706833C2F200031A6807F114031046194675
S31520004D804FF000024FF00003FCF7F2FC07F120077A
S31520004D90BD4680BD80B584B000AF78604FF000037B
S31520004DA07B817868FFF77AF80346FB60FB68002B67
S31520004DB07DD14EF27833C2F200031B684FF0000219
S31520004DC042F008021A704FF0000242F001025A70B7
S31520004DD04EF27833C2F200031A687B8903F101038D
S31520004DE07B817B896FEA83436FEA93439BB29BB2B5
S31520004DF04FEA032399B27B8903F101037B817B89E7
S31520004E006FEA83436FEA93439BB29BB24FEA132325
S31520004E109BB241EA03039BB29BB203F0FF014FF022
S31520004E20000040EA010191704FEA13239BB24FF034
S31520004E30000141EA0303D3704EF27833C2F2000335
S31520004E401B684FF000021A714FF0000242F02E024A
S31520004E505A714EF27833C2F200031B684FF00002FB
S31520004E609A714FF00002DA714FF000021A724FF079
S31520004E7000025A724EF27833C2F200031B684FF0DA
S31520004E8000029A724FF00002DA724FF000021A7393
S31520004E904FF000025A734EF27833C2F200031B68B9
S31520004EA04FF0000019464FF02E02FFF72FFFFB6848
S31520004EB0012B7DD14EF2A033C2F200031B684FF0C6
S31520004EC0000242F008021A704FF0000242F002027D
S31520004ED05A704EF2A033C2F200031A687B8903F19E
S31520004EE001037B817B896FEA83436FEA93439BB2FD
S31520004EF09BB24FEA032399B27B8903F101037B819D
S31520004F007B896FEA83436FEA93439BB29BB24FEA56
S31520004F1013239BB241EA03039BB29BB203F0FF012A
S31520004F204FF0000040EA010191704FEA13239BB233
S31520004F304FF0000141EA0303D3704EF2A033C2F2D0
S31520004F4000031B684FF000021A714FF0000242F076
S31520004F501E025A714EF2A033C2F200031B684FF0B4
S31520004F6000029A714FF00002DA714FF000021A72B5
S31520004F704FF000025A724EF2A033C2F200031B68B1
S31520004F804FF000029A724FF00002DA724FF00002E0
S31520004F901A734FF000025A734EF2A033C2F2000386
S31520004FA01B684FF0010019464FF01E02FFF7AEFEB8
S31520004FB007F11007BD4680BD80B586B000AF78608A
S31520004FC04EF29C33C2F200031A6807F10C03104616
S31520004FD019464FF0FF324FF00003FCF783FD3B6983
S31520004FE01A463B7D4EF2EC30C2F2000011461A46BC
S31520004FF000F050FB07F11807BD4680BD80B584B090
S3152000500000AF786007F10C034FF000004FF000016D
S315200050101A464FF0FF33FEF7E7F94FF001004FF045
S315200050200101FEF781F97A684EF21013C2F20003ED
S315200050301A604EF21013C2F200031B681846FBF7E3
S31520005040E9FF0346002B15D04EF21013C2F20003DF
S315200050501B681846FCF7C8F84EF26433C2F2000308
S315200050601B8803F101039AB24EF26433C2F20003A5
S315200050701A80C7E74EF2A433C2F200031B8803F15D
S3152000508001039AB24EF2A433C2F200031A80B9E7A2
S3152000509080B584B000AF786078684DF6A041C2F242
S315200050A000014FF0080200F067FB02464DF6DC4394
S315200050B0C2F200031A604FF00003FB604DF6FC338A
S315200050C0C2F200031A6807F10C0310461946FEF7D0
S315200050D003FAFB68002B0AD04EF60453CEF20003E7
S315200050E04FF080521A60BFF34F8FBFF36F8F07F1D7
S315200050F01007BD4680BD00BF90B58DB002AF4FF002
S3152000510038033B744FF000037B744FF00003BB74ED
S3152000511047F64C02C2F2000207F10C031268114650
S31520005120198003F102034FEA12421A7047F6500221
S31520005130C2F2000207F1080312681146198003F132
S3152000514002034FEA12421A7047F65402C2F20002D4
S3152000515007F1040312681146198003F102034FEA8E
S3152000516012421A704DF6E073C2F200037B6147F6D5
S315200051708803C2F20003BB617A6940F64973C2F222
S31520005180000313607B691B684FF00000B9699847DC
S315200051904EF2DC20C2F2000044F20001C5F200010A
S315200051A04FF021024FF0000300F076FF4DF6E0733A
S315200051B0C2F20003FB6147F6A803C2F200033B627A
S315200051C0FA6940F64973C2F200031360FB691B6853
S315200051D04FF00A00396A98474FF003004FF00C0150
S315200051E04FF00002FCF726FA02464EF29C33C2F23A
S315200051F000031A604FF003004FF00C014FF000023D
S31520005200FCF718FA02464EF26833C2F200031A601F
S315200052104FF000004FF00301FBF724F94FF0010097
S315200052204FF00A01FBF71EF94FF00A00FFF7BCFA10
S315200052304FF00A004FF09F01FFF7D2FA4EF2EC3002
S31520005240C2F200004FF416514FF0030200F0E0F9CD
S315200052504EF2EC30C2F2000045F29101C2F200019A
S315200052604FF0800200F0F6FA4FF00100FCF764FAE6
S3152000527002464EF28833C2F200031A604FF0020350
S3152000528000934EF29433C2F20003019344F63D009C
S31520005290C2F2000047F62801C2F200014FF0500288
S315200052A04DF6E043C2F20003FCF7B6FE02464EF28C
S315200052B08C33C2F200031A604FF0010300934EF2C2
S315200052C07033C2F20003019344F64140C2F200005B
S315200052D047F62C01C2F200014FF050024DF6E04392
S315200052E0C2F20003FCF798FE02464EF29833C2F251
S315200052F000031A604FF0030300934DF6FC33C2F20D
S315200053000003019344F6FD70C2F2000047F6340113
S31520005310C2F200014FF050024DF6A043C2F2000344
S31520005320FCF77AFE4FF0000387F827308EE097F8D7
S3152000533027104EF2E402C2F200020B464FEAC303E4
S315200053400B444FEA4303134403F110031A8842F235
S3152000535010739A4245D097F8274097F827104EF2B7
S31520005360E402C2F200020B464FEAC3030B444FEAA3
S315200053704303134403F110031B881846FBF732FE40
S31520005380024697F827309C4644F69553C2F200030E
S31520005390009347F64000C2F2000011464FF001028A
S315200053A06346FEF701FA02464EF20813C2F20003E4
S315200053B043F8242097F827204EF20813C2F2000360
S315200053C053F82240FDF7DEF903464FF00002009223
S315200053D020464FF001011A464FF00003FEF736FA39
S315200053E02EE097F8274097F827104EF2E402C2F2F3
S315200053F000020B464FEAC3030B444FEA4303134410
S3152000540003F110031B881846FBF7ECFD024697F8BC
S3152000541027309C4644F69553C2F20003009347F684
S315200054204000C2F2000011464FF001026346FEF72B
S31520005430BBF902464EF20813C2F2000343F82420B9
S3152000544097F8273003F1010387F8273097F827309C
S31520005450012B7FF66CAFFDF759F807F12C07BD46F7
S3152000546090BD00BF80B500AF4EF22410C2F20000FE
S3152000547001F038F880BD00BF80B500AF4EF2901025
S31520005480C2F2000001F02EF880BD00BF80B500AF4B
S315200054904DF63440C2F2000001F024F880BD00BF72
S315200054A080B500AF4EF26820C2F2000001F01AF873
S315200054B080BD00BF80B500AF4EF2DC20C2F20000F6
S315200054C001F010F880BD00BF80B500AF4EF2FC1091
S315200054D0C2F2000001F006F880BD00BF80B483B0A0
S315200054E000AF0346FB714EF20013CEF2000397F98C
S315200054F007204FEA5212F97901F01F014FF00100FF
