:020000042000DA
:100000000000012089010020F9010020FB010020EF
:10001000FD010020FF01002001020020000000007F
:10002000000000000000000000000000414200202D
:10003000050200200000000071440020C14400209F
:100040000B0200200D0200200F02002011020020F0
:1000500013020020150200201702002019020020C0
:100060001B0200201D0200208D570020B1570020E8
:100070002302002025020020270200202902002060
:100080002B0200202D0200202F0200203102002030
:100090003302002035020020370200203902002000
:1000A0003B0200203D0200203F02002041020020D0
:1000B00043020020450200204702002049020020A0
:1000C0004B0200204D020020DD520020F1520020A2
:1000D00005530020195300202D53002041530020C8
:1000E0005B0200205D0200205F0200206102002010
:1000F00063020020650200206702002069020020E0
:100100006B0200206D0200206F02002071020020AF
:10011000730200207502002077020020790200207F
:100120007B0200207D0200207F020020810200204F
:10013000830200208502002087020020890200201F
:100140008B0200208D0200208F02002091020020EF
:1001500093020020950200209702002099020020BF
:100160009B0200209D0200209F020020A10200208F
:10017000A3020020A5020020A7020020A90200205F
:10018000AB020020AD0200204948804749480028C2
:100190000BD1494849494A4A884206D091421CBF7E
:1001A00050F8043B41F8043BF8D146484649474AD9
:1001B000884206D091421CBF50F8043B41F8043BF2
:1001C000F8D143484349444A914218BF41F8040BCF
:1001D000FAD1000000000000000000000000000054
:1001E000DFF8F8000FF2030E00474FF000004FF069
:1001F0000001DFF8ECF0FEE7FEE7FEE7FEE7FEE7D2
:10020000FEE7FEE7FEE7FEE7FEE7FEE7FEE7FEE7C6
:10021000FEE7FEE7FEE7FEE7FEE7FEE7FEE7FEE7B6
:10022000FEE7FEE7FEE7FEE7FEE7FEE7FEE7FEE7A6
:10023000FEE7FEE7FEE7FEE7FEE7FEE7FEE7FEE796
:10024000FEE7FEE7FEE7FEE7FEE7FEE7FEE7FEE786
:10025000FEE7FEE7FEE7FEE7FEE7FEE7FEE7FEE776
:10026000FEE7FEE7FEE7FEE7FEE7FEE7FEE7FEE766
:10027000FEE7FEE7FEE7FEE7FEE7FEE7FEE7FEE756
:10028000FEE7FEE7FEE7FEE7FEE7FEE7FEE7FEE746
:10029000FEE7FEE7FEE7FEE7FEE7FEE7FEE7FEE736
:1002A000FEE7FEE7FEE7FEE7FEE7FEE7FEE7704754
:1002B0008D6F0020000000000000002000000020E2
:1002C0000C7700200C7700200C7700206C77002042
:1002D000000000006C77002090E20020997300205D
:1002E0000D040020000000000000000000000000DD
:1002F00047F26C73C2F200031A780AB90120187031
:10030000704700BF47F20C70C2F2000008B50368E6
:100310002BB140F20003C0F2000303B1984708BDBF
:1003200080B400AF4EF6FC53CEF200034EF6FC5202
:10033000CEF20002126842F080721A6041F20403A9
:10034000CEF200034FF000021A6041F20003CEF239
:10035000000341F20002CEF20002126842F00102F4
:100360001A60BD4680BC704780B483B000AF41F2D4
:100370000403CEF200031B687B6047F27073C2F285
:1003800000031B687A689A420BD247F27473C2F278
:1003900000031B6803F1010247F27473C2F2000309
:1003A0001A6047F27073C2F200037A681A6047F26B
:1003B0005073C2F200031A6841F67F53C0F22C4317
:1003C0009A420ED87B684FEA53337B6047F27473CE
:1003D000C2F200031B684FEAC3437A6813447B6090
:1003E0000DE07B684FEA93337B6047F27473C2F28F
:1003F00000031B684FEA83437A6813447B607B6881
:10040000184607F10C07BD4680BC704780B500AFA9
:1004100004F0F2FD4FF00003184680BD80B483B0B5
:1004200000AF4FF0A00383F31188BFF36F8FBFF3CA
:100430004F8F7B60FEE700BF80B400AFBD4680BC3D
:10044000704700BF80B485B000AF786039604FF06E
:10045000A00383F31188BFF36F8FBFF34F8FFB604F
:10046000FEE700BF80B592B004AFF860B9607A6073
:1004700047F25063C2F200031B88BB864FF028038B
:1004800087F830304FF02A0387F82C304FF02C03D8
:1004900087F828304FF0290387F824304FF02B03DA
:1004A00087F820304FF02D033B774FF0000387F89B
:1004B000363007F134034FF0000200924EF2540040
:1004C000C2F200004FF06A011A464FF0020305F035
:1004D00095FD07F118034FF0000200924EF2540010
:1004E000C2F200004FF06A011A464FF0010305F016
:1004F000F7FD4EF25400C2F200004FF0000105F08B
:10050000F9FE034687F8373097F8362097F83730EA
:10051000134487F8363007F1280307F118020092D8
:100520004FF0010201924FF0000202924EF254008D
:10053000C2F200004FF06A011A464FF0010305F0C5
:1005400041FE4EF25400C2F200004FF0000105F0EF
:10055000D1FE034687F8373097F8362097F83730C2
:10056000134487F8363007F11C0307F11402009298
:100570004FF0010201924FF0000202924EF254003D
:10058000C2F200004FF06A011A464FF0010305F075
:1005900019FE4EF25400C2F200004FF0000105F0C7
:1005A000A9FE034687F8373097F8362097F837309A
:1005B000134487F836303B7D4FEA03239AB23B7EE3
:1005C00042EA03039BB29AB27B681A807B681B885D
:1005D000B3F5004F06D97B681B886FEA03039AB214
:1005E0007B681A8007F12C0307F1180200924FF084
:1005F000010201924FF0000202924EF25400C2F248
:1006000000004FF06A011A464FF0010305F0DAFDD1
:100610004EF25400C2F200004FF0000105F06AFEF5
:10062000034687F8373097F8362097F83730134469
:1006300087F8363007F1200307F1140200924FF0DB
:10064000010201924FF0000202924EF25400C2F2F7
:1006500000004FF06A011A464FF0010305F0B2FDA9
:100660004EF25400C2F200004FF0000105F042FECD
:10067000034687F8373097F8362097F83730134419
:1006800087F836303B7D4FEA03239AB23B7E42EA3D
:1006900003039BB29AB2BB681A80BB681B88B3F590
:1006A000004F06D9BB681B886FEA03039AB2BB6888
:1006B0001A8007F1300307F1180200924FF001028F
:1006C00001924FF0000202924EF25400C2F200007A
:1006D0004FF06A011A464FF0010305F073FD4EF228
:1006E0005400C2F200004FF0000105F003FE034683
:1006F00087F8373097F8362097F83730134487F863
:10070000363007F1240307F1140200924FF0010282
:1007100001924FF0000202924EF25400C2F2000029
:100720004FF06A011A464FF0010305F04BFD4EF2FF
:100730005400C2F200004FF0000105F0DBFD03465B
:1007400087F8373097F8362097F83730134487F812
:1007500036303B7D4FEA03239AB23B7E42EA0303E5
:100760009BB29AB2FB681A80FB681B88B3F5004FF6
:1007700006D9FB681B886FEA03039AB2FB681A80EC
:1007800097F83730184607F13807BD4680BD00BFDF
:1007900080B592B004AFF860B9607A6047F24C63FC
:1007A000C2F200031B883B864FF0180387F82C30F9
:1007B0004FF01A0387F828304FF01C0387F82430D5
:1007C0004FF0190387F820304FF01B033B774FF0B1
:1007D0001D033B764FF06A0387F835304FF0000376
:1007E00087F8363097F8352007F1300307F1140108
:1007F00000914FF0010101914FF0000102914EF282
:100800005400C2F2000011461A464FF0020305F0F0
:10081000D9FC4EF25400C2F200004FF0000105F086
:1008200069FD034687F8373097F8362097F8373058
:10083000134487F8363097F8352007F1240307F181
:10084000140100914FF0010101914FF0000102915C
:100850004EF25400C2F2000011461A464FF0010356
:1008600005F0B0FC4EF25400C2F200004FF000015F
:1008700005F040FD034687F8373097F8362097F8A3
:100880003730134487F8363097F8352007F11803CE
:1008900007F1100100914FF0010101914FF00001AB
:1008A00002914EF25400C2F2000011461A464FF077
:1008B000010305F087FC4EF25400C2F200004FF035
:1008C000000105F017FD034687F8373097F836200A
:1008D00097F83730134487F836303B7C4FEA0323D0
:1008E0009AB23B7D42EA03039BB29AB2FB681A803C
:1008F00097F8352007F1280307F1140100914FF014
:10090000010101914FF0000102914EF25400C2F238
:10091000000011461A464FF0010305F053FC4EF259
:100920005400C2F200004FF0000105F0E3FC034662
:1009300087F8373097F8362097F83730134487F820
:10094000363097F8352007F11C0307F110010091AC
:100950004FF0010101914FF0000102914EF254005D
:10096000C2F2000011461A464FF0010305F02AFCBE
:100970004EF25400C2F200004FF0000105F0BAFC44
:10098000034687F8373097F8362097F83730134406
:1009900087F836303B7C4FEA03239AB23B7D42EA2C
:1009A00003039BB29AB2BB681A8097F8352007F10F
:1009B0002C0307F1140100914FF0010101914FF058
:1009C000000102914EF25400C2F2000011461A4694
:1009D0004FF0010305F0F6FB4EF25400C2F20000A6
:1009E0004FF0000105F086FC034687F8373097F892
:1009F000362097F83730134487F8363097F835208B
:100A000007F1200307F1100100914FF0010101915E
:100A10004FF0000102914EF25400C2F20000114664
:100A20001A464FF0010305F0CDFB4EF25400C2F21E
:100A300000004FF0000105F05DFC034687F83730F9
:100A400097F8362097F83730134487F836303B7CD8
:100A50004FEA03239AB23B7D42EA03039BB29AB268
:100A60007B681A8097F83730184607F13807BD467B
:100A700080BD00BF80B58AB004AF78604FF0150329
:100A80003B754FF016033B744FF06A03BB75BA7D9C
:100A900007F1140307F10C0100914FF001010191DE
:100AA0004FF0000102914EF25400C2F200001146D4
:100AB0001A464FF0010305F085FB4EF25400C2F2D6
:100AC00000004FF0000105F015FC0346FB75BA7DF0
:100AD00007F1100307F1080100914FF001010191A6
:100AE0004FF0000102914EF25400C2F20000114694
:100AF0001A464FF0010305F065FB4EF25400C2F2B6
:100B000000004FF0000105F0F5FB0346FB753B7B51
:100B10001A463B7A4FEA03239BB242EA03039BB295
:100B20009AB27B681A804FF00003184607F1180745
:100B3000BD4680BD80B586B002AFB960134602469F
:100B4000FA73FB714DF67873C2F200034FF00002A6
:100B50001A7032E0FB79FA7B4FF0000100914DF6FC
:100B6000C020C2F200001146BA6805F047FA4DF6FF
:100B7000C020C2F200004FF0000105F0BBFB0346AD
:100B80001A464DF67A73C2F200031A704DF67A7364
:100B9000C2F200031B78002B02D14FF0000318E0D3
:100BA0004DF67873C2F200031B7803F10103DAB249
:100BB0004DF67873C2F200031A704DF67873C2F2E4
:100BC00000031B78092BC5D94DF67873C2F20003D8
:100BD0001B78184607F11007BD4680BD80B586B06A
:100BE00002AFB96013460246FA73FB714DF6787393
:100BF000C2F200034FF000021A7032E0FB79FA7B78
:100C00004FF0000100914DF6C020C2F200001146E5
:100C1000BA6805F065FA4DF6C020C2F200004FF048
:100C2000000105F067FB03461A464DF67A73C2F2DF
:100C300000031A704DF67A73C2F200031B78002B82
:100C400002D14FF0000318E04DF67873C2F20003B2
:100C50001B7803F10103DAB24DF67873C2F2000398
:100C60001A704DF67873C2F200031B78092BC5D9B0
:100C70004DF67873C2F200031B78184607F110078F
:100C8000BD4680BD80B582B000AF0B463A600246DB
:100C9000FA71BB71FA7907F10603104619464FF055
:100CA0000102FFF747FF0346092B02D94FF001036A
:100CB0000EE0FB79184639684FF00202FFF78EFF0D
:100CC0000346092B02D94FF0010301E04FF0000366
:100CD000184607F10807BD4680BD00BF80B582B049
:100CE00000AF0B463A600246FA71BB714DF6747361
:100CF000C2F200034FF000021A704DF67473C2F294
:100D000000034FF000025A704DF67673C2F20003F2
:100D10004FF000021A80BB794FEA4303DBB2FA7945
:100D2000104619464DF67472C2F20002FFF7AAFF90
:100D30000346002B1AD14DF67473C2F200031B78E0
:100D40004FEA03239AB24DF67473C2F200035B7844
:100D500042EA03039BB29AB24DF67673C2F20003E5
:100D60001A803B684FF000021A700AE03B684FF0AF
:100D700001021A704DF67673C2F200034FF00002C2
:100D80001A804DF67673C2F200031B88184607F1ED
:100D90000807BD4680BD00BF80B582B000AF0B46DE
:100DA0003A600246FA71BB714DF67473C2F20003E9
:100DB0004FF000021A704DF67473C2F200034FF048
:100DC00000025A704DF67673C2F200034FF0000233
:100DD0001A80BB794FEA4303DBB203F1FF33DBB286
:100DE000FA79104619464DF67472C2F20002FFF706
:100DF00049FF0346002B1AD14DF67473C2F200036B
:100E00001B784FEA03239AB24DF67473C2F20003C3
:100E10005B7842EA03039BB29AB24DF67673C2F254
:100E200000031A803B684FF000021A700AE03B682A
:100E30004FF001021A704DF67673C2F200034FF0C4
:100E400000021A804DF67673C2F200031B88184622
:100E500007F10807BD4680BD80B58CB004AFF860CF
:100E60007B600B46FB721346BB72BB7A3B753B7DC6
:100E700043F00803DBB23B753B7D4FEA0313DBB263
:100E80003B75FA7A07F1140307F1180100914FF04E
:100E9000020101914FF000010291F86811461A46D3
:100EA0004FF0010305F08EF9F8684FF0000105F0EE
:100EB00021FA03467B777B7F002B04D07B684FF0C1
:100EC00001021A7012E03B7E4FEA03239AB27B7E46
:100ED00042EA03039BB2FB83FB8B4FEA03534FEAC7
:100EE0001353FB837B684FF000021A70FB8B18468C
:100EF00007F12007BD4680BD80B584B000AF034632
:100F00003960FB71FB79002B0ED13B68BB60BB687D
:100F10005968BB689A68BB681B7B084611464FF04E
:100F2000880204F0F5FF30E0FB790A2B0ED13B6814
:100F3000FB60FB685968FB689A68FB681B7B084686
:100F400011464FF0880204F0E3FF1EE0FB790B2B03
:100F50001BD14EF25400C2F2000045F20001C5F26E
:100F600000014FF088024FF0000304F0D1FF4DF66E
:100F7000C020C2F2000042F20001C5F200014FF0B1
:100F800088024FF0000304F0C3FF07F11007BD46CD
:100F900080BD00BF80B483B000AF78604FF0010324
:100FA000184607F10C07BD4680BC704780B485B079
:100FB00000AF78607B681A785B784FEA032343EAD6
:100FC00002039BB24FEA03239AB27B6819785B78DD
:100FD0004FEA032343EA01039BB24FEA13239BB278
:100FE00042EA03039BB2FB814EF2B413C2F2000348
:100FF0001A68FB894FEA43534FEA535303F0FF014A
:101000004FF0000040EA010151704FEA13239BB2F8
:101010004FF0000141EA03039370FB894FEAD323A9
:101020009BB203F00103DBB2002B02D04FF00103AF
:1010300001E04FF00003184607F11407BD4680BCDD
:10104000704700BF80B483B000AF0B463A600246E1
:10105000FA71BB80F9794EF2A412C2F200020B467B
:101060004FEAC303C1EB03031344FA791A70F97909
:101070004EF2A412C2F200020B464FEAC303C1EBC8
:10108000030313443A794FF0000141EA02025A7017
:101090007A794FF0000141EA02029A70F9794EF232
:1010A000A412C2F200020B464FEAC303C1EB0303D2
:1010B00013443A784FF0000141EA0202DA707A787C
:1010C0004FF0000141EA02021A71BA784FF00001B4
:1010D00041EA02025A71FA784FF0000141EA020235
:1010E0009A7107F10C07BD4680BC704780B400AF11
:1010F000BD4680BC704700BF90B585B002AF786038
:101100004FF001004FF0020141F21D22C2F2000235
:10111000FFF798FF7868FFF749FF0346002B37D0A9
:101120007B681B794FF47A7202FB03F244F6D353C7
:10113000C1F26203A3FB02134FEA931241F2ED03E3
:10114000C2F20003009347F25460C2F2000011465D
:101150004FF000024FF0000302F05AFA02464EF23E
:10116000A013C2F200031A604EF2A013C2F20003F1
:101170001C6801F03BFA03464FF000020092204643
:101180004FF001011A464FF0000302F093FA40E0DD
:101190007B689A78DB784FEA032343EA02039BB229
:1011A00019464EF2A412C2F200020B464FEAC303E4
:1011B000C1EB03031344DA7819794FEA012141EABC
:1011C000020259794FEA014141EA02029B794FEA52
:1011D000036343EA02039C467B689A78DB784FEA14
:1011E000032343EA02039BB2D9B27B6803F10603EF
:1011F000DAB24EF2B413C2F200031B6858789B783F
:101200004FEA032343EA00039BB2084611461A46FD
:10121000E04707F10C07BD4690BD00BF80B485B024
:1012200000AF13460246FA710A46BA71BB8007F155
:101230001407BD4680BC704780B483B000AF7860AF
:101240007B6803F108031A467B685A607B684FF09D
:10125000FF329A607B6803F108031A467B68DA6004
:101260007B6803F108031A467B681A617B684FF0BC
:1012700000021A6007F10C07BD4680BC704700BF32
:1012800080B483B000AF78607B684FF000021A61D1
:1012900007F10C07BD4680BC704700BF80B485B025
:1012A00000AF786039607B685B68FB603B68FA6818
:1012B0005A60FB689A683B689A60FB689B683A686A
:1012C0005A60FB683A689A603B687A681A617B6882
:1012D0001B6803F101027B681A6007F11407BD4621
:1012E00080BC704780B485B000AF786039603B68DF
:1012F0001B68FB60FB68B3F1FF3F03D17B681B6990
:10130000BB600DE07B6803F10803BB6002E0BB68D3
:101310005B68BB60BB685B681A68FB689A42F6D979
:10132000BB685A683B685A603B685B683A689A6079
:101330003B68BA689A60BB683A685A603B687A68EA
:101340001A617B681B6803F101027B681A6007F170
:101350001407BD4680BC704780B485B000AF78608C
:101360007B681B69FB607B685B687A6892689A603F
:101370007B689B687A6852685A60FB685A687B6829
:101380009A4203D17B689A68FB685A607B684FF089
:1013900000021A61FB681B6803F1FF32FB681A60E8
:1013A000FB681B68184607F11407BD4680BC7047F0
:1013B00080B584B000AF786039607B68BB60BB6883
:1013C000002B09D14FF0A00383F31188BFF36F8F77
:1013D000BFF34F8FFB60FEE702F0E0FFBB681A68C7
:1013E000BB68DB6BB968096C01FB03F31A44BB688B
:1013F0005A60BB684FF000029A63BB681A68BB680A
:101400009A60BB681A68BB68DB6B03F1FF33B9688D
:10141000096C01FB03F31A44BB68DA60BB684FF048
:10142000FF3283F84420BB684FF0FF3283F8452039
:101430003B68002B18D1BB681B69002B21D0BB680F
:1014400003F11003184601F00FFB0346002B1AD0DE
:101450004EF60453CEF200034FF080521A60BFF3F1
:101460004F8FBFF36F8F0FE0BB6803F11003184677
:10147000FFF7E2FEBB6803F124031846FFF7DCFE2A
:1014800002E000BF00E000BF02F0C0FF4FF0010328
:10149000184607F11007BD4680BD00BF80B58AB071
:1014A00002AFF860B9601346FB71FB68002B09D1ED
:1014B0004FF0A00383F31188BFF36F8FBFF34F8FFB
:1014C000FB61FEE7BB68002B03D14FF000037B619B
:1014D00004E0FB68BA6802FB03F37B617B6903F1FC
:1014E0005003184602F00EFC03463B613B69002B9B
:1014F0000BD03B6903F15003BB61FB793A69009261
:10150000F868B968BA6900F007F83B69184607F14E
:101510002007BD4680BD00BF80B584B000AFF86035
:10152000B9607A60FB70BB68002B03D1BA69BB69F4
:101530001A6002E07A68BB691A60BB69FA68DA630C
:10154000BB69BA681A64B8694FF00101FFF730FF50
:10155000BB69FA7883F84C2007F11007BD4680BDBF
:1015600080B582B000AF78607B68002B14D07B68B8
:101570004FF000025A607B684FF000021A607B68EF
:101580004FF00002DA6078684FF000014FF000027F
:101590004FF0000300F020F807F10807BD4680BDBA
:1015A00080B586B000AF0346FB714FF001033B618D
:1015B0004FF000037B61FB79386979691A46FFF7C0
:1015C0006DFF0346FB60F868FFF7CAFFFB6818462B
:1015D00007F11807BD4680BD80B58EB000AFF8603A
:1015E000B9607A603B604FF00003FB61FB687B628F
:1015F0007B6A002B09D14FF0A00383F31188BFF35E
:101600006F8FBFF34F8FBB62FEE7BB68002B03D128
:101610007B6A1B6C002B02D14FF0010301E04FF0FD
:101620000003002B09D14FF0A00383F31188BFF30F
:101630006F8FBFF34F8FFB62FEE73B68022B03D136
:101640007B6ADB6B012B02D14FF0010301E04FF00D
:101650000003002B09D14FF0A00383F31188BFF3DF
:101660006F8FBFF34F8F3B63FEE701F005FC03462E
:10167000002B02D17B68002B02D14FF0010301E067
:101680004FF00003002B0AD14FF0A00383F3118821
:10169000BFF36F8FBFF34F8F7B63FEE700BF02F096
:1016A0007DFE7B6A9A6B7B6ADB6B9A4202D33B6856
:1016B000022B34D1786AB9683A6800F07BFA0346A5
:1016C0003B627B6A5B6A002B14D07B6A03F12403C4
:1016D000184601F0C9F90346002B1AD04EF6045300
:1016E000CEF200034FF080521A60BFF34F8FBFF36A
:1016F0006F8F0FE03B6A002B0CD04EF60453CEF2F6
:1017000000034FF080521A60BFF34F8FBFF36F8F0B
:1017100000E000BF02F07AFE4FF001036FE07B684B
:10172000002B04D102F072FE4FF0000367E0FB696A
:10173000002B07D107F11403184601F00DFA4FF002
:101740000103FB6102F062FE00F06EFE02F026FE75
:101750007B6A93F84430DBB25BB2B3F1FF3F04D154
:101760007B6A4FF0000283F844207B6A93F845308F
:10177000DBB25BB2B3F1FF3F04D17B6A4FF00002F2
:1017800083F8452002F042FE07F1140207F104033A
:101790001046194601F004FA0346002B28D1786A56
:1017A00000F018FB0346002B1CD07B6A03F11002EB
:1017B0007B681046194601F005F9786A00F09AFA3C
:1017C00000F044FE0346002B7FF468AF4EF604534E
:1017D000CEF200034FF080521A60BFF34F8FBFF379
:1017E0006F8F5CE7786A00F085FA00F02FFE56E70D
:1017F000786A00F07FFA00F029FE4FF000031846E7
:1018000007F13807BD4680BD80B58EB000AFF860E7
:10181000B9607A603B60FB68BB61BB69002B09D192
:101820004FF0A00383F31188BFF36F8FBFF34F8F87
:101830003B62FEE7BB68002B03D1BB691B6C002B2E
:1018400002D14FF0010301E04FF00003002B09D15A
:101850004FF0A00383F31188BFF36F8FBFF34F8F57
:101860007B62FEE73B68022B03D1BB69DB6B012B7C
:1018700002D14FF0010301E04FF00003002B09D12A
:101880004FF0A00383F31188BFF36F8FBFF34F8F27
:10189000BB62FEE702F056FEEFF311824FF0A003A9
:1018A00083F31188BFF36F8FBFF34F8F3A63FB62EF
:1018B0003B6B7B61BB699A6BBB69DB6B9A4202D362
:1018C0003B68022B34D1BB6993F84530FB77B8698C
:1018D000B9683A6800F06EF997F91F30B3F1FF3F2D
:1018E00014D1BB695B6A002B19D0BB6903F12403D7
:1018F000184601F0B9F80346002B12D07B68002B84
:1019000011D07B684FF001021A600DE0FB7F03F1FC
:101910000103DBB21A46BB6983F8452004E000BF2F
:1019200002E000BF00E000BF4FF001033B6102E0B6
:101930004FF000033B617B697B637B6B83F3118812
:101940003B69184607F13807BD4680BD80B58EB0AB
:1019500000AFF860B9607A603B604FF00003FB6154
:10196000FB687B627B6A002B09D14FF0A00383F3F5
:101970001188BFF36F8FBFF34F8FFB62FEE7BB6829
:10198000002B03D17B6A1B6C002B02D14FF00103AB
:1019900001E04FF00003002B09D14FF0A00383F3C7
:1019A0001188BFF36F8FBFF34F8F3B63FEE701F0EA
:1019B00063FA0346002B02D17B68002B02D14FF063
:1019C000010301E04FF00003002B0CD14FF0A00306
:1019D00083F31188BFF36F8FBFF34F8F7B63FEE7F5
:1019E00000BF00E000BF02F0D9FC7B6A9B6BBB62CA
:1019F000BB6A002B55D07B6ADB683B62786AB968AA
:101A000000F050F93B68002B27D1BB6A03F1FF328D
:101A10007B6A9A637B6A1B68002B05D101F09CFBF3
:101A200003461A467B6A5A607B6A1B69002B30D0DA
:101A30007B6A03F11003184601F016F80346002BE9
:101A400029D04EF60453CEF200034FF080521A60B4
:101A5000BFF34F8FBFF36F8F1EE07B6A3A6ADA6085
:101A60007B6A5B6A002B17D07B6A03F1240318465C
:101A700000F0FAFF0346002B0ED04EF60453CEF2D0
:101A800000034FF080521A60BFF34F8FBFF36F8F88
:101A900002E000BF00E000BF02F0B8FC4FF001031D
:101AA00083E07B68002B04D102F0B0FC4FF0000310
:101AB0007BE0FB69002B07D107F11403184601F006
:101AC0004BF84FF00103FB6102F0A0FC00F0ACFC0E
:101AD00002F064FC7B6A93F84430DBB25BB2B3F192
:101AE000FF3F04D17B6A4FF0000283F844207B6AF9
:101AF00093F84530DBB25BB2B3F1FF3F04D17B6AB0
:101B00004FF0000283F8452002F080FC07F1140238
:101B100007F104031046194601F042F80346002B72
:101B200035D1786A00F03CF90346002B29D07B6A56
:101B30001B68002B08D102F031FC7B6A5B681846F9
:101B400001F0BEF902F062FC7B6A03F124027B68BB
:101B50001046194600F036FF786A00F0CBF800F026
:101B600075FC0346002B7FF43BAF4EF60453CEF2D8
:101B700000034FF080521A60BFF34F8FBFF36F8F97
:101B800031E7786A00F0B6F800F060FC2BE7786A7D
:101B900000F0B0F800F05AFC786A00F001F9034652
:101BA000002B3FF41FAF4FF00003184607F1380732
:101BB000BD4680BD80B586B000AFF860B9607A6080
:101BC0004FF000033B61FB689B6B7B61FB681B6C08
:101BD000002B0FD1FB681B68002B55D1FB685B689D
:101BE000184601F013FA03463B61FB684FF0000210
:101BF0005A604CE07B68002B1AD1FB689A68FB683E
:101C00001B6C1046B9681A4605F0EEFBFB689A6833
:101C1000FB681B6C1A44FB689A60FB689A68FB6857
:101C20005B689A4232D3FB681A68FB689A602EE0C0
:101C3000FB68DA68FB681B6C1046B9681A4605F049
:101C4000D3FBFB68DA68FB681B6CC3F100031A4422
:101C5000FB68DA60FB68DA68FB681B689A4208D2A6
:101C6000FB685A68FB681B6CC3F100031A44FB68ED
:101C7000DA607B68022B0AD17B69002B07D07B6975
:101C800003F1FF337B6102E000BF00E000BF7B692E
:101C900003F10102FB689A633B69184607F11807D4
:101CA000BD4680BD80B582B000AF786039607B688A
:101CB0001B6C002B19D07B68DA687B681B6C1A449C
:101CC0007B68DA607B68DA687B685B689A4203D37A
:101CD0007B681A687B68DA607B68DA687B681B6CF3
:101CE000386811461A4605F07FFB07F10807BD4624
:101CF00080BD00BF80B584B000AF786002F04EFBBD
:101D00007B6893F84530BB7312E07B685B6A002BFD
:101D100013D07B6803F12403184600F0A5FE0346A8
:101D2000002B01D000F0A4FFBB7B03F1FF33BB739A
:101D300097F90E30002BE8DC00E000BF7B684FF025
:101D4000FF3283F8452002F061FB02F027FB7B683D
:101D500093F84430FB7312E07B681B69002B13D0AF
:101D60007B6803F11003184600F07EFE0346002B4B
:101D700001D000F07DFFFB7B03F1FF33FB7397F98C
:101D80000F30002BE8DC00E000BF7B684FF0FF3233
:101D900083F8442002F03AFB07F11007BD4680BDEE
:101DA00080B584B000AF786002F0F8FA7B689B6B76
:101DB000002B03D14FF00103FB6002E04FF0000362
:101DC000FB6002F023FBFB68184607F11007BD46D5
:101DD00080BD00BF80B584B000AF786002F0DEFA4D
:101DE0007B689A6B7B68DB6B9A4203D14FF00103EF
:101DF000FB6002E04FF00003FB6002F007FBFB68B2
:101E0000184607F11007BD4680BD00BF80B586B0FB
:101E100000AFF860B9607A60FB687B6102F0BEFADF
:101E20007B6993F84430DBB25BB2B3F1FF3F04D17E
:101E30007B694FF0000283F844207B6993F84530BA
:101E4000DBB25BB2B3F1FF3F04D17B694FF000021C
:101E500083F8452002F0DAFA7B699B6B002B07D1EF
:101E60007B6903F124031846B9687A6800F0D0FD55
:101E70007869FFF73FFF07F11807BD4680BD00BF37
:101E800080B58CB004AFF860B9603B601346FB804E
:101E9000FB884FEA8303184601F034FF0346FB61D9
:101EA000FB69002B10D04FF05C0001F02BFF0346C4
:101EB0007B617B69002B03D07B69FA691A6306E0BA
:101EC000F86902F01BF802E04FF000037B617B69C8
:101ED000002B16D0FB88BA6A0092FA6A01927A69DE
:101EE00002924FF000020392F868B9681A463B6804
:101EF00000F010F8786900F0A3F84FF00103BB611F
:101F000002E04FF0FF33BB61BB69184607F12007C1
:101F1000BD4680BD80B588B000AFF860B9607A601A
:101F20003B603B6B1A6B7B684FEA830310464FF0B4
:101F3000A5011A4605F020FB3B6B1A6B7B6803F189
:101F4000FF334FEA830313447B617B6923F007036C
:101F50007B617B6903F00703002B09D04FF0A003DE
:101F600083F31188BFF36F8FBFF34F8FFB61FEE7E1
:101F70004FF00003BB6112E0B969BA68BB69134452
:101F80001A783B6B0B4483F83420BA68BB6913445E
:101F90001B78002B07D0BB6903F10103BB61BB6950
:101FA000092BE9D900E000BF3B6B4FF0000283F83A
:101FB0003D20BB6A042B02D94FF00403BB623B6B8C
:101FC000BA6ADA623B6BBA6A9A643B6B4FF0000202
:101FD000DA643B6B03F104031846FFF751F93B6BDE
:101FE00003F118031846FFF74BF93B6B3A6B1A6184
:101FF000BB6AC3F105023B6B9A613B6B3A6B5A6259
:102000003B6B4FF000021A653B6B4FF000025A65C4
:102010003B6B4FF0000283F858207869F9683A6802
:1020200002F0B8F803461A463B6B1A60FB6A002BB5
:1020300002D0FB6A3A6B1A6007F12007BD4680BDEB
:1020400080B582B000AF786002F0A8F947F650037F
:10205000C2F200031B6803F1010247F65003C2F20B
:1020600000031A6047F27873C2F200031B68002B6A
:102070000FD147F27873C2F200037A681A6047F60C
:102080005003C2F200031B68012B1AD100F018FEA6
:1020900018E047F65C03C2F200031B68002B11D165
:1020A00047F27873C2F200031B68DA6A7B68DB6A66
:1020B0009A4207D847F27873C2F200037A681A602E
:1020C00000E000BF47F66C03C2F200031B6803F197
:1020D000010247F66C03C2F200031A6047F66C0374
:1020E000C2F200031A687B681A647B68DB6A4FF0EF
:1020F000010202FA03F247F65803C2F200031B681A
:1021000042EA030247F65803C2F200031A607B68F2
:10211000DA6A13464FEA830313444FEA83031A46ED
:1021200047F27C73C2F200031A447B6803F1040394
:1021300010461946FFF7B2F802F068F947F65C035B
:10214000C2F200031B68002B14D047F27873C2F26E
:1021500000031B68DA6A7B68DB6A9A420AD24EF691
:102160000453CEF200034FF080521A60BFF34F8F3A
:10217000BFF36F8F07F10807BD4680BD80B584B0FF
:1021800000AF786002F00AF97B68002B05D147F2B6
:102190007873C2F200031B6800E07B68BB60BB6819
:1021A000DB6AFB6002F032F9FB68184607F11007A2
:1021B000BD4680BD80B588B000AF786039604FF013
:1021C0000003BB613B68042B09D94FF0A00383F3E4
:1021D0001188BFF36F8FBFF34F8FFB61FEE73B6842
:1021E000042B02D94FF004033B6002F0D7F87B6860
:1021F000002B05D147F27873C2F200031B6800E0A0
:102200007B68FB60FB689B6C3B613A693B689A4268
:1022100000F0A9803A683B699A4214D947F2787372
:10222000C2F200031B68FA689A4218D047F278732A
:10223000C2F200031B68DA6A3B689A4211D84FF079
:102240000103BB610EE047F27873C2F200031B6822
:10225000FA689A4206D14FF00103BB6102E000BF69
:1022600000E000BFFB68DB6A7B61FB689A6CFB687F
:10227000DB6A9A4202D1FB683A68DA62FB683A6824
:102280009A64FB689B69002B04DB3B68C3F1050281
:10229000FB689A61FB6859697A6913464FEA8303C0
:1022A00013444FEA83031A4647F27C73C2F20003D9
:1022B0001344994202D14FF0010301E04FF00003B3
:1022C000002B42D0FB6803F104031846FFF744F8E3
:1022D0000346002B12D17B694FF0010202FA03F38F
:1022E0006FEA030247F65803C2F200031B6802EAD2
:1022F000030247F65803C2F200031A60FB68DB6A68
:102300004FF0010202FA03F247F65803C2F200034B
:102310001B6842EA030247F65803C2F200031A6040
:10232000FB68DA6A13464FEA830313444FEA8303D8
:102330001A4647F27C73C2F200031A44FB6803F1A9
:10234000040310461946FEF7A9FFBB69002B0AD00B
:102350004EF60453CEF200034FF080521A60BFF3E2
:102360004F8FBFF36F8F02F051F807F12007BD4682
:1023700080BD00BF80B586B002AF4FF00003009370
:1023800047F67403C2F20003019342F68940C2F299
:10239000000047F26061C2F200014FF050024FF0BE
:1023A0000003FFF76DFD03467B607B68012B03D1C3
:1023B00001F0F4F803467B607B68012B22D14FF0DB
:1023C000A00383F31188BFF36F8FBFF34F8FBB6000
:1023D00047F67003C2F200034FF0FF321A6047F66F
:1023E0005C03C2F200034FF001021A6047F6540387
:1023F000C2F200034FF000021A60FDF791FF01F0F6
:1024000047FF0DE07B68B3F1FF3F09D14FF0A00318
:1024100083F31188BFF36F8FBFF34F8FFB60FEE72D
:1024200007F11007BD4680BD80B400AF47F67803C2
:10243000C2F200031B6803F1010247F67803C2F2FF
:1024400000031A60BD4680BC704700BF80B584B0F1
:1024500000AF4FF000033B604FF000037B6047F696
:102460007803C2F200031B68002B09D14FF0A003D0
:1024700083F31188BFF36F8FBFF34F8FFB60FEE7CD
:1024800001F08CFF47F67803C2F200031B6803F1EA
:10249000FF3247F67803C2F200031A6047F678036A
:1024A000C2F200031B68002B40F0988047F65003EF
:1024B000C2F200031B68002B00F090804AE047F650
:1024C0001003C2F20003DB68DB683B603B6803F18A
:1024D00018031846FEF740FF3B6803F10403184653
:1024E000FEF73AFF3B68DB6A4FF0010202FA03F2A3
:1024F00047F65803C2F200031B6842EA030247F69C
:102500005803C2F200031A603B68DA6A13464FEAC6
:10251000830313444FEA83031A4647F27C73C2F2E3
:1025200000031A443B6803F1040310461946FEF702
:10253000B5FE3B68DA6A47F27873C2F200031B68A3
:10254000DB6A9A4206D347F66403C2F200034FF0F7
:1025500001021A6047F61003C2F200031B68002B49
:10256000ADD13B68002B01D000F058FC47F660036A
:10257000C2F200031B68BB60BB68002B19D000F0DF
:1025800045F80346002B06D047F66403C2F2000369
:102590004FF001021A60BB6803F1FF33BB60BB68F8
:1025A000002BECD147F66003C2F200034FF00002AB
:1025B0001A6047F66403C2F200031B68002B0DD0BB
:1025C0004FF001037B604EF60453CEF200034FF050
:1025D00080521A60BFF34F8FBFF36F8F01F016FF69
:1025E0007B68184607F11007BD4680BD80B483B0F4
:1025F00000AF47F65403C2F200031B687B607B68A0
:10260000184607F10C07BD4680BC704780B586B000
:1026100000AF4FF00003BB6047F67803C2F200033F
:102620001B68002B40F0DC8047F65403C2F2000325
:102630001B6803F10103FB6047F65403C2F2000379
:10264000FA681A60FB68002B35D147F60803C2F21E
:1026500000031B681B68002B09D04FF0A00383F315
:102660001188BFF36F8FBFF34F8F7B61FEE747F693
:102670000803C2F200031B683B6147F60C03C2F279
:1026800000031A6847F60803C2F200031A6047F60F
:102690000C03C2F200033A691A6047F66803C2F2FB
:1026A00000031B6803F1010247F66803C2F200034E
:1026B0001A6000F0B3FB47F67003C2F200031B6818
:1026C000FA689A4273D300E000BF47F60803C2F2EB
:1026D00000031B681B68002B02D14FF0010301E0CF
:1026E0004FF00003002B07D047F67003C2F200033F
:1026F0004FF0FF321A605AE047F60803C2F20003B7
:102700001B68DB68DB683B603B685B687B60FA6882
:102710007B689A4206D247F67003C2F200037A68D9
:102720001A6044E03B6803F104031846FEF714FE08
:102730003B689B6A002B05D03B6803F118031846E1
:10274000FEF70AFE3B68DB6A4FF0010202FA03F271
:1027500047F65803C2F200031B6842EA030247F639
:102760005803C2F200031A603B68DA6A13464FEA64
:10277000830313444FEA83031A4647F27C73C2F281
:1027800000031A443B6803F1040310461946FEF7A0
:1027900085FD3B68DA6A47F27873C2F200031B6872
:1027A000DB6A9A4290D34FF00103BB608DE747F29A
:1027B0007873C2F200031B68DA6A13464FEA830398
:1027C00013444FEA83031A4647F27C73C2F20003B4
:1027D00013441B68012B10D94FF00103BB600DE0BF
:1027E00047F66003C2F200031B6803F1010247F6DB
:1027F0006003C2F200031A6000E000BF47F6640302
:10280000C2F200031B68002B02D04FF00103BB6033
:10281000BB68184607F11807BD4680BD80B588B073
:1028200000AF47F67803C2F200031B68002B07D005
:1028300047F66403C2F200034FF001021A60BCE0E5
:1028400047F66403C2F200034FF000021A60FDF77E
:102850008BFD024647F68003C2F200031A6047F67A
:102860008003C2F200031A6847F67C03C2F2000339
:102870001B689A4213D947F27873C2F200031A68B0
:10288000116D47F68003C2F20003186847F67C0317
:10289000C2F200031B68C3EB00030B44136547F649
:1028A0008003C2F200031A6847F67C03C2F20003F9
:1028B0001A6047F27873C2F200031B681B6B7B60DF
:1028C0004FF0A533BB607B681A68BB689A4214D18D
:1028D0007B6803F104031A68BB689A420DD17B68D8
:1028E00003F108031A68BB689A4206D17B6803F1BA
:1028F0000C031A68BB689A420FD047F27873C2F291
:1029000000031A6847F27873C2F200031B6803F1F0
:10291000340310461946FDF795FD47F65803C2F2F9
:1029200000031B687B617B69B3FA83F3FB76FB7E54
:10293000C3F11F03FB60FA6813464FEA8303134495
:102940004FEA83031A4647F27C73C2F20003134432
:102950001B68002B09D14FF0A00383F31188BFF34C
:102960006F8FBFF34F8FFB61FEE7FA6813464FEAA4
:10297000830313444FEA83031A4647F27C73C2F27F
:10298000000313443B613B695B685A683B695A60CA
:102990003B695A683B6903F108039A4204D13B69D9
:1029A0005B685A683B695A603B695B68DB681A463A
:1029B00047F27873C2F200031A6007F12007BD46A0
:1029C00080BD00BF80B584B000AF786039607B689F
:1029D000002B09D14FF0A00383F31188BFF36F8F51
:1029E000BFF34F8FFB60FEE747F27873C2F200033C
:1029F0001B6803F1180378681946FEF773FC386802
:102A00004FF0010100F042FD07F11007BD4680BD07
:102A100080B586B000AFF860B9607A60FB68002BC3
:102A200009D14FF0A00383F31188BFF36F8FBFF379
:102A30004F8F7B61FEE747F27873C2F200031B6899
:102A400003F11803F8681946FEF728FC7B68002B91
:102A500002D04FF0FF33BB60B868796800F016FD14
:102A600007F11807BD4680BD80B586B000AF78601D
:102A70007B68DB68DB68FB60FB68002B09D14FF0EB
:102A8000A00383F31188BFF36F8FBFF34F8F7B6178
:102A9000FEE7FB6803F118031846FEF75DFC47F6F6
:102AA0007803C2F200031B68002B2DD1FB6803F1F1
:102AB00004031846FEF750FCFB68DB6A4FF0010286
:102AC00002FA03F247F65803C2F200031B6842EA17
:102AD000030247F65803C2F200031A60FB68DA6A81
:102AE00013464FEA830313444FEA83031A4647F21F
:102AF0007C73C2F200031A44FB6803F1040310461E
:102B00001946FEF7CBFB09E0FB6803F1180347F613
:102B10001000C2F200001946FEF7C0FBFB68DA6A3B
:102B200047F27873C2F200031B68DB6A9A420AD943
:102B30004FF001033B6147F66403C2F200034FF01C
:102B400001021A6002E04FF000033B613B69184646
:102B500007F11807BD4680BD80B485B000AF78602E
:102B60007B68002B09D14FF0A00383F31188BFF3DA
:102B70006F8FBFF34F8FFB60FEE747F66803C2F22B
:102B800000031A687B681A6047F65403C2F2000318
:102B90001A687B685A6007F11407BD4680BC70470D
:102BA00080B586B000AF786039607B68002B09D1B2
:102BB0004FF0A00383F31188BFF36F8FBFF34F8FE4
:102BC0003B61FEE73B68002B09D14FF0A00383F384
:102BD0001188BFF36F8FBFF34F8F7B61FEE701F06A
:102BE000DDFB47F65403C2F200031B68FB603B6841
:102BF0001B68B3F1FF3F03D14FF00003BB602EE031
:102C00007B681A6847F66803C2F200031B689A42A1
:102C100008D07B685A68FB689A4203D84FF00103DA
:102C2000BB601CE07B685B68FA68C3EB02023B6830
:102C30001B689A4210D23B681A687B685968FB6827
:102C4000C3EB01031A443B681A607868FFF784FFFE
:102C50004FF00003BB6002E04FF00103BB6001F0E6
:102C6000D5FBBB68184607F11807BD4680BD00BFFD
:102C700080B400AF47F66403C2F200034FF00102D4
:102C80001A60BD4680BC704780B582B000AF7860E6
:102C900000F068F847F27C73C2F200031B68012B56
:102CA0000AD94EF60453CEF200034FF080521A6058
:102CB000BFF34F8FBFF36F8FFDF7BEFBE8E700BF99
:102CC00080B582B000AF4FF000037B6013E07A68FC
:102CD00013464FEA830313444FEA83031A4647F22D
:102CE0007C73C2F2000313441846FEF7A5FA7B6812
:102CF00003F101037B607B68042BE8D947F2E070A5
:102D0000C2F20000FEF798FA47F2F470C2F2000037
:102D1000FEF792FA47F61000C2F20000FEF78CFAB6
:102D200047F62400C2F20000FEF786FA47F63C00A0
:102D3000C2F20000FEF780FA47F60803C2F2000371
:102D400047F2E072C2F200021A6047F60C03C2F2C8
:102D5000000347F2F472C2F200021A6007F108079A
:102D6000BD4680BD80B582B000AF3CE0FFF75CFBA4
:102D700047F62403C2F200031B68002B14BF002394
:102D800001233B60FFF762FB3B68002B2BD101F076
:102D900005FB47F62403C2F20003DB68DB687B60B7
:102DA0007B6803F104031846FEF7D6FA47F6500392
:102DB000C2F200031B6803F1FF3247F65003C2F270
:102DC00000031A6047F63803C2F200031B6803F1E0
:102DD000FF3247F63803C2F200031A6001F016FB17
:102DE000786800F00BF847F63803C2F200031B685E
:102DF000002BBBD107F10807BD4680BD80B582B06E
:102E000000AF78607B681B6B184601F077F8786834
:102E100001F074F807F10807BD4680BD80B483B0A7
:102E200000AF47F60803C2F200031B681B68002BC3
:102E300002D14FF0010301E04FF00003002B07D057
:102E400047F67003C2F200034FF0FF321A600EE043
:102E500047F60803C2F200031B68DB68DB687B608F
:102E60007B685A6847F67003C2F200031A6007F1E4
:102E70000C07BD4680BC704780B483B000AF47F6F6
:102E80005C03C2F200031B68002B03D14FF0010367
:102E90007B600DE047F67803C2F200031B68002B4D
:102EA00003D14FF002037B6002E04FF000037B6030
:102EB0007B68184607F10C07BD4680BC704700BF11
:102EC00080B584B000AF78607B68FB607B68002BC6
:102ED00000F09880FB68DA6A47F27873C2F2000368
:102EE0001B68DB6A9A4280F08D80FB689B69002B2F
:102EF00009DB47F27873C2F200031B68DB6AC3F197
:102F00000502FB689A61FB685969FB68DA6A134637
:102F10004FEA830313444FEA83031A4647F27C7354
:102F2000C2F200031344994202D14FF0010301E0C1
:102F30004FF00003002B5DD0FB6803F1040318463B
:102F4000FEF70AFA0346002B24D1FB68DA6A13461F
:102F50004FEA830313444FEA83031A4647F27C7314
:102F6000C2F2000313441B68002B13D1FB68DB6A19
:102F70004FF0010202FA03F36FEA030247F6580327
:102F8000C2F200031B6802EA030247F65803C2F2CA
:102F900000031A6047F27873C2F200031B68DA6A12
:102FA000FB68DA62FB68DB6A4FF0010202FA03F2A7
:102FB00047F65803C2F200031B6842EA030247F6D1
:102FC0005803C2F200031A60FB68DA6A13464FEA3C
:102FD000830313444FEA83031A4647F27C73C2F219
:102FE00000031A44FB6803F1040310461946FEF778
:102FF00055F907E047F27873C2F200031B68DA6AFA
:10300000FB68DA6207F11007BD4680BD80B586B067
:1030100000AF78607B68BB604FF00003FB607B68AB
:10302000002B00F0928047F27873C2F200031B6815
:10303000BA689A4209D04FF0A00383F31188BFF316
:103040006F8FBFF34F8F3B61FEE7BB68DB6C002BDC
:1030500009D14FF0A00383F31188BFF36F8FBFF343
:103060004F8F7B61FEE7BB68DB6C03F1FF32BB680F
:10307000DA64BB68DA6ABB689B6C9A4265D0BB684D
:10308000DB6C002B61D1BB6803F104031846FEF72B
:1030900063F90346002B24D1BB68DA6A13464FEA72
:1030A000830313444FEA83031A4647F27C73C2F248
:1030B000000313441B68002B13D1BB68DB6A4FF07D
:1030C000010202FA03F36FEA030247F65803C2F261
:1030D00000031B6802EA030247F65803C2F200032A
:1030E0001A60BB689A6CBB68DA62BB68DB6AC3F1C2
:1030F0000502BB689A61BB68DB6A4FF0010202FA05
:1031000003F247F65803C2F200031B6842EA0302C7
:1031100047F65803C2F200031A60BB68DA6A134626
:103120004FEA830313444FEA83031A4647F27C7342
:10313000C2F200031A44BB6803F1040310461946A7
:10314000FEF7ACF84FF00103FB60FB68184607F18F
:103150001807BD4680BD00BF80B400AF47F278734A
:10316000C2F200031B68002B08D047F27873C2F24A
:1031700000031B68DA6C02F10102DA6447F278732B
:10318000C2F200031B681846BD4680BC704700BFF2
:1031900080B584B000AF7860396001F0FFF847F285
:1031A0007873C2F200031B685B6D002B1BD147F2E2
:1031B0007873C2F200031B684FF0010283F85820B5
:1031C0003B68002B0FD038684FF0010100F05EF92A
:1031D0004EF60453CEF200034FF080521A60BFF354
:1031E0004F8FBFF36F8F01F011F901F0D7F847F25D
:1031F0007873C2F200031B685B6DFB60FB68002BF9
:1032000014D07B68002B08D047F27873C2F2000319
:103210001B684FF000025A6508E047F27873C2F26B
:1032200000031B68FA6802F1FF325A6547F27873AF
:10323000C2F200031B684FF0000283F8582001F02F
:10324000E5F8FB68184607F11007BD4680BD00BFD2
:1032500080B586B000AFF860B9607A603B6001F07D
:103260009DF847F27873C2F200031B6893F8583058
:10327000DBB2022B27D047F27873C2F200031B683F
:10328000596DFA686FEA020201EA02025A6547F2D2
:103290007873C2F200031B684FF0010283F85820D4
:1032A0003B68002B0FD038684FF0010100F0EEF8BA
:1032B0004EF60453CEF200034FF080521A60BFF373
:1032C0004F8FBFF36F8F01F0A1F801F067F87B68B3
:1032D000002B07D047F27873C2F200031B685A6DC7
:1032E0007B681A6047F27873C2F200031B6893F898
:1032F0005830DBB2012B03D14FF000037B610EE0AD
:1033000047F27873C2F200031B68596DBA686FEA1E
:10331000020201EA02025A654FF001037B6147F2A3
:103320007873C2F200031B684FF0000283F8582044
:1033300001F06CF87B69184607F11807BD4680BD9F
:1033400080B58AB000AF786039607B68002B09D106
:103350004FF0A00383F31188BFF36F8FBFF34F8F3C
:103360007B61FEE701F0EEF87B68BB60EFF3118252
:103370004FF0A00383F31188BFF36F8FBFF34F8F1C
:10338000FA61BB61FB693B61BB6893F85830FB7322
:10339000BB684FF0020283F85820BB685B6D03F1F5
:1033A0000102BB685A65FB7B012B65D1BB689B6A38
:1033B000002B09D04FF0A00383F31188BFF36F8F68
:1033C000BFF34F8F3B62FEE747F67803C2F200037C
:1033D0001B68002B2DD1BB6803F104031846FDF7D1
:1033E000BBFFBB68DB6A4FF0010202FA03F247F64B
:1033F0005803C2F200031B6842EA030247F658036F
:10340000C2F200031A60BB68DA6A13464FEA83030C
:1034100013444FEA83031A4647F27C73C2F2000357
:103420001A44BB6803F1040310461946FDF736FF42
:1034300009E0BB6803F1180347F61000C2F2000070
:103440001946FDF72BFFBB68DA6A47F27873C2F2C0
:1034500000031B68DB6A9A420ED93B68002B04D03C
:103460003B684FF001021A6006E047F66403C2F2BF
:1034700000034FF001021A603B697B627B6A83F3B1
:10348000118807F12807BD4680BD00BF80B584B014
:1034900000AF7860396047F65403C2F200031B683E
:1034A000FB6047F27873C2F200031B6803F1040368
:1034B0001846FDF751FF0346002B17D147F27873EA
:1034C000C2F200031B68DB6A4FF0010202FA03F349
:1034D0006FEA030247F65803C2F200031B6802EAD0
:1034E000030247F65803C2F200031A607B68B3F187
:1034F000FF3F11D13B68002B0ED047F27873C2F228
:1035000000031B6803F1040347F63C00C2F200000D
:103510001946FDF7C3FE3DE0FA687B681344BB60C3
:1035200047F27873C2F200031B68BA685A60BA683F
:10353000FB689A4210D247F60C03C2F200031A68E5
:1035400047F27873C2F200031B6803F104031046CC
:103550001946FDF7C7FE1DE047F60803C2F2000357
:103560001A6847F27873C2F200031B6803F1040380
:1035700010461946FDF7B6FE47F67003C2F2000387
:103580001B68BA689A4205D247F67003C2F200037C
:10359000BA681A6007F11007BD4680BD80B584B0D7
:1035A00002AF4FF000033B6000F072FB47F6B4033C
:1035B000C2F200031B68002B17D04FF002030093E8
:1035C00047F6B803C2F20003019343F60D00C2F2BE
:1035D000000047F29061C2F200014FF0A0024FF0EC
:1035E0000003FEF74DFC03463B603B68002B09D10E
:1035F0004FF0A00383F31188BFF36F8FBFF34F8F9A
:103600007B60FEE73B68184607F10807BD4680BDB2
:1036100080B588B002AFF860B9607A603B604FF067
:103620002C0000F06FFB03467B617B69002B09D007
:103630003B6A00937B690193F868B9687A683B68D4
:1036400000F006F87B69184607F11807BD4680BDF3
:1036500080B586B000AFF860B9607A603B60BB6847
:10366000002B09D14FF0A00383F31188BFF36F8FB4
:10367000BFF34F8F7B61FEE77B6A002B16D000F013
:1036800007FB7B6AFA681A607B6ABA689A617B6A90
:103690007A68DA617B6A3A681A627B6A3A6A5A62C5
:1036A0007B6A03F104031846FDF7EAFD07F11807EA
:1036B000BD4680BD80B58AB000AFF860B9607A6061
:1036C0003B604FF000033B62FB68002B09D14FF0D9
:1036D000A00383F31188BFF36F8FBFF34F8F7B621B
:1036E000FEE747F6B403C2F200031B68002B40D08C
:1036F000BB683B617B687B61FB68BB61BB68052B7A
:1037000027DCFFF7B9FB0346022B10D147F6B403C1
:10371000C2F200031A6807F11003104619463A6B0B
:103720004FF00003FDF758FF03463B6221E047F6E8
:10373000B403C2F200031A6807F1100310461946D9
:103740004FF000024FF00003FDF746FF03463B62D7
:103750000FE047F6B403C2F200031A6807F1100342
:10376000104619463A684FF00003FEF74DF803463D
:103770003B623B6A184607F12807BD4680BD00BF83
:1037800080B588B002AF7860396047F6AC03C2F20A
:1037900000031B68DB68DB683B613B6903F10403E2
:1037A0001846FDF7D9FD3B69DB69012B26D13B6942
:1037B0009A697B681344386919463A687B6800F057
:1037C000DFF80346002B19D04FF00003009338694F
:1037D0004FF000017A684FF00003FFF76BFF0346DC
:1037E000FB60FB68002B09D14FF0A00383F3118825
:1037F000BFF36F8FBFF34F8F7B61FEE73B695B6A5F
:103800003869984707F11807BD4680BD80B584B078
:1038100000AF786007F10803184600F061F803462E
:10382000FB60BB68F868194600F004F800F0F4F893
:10383000F0E700BF80B584B000AF78603960FEF774
:10384000F3FD07F10803184600F072F80346FB6029
:10385000BB68002B3BD13B68002B0BD17A68FB681F
:103860009A4207D8FEF7F2FD7868F968FFF788FFFB
:1038700000BF30E03B68002B0AD047F6B003C2F22D
:1038800000031B681B68002B14BF002301233B604F
:1038900047F6B403C2F200031A687968FB68C3EB09
:1038A0000103104619463A68FEF7B0FAFEF7CEFD5E
:1038B0000346002B0ED14EF60453CEF200034FF018
:1038C00080521A60BFF34F8FBFF36F8F03E0FEF794
:1038D000BDFD00E000BF07F11007BD4680BD00BF81
:1038E00080B485B000AF786047F6AC03C2F2000345
:1038F0001B681B68002B14BF002201227B681A6022
:103900007B681B68002B08D147F6AC03C2F20003AA
:103910001B68DB681B68FB6002E04FF00003FB6084
:10392000FB68184607F11407BD4680BC704700BF0E
:1039300080B584B000AF7860FEF758FE0346FB60A8
:1039400047F6BC03C2F200031B68FA689A4206D22B
:1039500000F024F97B684FF001021A6003E07B68F5
:103960004FF000021A6047F6BC03C2F20003FA6887
:103970001A60FB68184607F11007BD4680BD00BFFE
:1039800080B586B000AFF860B9607A603B604FF0F8
:1039900000037B61FB68BA685A60FB68FA681A61C9
:1039A000BA687B689A4218D87A683B68C3EB02020F
:1039B000FB689B699A4203D34FF001037B6124E0CB
:1039C00047F6B003C2F200031A68FB6803F1040370
:1039D00010461946FDF786FC17E07A683B689A4264
:1039E00007D2BA683B689A4203D34FF001037B6168
:1039F0000BE047F6AC03C2F200031A68FB6803F160
:103A0000040310461946FDF76DFC7B69184607F163
:103A10001807BD4680BD00BF80B58EB002AFA5E0DF
:103A20007B68002B1ADA07F1040303F104033B62FD
:103A30003B6A002B09D14FF0A00383F31188BFF339
:103A40006F8FBFF34F8F7B62FEE73B6A1B683A6A5A
:103A500051683A6A92680846114698477B68002B7D
:103A6000C0F28480FB687B617B695B69002B05D0B9
:103A70007B6903F104031846FDF76EFC3B461846CC
:103A8000FFF756FF0346FB617B68092B6ED801A246
:103A900052F823F0BD3A0020BD3A0020BD3A002084
:103AA0006D3B0020233B00205B3B0020BD3A002003
:103AB000BD3A00206D3B0020233B0020BA687B69A3
:103AC0009B691A44BB6878691146FA69FFF758FF89
:103AD0000346002B45D07B695B6A786998477B6910
:103AE000DB69012B3FD1BA687B699B6913444FF0B6
:103AF0000002009278694FF000011A464FF000036F
:103B0000FFF7D8FD0346BB61BB69002B2DD14FF0F9
:103B1000A00383F31188BFF36F8FBFF34F8FBB6296
:103B2000FEE7BA687B699A617B699B69002B09D1C2
:103B30004FF0A00383F31188BFF36F8FBFF34F8F54
:103B4000FB62FEE77B699A69FB6913447869194651
:103B5000FA69FB69FFF714FF08E0786900F0CEF915
:103B600004E000BF02E000BF00E000BF47F6B4037E
:103B7000C2F200031A6807F10403104619464FF019
:103B800000024FF00003FDF7E1FE0346002B7FF437
:103B900047AF07F13007BD4680BD00BF80B588B094
:103BA00002AF53E047F6AC03C2F200031B68DB68C8
:103BB0001B683B6047F6AC03C2F200031B68DB687E
:103BC000DB68FB60FB6803F104031846FDF7C4FBE8
:103BD000FB685B6AF8689847FB68DB69012B35D1A5
:103BE000FB689A693B6813447B607A683B689A4239
:103BF00012D9FB687A685A60FB68FA681A6147F65E
:103C0000AC03C2F200031A68FB6803F10403104618
:103C10001946FDF767FB19E04FF000030093F868C1
:103C20004FF000013A684FF00003FFF743FD0346F1
:103C30003B613B69002B09D14FF0A00383F311884E
:103C4000BFF36F8FBFF34F8F7B61FEE747F6AC0387
:103C5000C2F200031B681B68002BA3D147F6AC031C
:103C6000C2F200031B68BB6047F6B003C2F2000358
:103C70001A6847F6AC03C2F200031A6047F6B003B5
:103C8000C2F20003BA681A6007F11807BD4680BD8A
:103C900080B500AF00F082FB47F6B403C2F2000328
:103CA0001B68002B2BD147F68400C2F20000FDF701
:103CB000C3FA47F69800C2F20000FDF7BDFA47F6D6
:103CC000AC03C2F2000347F68402C2F200021A609B
:103CD00047F6B003C2F2000347F69802C2F20002B0
:103CE0001A604FF005004FF010014FF00002FDF791
:103CF000D5FB024647F6B403C2F200031A6000F097
:103D000085FB80BD80B58AB000AF78604FF00003BE
:103D1000BB61FEF789FB4DF67023C2F200031B68FE
:103D2000002B01D100F056F94DF67C23C2F20003BE
:103D30001A687B6802EA0303002B40F0C2807B68AC
:103D4000002B21D047F29863C2F200031B687A6807
:103D500013447B607B6803F00703002B14D07B685F
:103D600023F0070303F108037B607B6803F007037C
:103D7000002B09D04FF0A00383F31188BFF36F8F9E
:103D8000BFF34F8FFB61FEE77B68002B00F099804B
:103D90004DF67423C2F200031B687A689A4200F25F
:103DA00090804DF66823C2F200033B614DF6682314
:103DB000C2F200031B68FB6004E0FB683B61FB6828
:103DC0001B68FB60FB685A687B689A4203D2FB68F9
:103DD0001B68002BF1D14DF67023C2F200031B6863
:103DE000FA689A426DD03B691A6847F29863C2F24A
:103DF00000031B681344BB61FB681A683B691A60C7
:103E0000FB685A687B68C3EB020247F29863C2F210
:103E100000031B684FEA43039A421FD9FA687B6884
:103E200013447B617B6903F00703002B09D04FF03B
:103E3000A00383F31188BFF36F8FBFF34F8F3B62F3
:103E4000FEE7FB685A687B68C3EB02027B695A6035
:103E5000FB687A685A60786900F03EF94DF6742381
:103E6000C2F200031A68FB685B68C3EB02024DF6FE
:103E70007423C2F200031A604DF67423C2F20003E9
:103E80001A684DF67823C2F200031B689A4209D2E1
:103E90004DF67423C2F200031A684DF67823C2F27D
:103EA00000031A60FB685A684DF67C23C2F20003D7
:103EB0001B6842EA0302FB685A60FB684FF000028D
:103EC0001A60FEF7C3FABB69002B01D1FCF7A6FA12
:103ED000BB6903F00703002B09D04FF0A00383F365
:103EE0001188BFF36F8FBFF34F8F7B62FEE7BB6913
:103EF000184607F12807BD4680BD00BF80B586B0D3
:103F000000AF78607B68BB607B68002B5ED047F2B7
:103F10009863C2F200031B68C3F10003BA6813443C
:103F2000BB60BB68FB60FB685A684DF67C23C2F23D
:103F300000031B6802EA0303002B09D14FF0A00322
:103F400083F31188BFF36F8FBFF34F8F3B61FEE7A1
:103F5000FB681B68002B09D04FF0A00383F3118886
:103F6000BFF36F8FBFF34F8F7B61FEE7FB685A682B
:103F70004DF67C23C2F200031B6802EA0303002B08
:103F800024D0FB681B68002B20D1FB685A684DF6D3
:103F90007C23C2F200031B686FEA030302EA0302F8
:103FA000FB685A60FEF740FAFB685A684DF67423C6
:103FB000C2F200031B681A444DF67423C2F20003D8
:103FC0001A60F86800F088F8FEF740FA07F1180761
:103FD000BD4680BD80B485B000AF46F2A813FB603B
:103FE00047F6C003C2F20003BB60BB6803F00703DF
:103FF000002B11D0BB6803F10703BB60BB6823F043
:104000000703BB60FA68BB68C3EB020247F6C00354
:10401000C2F200031344FB60BB687B607A684DF614
:104020006823C2F200031A604DF66823C2F200034F
:104030004FF000025A607A68FB681344BB6047F295
:104040009863C2F200031B68BA68C3EB0203BB604B
:10405000BB6823F00703BB60BA684DF67023C2F259
:1040600000031A604DF67023C2F200031B684FF084
:1040700000025A604DF67023C2F200031B684FF035
:1040800000021A607B683B603B68BA68C3EB0202BF
:104090003B685A604DF67023C2F200031A683B6811
:1040A0001A603B685A684DF67823C2F200031A6022
:1040B0003B685A684DF67423C2F200031A604DF64D
:1040C0007C23C2F200034FF000421A6007F114078C
:1040D000BD4680BC704700BF80B485B000AF78603B
:1040E0004DF66823C2F20003BB6002E0BB681B68A8
:1040F000BB60BB681A687B689A42F7D3BB68FB60F9
:10410000BB685A68FB681A447B689A4208D1BB684E
:104110005A687B685B681A44BB685A60BB687B60FE
:104120007B68FB607B685A68FB681A44BB681B6845
:104130009A421ED1BB681A684DF67023C2F2000382
:104140001B689A420DD07B685A68BB681B685B6825
:104150001A447B685A60BB681B681A687B681A60DF
:104160000BE04DF67023C2F200031A687B681A60F8
:1041700003E0BB681A687B681A60BA687B689A4279
:1041800002D0BB687A681A6007F11407BD4680BC8C
:10419000704700BF80B485B000AFF860B9607A6046
:1041A000FB68A3F10403FB60FB684FF080721A60A8
:1041B000FB68A3F10403FB60BB6823F00102FB680A
:1041C0001A60FB68A3F10403FB6044F2FD13C2F222
:1041D0000003FA681360FB68A3F11403FB607A68BC
:1041E000FB681A60FB68A3F12003FB60FB681846BC
:1041F00007F11407BD4680BC704700BF80B483B090
:1042000000AF47F21073C2F200031B68B3F1FF3F27
:1042100009D04FF0A00383F31188BFF36F8FBFF372
:104220004F8F3B60FEE74FF0A00383F31188BFF38D
:104230006F8FBFF34F8F7B60FEE700BF0000000071
:10424000074B19680868B0E8F00F80F30988BFF3DE
:104250006F8F4FF0000080F311884EF00D0E704705
:1042600078770020AFF30080AFF30080AFF30080D9
:1042700006480068006880F3088862B661B6BFF33C
:104280004F8FBFF36F8F00DF00BF000008ED00E02D
:1042900080B584B000AF4EF20043CEF20003FB6065
:1042A000FB681B78DBB2BB60FB684FF0FF321A7013
:1042B000FB681B78DBB2FB71FB79DBB21A4602F0BC
:1042C000A0024DF68023C2F200031A704DF684233B
:1042D000C2F200034FF007021A6011E04DF684238A
:1042E000C2F200031B6803F1FF324DF68423C2F2D1
:1042F00000031A60FB79DBB24FEA4303DBB2FB71C8
:10430000FB79DBB25BB2002BE8DB4DF68423C2F213
:1043100000031B684FEA03224DF68423C2F2000318
:104320001A604DF68423C2F200031B6803F4E062B6
:104330004DF68423C2F200031A60BB68DAB2FB6850
:104340001A704EF62053CEF200034EF62052CEF2F3
:104350000002126842F470021A604EF62053CEF248
:1043600000034EF62052CEF20002126842F0704274
:104370001A6000F0C7F847F21073C2F200034FF062
:1043800000021A60FFF774FFFFF738FF4FF00003D9
:10439000184607F11007BD4680BD00BF80B483B04A
:1043A00000AF4FF0A00383F31188BFF36F8FBFF30B
:1043B0004F8F3B6047F21073C2F200031B6803F19A
:1043C000010247F21073C2F200031A6047F2107341
:1043D000C2F200031B68012B12D14EF60453CEF239
:1043E00000031B6803F0FF03002B09D04FF0A0036C
:1043F00083F31188BFF36F8FBFF34F8F7B60FEE7AE
:1044000007F10C07BD4680BC704700BF80B483B085
:1044100000AF47F21073C2F200031B68002B09D1F2
:104420004FF0A00383F31188BFF36F8FBFF34F8F5B
:104430003B60FEE747F21073C2F200031B6803F112
:10444000FF3247F21073C2F200031A6047F2107392
:10445000C2F200031B68002B05D14FF000037B6004
:104460007B6883F3118807F10C07BD4680BC704759
:10447000EFF30980BFF36F8F0D4B1A6820E9F00F3F
:1044800010602DE908404FF0A00080F31188FEF77E
:10449000C5F94FF0000080F31188BDE808401968A5
:1044A0000868B0E8F00F80F30988BFF36F8F70479A
:1044B00078770020AFF30080AFF30080AFF3008087
:1044C00080B582B000AF4FF0A00383F31188BFF333
:1044D0006F8FBFF34F8F3B60FEF798F80346002BBA
:1044E00006D04EF60453CEF200034FF080521A600D
:1044F0004FF000037B607B6883F3118807F10807A6
:10450000BD4680BD80B400AF4EF21403CEF200036E
:1045100047F25072C2F20002116844F6D352C1F25F
:104520006202A2FB01024FEA921202F1FF321A600C
:104530004EF21003CEF200034FF007021A60BD46A0
:1045400080BC704780B485B000AFEFF305833B605B
:104550003B680F2B1AD947F29C63C2F200031A681A
:104560003B6813441B78FB714DF68023C2F20003B5
:104570001B78FA799A4209D24FF0A00383F311888D
:10458000BFF36F8FBFF34F8FBB60FEE74EF60C5348
:10459000CEF200031B6803F4E0624DF68423C2F2FE
:1045A00000031B689A4209D94FF0A00383F31188D6
:1045B000BFF36F8FBFF34F8FFB60FEE707F1140768
:1045C000BD4680BC704700BF80B483B000AF0346D7
:1045D000FB714EF20013CEF2000397F907204FEA69
:1045E0005212F97901F01F014FF0010000FA01F1B8
:1045F00043F8221007F10C07BD4680BC704700BF8E
:1046000080B483B000AF03463960FB7197F907307F
:10461000002B10DA4EF60053CEF20003FA7902F0C6
:104620000F02A2F104013A68D2B24FEA0212D2B2EA
:104630000B441A760DE04EF20013CEF2000397F908
:1046400007103A68D2B24FEA0212D2B20B4483F892
:10465000002307F10C07BD4680BC704790B589B0B8
:1046600000AF78604EF2C813C2F200031B68184610
:10467000FDF784FD0346BB614EF2E813C2F200036E
:104680001B68002B00F0EA814FF00003BB774FF06E
:104690000003FB774DF66C32C2F200024EF2D013EB
:1046A000C2F200031A6007F1160107F1140207F1C4
:1046B0001203084611461A46FBF7D4FE0346BB77A1
:1046C00007F10E0107F10C0207F10A030846114633
:1046D0001A46FCF75DF80346BB774EF2D013C2F2E0
:1046E00000031A684EF2C013C2F200031B889BB28B
:1046F00003F0FF014FF0000040EA010191734FEA1F
:1047000013239BB24FF0000141EA0303D3734EF22F
:10471000D013C2F200031A684EF20423C2F200035F
:104720001B889BB203F0FF014FF0000040EA01013B
:1047300011744FEA13239BB24FF0000141EA0303C7
:1047400053744EF2D013C2F200031B68FA8A02F0CF
:10475000FF014FF0000040EA010199744FEA122274
:1047600092B24FF0000141EA0202DA744EF2D01325
:10477000C2F200031B68BA8A02F0FF014FF000008A
:1047800040EA010119754FEA122292B24FF000017E
:1047900041EA02025A754EF2D013C2F200031B68BE
:1047A0007A8A02F0FF014FF0000040EA010199759A
:1047B0004FEA122292B24FF0000141EA0202DA758A
:1047C0004EF2D013C2F200031B68FA8902F0FF0117
:1047D0004FF0000040EA010119764FEA122292B22E
:1047E0004FF0000141EA02025A764EF2D013C2F2B3
:1047F00000031B68BA8902F0FF014FF0000040EA95
:10480000010199764FEA122292B24FF0000141EA7B
:104810000202DA764EF2D013C2F200031B687A89E4
:1048200002F0FF014FF0000040EA010119774FEA62
:10483000122292B24FF0000141EA02025A7707F1C8
:1048400008031846FCF716F90346BB774EF2D0135F
:10485000C2F200031B683A8902F0FF014FF000002A
:1048600040EA010199774FEA122292B24FF000011B
:1048700041EA0202DA774EF2D013C2F200031C685A
:1048800007F111034FF040004FF001011A46FCF709
:1048900025FA03469BB203F0FF024FF0000141EA04
:1048A000020284F821204FEA13239BB24FF000024A
:1048B00042EA030384F822307A7CFB7F1344FB77BF
:1048C0004EF2D013C2F200031C6807F111034FF03F
:1048D00040004FF002011A46FCF700FA03469BB273
:1048E00003F0FF024FF0000141EA020284F82520A4
:1048F0004FEA13239BB24FF0000242EA030384F80D
:1049000026307A7CFB7F1344FB774EF2D013C2F241
:1049100000031C6807F111034FF040004FF0030142
:104920001A46FCF7DBF903469BB203F0FF024FF097
:10493000000141EA020284F829204FEA13239BB2C6
:104940004FF0000242EA030384F82A307A7CFB7FAE
:104950001344FB774EF2D013C2F200031C6807F138
:1049600011034FF040004FF001011A46FCF714FA12
:1049700003469BB203F0FF024FF0000141EA02023E
:1049800084F823204FEA13239BB24FF0000242EA3F
:10499000030384F824307A7CFB7F1344FB774EF2C8
:1049A000D013C2F200031C6807F111034FF040005E
:1049B0004FF002011A46FCF7EFF903469BB203F0F1
:1049C000FF024FF0000141EA020284F827204FEA7B
:1049D00013239BB24FF0000242EA030384F828300D
:1049E0007A7CFB7F1344FB774EF2D013C2F20003B4
:1049F0001C6807F111034FF040004FF003011A4605
:104A0000FCF7CAF903469BB203F0FF024FF0000126
:104A100041EA020284F82B204FEA13239BB24FF0A5
:104A2000000242EA030384F82C307A7CFB7F1344B3
:104A3000FB774DF66C33C2F200034FF0010283F8AE
:104A4000FF214EF2C813C2F200031A68BB6903F1DA
:104A5000010310461946FDF7ADFB24E607F12407D4
:104A6000BD4690BDB0B584B000AF78604FF0000097
:104A7000FDF784FB0346BB604EF2F813C2F200035D
:104A80001B68002B4FD04DF68C22C2F200024EF272
:104A90000023C2F200031A604FF00003FB732EE004
:104AA0004EF20023C2F200031C68FD7BBB7BFA7B45
:104AB0004EF23410C2F200004FF02101FCF7CCF9A5
:104AC0000346194605F1040201F0FF004FEA4203D4
:104AD00023444FF0000C4CEA000098714FEA112378
:104AE00098B24FEA420323444FF0000211460246B7
:104AF00041EA0202DA71FB7B03F10103FB73FB7BEA
:104B0000062BCDD94DF68C23C2F200034FF00202E2
:104B100083F83120BB68A3F102034FF0000019466F
:104B2000FDF748FBB8E707F11007BD46B0BD00BF71
:104B300080B58AB000AFB96013460246FA73FB71C4
:104B4000FA7B13464FEA430313444FEA830307F10A
:104B500028021344A3F11803FA7B1A70FA7B134658
:104B60004FEA430313444FEA830307F12802134437
:104B7000A3F11803BA685A60FA7B13464FEA43035D
:104B800013444FEA830307F128021344A3F11003EF
:104B9000FA791A704EF2FC13C2F200031A6807F198
:104BA0001003104619464FF000024FF00003FCF7C7
:104BB00013FD07F12807BD4680BD00BF80B584B056
:104BC00000AF78604FF00003FB814DF66C33C2F20A
:104BD000000393F8FF31012B40F088804EF2D01390
:104BE000C2F200031B684FF0000242F008021A7084
:104BF0004FF0000242F001025A704EF2D013C2F29E
:104C000000031A68FB8903F10103FB81FB896FEA4A
:104C100083436FEA93439BB29BB24FEA032399B25B
:104C2000FB8903F10103FB81FB896FEA83436FEA90
:104C300093439BB29BB24FEA13239BB241EA030317
:104C40009BB29BB203F0FF014FF0000040EA01016C
:104C500091704FEA13239BB24FF0000141EA030326
:104C6000D3704EF2D013C2F200031B684FF0000263
:104C70001A714FF0000242F02E025A714EF2D01318
:104C8000C2F200031B684FF000029A714FF000025D
:104C9000DA714FF000021A724FF000025A724EF2AF
:104CA000D013C2F200031B684FF000029A724FF05B
:104CB0000002DA724FF000021A734FF000025A73CA
:104CC0004EF2D013C2F200031A684EF2E413C2F29D
:104CD00000031A604EF2D013C2F200031B684FF0BB
:104CE000000019464FF02E02FFF722FF4DF68C23ED
:104CF000C2F2000393F83130022B40F088804EF26C
:104D00000023C2F200031B684FF0000242F00802C9
:104D10001A704FF0000242F002025A704EF2002365
:104D2000C2F200031A68FB8903F10103FB81FB89CE
:104D30006FEA83436FEA93439BB29BB24FEA03232C
:104D400099B2FB8903F10103FB81FB896FEA83437D
:104D50006FEA93439BB29BB24FEA13239BB241EAA3
:104D600003039BB29BB203F0FF014FF0000040EA47
:104D7000010191704FEA13239BB24FF0000141EA09
:104D80000303D3704EF20023C2F200031B684FF0FE
:104D900000021A714FF0000242F01E025A714EF2E8
:104DA0000023C2F200031B684FF000029A714FF01B
:104DB0000002DA714FF000021A724FF000025A72CC
:104DC0004EF20023C2F200031B684FF000029A72F9
:104DD0004FF00002DA724FF000021A734FF0000237
:104DE0005A734EF20023C2F200031A684EF2F41313
:104DF000C2F200031A604EF20023C2F200031B68E5
:104E00004FF0010019464FF01E02FFF791FE07F127
:104E10001007BD4680BD00BF80B588B000AF786088
:104E20004DF66C33C2F2000393F8FF31012B32D1FF
:104E30004EF2FC13C2F200031A6807F10803104691
:104E400019464FF0FF324FF00003FCF77FFD3B7A2D
:104E50001A4613464FEA430313444FEA830307F10C
:104E600020021344A3F118035B6819463B7A1A46E3
:104E700013464FEA430313444FEA830307F120022A
:104E80001344A3F110031B784EF24C20C2F2000031
:104E90001A4600F03BFB4DF68C23C2F2000393F858
:104EA0003130022B32D14EF2FC13C2F200031A68E9
:104EB00007F10803104619464FF0FF324FF0000388
:104EC000FCF744FD3B7A1A4613464FEA430313446A
:104ED0004FEA830307F120021344A3F118035B6830
:104EE00019463B7A1A4613464FEA430313444FEAE6
:104EF000830307F120021344A3F110031B784EF241
:104F00004C20C2F200001A4600F000FB07F1200717
:104F1000BD4680BD80B584B000AF786007F108035E
:104F20004FF000004FF000011A464FF0FF33FEF73C
:104F30008FF94FF001004FF00101FEF729F97B686E
:104F4000FB60F868FCF726F80346002B11D0F868E0
:104F5000FCF7D2F84EF2C013C2F200031B889BB2DA
:104F600003F101039AB24EF2C013C2F200031A8099
:104F7000D4E74EF20423C2F200031B889BB203F174
:104F800001039AB24EF20423C2F200031A80C5E76D
:104F900080B584B000AF786078684DF62C31C2F2ED
:104FA00000014FF0080200F023FB02464DF6683383
:104FB000C2F200031A604FF00003FB604DF6882335
:104FC000C2F200031A6807F10C0310461946FEF7F7
:104FD000B7F9FB68002B0AD04EF60453CEF200035B
:104FE0004FF080521A60BFF34F8FBFF36F8F07F1FE
:104FF0001007BD4680BD00BF90B58BB002AF4FF02B
:1050000038033B734FF000037B734FF00003BB7317
:1050100047F2D862C2F2000207F108031268114693
:10502000198003F102034FEA12421A7047F2DC6260
:10503000C2F2000207F1040312681146198003F15D
:1050400002034FEA12421A7047F2E062C2F2000213
:105050003B4612681146198003F102034FEA1242DF
:105060001A704DF66C63C2F200033B6147F2147391
:10507000C2F200037B613A6940F6F963C2F20003B1
:1050800013603B691B684FF00000796998474EF246
:105090003410C2F2000044F20001C5F200014FF0EA
:1050A00021024FF0000300F033FF4DF66C63C2F2B3
:1050B0000003BB6147F23473C2F20003FB61BA69BB
:1050C00040F6F963C2F200031360BB691B684FF03E
:1050D0000A00F96998474FF001004FF02E014FF098
:1050E0000002FCF7DBF902464EF2E413C2F20003C1
:1050F0001A604FF001004FF01E014FF00002FCF764
:10510000CDF902464EF2F413C2F200031A604FF0DA
:1051100002004FF00C014FF00002FCF7BFF902460D
:105120004EF2FC13C2F200031A604FF00A00FFF7C0
:105130004BFA4FF00A004FF09F01FFF761FA4EF271
:105140004C20C2F200004FF416514FF0030200F061
:105150009BF94EF24C20C2F2000044F69171C2F26B
:1051600000014FF0800200F0B1FA4FF00100FCF7AF
:1051700017FA02464EF2E013C2F200031A604FF033
:10518000020300934EF2F013C2F20003019344F2C3
:105190005D60C2F2000047F2A061C2F200014FF070
:1051A00050024DF66C33C2F20003FCF769FE024672
:1051B0004EF2E813C2F200031A604FF001030093AD
:1051C0004EF2C813C2F20003019344F66520C2F206
:1051D000000047F2A461C2F200014FF050024DF608
:1051E0006C33C2F20003FCF74BFE02464EF2F8139A
:1051F000C2F200031A604FF0030300934DF68823B8
:10520000C2F20003019344F61570C2F2000047F2A7
:10521000AC61C2F200014FF050024DF62C33C2F2E5
:105220000003FCF72DFE44F6BD33C2F200030093E9
:1052300047F2B860C2F2000041F288314FF001023B
:105240004FF00003FEF7E4F902464EF2B813C2F243
:1052500000031A604EF2B813C2F200031C68FDF797
:10526000C5F903464FF00002009220464FF00101BD
:105270001A464FF00003FEF71DFA44F61963C2F216
:105280000003009347F2C860C2F2000041F28D3182
:105290004FF001024FF00003FEF7BAF902464EF25A
:1052A000B813C2F200035A604EF2B813C2F2000300
:1052B0005C68FDF79BF903464FF000020092204620
:1052C0004FF001011A464FF00003FEF7F3F9FDF726
:1052D00051F807F12407BD4690BD00BF80B500AF6F
:1052E0004DF67C70C2F2000001F038F880BD00BFBE
:1052F00080B500AF4DF6E870C2F2000001F02EF864
:1053000080BD00BF80B500AF4DF6C020C2F20000E6
:1053100001F024F880BD00BF80B500AF4EF2C000A0
:10532000C2F2000001F01AF880BD00BF80B500AFE6
:105330004EF23410C2F2000001F010F880BD00BF40
:1053400080B500AF4EF25400C2F2000001F006F842
:1053500080BD00BF80B483B000AF0346FB714EF246
:105360000013CEF2000397F907204FEA5212F979A1
:1053700001F01F014FF0010000FA01F143F8221083
:1053800007F10C07BD4680BC704700BF80B483B0F6
:1053900000AF0346FB714EF20013CEF2000397F903
:1053A00007204FEA5212F97901F01F014FF0010076
:1053B00000FA01F102F1600243F8221007F10C0734
:1053C000BD4680BC704700BF80B483B000AF78603A
:1053D0000B46FB707B6803F070427B6823F07F43D1
:1053E00023F470034FEA43131A44FB784FEA830314
:1053F000134403F100734FF001021A6007F10C0728
:10540000BD4680BC704700BF80B483B000AF7860F9
:105410000B46FB707B6803F070427B6823F07F4390
:1054200023F470034FEA43131A44FB784FEA8303D3
:10543000134403F100734FF000021A6007F10C07E8
:10544000BD4680BC704700BF80B483B000AF7860B9
:105450000B46FB707B6803F070427B6823F07F4350
:1054600023F470034FEA43131A44FB784FEA830393
:10547000134403F100731B68DBB2184607F10C07F5
:10548000BD4680BC704700BF80B584B000AFF860F7
:10549000B9601346FB71FA684EF24C23C2F2000366
:1054A0009A4207D0FA684EF20C23C2F200039A42E5
:1054B00000D000BEFB79F868B9681A4600F056FAC9
:1054C000FB681B6803F1300318464FF00301FFF738
:1054D0009BFFFB681B6803F1340318464FF0020181
:1054E000FFF792FFFB681B6803F1380318464FF083
:1054F0000001FFF789FFFA6845F60563C2F2000371
:10550000536207F11007BD4680BD00BF80B489B06B
:1055100000AFF860B9607A604FF000033B61FA6851
:105520004EF24C23C2F200039A4207D0FA684EF2C0
:105530000C23C2F200039A4200D000BEBB68002BCD
:1055400000D100BE7B68002B00D100BEFA684EF28D
:105550004C23C2F200039A4206D0FA684EF20C23A2
:10556000C2F200039A423DD1BB68002B3AD07B685F
:10557000002B37D0FB681B681B7DFB76FB685A7BD2
:10558000FB7E42EA0303DAB2FB685A73FB7E03F048
:105590002003002B23D04FF01003FB617B680F2BFF
:1055A00001D87B68FB614FF000037B610EE0FB6874
:1055B0001B68B9683A690A4412781A703B6903F1AA
:1055C00001033B617B6903F101037B617A69FB693C
:1055D0009A42ECD37A687B69C3EB02037B607B68F9
:1055E000002BC7D107F12407BD4680BC704700BF20
:1055F00080B487B000AFF860B9607A604FF0000304
:105600003B614FF00003FB75FA684EF24C23C2F287
:1056100000039A4207D0FA684EF20C23C2F200034C
:105620009A4200D000BEBB68002B00D100BE7B6850
:10563000002B00D100BEFA684EF24C23C2F20003E8
:105640009A4206D0FA684EF20C23C2F200039A4244
:1056500034D1BB68002B31D07B68002B2ED0FB6887
:105660001B681B7DFB75FB685A7BFB7D42EA0303CD
:10567000DAB2FB685A7317E0BA683B691344FA68F8
:1056800012681278D2B21A703B6903F101033B61D0
:10569000FB681B681B7DFB75FB685A7BFB7D42EA40
:1056A0000303DAB2FB685A73FB7D03F00103DBB23C
:1056B000002B03D03A697B689A42DDD33B691846D8
:1056C00007F11C07BD4680BC704700BF80B584B0A1
:1056D00000AFF860B9601346FB71FA684EF24C23D4
:1056E000C2F200039A4207D0FA684EF20C23C2F2CB
:1056F00000039A4200D000BEBB68002B00D100BE60
:10570000FB79C02B00D900BEFA684EF24C23C2F2DE
:1057100000039A4206D0FA684EF20C23C2F200034C
:105720009A422ED1BB68002B2BD0FB79C02B28D8F6
:10573000FB68BA681A62FB681A68FB681B681B7A08
:10574000DBB2DBB203F03F03F8791946034641EAC6
:105750000303DBB2DBB21372FB681B795BB2184642
:10576000FFF714FEFB681B6803F1040318464FF0B3
:105770000001FFF729FEFB681B795BB21846FFF7B3
:10578000E9FD07F11007BD4680BD00BF684620F067
:1057900007018D4689B500AF4EF24C20C2F20000E1
:1057A00000F01AFABD46BDE889408546704700BF43
:1057B000684620F007018D4689B500AF4EF20C20F7
:1057C000C2F2000000F008FABD46BDE889408546F7
:1057D000704700BF80B588B000AF786039607A68E4
:1057E0004EF24C23C2F200039A4207D07A684EF27E
:1057F0000C23C2F200039A4200D000BE7A684EF237
:105800004C23C2F200039A4207D07A684EF20C236E
:10581000C2F200039A4240F0A4807B683A689A6022
:1058200001F0CAFB7A684EF24C23C2F200039A429E
:1058300006D147F25473C2F200031B68FB6105E016
:1058400047F25873C2F200031B68FB61FB694FEA21
:10585000C3023B68B2FBF3F37B617B694FEA5303FE
:105860003B613B694FEA9313FB60FB684FEA83138C
:105870003A69C3EB0203BB61FB684FEAC3137A6961
:10588000C3EB0202BB694FEA4303C3EB0203BA69ED
:105890001344BB61FA684FF6FF739A4200D900BE09
:1058A000FA684FF6FF739A425BD8FB68012B31D937
:1058B0007B681B6803F10C0318464FF00701FFF7E4
:1058C00083FD7B681B68FA684FEA1222D2B21A7114
:1058D0007B681B68FA68D2B21A707B681B6803F198
:1058E0000C0318464FF00701FFF78EFD7B681B681D
:1058F00003F1300318464FF00701FFF765FDBB6960
:10590000FF2B00D900BE7B681B68BA69D2B283F84E
:105910003C2026E07B681B6803F10C0318464FF01F
:105920000701FFF751FD7B681B68FA684FEA1222F6
:10593000D2B21A717B681B68FA68D2B21A707B689F
:105940001B6803F10C0318464FF00701FFF75CFDDD
:105950007B681B6803F1300318464FF00701FFF71F
:1059600053FD07F12007BD4680BD00BF80B584B060
:1059700000AFF860B9601346FB71FA684EF24C2331
:10598000C2F200039A4207D0FA684EF20C23C2F228
:1059900000039A4200D000BEFA684EF24C23C2F2D5
:1059A00000039A4224D1FB684FF080421A60FB68E2
:1059B0004FF00A021A7148F20003C4F2030348F2DE
:1059C0000002C4F20302926C42F080029A644FF02B
:1059D0000A00FFF7DBFC48F20003C4F2030348F2BD
:1059E0000002C4F20302926C22F080029A6425E065
:1059F000FA6840F20003C4F201031360FB684FF041
:105A00000B021A7148F20003C4F2030348F20002C9
:105A1000C4F20302926C42F480729A644FF00B005D
:105A2000FFF7B4FC48F20003C4F2030348F200029B
:105A3000C4F20302926C22F480729A64FB681B68C1
:105A40004FF000021A71FB681B684FF000021A72D7
:105A5000FB681B6803F1080318464FF00101FFF7CC
:105A6000B3FCFB681B6803F1080318464FF0020102
:105A7000FFF7AAFCFB681B6803F1080318464FF008
:105A80000001FFF7A1FCFB681B6803F11003184637
:105A90004FF00401FFF7B8FCFB681B6803F110032B
:105AA00018464FF00501FFF7AFFCFB681B6803F1D8
:105AB000340318464FF00101FFF7A6FCFB681B6892
:105AC00003F1340318464FF00001FFF79DFCFB681B
:105AD0001B6803F1380318464FF00101FFF794FCEF
