:020000042000DA
:100000000000012089010020F9010020FB010020EF
:10001000FD010020FF01002001020020000000007F
:10002000000000000000000000000000C1440020AB
:100030000502002000000000F1460020414700209A
:100040000B0200200D0200200F02002011020020F0
:10005000916C00201502002017020020B56C0020D2
:100060001B0200201D020020C5590020E959002074
:100070002302002025020020270200202902002060
:100080002B0200202D0200202F0200203102002030
:100090003302002035020020370200203902002000
:1000A0003B0200203D0200203F02002041020020D0
:1000B00043020020450200204702002049020020A0
:1000C0004B0200204D02002015550020295500202C
:1000D0003D550020515500206555002079550020E0
:1000E0005B0200205D0200205F0200206102002010
:1000F00063020020650200206702002069020020E0
:100100006B0200206D0200206F02002071020020AF
:10011000730200207502002077020020790200207F
:100120007B0200207D0200207F020020810200204F
:10013000830200208502002087020020890200201F
:100140008B0200208D0200208F02002091020020EF
:1001500093020020950200209702002099020020BF
:100160009B0200209D0200209F020020A10200208F
:10017000A3020020A5020020A7020020A90200205F
:10018000AB020020AD0200204948804749480028C2
:100190000BD1494849494A4A884206D091421CBF7E
:1001A00050F8043B41F8043BF8D146484649474AD9
:1001B000884206D091421CBF50F8043B41F8043BF2
:1001C000F8D143484349444A914218BF41F8040BCF
:1001D000FAD1000000000000000000000000000054
:1001E000DFF8F8000FF2030E00474FF000004FF069
:1001F0000001DFF8ECF0FEE7FEE7FEE7FEE7FEE7D2
:10020000FEE7FEE7FEE7FEE7FEE7FEE7FEE7FEE7C6
:10021000FEE7FEE7FEE7FEE7FEE7FEE7FEE7FEE7B6
:10022000FEE7FEE7FEE7FEE7FEE7FEE7FEE7FEE7A6
:10023000FEE7FEE7FEE7FEE7FEE7FEE7FEE7FEE796
:10024000FEE7FEE7FEE7FEE7FEE7FEE7FEE7FEE786
:10025000FEE7FEE7FEE7FEE7FEE7FEE7FEE7FEE776
:10026000FEE7FEE7FEE7FEE7FEE7FEE7FEE7FEE766
:10027000FEE7FEE7FEE7FEE7FEE7FEE7FEE7FEE756
:10028000FEE7FEE7FEE7FEE7FEE7FEE7FEE7FEE746
:10029000FEE7FEE7FEE7FEE7FEE7FEE7FEE7FEE736
:1002A000FEE7FEE7FEE7FEE7FEE7FEE7FEE7704754
:1002B000557D00200000000000000020000000200C
:1002C000C0840020C0840020C0840020208500203D
:1002D000000000002085002058F1002061810020EE
:1002E0000D040020000000000000000000000000DD
:1002F00048F22053C2F200031A780AB9012018709C
:10030000704700BF48F2C040C2F2000008B5036861
:100310002BB140F20003C0F2000303B1984708BDBF
:1003200080B400AF4EF6FC53CEF200034EF6FC5202
:10033000CEF20002126842F080721A6041F20403A9
:10034000CEF200034FF000021A6041F20003CEF239
:10035000000341F20002CEF20002126842F00102F4
:100360001A60BD4680BC704780B483B000AF41F2D4
:100370000403CEF200031B687B6048F22453C2F2F0
:1003800000031B687A689A420BD248F22853C2F2E3
:1003900000031B6803F1010248F22853C2F2000374
:1003A0001A6048F22453C2F200037A681A6048F2D5
:1003B0000453C2F200031A6841F67F53C0F22C4383
:1003C0009A420ED87B684FEA53337B6048F2285339
:1003D000C2F200031B684FEAC3437A6813447B6090
:1003E0000DE07B684FEA93337B6048F22853C2F2FA
:1003F00000031B684FEA83437A6813447B607B6881
:10040000184607F10C07BD4680BC704780B500AFA9
:1004100004F0CAFE4FF00003184680BD80B483B0DC
:1004200000AF4FF0A00383F31188BFF36F8FBFF3CA
:100430004F8F7B60FEE700BF80B400AFBD4680BC3D
:10044000704700BF80B485B000AF786039604FF06E
:10045000A00383F31188BFF36F8FBFF34F8FFB604F
:10046000FEE700BF80B483B000AF02460B46FA71CE
:10047000BB71F979BB791A464FEA4212C3EB02020B
:100480004FEA820213444FEAC30398B24EF6245255
:10049000C2F200020B464FEAC3030B444FEA430388
:1004A000134403F1100302461A8007F10C07BD46FE
:1004B00080BC704780B592B004AFF860B9607A60D4
:1004C00048F21843C2F200031B88BB864FF0280392
:1004D00087F830304FF02A0387F82C304FF02C0388
:1004E00087F828304FF0290387F824304FF02B038A
:1004F00087F820304FF02D033B774FF0000387F84B
:10050000363007F134034FF0000200924EF63C60A3
:10051000C2F200004FF06A011A464FF0020306F0E3
:1005200051FC07F118034FF0000200924EF63C60B8
:10053000C2F200004FF06A011A464FF0010306F0C4
:10054000B3FC4EF63C60C2F200004FF0000106F032
:10055000B5FD034687F8373097F8362097F83730DF
:10056000134487F8363007F1280307F11802009288
:100570004FF0010201924FF0000202924EF63C60F1
:10058000C2F200004FF06A011A464FF0010306F074
:10059000FDFC4EF63C60C2F200004FF0000106F098
:1005A0008DFD034687F8373097F8362097F83730B7
:1005B000134487F8363007F11C0307F11402009248
:1005C0004FF0010201924FF0000202924EF63C60A1
:1005D000C2F200004FF06A011A464FF0010306F024
:1005E000D5FC4EF63C60C2F200004FF0000106F070
:1005F00065FD034687F8373097F8362097F837308F
:10060000134487F836303B7D4FEA03239AB23B7E92
:1006100042EA03039BB29AB27B681A807B681B880C
:10062000B3F5004F06D97B681B886FEA03039AB2C3
:100630007B681A8007F12C0307F1180200924FF033
:10064000010201924FF0000202924EF63C60C2F2AB
:1006500000004FF06A011A464FF0010306F096FCC5
:100660004EF63C60C2F200004FF0000106F026FD9D
:10067000034687F8373097F8362097F83730134419
:1006800087F8363007F1200307F1140200924FF08B
:10069000010201924FF0000202924EF63C60C2F25B
:1006A00000004FF06A011A464FF0010306F06EFC9D
:1006B0004EF63C60C2F200004FF0000106F0FEFC76
:1006C000034687F8373097F8362097F837301344C9
:1006D00087F836303B7D4FEA03239AB23B7E42EAED
:1006E00003039BB29AB2BB681A80BB681B88B3F540
:1006F000004F06D9BB681B886FEA03039AB2BB6838
:100700001A8007F1300307F1180200924FF001023E
:1007100001924FF0000202924EF63C60C2F20000DD
:100720004FF06A011A464FF0010306F02FFC4EF617
:100730003C60C2F200004FF0000106F0BFFC03462F
:1007400087F8373097F8362097F83730134487F812
:10075000363007F1240307F1140200924FF0010232
:1007600001924FF0000202924EF63C60C2F200008D
:100770004FF06A011A464FF0010306F007FC4EF6EF
:100780003C60C2F200004FF0000106F097FC034607
:1007900087F8373097F8362097F83730134487F8C2
:1007A00036303B7D4FEA03239AB23B7E42EA030395
:1007B0009BB29AB2FB681A80FB681B88B3F5004FA6
:1007C00006D9FB681B886FEA03039AB2FB681A809C
:1007D00097F83730184607F13807BD4680BD00BF8F
:1007E00080B592B004AFF860B9607A6048F2144303
:1007F000C2F200031B883B864FF0180387F82C30A9
:100800004FF01A0387F828304FF01C0387F8243084
:100810004FF0190387F820304FF01B033B774FF060
:100820001D033B764FF06A0387F835304FF0000325
:1008300087F8363097F8352007F1300307F11401B7
:1008400000914FF0010101914FF0000102914EF62D
:100850003C60C2F2000011461A464FF0020306F057
:1008600095FB4EF63C60C2F200004FF0000106F02E
:1008700025FC034687F8373097F8362097F837304D
:10088000134487F8363097F8352007F1240307F131
:10089000140100914FF0010101914FF0000102910C
:1008A0004EF63C60C2F2000011461A464FF00103BA
:1008B00006F06CFB4EF63C60C2F200004FF0000107
:1008C00006F0FCFB034687F8373097F8362097F898
:1008D0003730134487F8363097F8352007F118037E
:1008E00007F1100100914FF0010101914FF000015B
:1008F00002914EF63C60C2F2000011461A464FF0DB
:10090000010306F043FB4EF63C60C2F200004FF0DC
:10091000000106F0D3FB034687F8373097F83620FE
:1009200097F83730134487F836303B7C4FEA03237F
:100930009AB23B7D42EA03039BB29AB2FB681A80EB
:1009400097F8352007F1280307F1140100914FF0C3
:10095000010101914FF0000102914EF63C60C2F29C
:10096000000011461A464FF0010306F00FFB4EF649
:100970003C60C2F200004FF0000106F09FFB03460E
:1009800087F8373097F8362097F83730134487F8D0
:10099000363097F8352007F11C0307F1100100915C
:1009A0004FF0010101914FF0000102914EF63C60C1
:1009B000C2F2000011461A464FF0010306F0E6FAB3
:1009C0004EF63C60C2F200004FF0000106F076FBEC
:1009D000034687F8373097F8362097F837301344B6
:1009E00087F836303B7C4FEA03239AB23B7D42EADC
:1009F00003039BB29AB2BB681A8097F8352007F1BF
:100A00002C0307F1140100914FF0010101914FF007
:100A1000000102914EF63C60C2F2000011461A46F7
:100A20004FF0010306F0B2FA4EF63C60C2F200004D
:100A30004FF0000106F042FB034687F8373097F885
:100A4000362097F83730134487F8363097F835203A
:100A500007F1200307F1100100914FF0010101910E
:100A60004FF0000102914EF63C60C2F200001146C8
:100A70001A464FF0010306F089FA4EF63C60C2F2C6
:100A800000004FF0000106F019FB034687F83730ED
:100A900097F8362097F83730134487F836303B7C88
:100AA0004FEA03239AB23B7D42EA03039BB29AB218
:100AB0007B681A8097F83730184607F13807BD462B
:100AC00080BD00BF80B58AB004AF78604FF01503D9
:100AD0003B754FF016033B744FF06A03BB75BA7D4C
:100AE00007F1140307F10C0100914FF0010101918E
:100AF0004FF0000102914EF63C60C2F20000114638
:100B00001A464FF0010306F041FA4EF63C60C2F27D
:100B100000004FF0000106F0D1FA0346FB75BA7DE4
:100B200007F1100307F1080100914FF00101019155
:100B30004FF0000102914EF63C60C2F200001146F7
:100B40001A464FF0010306F021FA4EF63C60C2F25D
:100B500000004FF0000106F0B1FA0346FB753B7B45
:100B60001A463B7A4FEA03239BB242EA03039BB245
:100B70009AB27B681A804FF00003184607F11807F5
:100B8000BD4680BD80B586B002AFB960134602464F
:100B9000FA73FB714EF66053C2F200034FF000028D
:100BA0001A7036E04FF26C03C2F2000397F807C0E8
:100BB000FA7B4FF00001009118461146BA6863466F
:100BC00006F000F94FF26C03C2F2000318464FF032
:100BD000000106F073FA03461A464EF66253C2F25B
:100BE00000031A704EF66253C2F200031B78002B0A
:100BF00002D14FF0000318E04EF66053C2F200033A
:100C00001B7803F10103DAB24EF66053C2F200031F
:100C10001A704EF66053C2F200031B78092BC1D93B
:100C20004EF66053C2F200031B78184607F1100716
:100C3000BD4680BD80B586B002AFB960134602469E
:100C4000FA73FB714EF66053C2F200034FF00002DC
:100C50001A7036E04FF26C03C2F2000397F807C037
:100C6000FA7B4FF00001009118461146BA686346BE
:100C700006F01AF94FF26C03C2F2000318464FF067
:100C8000000106F01BFA03461A464EF66253C2F202
:100C900000031A704EF66253C2F200031B78002B59
:100CA00002D14FF0000318E04EF66053C2F2000389
:100CB0001B7803F10103DAB24EF66053C2F200036F
:100CC0001A704EF66053C2F200031B78092BC1D98B
:100CD0004EF66053C2F200031B78184607F1100766
:100CE000BD4680BD80B582B000AF0B463A6002467B
:100CF000FA71BB71FA7907F10603104619464FF0F5
:100D00000102FFF73FFF0346092B02D94FF0010311
:100D10000EE0FB79184639684FF00202FFF78AFFB0
:100D20000346092B02D94FF0010301E04FF0000305
:100D3000184607F10807BD4680BD00BF80B582B0E8
:100D400000AF0B463A600246FA71BB714EF65C5337
:100D5000C2F200034FF000021A704EF65C53C2F26A
:100D600000034FF000025A704EF65E53C2F20003C9
:100D70004FF000021A80BB794FEA4303DBB2FA79E5
:100D8000104619464EF65C52C2F20002FFF7AAFF67
:100D90000346002B1AD14EF65C53C2F200031B78B7
:100DA0004FEA03239AB24EF65C53C2F200035B781B
:100DB00042EA03039BB29AB24EF65E53C2F20003BC
:100DC0001A803B684FF000021A700AE03B684FF04F
:100DD00001021A704EF65E53C2F200034FF0000299
:100DE0001A804EF65E53C2F200031B88184607F1C4
:100DF0000807BD4680BD00BF80B582B000AF0B467E
:100E00003A600246FA71BB714EF65C53C2F20003BF
:100E10004FF000021A704EF65C53C2F200034FF01E
:100E200000025A704EF65E53C2F200034FF0000209
:100E30001A80BB794FEA4303DBB203F1FF33DBB225
:100E4000FA79104619464EF65C52C2F20002FFF7DC
:100E500049FF0346002B1AD14EF65C53C2F2000341
:100E60001B784FEA03239AB24EF65C53C2F200039A
:100E70005B7842EA03039BB29AB24EF65E53C2F22B
:100E800000031A803B684FF000021A700AE03B68CA
:100E90004FF001021A704EF65E53C2F200034FF09B
:100EA00000021A804EF65E53C2F200031B881846F9
:100EB00007F10807BD4680BD80B58CB004AFF8606F
:100EC0007B600B46FB721346BB72BB7A3B753B7D66
:100ED00043F00803DBB23B753B7D4FEA0313DBB203
:100EE0003B75FA7A07F1140307F1180100914FF0EE
:100EF000020101914FF000010291F86811461A4673
:100F00004FF0010306F042F8F8684FF0000106F0D8
:100F1000D5F803467B777B7F002B04D07B684FF0AE
:100F200001021A7012E03B7E4FEA03239AB27B7EE5
:100F300042EA03039BB2FB83FB8B4FEA03534FEA66
:100F40001353FB837B684FF000021A70FB8B18462B
:100F500007F12007BD4680BD80B584B000AF0346D1
:100F60003960FB71FB79002B0ED13B68BB60BB681D
:100F70005968BB689A68BB681B7B084611464FF0EE
:100F8000880205F0A9FE2CE0FB790A2B0CD13B6806
:100F9000FB604FF26C00C2F200004FF00E014FF008
:100FA000000205F00DF91CE0FB790B2B19D14EF670
:100FB0003C60C2F2000045F20001C5F200014FF0B2
:100FC00088024FF0000305F087FE4EF67400C2F26F
:100FD00000004FF040514FF088024FF0000305F041
:100FE0007BFE07F11007BD4680BD00BF80B584B011
:100FF00000AF0346FB80FB884FF47A7202FB03F2DA
:1010000044F6D353C1F26203A3FB02134FEA9313D6
:10101000FB60F86801F09CF907F11007BD4680BD40
:1010200080B483B000AF0346FB80FB884FF47A7234
:1010300002FB03F244F6D353C1F26203A3FB021393
:101040004FEA9313184607F10C07BD4680BC704762
:1010500080B483B000AF78604FF00103184607F109
:101060000C07BD4680BC704780B485B000AF786087
:101070007B681A785B784FEA032343EA02039BB24A
:101080004FEA03239AB27B6819785B784FEA03230F
:1010900043EA01039BB24FEA13239BB242EA0303E4
:1010A0009BB2FB814EF6A073C2F200031A68FB8963
:1010B0004FEA43534FEA535303F0FF014FF0000050
:1010C00040EA010151704FEA13239BB24FF0000137
:1010D00041EA03039370FB894FEAD3239BB203F0E9
:1010E0000103DBB2002B02D04FF0010301E04FF00F
:1010F0000003184607F11407BD4680BC704700BFC7
:1011000080B483B000AF0B463A600246FA71BB80F0
:10111000F9794EF68872C2F200020B464FEAC30319
:10112000C1EB03031344FA791A70F9794EF6887209
:10113000C2F200020B464FEAC303C1EB03031344A0
:101140003A794FF0000141EA02025A707A794FF081
:10115000000141EA02029A70F8793A684EF6887105
:10116000C2F2000103464FEAC303C0EB03030B4482
:1011700002F0FF014FF0000040EA0101D9704FEA90
:10118000122101F0FF014FF0000040EA0101197146
:101190004FEA124101F0FF014FF0000040EA010167
:1011A00059714FEA12624FF0000141EA02029A714E
:1011B00007F10C07BD4680BC704700BF80B500AF8B
:1011C0004EF65053C2F200031B689A78DB784FEA60
:1011D000032343EA02039BB203F1FF314EF6887208
:1011E000C2F200020B464FEAC303C1EB03031344F0
:1011F000DA7819794FEA012141EA020259794FEA76
:10120000014141EA02029B794FEA036343EA020388
:101210001A464EF65053C2F200031B681846904718
:1012200080BD00BF90B585B002AF786041F2493310
:10123000C2F200034FF000004FF010011A46FFF712
:101240005FFF41F25D33C2F200034FF001004FF047
:1012500010011A46FFF754FF41F2ED33C2F20003CA
:101260004FF002004FF010011A46FFF749FF78686F
:10127000FFF7FAFE0346002B3BD07B681B791A462A
:1012800044F24023C0F20F0303FB02F31A4644F674
:10129000D353C1F26203A3FB02134FEA931241F24C
:1012A000BD13C2F20003009348F21C40C2F20000DA
:1012B00011464FF000024FF0000302F0CBFA024655
:1012C0004EF65453C2F200031A604EF65453C2F263
:1012D00000031C6801F0ACFA03464FF000020092D4
:1012E00020464FF001011A464FF0000302F004FBC4
:1012F00025E07B689A78DB784FEA032343EA020310
:101300009BB203F1FF314EF68872C2F200020B4627
:101310004FEAC303C1EB03031344DA7819794FEAA8
:10132000012141EA020259794FEA014141EA0202F0
:101330009B794FEA036343EA02037868984707F111
:101340000C07BD4690BD00BF80B485B000AF78608B
:1013500007F11407BD4680BC704700BF90B585B04B
:1013600002AF78607B68DB79002B25D07B689B79A6
:101370001A464EF64853C2F2000353F822407B68E7
:10138000DB791A464FEA4212C3EB02024FEA8202AD
:1013900013444FEAC3039BB21846FFF741FE0346CE
:1013A0004FF00002009220464FF004011A464FF021
:1013B000000302F0A1FA14E07B689B791A464EF60E
:1013C0004853C2F2000353F822304FF0000200925B
:1013D00018464FF003014FF000024FF0000302F0F7
:1013E0008BFA07F10C07BD4690BD00BF80B483B0F7
:1013F00000AF78604EF6A473C2F200034FF0000213
:101400001A8007F10C07BD4680BC704780B483B0DA
:1014100000AF78607B6803F108031A467B685A6066
:101420007B684FF0FF329A607B6803F108031A462D
:101430007B68DA607B6803F108031A467B681A61EF
:101440007B684FF000021A6007F10C07BD4680BCB4
:10145000704700BF80B483B000AF78607B684FF006
:1014600000021A6107F10C07BD4680BC704700BF3F
:1014700080B485B000AF786039607B685B68FB60E2
:101480003B68FA685A60FB689A683B689A60FB6838
:101490009B683A685A60FB683A689A603B687A6869
:1014A0001A617B681B6803F101027B681A6007F10F
:1014B0001407BD4680BC704780B485B000AF78602B
:1014C00039603B681B68FB60FB68B3F1FF3F03D1E9
:1014D0007B681B69BB600DE07B6803F10803BB60A0
:1014E00002E0BB685B68BB60BB685B681A68FB684E
:1014F0009A42F6D9BB685A683B685A603B685B6899
:101500003A689A603B68BA689A60BB683A685A6001
:101510003B687A681A617B681B6803F101027B688B
:101520001A6007F11407BD4680BC704780B485B0CF
:1015300000AF78607B681B69FB607B685B687A68DA
:1015400092689A607B689B687A6852685A60FB6808
:101550005A687B689A4203D17B689A68FB685A6034
:101560007B684FF000021A61FB681B6803F1FF32D1
:10157000FB681A60FB681B68184607F11407BD4634
:1015800080BC704780B584B000AF786039607B68FC
:10159000BB60BB68002B09D14FF0A00383F3118817
:1015A000BFF36F8FBFF34F8FFB60FEE703F036F89A
:1015B000BB681A68BB68DB6BB968096C01FB03F395
:1015C0001A44BB685A60BB684FF000029A63BB685C
:1015D0001A68BB689A60BB681A68BB68DB6B03F16A
:1015E000FF33B968096C01FB03F31A44BB68DA6086
:1015F000BB684FF0FF3283F84420BB684FF0FF32E6
:1016000083F845203B68002B18D1BB681B69002B71
:1016100021D0BB6803F11003184601F047FB0346D5
:10162000002B1AD04EF60453CEF200034FF0805236
:101630001A60BFF34F8FBFF36F8F0FE0BB6803F1EA
:1016400010031846FFF7E2FEBB6803F124031846B7
:10165000FFF7DCFE02E000BF00E000BF03F016F879
:101660004FF00103184607F11007BD4680BD00BFCB
:1016700080B58AB002AFF860B9601346FB71FB68B1
:10168000002B09D14FF0A00383F31188BFF36F8FB4
:10169000BFF34F8FFB61FEE7BB68002B03D14FF018
:1016A00000037B6104E0FB68BA6802FB03F37B6123
:1016B0007B6903F15003184602F066FC03463B6168
:1016C0003B69002B0BD03B6903F15003BB61FB79F5
:1016D0003A690092F868B968BA6900F007F83B699E
:1016E000184607F12007BD4680BD00BF80B584B015
:1016F00000AFF860B9607A60FB70BB68002B03D163
:10170000BA69BB691A6002E07A68BB691A60BB6992
:10171000FA68DA63BB69BA681A64B8694FF0010104
:10172000FFF730FFBB69FA7883F84C2007F1100708
:10173000BD4680BD80B582B000AF78607B68002B6D
:1017400014D07B684FF000025A607B684FF00002B3
:101750001A607B684FF00002DA6078684FF0000191
:101760004FF000024FF0000300F020F807F10807E7
:10177000BD4680BD80B586B000AF0346FB714FF01B
:1017800001033B614FF000037B61FB7938697969A4
:101790001A46FFF76DFF0346FB60F868FFF7CAFFC4
:1017A000FB68184607F11807BD4680BD80B58EB0AE
:1017B00000AFF860B9607A603B604FF00003FB61F6
:1017C000FB687B627B6A002B09D14FF0A00383F397
:1017D0001188BFF36F8FBFF34F8FBB62FEE7BB680B
:1017E000002B03D17B6A1B6C002B02D14FF001034D
:1017F00001E04FF00003002B09D14FF0A00383F369
:101800001188BFF36F8FBFF34F8FFB62FEE73B681A
:10181000022B03D17B6ADB6B012B02D14FF001035A
:1018200001E04FF00003002B09D14FF0A00383F338
:101830001188BFF36F8FBFF34F8F3B63FEE701F05B
:101840003DFC0346002B02D17B68002B02D14FF0F8
:10185000010301E04FF00003002B0AD14FF0A00379
:1018600083F31188BFF36F8FBFF34F8F7B63FEE766
:1018700000BF02F0D3FE7B6A9A6B7B6ADB6B9A42F5
:1018800002D33B68022B34D1786AB9683A6800F019
:101890007BFA03463B627B6A5B6A002B14D07B6A4F
:1018A00003F12403184601F001FA0346002B1AD075
:1018B0004EF60453CEF200034FF080521A60BFF38D
:1018C0004F8FBFF36F8F0FE03B6A002B0CD04EF6AB
:1018D0000453CEF200034FF080521A60BFF34F8FD3
:1018E000BFF36F8F00E000BF02F0D0FE4FF00103A6
:1018F0006FE07B68002B04D102F0C8FE4FF00003BC
:1019000067E0FB69002B07D107F11403184601F0CB
:1019100045FA4FF00103FB6102F0B8FE00F0A6FEAD
:1019200002F07CFE7B6A93F84430DBB25BB2B3F129
:10193000FF3F04D17B6A4FF0000283F844207B6AAA
:1019400093F84530DBB25BB2B3F1FF3F04D17B6A61
:101950004FF0000283F8452002F098FE07F11402D0
:1019600007F104031046194601F03CFA0346002B28
:1019700028D1786A00F018FB0346002B1CD07B6A44
:1019800003F110027B681046194601F03DF9786AB0
:1019900000F09AFA00F07CFE0346002B7FF468AF5B
:1019A0004EF60453CEF200034FF080521A60BFF39C
:1019B0004F8FBFF36F8F5CE7786A00F085FA00F015
:1019C00067FE56E7786A00F07FFA00F061FE4FF09C
:1019D0000003184607F13807BD4680BD80B58EB0BC
:1019E00000AFF860B9607A603B60FB68BB61BB69BF
:1019F000002B09D14FF0A00383F31188BFF36F8F41
:101A0000BFF34F8F3B62FEE7BB68002B03D1BB697E
:101A10001B6C002B02D14FF0010301E04FF00003DB
:101A2000002B09D14FF0A00383F31188BFF36F8F10
:101A3000BFF34F8F7B62FEE73B68022B03D1BB698C
:101A4000DB6B012B02D14FF0010301E04FF00003EB
:101A5000002B09D14FF0A00383F31188BFF36F8FE0
:101A6000BFF34F8FBB62FEE702F0ACFEEFF31182D3
:101A70004FF0A00383F31188BFF36F8FBFF34F8F35
:101A80003A63FB623B6B7B61BB699A6BBB69DB6B47
:101A90009A4202D33B68022B34D1BB6993F845309C
:101AA000FB77B869B9683A6800F06EF997F91F30AA
:101AB000B3F1FF3F14D1BB695B6A002B19D0BB693E
:101AC00003F12403184601F0F1F80346002B12D06D
:101AD0007B68002B11D07B684FF001021A600DE08B
:101AE000FB7F03F10103DBB21A46BB6983F8452093
:101AF00004E000BF02E000BF00E000BF4FF00103C0
:101B00003B6102E04FF000033B617B697B637B6BD1
:101B100083F311883B69184607F13807BD4680BD3D
:101B200080B58EB000AFF860B9607A603B604FF06E
:101B30000003FB61FB687B627B6A002B09D14FF0DD
:101B4000A00383F31188BFF36F8FBFF34F8FFB6246
:101B5000FEE7BB68002B03D17B6A1B6C002B02D114
:101B60004FF0010301E04FF00003002B09D14FF0CB
:101B7000A00383F31188BFF36F8FBFF34F8F3B63D5
:101B8000FEE701F09BFA0346002B02D17B68002B95
:101B900002D14FF0010301E04FF00003002B0CD104
:101BA0004FF0A00383F31188BFF36F8FBFF34F8F04
:101BB0007B63FEE700BF00E000BF02F02FFD7B6A01
:101BC0009B6BBB62BB6A002B55D07B6ADB683B62B8
:101BD000786AB96800F050F93B68002B27D1BB6ADE
:101BE00003F1FF327B6A9A637B6A1B68002B05D185
:101BF00001F0D4FB03461A467B6A5A607B6A1B6974
:101C0000002B30D07B6A03F11003184601F04EF828
:101C10000346002B29D04EF60453CEF200034FF0BA
:101C200080521A60BFF34F8FBFF36F8F1EE07B6A45
:101C30003A6ADA607B6A5B6A002B17D07B6A03F131
:101C40002403184601F032F80346002B0ED04EF65E
:101C50000453CEF200034FF080521A60BFF34F8F4F
:101C6000BFF36F8F02E000BF00E000BF02F00EFD87
:101C70004FF0010383E07B68002B04D102F006FDE6
:101C80004FF000037BE0FB69002B07D107F1140341
:101C9000184601F083F84FF00103FB6102F0F6FCF7
:101CA00000F0E4FC02F0BAFC7B6A93F84430DBB24B
:101CB0005BB2B3F1FF3F04D17B6A4FF0000283F8BF
:101CC00044207B6A93F84530DBB25BB2B3F1FF3F4F
:101CD00004D17B6A4FF0000283F8452002F0D6FC65
:101CE00007F1140207F104031046194601F07AF8CF
:101CF0000346002B35D1786A00F03CF90346002BEF
:101D000029D07B6A1B68002B08D102F087FC7B6A14
:101D10005B68184601F0F6F902F0B8FC7B6A03F143
:101D200024027B681046194600F06EFF786A00F0C6
:101D3000CBF800F0ADFC0346002B7FF43BAF4EF632
:101D40000453CEF200034FF080521A60BFF34F8F5E
:101D5000BFF36F8F31E7786A00F0B6F800F098FCB7
:101D60002BE7786A00F0B0F800F092FC786A00F097
:101D700001F90346002B3FF41FAF4FF00003184654
:101D800007F13807BD4680BD80B586B000AFF8606A
:101D9000B9607A604FF000033B61FB689B6B7B612D
:101DA000FB681B6C002B0FD1FB681B68002B55D107
:101DB000FB685B68184601F04BFA03463B61FB6821
:101DC0004FF000025A604CE07B68002B1AD1FB6890
:101DD0009A68FB681B6C1046B9681A4606F0E8F969
:101DE000FB689A68FB681B6C1A44FB689A60FB6886
:101DF0009A68FB685B689A4232D3FB681A68FB6892
:101E00009A602EE0FB68DA68FB681B6C1046B968C4
:101E10001A4606F0CDF9FB68DA68FB681B6CC3F163
:101E200000031A44FB68DA60FB68DA68FB681B6829
:101E30009A4208D2FB685A68FB681B6CC3F1000326
:101E40001A44FB68DA607B68022B0AD17B69002B9D
:101E500007D07B6903F1FF337B6102E000BF00E044
:101E600000BF7B6903F10102FB689A633B69184676
:101E700007F11807BD4680BD80B582B000AF78601D
:101E800039607B681B6C002B19D07B68DA687B6833
:101E90001B6C1A447B68DA607B68DA687B685B6875
:101EA0009A4203D37B681A687B68DA607B68DA68D9
:101EB0007B681B6C386811461A4606F079F907F101
:101EC0000807BD4680BD00BF80B584B000AF786014
:101ED00002F0A4FB7B6893F84530BB7312E07B688B
:101EE0005B6A002B13D07B6803F12403184600F0D3
:101EF000DDFE0346002B01D000F0DCFFBB7B03F1CD
:101F0000FF33BB7397F90E30002BE8DC00E000BF15
:101F10007B684FF0FF3283F8452002F0B7FB02F0F8
:101F20007DFB7B6893F84430FB7312E07B681B6990
:101F3000002B13D07B6803F11003184600F0B6FEA7
:101F40000346002B01D000F0B5FFFB7B03F1FF330C
:101F5000FB7397F90F30002BE8DC00E000BF7B68D3
:101F60004FF0FF3283F8442002F090FB07F1100796
:101F7000BD4680BD80B584B000AF786002F04EFBF6
:101F80007B689B6B002B03D14FF00103FB6002E0E9
:101F90004FF00003FB6002F079FBFB68184607F185
:101FA0001007BD4680BD00BF80B584B000AF78602B
:101FB00002F034FB7B689A6B7B68DB6B9A4203D13F
:101FC0004FF00103FB6002E04FF00003FB6002F002
:101FD0005DFBFB68184607F11007BD4680BD00BFDA
:101FE00080B586B000AFF860B9607A60FB687B614D
:101FF00002F014FB7B6993F84430DBB25BB2B3F1BF
:10200000FF3F04D17B694FF0000283F844207B69D5
:1020100093F84530DBB25BB2B3F1FF3F04D17B698B
:102020004FF0000283F8452002F030FB7B699B6B88
:10203000002B07D17B6903F124031846B9687A683D
:1020400000F008FE7869FFF73FFF07F11807BD466B
:1020500080BD00BF80B58CB004AFF860B9603B6054
:102060001346FB80FB884FEA8303184601F08CFF80
:102070000346FB61FB69002B10D04FF05C0001F0C0
:1020800083FF03467B617B69002B03D07B69FA6980
:102090001A6306E0F86902F073F802E04FF00003FB
:1020A0007B617B69002B16D0FB88BA6A0092FA6AC2
:1020B00001927A6902924FF000020392F868B968BF
:1020C0001A463B6800F010F8786900F0A3F84FF06A
:1020D0000103BB6102E04FF0FF33BB61BB691846EF
:1020E00007F12007BD4680BD80B588B000AFF8601D
:1020F000B9607A603B603B6B1A6B7B684FEA830385
:1021000010464FF0A5011A4606F01AF93B6B1A6B00
:102110007B6803F1FF334FEA830313447B617B69E0
:1021200023F007037B617B6903F00703002B09D0D1
:102130004FF0A00383F31188BFF36F8FBFF34F8F6E
:10214000FB61FEE74FF00003BB6112E0B969BA68BA
:10215000BB6913441A783B6B0B4483F83420BA688C
:10216000BB6913441B78002B07D0BB6903F1010343
:10217000BB61BB69092BE9D900E000BF3B6B4FF0A5
:10218000000283F83D20BB6A042B02D94FF0040300
:10219000BB623B6BBA6ADA623B6BBA6A9A643B6BAE
:1021A0004FF00002DA643B6B03F104031846FFF7BB
:1021B00051F93B6B03F118031846FFF74BF93B6BE2
:1021C0003A6B1A61BB6AC3F105023B6B9A613B6BC8
:1021D0003A6B5A623B6B4FF000021A653B6B4FF053
:1021E00000025A653B6B4FF0000283F85820786973
:1021F000F9683A6802F010F903461A463B6B1A6018
:10220000FB6A002B02D0FB6A3A6B1A6007F12007C9
:10221000BD4680BD80B582B000AF786002F0FEF9A7
:1022200048F20463C2F200031B6803F1010248F2A2
:102230000463C2F200031A6048F22C53C2F2000396
:102240001B68002B0FD148F22C53C2F200037A68AE
:102250001A6048F20463C2F200031B68012B1AD112
:1022600000F050FE18E048F21063C2F200031B6851
:10227000002B11D148F22C53C2F200031B68DA6A1A
:102280007B68DB6A9A4207D848F22C53C2F20003FB
:102290007A681A6000E000BF48F22063C2F20003CF
:1022A0001B6803F1010248F22063C2F200031A60C6
:1022B00048F22063C2F200031A687B681A647B68E4
:1022C000DB6A4FF0010202FA03F248F20C63C2F239
:1022D00000031B6842EA030248F20C63C2F20003E7
:1022E0001A607B68DA6A13464FEA830313444FEAA5
:1022F00083031A4648F23053C2F200031A447B6843
:1023000003F1040310461946FFF7B2F802F0BEF9D4
:1023100048F21063C2F200031B68002B14D048F28D
:102320002C53C2F200031B68DA6A7B68DB6A9A42AC
:102330000AD24EF60453CEF200034FF080521A60D8
:10234000BFF34F8FBFF36F8F07F10807BD4680BD06
:1023500080B584B000AF78604FF00003BB607B684D
:10236000002B1BD048F22C63C2F200031B68002B29
:1023700009D04FF0A00383F31188BFF36F8FBFF331
:102380004F8FFB60FEE700F071F978684FF00001B5
:1023900001F09EF900F07CF90346BB60BB68002B9E
:1023A0000AD14EF60453CEF200034FF080521A6069
:1023B000BFF34F8FBFF36F8F07F11007BD4680BD8E
:1023C00080B584B000AF786002F028F97B68002BFC
:1023D00005D148F22C53C2F200031B6800E07B6871
:1023E000BB60BB68DB6AFB6002F050F9FB68184613
:1023F00007F11007BD4680BD80B588B000AF78609A
:1024000039604FF00003BB613B68042B09D94FF0E2
:10241000A00383F31188BFF36F8FBFF34F8FFB616E
:10242000FEE73B68042B02D94FF004033B6002F047
:10243000F5F87B68002B05D148F22C53C2F200035B
:102440001B6800E07B68FB60FB689B6C3B613A6942
:102450003B689A4200F0A9803A683B699A4214D9D5
:1024600048F22C53C2F200031B68FA689A4218D053
:1024700048F22C53C2F200031B68DA6A3B689A42A6
:1024800011D84FF00103BB610EE048F22C53C2F2A9
:1024900000031B68FA689A4206D14FF00103BB6142
:1024A00002E000BF00E000BFFB68DB6A7B61FB6805
:1024B0009A6CFB68DB6A9A4202D1FB683A68DA627E
:1024C000FB683A689A64FB689B69002B04DB3B68F5
:1024D000C3F10502FB689A61FB6859697A69134682
:1024E0004FEA830313444FEA83031A4648F23053FA
:1024F000C2F200031344994202D14FF0010301E0FC
:102500004FF00003002B42D0FB6803F10403184690
:10251000FFF70CF80346002B12D17B694FF0010244
:1025200002FA03F36FEA030248F20C63C2F20003FB
:102530001B6802EA030248F20C63C2F200031A604D
:10254000FB68DB6A4FF0010202FA03F248F20C6307
:10255000C2F200031B6842EA030248F20C63C2F2B3
:1025600000031A60FB68DA6A13464FEA83031344D8
:102570004FEA83031A4648F23053C2F200031A446A
:10258000FB6803F1040310461946FEF771FFBB69AF
:10259000002B0AD04EF60453CEF200034FF08052C7
:1025A0001A60BFF34F8FBFF36F8F02F06FF807F120
:1025B0002007BD4680BD00BF80B586B002AF4FF09A
:1025C0000003009348F22863C2F20003019342F62D
:1025D000CD60C2F2000048F22841C2F200014FF083
:1025E00050024FF00003FFF735FD03467B607B6828
:1025F000012B03D101F0F4F803467B607B68012BCB
:1026000022D14FF0A00383F31188BFF36F8FBFF384
:102610004F8FBB6048F22463C2F200034FF0FF32D9
:102620001A6048F21063C2F200034FF001021A6010
:1026300048F20863C2F200034FF000021A60FDF78F
:102640006FFE01F065FF0DE07B68B3F1FF3F09D13C
:102650004FF0A00383F31188BFF36F8FBFF34F8F49
:10266000FB60FEE707F11007BD4680BD80B400AFF8
:1026700048F22C63C2F200031B6803F1010248F226
:102680002C63C2F200031A60BD4680BC704700BFD5
:1026900080B584B000AF4FF000033B604FF0000303
:1026A0007B6048F22C63C2F200031B68002B09D147
:1026B0004FF0A00383F31188BFF36F8FBFF34F8FE9
:1026C000FB60FEE701F0AAFF48F22C63C2F20003B0
:1026D0001B6803F1FF3248F22C63C2F200031A6058
:1026E00048F22C63C2F200031B68002B40F0988074
:1026F00048F20463C2F200031B68002B00F09080D4
:102700004AE048F2C453C2F20003DB68DB683B6076
:102710003B6803F118031846FEF708FF3B6803F116
:1027200004031846FEF702FF3B68DB6A4FF0010224
:1027300002FA03F248F20C63C2F200031B6842EA99
:10274000030248F20C63C2F200031A603B68DA6AC3
:1027500013464FEA830313444FEA83031A4648F2B1
:102760003053C2F200031A443B6803F104031046DD
:102770001946FEF77DFE3B68DA6A48F22C53C2F236
:1027800000031B68DB6A9A4206D348F21863C2F260
:1027900000034FF001021A6048F2C453C2F2000372
:1027A0001B68002BADD13B68002B01D000F058FC1A
:1027B00048F21463C2F200031B68BB60BB68002BC5
:1027C00019D000F045F80346002B06D048F21863F4
:1027D000C2F200034FF001021A60BB6803F1FF333D
:1027E000BB60BB68002BECD148F21463C2F200035B
:1027F0004FF000021A6048F21863C2F200031B682F
:10280000002B0DD04FF001037B604EF60453CEF247
:1028100000034FF080521A60BFF34F8FBFF36F8FEA
:1028200001F034FF7B68184607F11007BD4680BDF4
:1028300080B483B000AF48F20863C2F200031B68A3
:102840007B607B68184607F10C07BD4680BC70476B
:1028500080B586B000AF4FF00003BB6048F22C6338
:10286000C2F200031B68002B40F0DC8048F20863D2
:10287000C2F200031B6803F10103FB6048F2086326
:10288000C2F20003FA681A60FB68002B35D148F2E7
:10289000BC53C2F200031B681B68002B09D04FF029
:1028A000A00383F31188BFF36F8FBFF34F8F7B615A
:1028B000FEE748F2BC53C2F200031B683B6148F2DA
:1028C000C053C2F200031A6848F2BC53C2F20003BC
:1028D0001A6048F2C053C2F200033A691A6048F223
:1028E0001C63C2F200031B6803F1010248F21C637F
:1028F000C2F200031A6000F0B3FB48F22463C2F294
:1029000000031B68FA689A4273D300E000BF48F2E4
:10291000BC53C2F200031B681B68002B02D14FF0AE
:10292000010301E04FF00003002B07D048F22463BD
:10293000C2F200034FF0FF321A605AE048F2BC5373
:10294000C2F200031B68DB68DB683B603B685B68C6
:102950007B60FA687B689A4206D248F22463C2F22E
:1029600000037A681A6044E03B6803F104031846E8
:10297000FEF7DCFD3B689B6A002B05D03B6803F14A
:1029800018031846FEF7D2FD3B68DB6A4FF00102E0
:1029900002FA03F248F20C63C2F200031B6842EA37
:1029A000030248F20C63C2F200031A603B68DA6A61
:1029B00013464FEA830313444FEA83031A4648F24F
:1029C0003053C2F200031A443B6803F1040310467B
:1029D0001946FEF74DFD3B68DA6A48F22C53C2F205
:1029E00000031B68DB6A9A4290D34FF00103BB607F
:1029F0008DE748F22C53C2F200031B68DA6A1346D3
:102A00004FEA830313444FEA83031A4648F23053D4
:102A1000C2F2000313441B68012B10D94FF00103CD
:102A2000BB600DE048F21463C2F200031B6803F1BF
:102A3000010248F21463C2F200031A6000E000BF12
:102A400048F21863C2F200031B68002B02D04FF05B
:102A50000103BB60BB68184607F11807BD4680BD7F
:102A600080B588B000AF48F22C63C2F200031B6847
:102A7000002B07D048F21863C2F200034FF00102A6
:102A80001A60BCE048F21863C2F200034FF0000283
:102A90001A60FDF769FC024648F23463C2F2000393
:102AA0001A6048F23463C2F200031A6848F23063D5
:102AB000C2F200031B689A4213D948F22C53C2F2A7
:102AC00000031A68116D48F23463C2F200031868FB
:102AD00048F23063C2F200031B68C3EB00030B44EF
:102AE000136548F23463C2F200031A6848F2306397
:102AF000C2F200031A6048F22C53C2F200031B68B2
:102B00001B6B7B604FF0A533BB607B681A68BB68AA
:102B10009A4214D17B6803F104031A68BB689A4295
:102B20000DD17B6803F108031A68BB689A4206D18D
:102B30007B6803F10C031A68BB689A420FD048F215
:102B40002C53C2F200031A6848F22C53C2F200035D
:102B50001B6803F1340310461946FDF773FC48F275
:102B60000C63C2F200031B687B617B69B3FA83F3D9
:102B7000FB76FB7EC3F11F03FB60FA6813464FEA46
:102B8000830313444FEA83031A4648F23053C2F2D8
:102B9000000313441B68002B09D14FF0A00383F3FB
:102BA0001188BFF36F8FBFF34F8FFB61FEE7FA68A9
:102BB00013464FEA830313444FEA83031A4648F24D
:102BC0003053C2F2000313443B613B695B685A68AF
:102BD0003B695A603B695A683B6903F108039A42B2
:102BE00004D13B695B685A683B695A603B695B6822
:102BF000DB681A4648F22C53C2F200031A6007F150
:102C00002007BD4680BD00BF80B584B000AF7860AE
:102C100039607B68002B09D14FF0A00383F3118842
:102C2000BFF36F8FBFF34F8FFB60FEE748F22C536B
:102C3000C2F200031B6803F1180378681946FEF717
:102C40003BFC38684FF0010100F042FD07F110072E
:102C5000BD4680BD80B586B000AFF860B9607A60CF
:102C6000FB68002B09D14FF0A00383F31188BFF359
:102C70006F8FBFF34F8F7B61FEE748F22C53C2F298
:102C800000031B6803F11803F8681946FEF7F0FB10
:102C90007B68002B02D04FF0FF33BB60B8687968C7
:102CA00000F016FD07F11807BD4680BD80B586B05F
:102CB00000AF78607B68DB68DB68FB60FB68002B3B
:102CC00009D14FF0A00383F31188BFF36F8FBFF3D7
:102CD0004F8F7B61FEE7FB6803F118031846FEF790
:102CE00025FC48F22C63C2F200031B68002B2DD197
:102CF000FB6803F104031846FEF718FCFB68DB6A67
:102D00004FF0010202FA03F248F20C63C2F2000330
:102D10001B6842EA030248F20C63C2F200031A6025
:102D2000FB68DA6A13464FEA830313444FEA8303CE
:102D30001A4648F23053C2F200031A44FB6803F10A
:102D4000040310461946FEF793FB09E0FB6803F104
:102D5000180348F2C450C2F200001946FEF788FB7F
:102D6000FB68DA6A48F22C53C2F200031B68DB6A84
:102D70009A420AD94FF001033B6148F21863C2F24C
:102D800000034FF001021A6002E04FF000033B61C4
:102D90003B69184607F11807BD4680BD80B485B071
:102DA00000AF78607B68002B09D14FF0A00383F35C
:102DB0001188BFF36F8FBFF34F8FFB60FEE748F2C0
:102DC0001C63C2F200031A687B681A6048F2086349
:102DD000C2F200031A687B685A6007F11407BD4607
:102DE00080BC704780B586B000AF786039607B6882
:102DF000002B09D14FF0A00383F31188BFF36F8F2D
:102E0000BFF34F8F3B61FEE73B68002B09D14FF0CA
:102E1000A00383F31188BFF36F8FBFF34F8F7B61E4
:102E2000FEE701F0FBFB48F20863C2F200031B68F7
:102E3000FB603B681B68B3F1FF3F03D14FF0000319
:102E4000BB602EE07B681A6848F21C63C2F2000384
:102E50001B689A4208D07B685A68FB689A4203D87C
:102E60004FF00103BB601CE07B685B68FA68C3EB52
:102E700002023B681B689A4210D23B681A687B6862
:102E80005968FB68C3EB01031A443B681A60786811
:102E9000FFF784FF4FF00003BB6002E04FF0010337
:102EA000BB6001F0F3FBBB68184607F11807BD468D
:102EB00080BD00BF80B400AF48F21863C2F20003C7
:102EC0004FF001021A60BD4680BC704780B582B0E9
:102ED00000AF786000F068F848F23053C2F20003A7
:102EE0001B68012B0AD94EF60453CEF200034FF0B3
:102EF00080521A60BFF34F8FBFF36F8FFDF79CFABC
:102F0000E8E700BF80B582B000AF4FF000037B6000
:102F100013E07A6813464FEA830313444FEA8303AE
:102F20001A4648F23053C2F2000313441846FEF723
:102F30006DFA7B6803F101037B607B68042BE8D9A1
:102F400048F29450C2F20000FEF760FA48F2A8502E
:102F5000C2F20000FEF75AFA48F2C450C2F2000072
:102F6000FEF754FA48F2D850C2F20000FEF74EFACB
:102F700048F2F050C2F20000FEF748FA48F2BC53A3
:102F8000C2F2000348F29452C2F200021A6048F200
:102F9000C053C2F2000348F2A852C2F200021A6003
:102FA00007F10807BD4680BD80B582B000AF3CE0A8
:102FB000FFF75CFB48F2D853C2F200031B68002BFA
:102FC00014BF002301233B60FFF762FB3B68002B2B
:102FD0002BD101F023FB48F2D853C2F20003DB6887
:102FE000DB687B607B6803F104031846FEF79EFAFA
:102FF00048F20463C2F200031B6803F1FF3248F297
:103000000463C2F200031A6048F2EC53C2F20003F8
:103010001B6803F1FF3248F2EC53C2F200031A605E
:1030200001F034FB786800F00BF848F2EC53C2F280
:1030300000031B68002BBBD107F10807BD4680BD0C
:1030400080B582B000AF78607B681B6B184601F0DA
:1030500097F8786801F094F807F10807BD4680BD3D
:1030600080B483B000AF48F2BC53C2F200031B68C7
:103070001B68002B02D14FF0010301E04FF0000369
:10308000002B07D048F22463C2F200034FF0FF3256
:103090001A600EE048F2BC53C2F200031B68DB6802
:1030A000DB687B607B685A6848F22463C2F20003E5
:1030B0001A6007F10C07BD4680BC704780B483B02E
:1030C00000AF48F21063C2F200031B68002B03D16B
:1030D0004FF001037B600DE048F22C63C2F2000365
:1030E0001B68002B03D14FF002037B6002E04FF01E
:1030F00000037B607B68184607F10C07BD4680BC67
:10310000704700BF80B584B000AF78607B68FB601B
:103110007B68002B00F09880FB68DA6A48F22C5339
:10312000C2F200031B68DB6A9A4280F08D80FB6864
:103130009B69002B09DB48F22C53C2F200031B6889
:10314000DB6AC3F10502FB689A61FB685969FB6899
:10315000DA6A13464FEA830313444FEA83031A469D
:1031600048F23053C2F200031344994202D14FF0A7
:10317000010301E04FF00003002B5DD0FB6803F179
:1031800004031846FEF7D2F90346002B24D1FB684E
:10319000DA6A13464FEA830313444FEA83031A465D
:1031A00048F23053C2F2000313441B68002B13D1C2
:1031B000FB68DB6A4FF0010202FA03F36FEA0302D5
:1031C00048F20C63C2F200031B6802EA030248F2F1
:1031D0000C63C2F200031A6048F22C53C2F20003DF
:1031E0001B68DA6AFB68DA62FB68DB6A4FF001028F
:1031F00002FA03F248F20C63C2F200031B6842EACF
:10320000030248F20C63C2F200031A60FB68DA6A38
:1032100013464FEA830313444FEA83031A4648F2E6
:103220003053C2F200031A44FB6803F10403104652
:103230001946FEF71DF907E048F22C53C2F20003CD
:103240001B68DA6AFB68DA6207F11007BD4680BDC9
:1032500080B586B000AF78607B68BB604FF000033C
:10326000FB607B68002B00F0928048F22C53C2F286
:1032700000031B68BA689A4209D04FF0A00383F399
:103280001188BFF36F8FBFF34F8F3B61FEE7BB68C1
:10329000DB6C002B09D14FF0A00383F31188BFF33F
:1032A0006F8FBFF34F8F7B61FEE7BB68DB6C03F171
:1032B000FF32BB68DA64BB68DA6ABB689B6C9A420F
:1032C00065D0BB68DB6C002B61D1BB6803F10403E4
:1032D0001846FEF72BF90346002B24D1BB68DA6AA7
:1032E00013464FEA830313444FEA83031A4648F216
:1032F0003053C2F2000313441B68002B13D1BB6888
:10330000DB6A4FF0010202FA03F36FEA030248F2AC
:103310000C63C2F200031B6802EA030248F20C636A
:10332000C2F200031A60BB689A6CBB68DA62BB68C1
:10333000DB6AC3F10502BB689A61BB68DB6A4FF0C8
:10334000010202FA03F248F20C63C2F200031B68A6
:1033500042EA030248F20C63C2F200031A60BB683F
:10336000DA6A13464FEA830313444FEA83031A468B
:1033700048F23053C2F200031A44BB6803F104035D
:1033800010461946FEF774F84FF00103FB60FB6826
:10339000184607F11807BD4680BD00BF80B400AFD6
:1033A00048F22C53C2F200031B68002B08D048F2ED
:1033B0002C53C2F200031B68DA6C02F10102DA64DA
:1033C00048F22C53C2F200031B681846BD4680BC6D
:1033D000704700BF80B584B000AF7860396001F0FD
:1033E0001DF948F22C53C2F200031B685B6D002BE1
:1033F0001BD148F22C53C2F200031B684FF00102AC
:1034000083F858203B68002B0FD038684FF001013B
:1034100000F05EF94EF60453CEF200034FF08052F6
:103420001A60BFF34F8FBFF36F8F01F02FF901F0D8
:10343000F5F848F22C53C2F200031B685B6DFB6089
:10344000FB68002B14D07B68002B08D048F22C536B
:10345000C2F200031B684FF000025A6508E048F210
:103460002C53C2F200031B68FA6802F1FF325A655E
:1034700048F22C53C2F200031B684FF0000283F89D
:10348000582001F003F9FB68184607F11007BD4604
:1034900080BD00BF80B586B000AFF860B9607A60CB
:1034A0003B6001F0BBF848F22C53C2F200031B68EA
:1034B00093F85830DBB2022B27D048F22C53C2F2DB
:1034C00000031B68596DFA686FEA020201EA020202
:1034D0005A6548F22C53C2F200031B684FF00102F8
:1034E00083F858203B68002B0FD038684FF001015B
:1034F00000F0EEF84EF60453CEF200034FF0805287
:103500001A60BFF34F8FBFF36F8F01F0BFF801F068
:1035100085F87B68002B07D048F22C53C2F20003D9
:103520001B685A6D7B681A6048F22C53C2F2000384
:103530001B6893F85830DBB2012B03D14FF0000326
:103540007B610EE048F22C53C2F200031B68596DF8
:10355000BA686FEA020201EA02025A654FF00103FB
:103560007B6148F22C53C2F200031B684FF000024B
:1035700083F8582001F08AF87B69184607F118078C
:10358000BD4680BD80B58AB000AF786039607B6889
:10359000002B09D14FF0A00383F31188BFF36F8F85
:1035A000BFF34F8F7B61FEE701F00CF97B68BB60D6
:1035B000EFF311824FF0A00383F31188BFF36F8FF5
:1035C000BFF34F8FFA61BB61FB693B61BB6893F846
:1035D0005830FB73BB684FF0020283F85820BB6879
:1035E0005B6D03F10102BB685A65FB7B012B65D162
:1035F000BB689B6A002B09D04FF0A00383F31188AE
:10360000BFF36F8FBFF34F8F3B62FEE748F22C632F
:10361000C2F200031B68002B2DD1BB6803F1040329
:103620001846FDF783FFBB68DB6A4FF0010202FA20
:1036300003F248F20C63C2F200031B6842EA030281
:1036400048F20C63C2F200031A60BB68DA6A1346E0
:103650004FEA830313444FEA83031A4648F2305378
:10366000C2F200031A44BB6803F104031046194672
:10367000FDF7FEFE09E0BB6803F1180348F2C450F1
:10368000C2F200001946FDF7F3FEBB68DA6A48F2A1
:103690002C53C2F200031B68DB6A9A420ED93B68C6
:1036A000002B04D03B684FF001021A6006E048F29C
:1036B0001863C2F200034FF001021A603B697B629B
:1036C0007B6A83F3118807F12807BD4680BD00BFE0
:1036D00080B584B000AF7860396048F20863C2F208
:1036E00000031B68FB6048F22C53C2F200031B6806
:1036F00003F104031846FDF719FF0346002B17D109
:1037000048F22C53C2F200031B68DB6A4FF001023F
:1037100002FA03F36FEA030248F20C63C2F20003F9
:103720001B6802EA030248F20C63C2F200031A604B
:103730007B68B3F1FF3F11D13B68002B0ED048F2FC
:103740002C53C2F200031B6803F1040348F2F0504B
:10375000C2F200001946FDF78BFE3DE0FA687B6877
:103760001344BB6048F22C53C2F200031B68BA68D2
:103770005A60BA68FB689A4210D248F2C053C2F24B
:1037800000031A6848F22C53C2F200031B6803F1CD
:10379000040310461946FDF78FFE1DE048F2BC53A6
:1037A000C2F200031A6848F22C53C2F200031B68ED
:1037B00003F1040310461946FDF77EFE48F2246328
:1037C000C2F200031B68BA689A4205D248F2246329
:1037D000C2F20003BA681A6007F11007BD4680BD47
:1037E00080B584B002AF4FF000033B6000F072FB85
:1037F00048F26863C2F200031B68002B17D04FF039
:103800000203009348F26C63C2F20003019343F693
:103810005120C2F2000048F25841C2F200014FF0BC
:10382000A0024FF00003FEF715FC03463B603B6827
:10383000002B09D14FF0A00383F31188BFF36F8FE2
:10384000BFF34F8F7B60FEE73B68184607F1080720
:10385000BD4680BD80B588B002AFF860B9607A60BF
:103860003B604FF02C0000F08FFB03467B617B69CF
:10387000002B09D03B6A00937B690193F868B96813
:103880007A683B6800F006F87B69184607F118076C
:10389000BD4680BD80B586B000AFF860B9607A6083
:1038A0003B60BB68002B09D14FF0A00383F3118864
:1038B000BFF36F8FBFF34F8F7B61FEE77B6A002BF7
:1038C00016D000F007FB7B6AFA681A607B6ABA6858
:1038D0009A617B6A7A68DA617B6A3A681A627B6A03
:1038E0003A6A5A627B6A03F104031846FDF7B2FD97
:1038F00007F11807BD4680BD80B58AB000AFF860FB
:10390000B9607A603B604FF000033B62FB68002BBC
:1039100009D14FF0A00383F31188BFF36F8FBFF37A
:103920004F8F7B62FEE748F26863C2F200031B68B8
:10393000002B40D0BB683B617B687B61FB68BB614F
:10394000BB68052B27DCFFF7B9FB0346022B10D120
:1039500048F26863C2F200031A6807F110031046C8
:1039600019463A6B4FF00003FDF720FF03463B6218
:1039700021E048F26863C2F200031A6807F11003FD
:10398000104619464FF000024FF00003FDF70EFFFE
:1039900003463B620FE048F26863C2F200031A6814
:1039A00007F11003104619463A684FF00003FEF77E
:1039B00015F803463B623B6A184607F12807BD46E7
:1039C00080BD00BF80B588B002AF7860396048F232
:1039D0006063C2F200031B68DB68DB683B613B6924
:1039E00003F104031846FDF7A1FD3B69DB69012BD8
:1039F00026D13B699A697B681344386919463A684D
:103A00007B6800F0DFF80346002B19D04FF000036D
:103A1000009338694FF000017A684FF00003FFF718
:103A20006BFF0346FB60FB68002B09D14FF0A0033E
:103A300083F31188BFF36F8FBFF34F8F7B61FEE776
:103A40003B695B6A3869984707F11807BD4680BD36
:103A500080B584B000AF786007F10803184600F025
:103A600061F80346FB60BB68F868194600F004F88B
:103A700000F0F4F8F0E700BF80B584B000AF7860E4
:103A80003960FEF7F3FD07F10803184600F072F8FD
:103A90000346FB60BB68002B3BD13B68002B0BD17E
:103AA0007A68FB689A4207D8FEF7F2FD7868F968F1
:103AB000FFF788FF00BF30E03B68002B0AD048F2D8
:103AC0006463C2F200031B681B68002B14BF002351
:103AD00001233B6048F26863C2F200031A68796808
:103AE000FB68C3EB0103104619463A68FEF778FA03
:103AF000FEF7CEFD0346002B0ED14EF60453CEF258
:103B000000034FF080521A60BFF34F8FBFF36F8FE7
:103B100003E0FEF7BDFD00E000BF07F11007BD4662
:103B200080BD00BF80B485B000AF786048F26063AC
:103B3000C2F200031B681B68002B14BF0022012285
:103B40007B681A607B681B68002B08D148F26063B1
:103B5000C2F200031B68DB681B68FB6002E04FF0E9
:103B60000003FB60FB68184607F11407BD4680BCE4
:103B7000704700BF80B584B000AF7860FEF758FE94
:103B80000346FB6048F27063C2F200031B68FA68E8
:103B90009A4206D200F024F97B684FF001021A60C5
:103BA00003E07B684FF000021A6048F27063C2F2D3
:103BB0000003FA681A60FB68184607F11007BD4653
:103BC00080BD00BF80B586B000AFF860B9607A6094
:103BD0003B604FF000037B61FB68BA685A60FB688A
:103BE000FA681A61BA687B689A4218D87A683B68A2
:103BF000C3EB0202FB689B699A4203D34FF00103B7
:103C00007B6124E048F26463C2F200031A68FB6837
:103C100003F1040310461946FDF74EFC17E07A68DD
:103C20003B689A4207D2BA683B689A4203D34FF086
:103C300001037B610BE048F26063C2F200031A6883
:103C4000FB6803F1040310461946FDF735FC7B6958
:103C5000184607F11807BD4680BD00BF80B58EB07D
:103C600002AFA5E07B68002B1ADA07F1040303F129
:103C700004033B623B6A002B09D14FF0A00383F39E
:103C80001188BFF36F8FBFF34F8F7B62FEE73B6AF4
:103C90001B683A6A51683A6A926808461146984722
:103CA0007B68002BC0F28480FB687B617B695B6969
:103CB000002B05D07B6903F104031846FDF736FCA1
:103CC0003B461846FFF756FF0346FB617B68092B0E
:103CD0006ED801A252F823F0013D0020013D0020E2
:103CE000013D0020B13D0020673D00209F3D0020A8
:103CF000013D0020013D0020B13D0020673D002036
:103D0000BA687B699B691A44BB6878691146FA698D
:103D1000FFF758FF0346002B45D07B695B6A786943
:103D200098477B69DB69012B3FD1BA687B699B6946
:103D300013444FF00002009278694FF000011A46D8
:103D40004FF00003FFF7D8FD0346BB61BB69002BB2
:103D50002DD14FF0A00383F31188BFF36F8FBFF312
:103D60004F8FBB62FEE7BA687B699A617B699B698A
:103D7000002B09D14FF0A00383F31188BFF36F8F9D
:103D8000BFF34F8FFB62FEE77B699A69FB691344BF
:103D900078691946FA69FB69FFF714FF08E078694A
:103DA00000F0EEF904E000BF02E000BF00E000BF59
:103DB00048F26863C2F200031A6807F10403104670
:103DC00019464FF000024FF00003FDF7A9FE03462D
:103DD000002B7FF447AF07F13007BD4680BD00BF21
:103DE00080B588B002AF53E048F26063C2F20003CE
:103DF0001B68DB681B683B6048F26063C2F200032B
:103E00001B68DB68DB68FB60FB6803F10403184692
:103E1000FDF78CFBFB685B6AF8689847FB68DB6919
:103E2000012B35D1FB689A693B6813447B607A6843
:103E30003B689A4212D9FB687A685A60FB68FA6854
:103E40001A6148F26063C2F200031A68FB6803F16A
:103E5000040310461946FDF72FFB19E04FF000034D
:103E60000093F8684FF000013A684FF00003FFF745
:103E700043FD03463B613B69002B09D14FF0A00392
:103E800083F31188BFF36F8FBFF34F8F7B61FEE722
:103E900048F26063C2F200031B681B68002BA3D1C9
:103EA00048F26063C2F200031B68BB6048F26463BF
:103EB000C2F200031A6848F26063C2F200031A609B
:103EC00048F26463C2F20003BA681A6007F1180787
:103ED000BD4680BD80B500AF00F0A0FB48F268632E
:103EE000C2F200031B68002B2BD148F23860C2F2EB
:103EF0000000FDF78BFA48F24C60C2F20000FDF7BB
:103F000085FA48F26063C2F2000348F23862C2F2F6
:103F100000021A6048F26463C2F2000348F24C6285
:103F2000C2F200021A604FF005004FF010014FF08E
:103F30000002FDF79DFB024648F26863C2F20003EF
:103F40001A6000F0A3FB80BD80B586B000AF78603A
:103F50007B68FB607B68002B09D14FF0A00383F3E3
:103F60001188BFF36F8FBFF34F8F7B61FEE700F0C7
:103F700055FBFB681B6A3B6100F088FB3B691846F8
:103F800007F11807BD4680BD80B58AB000AF7860E4
:103F90004FF00003BB61FEF769FB4EF62403C2F24B
:103FA00000031B68002B01D100F056F94EF63003D8
:103FB000C2F200031A687B6802EA0303002B40F098
:103FC000C2807B68002B21D048F26043C2F200031C
:103FD0001B687A6813447B607B6803F00703002B3F
:103FE00014D07B6823F0070303F108037B607B6830
:103FF00003F00703002B09D04FF0A00383F31188CF
:10400000BFF36F8FBFF34F8FFB61FEE77B68002B21
:1040100000F099804EF62803C2F200031B687A680C
:104020009A4200F290804EF61C03C2F200033B61FC
:104030004EF61C03C2F200031B68FB6004E0FB6841
:104040003B61FB681B68FB60FB685A687B689A42AF
:1040500003D2FB681B68002BF1D14EF62403C2F299
:1040600000031B68FA689A426DD03B691A6848F2EF
:104070006043C2F200031B681344BB61FB681A680B
:104080003B691A60FB685A687B68C3EB020248F21E
:104090006043C2F200031B684FEA43039A421FD9F0
:1040A000FA687B6813447B617B6903F00703002B8C
:1040B00009D04FF0A00383F31188BFF36F8FBFF3D4
:1040C0004F8F3B62FEE7FB685A687B68C3EB0202D6
:1040D0007B695A60FB687A685A60786900F03EF93B
:1040E0004EF62803C2F200031A68FB685B68C3EB54
:1040F00002024EF62803C2F200031A604EF62803AD
:10410000C2F200031A684EF62C03C2F200031B68C9
:104110009A4209D24EF62803C2F200031A684EF6FC
:104120002C03C2F200031A60FB685A684EF6300393
:10413000C2F200031B6842EA0302FB685A60FB6894
:104140004FF000021A60FEF7A3FABB69002B01D101
:10415000FCF764F9BB6903F00703002B09D04FF0AB
:10416000A00383F31188BFF36F8FBFF34F8F7B6280
:10417000FEE7BB69184607F12807BD4680BD00BFB2
:1041800080B586B000AF78607B68BB607B68002B31
:104190005ED048F26043C2F200031B68C3F1000323
:1041A000BA681344BB60BB68FB60FB685A684EF694
:1041B0003003C2F200031B6802EA0303002B09D19B
:1041C0004FF0A00383F31188BFF36F8FBFF34F8FBE
:1041D0003B61FEE7FB681B68002B09D04FF0A00392
:1041E00083F31188BFF36F8FBFF34F8F7B61FEE7BF
:1041F000FB685A684EF63003C2F200031B6802EAFD
:104200000303002B24D0FB681B68002B20D1FB6824
:104210005A684EF63003C2F200031B686FEA0303CC
:1042200002EA0302FB685A60FEF720FAFB685A684C
:104230004EF62803C2F200031B681A444EF6280308
:10424000C2F200031A60F86800F088F8FEF720FA5E
:1042500007F11807BD4680BD80B485B000AF46F2B7
:10426000A813FB6048F27463C2F20003BB60BB6832
:1042700003F00703002B11D0BB6803F10703BB60F9
:10428000BB6823F00703BB60FA68BB68C3EB02029C
:1042900048F27463C2F200031344FB60BB687B60A6
:1042A0007A684EF61C03C2F200031A604EF61C0335
:1042B000C2F200034FF000025A607A68FB681344B0
:1042C000BB6048F26043C2F200031B68BA68C3EBEC
:1042D0000203BB60BB6823F00703BB60BA684EF6FD
:1042E0002403C2F200031A604EF62403C2F2000354
:1042F0001B684FF000025A604EF62403C2F200031E
:104300001B684FF000021A607B683B603B68BA682C
:10431000C3EB02023B685A604EF62403C2F200036C
:104320001A683B681A603B685A684EF62C03C2F262
:1043300000031A603B685A684EF62803C2F2000375
:104340001A604EF63003C2F200034FF000421A60CA
:1043500007F11407BD4680BC704700BF80B485B02C
:1043600000AF78604EF61C03C2F20003BB6002E0AF
:10437000BB681B68BB60BB681A687B689A42F7D34E
:10438000BB68FB60BB685A68FB681A447B689A424A
:1043900008D1BB685A687B685B681A44BB685A607E
:1043A000BB687B607B68FB607B685A68FB681A446B
:1043B000BB681B689A421ED1BB681A684EF624037C
:1043C000C2F200031B689A420DD07B685A68BB6832
:1043D0001B685B681A447B685A60BB681B681A6874
:1043E0007B681A600BE04EF62403C2F200031A68E1
:1043F0007B681A6003E0BB681A687B681A60BA6859
:104400007B689A4202D0BB687A681A6007F1140789
:10441000BD4680BC704700BF80B485B000AFF86077
:10442000B9607A60FB68A3F10403FB60FB684FF09E
:1044300080721A60FB68A3F10403FB60BB6823F081
:104440000102FB681A60FB68A3F10403FB6044F2FD
:104450008143C2F20003FA681360FB68A3F11403FE
:10446000FB607A68FB681A60FB68A3F12003FB60BD
:10447000FB68184607F11407BD4680BC704700BFB3
:1044800080B483B000AF48F2C443C2F200031B689B
:10449000B3F1FF3F09D04FF0A00383F31188BFF3BE
:1044A0006F8FBFF34F8F3B60FEE74FF0A00383F3A6
:1044B0001188BFF36F8FBFF34F8F7B60FEE700BFA4
:1044C000074B19680868B0E8F00F80F30988BFF35C
:1044D0006F8F4FF0000080F311884EF00D0E704783
:1044E0002C850020AFF30080AFF30080AFF3008095
:1044F00006480068006880F3088862B661B6BFF3BA
:104500004F8FBFF36F8F00DF00BF000008ED00E0AA
:1045100080B584B000AF4EF20043CEF20003FB60E2
:10452000FB681B78DBB2BB60FB684FF0FF321A7090
:10453000FB681B78DBB2FB71FB79DBB21A4602F039
:10454000A0024EF63403C2F200031A704EF638038E
:10455000C2F200034FF007021A6011E04EF6380372
:10456000C2F200031B6803F1FF324EF63803C2F2B9
:1045700000031A60FB79DBB24FEA4303DBB2FB7145
:10458000FB79DBB25BB2002BE8DB4EF63803C2F2FC
:1045900000031B684FEA03224EF63803C2F2000301
:1045A0001A604EF63803C2F200031B6803F4E0629F
:1045B0004EF63803C2F200031A60BB68DAB2FB6839
:1045C0001A704EF62053CEF200034EF62052CEF271
:1045D0000002126842F470021A604EF62053CEF2C6
:1045E00000034EF62052CEF20002126842F07042F2
:1045F0001A6000F0C7F848F2C443C2F200034FF05B
:1046000000021A60FFF774FFFFF73AFF4FF0000354
:10461000184607F11007BD4680BD00BF80B483B0C7
:1046200000AF4FF0A00383F31188BFF36F8FBFF388
:104630004F8F3B6048F2C443C2F200031B6803F192
:10464000010248F2C443C2F200031A6048F2C443B4
:10465000C2F200031B68012B12D14EF60453CEF2B6
:1046600000031B6803F0FF03002B09D04FF0A003E9
:1046700083F31188BFF36F8FBFF34F8F7B60FEE72B
:1046800007F10C07BD4680BC704700BF80B483B003
:1046900000AF48F2C443C2F200031B68002B09D1EB
:1046A0004FF0A00383F31188BFF36F8FBFF34F8FD9
:1046B0003B60FEE748F2C443C2F200031B6803F10B
:1046C000FF3248F2C443C2F200031A6048F2C44306
:1046D000C2F200031B68002B05D14FF000037B6082
:1046E0007B6883F3118807F10C07BD4680BC7047D7
:1046F000EFF30980BFF36F8F0D4B1A6820E9F00FBD
:1047000010602DE908404FF0A00080F31188FEF7FB
:10471000A7F94FF0000080F31188BDE80840196840
:104720000868B0E8F00F80F30988BFF36F8F704717
:104730002C850020AFF30080AFF30080AFF3008042
:1047400080B582B000AF4FF0A00383F31188BFF3B0
:104750006F8FBFF34F8F3B60FEF77AF80346002B55
:1047600006D04EF60453CEF200034FF080521A608A
:104770004FF000037B607B6883F3118807F1080723
:10478000BD4680BD80B400AF4EF21403CEF20003EC
:1047900048F20452C2F20002116844F6D352C1F248
:1047A0006202A2FB01024FEA921202F1FF321A608A
:1047B0004EF21003CEF200034FF007021A60BD461E
:1047C00080BC704780B485B000AFEFF305833B60D9
:1047D0003B680F2B1AD948F26443C2F200031A68EF
:1047E0003B6813441B78FB714EF63403C2F200039E
:1047F0001B78FA799A4209D24FF0A00383F311880B
:10480000BFF36F8FBFF34F8FBB60FEE74EF60C53C5
:10481000CEF200031B6803F4E0624EF63803C2F2E6
:1048200000031B689A4209D94FF0A00383F3118853
:10483000BFF36F8FBFF34F8FFB60FEE707F11407E5
:10484000BD4680BC704700BF80B483B000AF034654
:10485000FB714EF20013CEF2000397F907204FEAE6
:104860005212F97901F01F014FF0010000FA01F135
:1048700043F8221007F10C07BD4680BC704700BF0B
:1048800080B483B000AF03463960FB7197F90730FD
:10489000002B10DA4EF60053CEF20003FA7902F044
:1048A0000F02A2F104013A68D2B24FEA0212D2B268
:1048B0000B441A760DE04EF20013CEF2000397F986
:1048C00007103A68D2B24FEA0212D2B20B4483F810
:1048D000002307F10C07BD4680BC704790B589B036
:1048E00000AF78604EF6B073C2F200031B68184642
:1048F000FDF766FD0346BB614EF6CC73C2F20003C2
:104900001B68002B00F0EC814FF00003BB774FF0E9
:104910000003FB774EF62012C2F200024EF6B87387
:10492000C2F200031A6007F1160107F1140207F141
:104930001203084611461A46FBF7BCFD0346BB7737
:1049400007F10E0107F10C0207F10A0308461146B0
:104950001A46FBF745FF0346BB774EF6B873C2F223
:1049600000031A684EF6A473C2F200031B8803F01A
:10497000FF014FF0000040EA010191734FEA132359
:104980009BB24FF0000141EA0303D3734EF6B873B4
:10499000C2F200031A684EF6E473C2F200031B88E9
:1049A00003F0FF014FF0000040EA010111744FEAEB
:1049B00013239BB24FF0000141EA030353744EF6F8
:1049C000B873C2F200031B68FA8A02F0FF014FF0CD
:1049D000000040EA010199744FEA122292B24FF0AE
:1049E000000141EA0202DA744EF6B873C2F2000323
:1049F0001B68BA8A02F0FF014FF0000040EA010193
:104A000019754FEA122292B24FF0000141EA0202F8
:104A10005A754EF6B873C2F200031B687A8A02F028
:104A2000FF014FF0000040EA010199754FEA1222A0
:104A300092B24FF0000141EA0202DA754EF6B87305
:104A4000C2F200031B68FA8902F0FF014FF0000078
:104A500040EA010119764FEA122292B24FF00001AA
:104A600041EA02025A764EF6B873C2F200031B689E
:104A7000BA8902F0FF014FF0000040EA0101997687
:104A80004FEA122292B24FF0000141EA0202DA76B6
:104A90004EF6B873C2F200031B687A8902F0FF0178
:104AA0004FF0000040EA010119774FEA122292B25A
:104AB0004FF0000141EA02025A7707F10803184655
:104AC000FCF700F80346BB774EF6B873C2F200035A
:104AD0001B683A8902F0FF014FF0000040EA010133
:104AE00099774FEA122292B24FF0000141EA020296
:104AF000DA774EF6B873C2F200031C6807F11103AF
:104B00004FF040004FF001011A46FCF717F9034639
:104B10009BB203F0FF024FF0000141EA020284F869
:104B200021204FEA13239BB24FF0000242EA030315
:104B300084F822307A7CFB7F1344FB774EF6B873FF
:104B4000C2F200031C6807F111034FF040004FF060
:104B500002011A46FCF7F2F803469BB203F0FF028B
:104B60004FF0000141EA020284F825204FEA1323A6
:104B70009BB24FF0000242EA030384F826307A7CAD
:104B8000FB7F1344FB774EF6B873C2F200031C6838
:104B900007F111034FF040004FF003011A46FCF7F4
:104BA000CDF803469BB203F0FF024FF0000141EA4B
:104BB000020284F829204FEA13239BB24FF000022F
:104BC00042EA030384F82A307A7CFB7F1344FB77A4
:104BD0004EF6B873C2F200031C6807F111034FF0E0
:104BE00040004FF001011A46FCF706F903469BB25C
:104BF00003F0FF024FF0000141EA020284F8232093
:104C00004FEA13239BB24FF0000242EA030384F8F9
:104C100024307A7CFB7F1344FB774EF6B873C2F2E4
:104C200000031C6807F111034FF040004FF0020130
:104C30001A46FCF7E1F803469BB203F0FF024FF07F
:104C4000000141EA020284F827204FEA13239BB2B5
:104C50004FF0000242EA030384F828307A7CFB7F9D
:104C60001344FB774EF6B873C2F200031C6807F1D9
:104C700011034FF040004FF003011A46FCF7BCF857
:104C800003469BB203F0FF024FF0000141EA02022B
:104C900084F82B204FEA13239BB24FF0000242EA24
:104CA000030384F82C307A7CFB7F1344FB774EF6A9
:104CB0002013C2F200034FF0010283F8FF214EF6E9
:104CC000B073C2F200031A68BB6903F10103104616
:104CD0001946FDF791FB4FF00100FCF787F922E63A
:104CE00007F12407BD4690BDB0B584B000AF786031
:104CF0004FF00000FDF764FB0346BB604EF6D8732F
:104D0000C2F200031B68002B53D04EF64002C2F2E1
:104D100000024EF6E073C2F200031A604FF0000387
:104D2000FB732EE04EF6E073C2F200031C68FD7BBD
:104D3000BB7BFA7B4EF61C70C2F200004FF02101E3
:104D4000FCF7BAF80346194605F1040201F0FF002A
:104D50004FEA420323444FF0000C4CEA00009871E4
:104D60004FEA112398B24FEA420323444FF0000266
:104D70001146024641EA0202DA71FB7B03F10103AC
:104D8000FB73FB7B062BCDD94EF64003C2F200032A
:104D90004FF0020283F83120BB68A3F102034FF009
:104DA00000001946FDF728FB4FF00500FCF71EF93F
:104DB000B4E707F11007BD46B0BD00BF80B588B0AD
:104DC00000AFB96013460246FA73FB71FB7B3B757B
:104DD000BB68BB61FB793B77F97B4EF62452C2F28C
:104DE00000020B464FEAC3030B444FEA430313444C
:104DF00003F110031B88002B11D04EF6DC73C2F2B6
:104E000000031A6807F11403104619464FF0000218
:104E10004FF00003FCF7CAFC00F026F90EE04EF656
:104E2000A873C2F200031A6807F11403104619466A
:104E30004FF000024FF00003FCF7B8FC07F1200729
:104E4000BD4680BD80B584B000AF78604FF00003F0
:104E50007B817868FFF778F80346FB60FB68002BDE
:104E60007DD14EF6B873C2F200031B684FF000020A
:104E700042F008021A704FF0000242F001025A702C
:104E80004EF6B873C2F200031A687B8903F101037E
:104E90007B817B896FEA83436FEA93439BB29BB22A
:104EA0004FEA032399B27B8903F101037B817B895C
:104EB0006FEA83436FEA93439BB29BB24FEA13239B
:104EC0009BB241EA03039BB29BB203F0FF014FF098
:104ED000000040EA010191704FEA13239BB24FF0AA
:104EE000000141EA0303D3704EF6B873C2F2000327
:104EF0001B684FF000021A714FF0000242F02E02C0
:104F00005A714EF6B873C2F200031B684FF00002EC
:104F10009A714FF00002DA714FF000021A724FF0EE
:104F200000025A724EF6B873C2F200031B684FF0CB
:104F300000029A724FF00002DA724FF000021A7308
:104F40004FF000025A734EF6B873C2F200031B68AA
:104F50004FF0000019464FF02E02FFF72FFFFB68BD
:104F6000012B7DD14EF6E073C2F200031B684FF0B7
:104F7000000242F008021A704FF0000242F00202F2
:104F80005A704EF6E073C2F200031A687B8903F18F
:104F900001037B817B896FEA83436FEA93439BB272
:104FA0009BB24FEA032399B27B8903F101037B8112
:104FB0007B896FEA83436FEA93439BB29BB24FEACC
:104FC00013239BB241EA03039BB29BB203F0FF01A0
:104FD0004FF0000040EA010191704FEA13239BB2A9
:104FE0004FF0000141EA0303D3704EF6E073C2F2C2
:104FF00000031B684FF000021A714FF0000242F0EC
:105000001E025A714EF6E073C2F200031B684FF0A5
:1050100000029A714FF00002DA714FF000021A722A
:105020004FF000025A724EF6E073C2F200031B68A2
:105030004FF000029A724FF00002DA724FF0000255
:105040001A734FF000025A734EF6E073C2F2000377
:105050001B684FF0010019464FF01E02FFF7AEFE2D
:1050600007F11007BD4680BD80B586B000AF7860FF
:105070004EF6DC73C2F200031A6807F10C03104607
:1050800019464FF0FF324FF00003FCF749FD3B6932
:105090001A463B7D4FF22C00C2F2000011461A4620
:1050A00000F050FB07F11807BD4680BD80B584B005
:1050B00000AF786007F10C034FF000004FF00001E3
:1050C0001A464FF0FF33FEF7E5F94FF001004FF0BD
:1050D0000101FEF77FF97A684EF65053C2F20003E1
:1050E0001A604EF65053C2F200031B681846FBF7D5
:1050F000AFFF0346002B15D04EF65053C2F200030B
:105100001B681846FCF78EF84EF6A473C2F2000333
:105110001B8803F101039AB24EF6A473C2F2000396
:105120001A80C7E74EF6E473C2F200031B8803F14E
:1051300001039AB24EF6E473C2F200031A80B9E793
:1051400080B584B000AF786078684EF6E001C2F2B6
:1051500000014FF0080200F067FB02464EF61C13F8
:10516000C2F200031A604FF00003FB604EF63C03EE
:10517000C2F200031A6807F10C0310461946FEF745
:1051800001FAFB68002B0AD04EF60453CEF200035E
:105190004FF080521A60BFF34F8FBFF36F8F07F14C
:1051A0001007BD4680BD00BF90B58DB002AF4FF077
:1051B00038033B744FF000037B744FF00003BB7463
:1051C00048F28C42C2F2000207F10C031268114649
:1051D000198003F102034FEA12421A7048F290421A
:1051E000C2F2000207F1080312681146198003F1A8
:1051F00002034FEA12421A7048F29442C2F20002CD
:1052000007F1040312681146198003F102034FEA03
:1052100012421A704EF62043C2F200037B6148F23C
:10522000C843C2F20003BB617A6940F65973C2F207
:10523000000313607B691B684FF00000B969984751
:105240004EF61C70C2F2000044F20001C5F20001EB
:105250004FF021024FF0000301F03EFD4EF62043D7
:10526000C2F20003FB6148F2E843C2F200033B6272
:10527000FA6940F65973C2F200031360FB691B68B8
:105280004FF00A00396A98474FF003004FF00C01C5
:105290004FF00002FCF7ECF902464EF6DC73C2F266
:1052A00000031A604FF003004FF00C014FF00002B2
:1052B000FCF7DEF902464EF6A873C2F200031A604C
:1052C0004FF000004FF00301FBF7CCF84FF0010066
:1052D0004FF00A01FBF7C6F84FF00A00FFF7B4FAE7
:1052E0004FF00A004FF09F01FFF7CAFA4FF22C006F
:1052F000C2F200004FF416514FF0030200F0E0F943
:105300004FF22C00C2F2000045F24111C2F200013E
:105310004FF0800200F0F6FA4FF00100FCF72AFA95
:1053200002464EF6C873C2F200031A604FF0020341
:1053300000934EF6D473C2F20003019344F6DD00ED
:10534000C2F2000048F26841C2F200014FF0500280
:105350004EF62013C2F20003FCF77CFE02464EF626
:10536000CC73C2F200031A604FF0010300934EF6B3
:10537000B073C2F20003019344F6E940C2F20000A8
:1053800048F26C41C2F200014FF050024EF6201379
:10539000C2F20003FCF75EFE02464EF6D873C2F27C
:1053A00000031A604FF0030300934EF63C03C2F271
:1053B0000003019345F2AD00C2F2000048F27441CF
:1053C000C2F200014FF050024EF6E003C2F20003B9
:1053D000FCF740FE4FF0000387F827308EE097F887
:1053E00027104EF62452C2F200020B464FEAC303C6
:1053F0000B444FEA4303134403F110031A8842F2AB
:1054000010739A4245D097F8274097F827104EF628
:105410002452C2F200020B464FEAC3030B444FEA88
:105420004303134403F110031B881846FBF7F8FDF0
:10543000024697F827309C4644F64563C2F20003C3
:10544000009348F28040C2F2000011464FF0010282
:105450006346FEF7FFF902464EF64853C2F20003D8
:1054600043F8242097F827204EF64853C2F2000351
:1054700053F82240FDF7DCF903464FF0000200929A
:1054800020464FF001011A464FF00003FEF734FAB0
:105490002EE097F8274097F827104EF62452C2F2D4
:1054A00000020B464FEAC3030B444FEA4303134485
:1054B00003F110031B881846FBF7B2FD024697F86C
:1054C00027309C4644F64563C2F20003009348F23D
:1054D0008040C2F2000011464FF001026346FEF721
:1054E000B9F902464EF64853C2F2000343F82420AD
:1054F00097F8273003F1010387F8273097F8273012
:10550000012B7FF66CAFFDF757F807F12C07BD466E
:1055100090BD00BF80B500AF4EF66450C2F20000EF
:1055200001F000FE80BD00BF80B500AF4EF6D05048
:10553000C2F2000001F0F6FD80BD00BF80B500AFF3
:105540004EF67400C2F2000001F0ECFD80BD00BF19
:1055500080B500AF4EF6A860C2F2000001F0E2FD97
:1055600080BD00BF80B500AF4EF61C70C2F20000D7
:1055700001F0D8FD80BD00BF80B500AF4EF63C60A5
:10558000C2F2000001F0CEFD80BD00BF80B483B048
:1055900000AF0346FB714EF20013CEF2000397F901
:1055A00007204FEA5212F97901F01F014FF0010074
:1055B00000FA01F143F8221007F10C07BD4680BC48
:1055C000704700BF80B483B000AF0346FB714EF25A
:1055D0000013CEF2000397F907204FEA5212F9792F
:1055E00001F01F014FF0010000FA01F102F1600229
:1055F00043F8221007F10C07BD4680BC704700BF7E
:1056000080B483B000AF78600B46FB707B6803F01A
:1056100070427B6823F07F4323F470034FEA431307
:105620001A44FB784FEA8303134403F100734FF0ED
:1056300001021A6007F10C07BD4680BC704700BF2D
:1056400080B483B000AF78600B46FB707B6803F0DA
:1056500070427B6823F07F4323F470034FEA4313C7
:105660001A44FB784FEA8303134403F100734FF0AD
:1056700000021A6007F10C07BD4680BC704700BFEE
:1056800080B483B000AF78600B46FB707B6803F09A
:1056900070427B6823F07F4323F470034FEA431387
:1056A0001A44FB784FEA8303134403F100731B6829
:1056B000DBB2184607F10C07BD4680BC704700BF3F
:1056C00080B584B000AFF860B9601346FB71FA682A
:1056D0004FF22C03C2F200039A4207D0FA684EF64A
:1056E000EC73C2F200039A4200D000BEFB79F86866
:1056F000B9681A4600F056FAFB681B6803F13003DC
:1057000018464FF00301FFF79BFFFB681B6803F18E
:10571000340318464FF00201FFF792FFFB681B6845
:1057200003F1380318464FF00001FFF789FFFA68CC
:1057300046F23D03C2F20003536207F11007BD4673
:1057400080BD00BF80B489B000AFF860B9607A60F6
:105750004FF000033B61FA684FF22C03C2F20003E2
:105760009A4207D0FA684EF6EC73C2F200039A42EE
:1057700000D000BEBB68002B00D100BE7B68002BB0
:1057800000D100BEFA684FF22C03C2F200039A4225
:1057900006D0FA684EF6EC73C2F200039A423DD18D
:1057A000BB68002B3AD07B68002B37D0FB681B68A6
:1057B0001B7DFB76FB685A7BFB7E42EA0303DAB271
:1057C000FB685A73FB7E03F02003002B23D04FF0BD
:1057D0001003FB617B680F2B01D87B68FB614FF0E6
:1057E00000037B610EE0FB681B68B9683A690A44F4
:1057F00012781A703B6903F101033B617B6903F185
:1058000001037B617A69FB699A42ECD37A687B6910
:10581000C3EB02037B607B68002BC7D107F1240731
:10582000BD4680BC704700BF80B487B000AFF86051
:10583000B9607A604FF000033B614FF00003FB75E5
:10584000FA684FF22C03C2F200039A4207D0FA68BA
:105850004EF6EC73C2F200039A4200D000BEBB6861
:10586000002B00D100BE7B68002B00D100BEFA687F
:105870004FF22C03C2F200039A4206D0FA684EF6A9
:10588000EC73C2F200039A4234D1BB68002B31D0D2
:105890007B68002B2ED0FB681B681B7DFB75FB68AB
:1058A0005A7BFB7D42EA0303DAB2FB685A7317E0C6
:1058B000BA683B691344FA6812681278D2B21A7057
:1058C0003B6903F101033B61FB681B681B7DFB75B2
:1058D000FB685A7BFB7D42EA0303DAB2FB685A732A
:1058E000FB7D03F00103DBB2002B03D03A697B6838
:1058F0009A42DDD33B69184607F11C07BD4680BCC0
:10590000704700BF80B584B000AFF860B96013463F
:10591000FB71FA684FF22C03C2F200039A4207D0DF
:10592000FA684EF6EC73C2F200039A4200D000BE51
:10593000BB68002B00D100BEFB79C02B00D900BE94
:10594000FA684FF22C03C2F200039A4206D0FA68BA
:105950004EF6EC73C2F200039A422ED1BB68002BC4
:105960002BD0FB79C02B28D8FB68BA681A62FB6879
:105970001A68FB681B681B7ADBB2DBB203F03F03DB
:10598000F8791946034641EA0303DBB2DBB213722E
:10599000FB681B795BB21846FFF714FEFB681B68B7
:1059A00003F1040318464FF00001FFF729FEFB68DE
:1059B0001B795BB21846FFF7E9FD07F11007BD46FA
:1059C00080BD00BF684620F007018D4689B500AF55
:1059D0004FF22C00C2F2000000F01AFABD46BDE8FA
:1059E00089408546704700BF684620F007018D4614
:1059F00089B500AF4EF6EC70C2F2000000F008FA74
:105A0000BD46BDE889408546704700BF80B588B077
:105A100000AF786039607A684FF22C03C2F200035D
:105A20009A4207D07A684EF6EC73C2F200039A42AB
:105A300000D000BE7A684FF22C03C2F200039A42F3
:105A400007D07A684EF6EC73C2F200039A4240F037
:105A5000A4807B683A689A6002F092F97A684FF203
:105A60002C03C2F200039A4206D148F20853C2F254
:105A700000031B68FB6105E048F20C53C2F200030F
:105A80001B68FB61FB694FEAC3023B68B2FBF3F39F
:105A90007B617B694FEA53033B613B694FEA931398
:105AA000FB60FB684FEA83133A69C3EB0203BB61F7
:105AB000FB684FEAC3137A69C3EB0202BB694FEA82
:105AC0004303C3EB0203BA691344BB61FA684FF6A0
:105AD000FF739A4200D900BEFA684FF6FF739A42EC
