:020000042000DA
:100000000000012089010020F9010020FB010020EF
:10001000FD010020FF01002001020020000000007F
:10002000000000000000000000000000C1440020AB
:100030000502002000000000F1460020414700209A
:100040000B0200200D0200200F02002011020020F0
:1000500013020020150200201702002019020020C0
:100060001B0200201D020020155A0020395A0020D2
:100070002302002025020020270200202902002060
:100080002B0200202D0200202F0200203102002030
:100090003302002035020020370200203902002000
:1000A0003B0200203D0200203F02002041020020D0
:1000B00043020020450200204702002049020020A0
:1000C0004B0200204D02002065550020795500208C
:1000D0008D550020A1550020B5550020C9550020A0
:1000E0005B0200205D0200205F0200206102002010
:1000F00063020020650200206702002069020020E0
:100100006B0200206D0200206F02002071020020AF
:10011000730200207502002077020020790200207F
:100120007B0200207D0200207F020020810200204F
:10013000830200208502002087020020890200201F
:100140008B0200208D0200208F02002091020020EF
:1001500093020020950200209702002099020020BF
:100160009B0200209D0200209F020020A10200208F
:10017000A3020020A5020020A7020020A90200205F
:10018000AB020020AD0200204948804749480028C2
:100190000BD1494849494A4A884206D091421CBF7E
:1001A00050F8043B41F8043BF8D146484649474AD9
:1001B000884206D091421CBF50F8043B41F8043BF2
:1001C000F8D143484349444A914218BF41F8040BCF
:1001D000FAD1000000000000000000000000000054
:1001E000DFF8F8000FF2030E00474FF000004FF069
:1001F0000001DFF8ECF0FEE7FEE7FEE7FEE7FEE7D2
:10020000FEE7FEE7FEE7FEE7FEE7FEE7FEE7FEE7C6
:10021000FEE7FEE7FEE7FEE7FEE7FEE7FEE7FEE7B6
:10022000FEE7FEE7FEE7FEE7FEE7FEE7FEE7FEE7A6
:10023000FEE7FEE7FEE7FEE7FEE7FEE7FEE7FEE796
:10024000FEE7FEE7FEE7FEE7FEE7FEE7FEE7FEE786
:10025000FEE7FEE7FEE7FEE7FEE7FEE7FEE7FEE776
:10026000FEE7FEE7FEE7FEE7FEE7FEE7FEE7FEE766
:10027000FEE7FEE7FEE7FEE7FEE7FEE7FEE7FEE756
:10028000FEE7FEE7FEE7FEE7FEE7FEE7FEE7FEE746
:10029000FEE7FEE7FEE7FEE7FEE7FEE7FEE7FEE736
:1002A000FEE7FEE7FEE7FEE7FEE7FEE7FEE7704754
:1002B0001572002000000000000000200000002057
:1002C000807900208079002080790020E479002066
:1002D00000000000E479002030E5002021760020B5
:1002E0000D040020000000000000000000000000DD
:1002F00047F6E413C2F200031A780AB90120187015
:10030000704700BF47F68010C2F2000008B50368CE
:100310002BB140F20003C0F2000303B1984708BDBF
:1003200080B400AF4EF6FC53CEF200034EF6FC5202
:10033000CEF20002126842F080721A6041F20403A9
:10034000CEF200034FF000021A6041F20003CEF239
:10035000000341F20002CEF20002126842F00102F4
:100360001A60BD4680BC704780B483B000AF41F2D4
:100370000403CEF200031B687B6047F6E813C2F269
:1003800000031B687A689A420BD247F6EC13C2F25C
:1003900000031B6803F1010247F6EC13C2F20003ED
:1003A0001A6047F6E813C2F200037A681A6047F64B
:1003B000C813C2F200031A6841F67F53C0F22C43FF
:1003C0009A420ED87B684FEA53337B6047F6EC13B2
:1003D000C2F200031B684FEAC3437A6813447B6090
:1003E0000DE07B684FEA93337B6047F6EC13C2F273
:1003F00000031B684FEA83437A6813447B607B6881
:10040000184607F10C07BD4680BC704780B500AFA9
:1004100004F0F2FE4FF00003184680BD80B483B0B4
:1004200000AF4FF0A00383F31188BFF36F8FBFF3CA
:100430004F8F7B60FEE700BF80B400AFBD4680BC3D
:10044000704700BF80B485B000AF786039604FF06E
:10045000A00383F31188BFF36F8FBFF34F8FFB604F
:10046000FEE700BF80B483B000AF02460B46FA71CE
:10047000BB71F979BB791A464FEA4212C3EB02020B
:100480004FEA820213444FEAC30398B24EF2E812D5
:10049000C2F200020B464FEAC3030B444FEA430388
:1004A000134403F1100302461A8007F10C07BD46FE
:1004B00080BC704780B592B004AFF860B9607A60D4
:1004C00047F6D803C2F200031B88BB864FF028030F
:1004D00087F830304FF02A0387F82C304FF02C0388
:1004E00087F828304FF0290387F824304FF02B038A
:1004F00087F820304FF02D033B774FF0000387F84B
:10050000363007F134034FF0000200924EF2003013
:10051000C2F200004FF06A011A464FF0020305F0E4
:10052000B1FE07F118034FF0000200924EF20030C6
:10053000C2F200004FF06A011A464FF0010305F0C5
:1005400013FF4EF20030C2F200004FF0000106F03F
:1005500015F8034687F8373097F8362097F8373084
:10056000134487F8363007F1280307F11802009288
:100570004FF0010201924FF0000202924EF2003061
:10058000C2F200004FF06A011A464FF0010305F075
:100590005DFF4EF20030C2F200004FF0000105F0A6
:1005A000EDFF034687F8373097F8362097F8373055
:1005B000134487F8363007F11C0307F11402009248
:1005C0004FF0010201924FF0000202924EF2003011
:1005D000C2F200004FF06A011A464FF0010305F025
:1005E00035FF4EF20030C2F200004FF0000105F07E
:1005F000C5FF034687F8373097F8362097F837302D
:10060000134487F836303B7D4FEA03239AB23B7E92
:1006100042EA03039BB29AB27B681A807B681B880C
:10062000B3F5004F06D97B681B886FEA03039AB2C3
:100630007B681A8007F12C0307F1180200924FF033
:10064000010201924FF0000202924EF20030C2F21B
:1006500000004FF06A011A464FF0010305F0F6FE64
:100660004EF20030C2F200004FF0000105F086FFAC
:10067000034687F8373097F8362097F83730134419
:1006800087F8363007F1200307F1140200924FF08B
:10069000010201924FF0000202924EF20030C2F2CB
:1006A00000004FF06A011A464FF0010305F0CEFE3C
:1006B0004EF20030C2F200004FF0000105F05EFF84
:1006C000034687F8373097F8362097F837301344C9
:1006D00087F836303B7D4FEA03239AB23B7E42EAED
:1006E00003039BB29AB2BB681A80BB681B88B3F540
:1006F000004F06D9BB681B886FEA03039AB2BB6838
:100700001A8007F1300307F1180200924FF001023E
:1007100001924FF0000202924EF20030C2F200004D
:100720004FF06A011A464FF0010305F08FFE4EF2BA
:100730000030C2F200004FF0000105F01FFF034639
:1007400087F8373097F8362097F83730134487F812
:10075000363007F1240307F1140200924FF0010232
:1007600001924FF0000202924EF20030C2F20000FD
:100770004FF06A011A464FF0010305F067FE4EF292
:100780000030C2F200004FF0000105F0F7FE034612
:1007900087F8373097F8362097F83730134487F8C2
:1007A00036303B7D4FEA03239AB23B7E42EA030395
:1007B0009BB29AB2FB681A80FB681B88B3F5004FA6
:1007C00006D9FB681B886FEA03039AB2FB681A809C
:1007D00097F83730184607F13807BD4680BD00BF8F
:1007E00080B592B004AFF860B9607A6047F6D40380
:1007F000C2F200031B883B864FF0180387F82C30A9
:100800004FF01A0387F828304FF01C0387F8243084
:100810004FF0190387F820304FF01B033B774FF060
:100820001D033B764FF06A0387F835304FF0000325
:1008300087F8363097F8352007F1300307F11401B7
:1008400000914FF0010101914FF0000102914EF231
:100850000030C2F2000011461A464FF0020305F0C4
:10086000F5FD4EF20030C2F200004FF0000105F03D
:1008700085FE034687F8373097F8362097F83730EB
:10088000134487F8363097F8352007F1240307F131
:10089000140100914FF0010101914FF0000102910C
:1008A0004EF20030C2F2000011461A464FF001032A
:1008B00005F0CCFD4EF20030C2F200004FF0000116
:1008C00005F05CFE034687F8373097F8362097F836
:1008D0003730134487F8363097F8352007F118037E
:1008E00007F1100100914FF0010101914FF000015B
:1008F00002914EF20030C2F2000011461A464FF04B
:10090000010305F0A3FD4EF20030C2F200004FF0EB
:10091000000105F033FE034687F8373097F836209C
:1009200097F83730134487F836303B7C4FEA03237F
:100930009AB23B7D42EA03039BB29AB2FB681A80EB
:1009400097F8352007F1280307F1140100914FF0C3
:10095000010101914FF0000102914EF20030C2F20C
:10096000000011461A464FF0010305F06FFD4EF2EC
:100970000030C2F200004FF0000105F0FFFD034619
:1009800087F8373097F8362097F83730134487F8D0
:10099000363097F8352007F11C0307F1100100915C
:1009A0004FF0010101914FF0000102914EF2003031
:1009B000C2F2000011461A464FF0010305F046FD51
:1009C0004EF20030C2F200004FF0000105F0D6FDFB
:1009D000034687F8373097F8362097F837301344B6
:1009E00087F836303B7C4FEA03239AB23B7D42EADC
:1009F00003039BB29AB2BB681A8097F8352007F1BF
:100A00002C0307F1140100914FF0010101914FF007
:100A1000000102914EF20030C2F2000011461A4667
:100A20004FF0010305F012FD4EF20030C2F200005B
:100A30004FF0000105F0A2FD034687F8373097F824
:100A4000362097F83730134487F8363097F835203A
:100A500007F1200307F1100100914FF0010101910E
:100A60004FF0000102914EF20030C2F20000114638
:100A70001A464FF0010305F0E9FC4EF20030C2F2D5
:100A800000004FF0000105F079FD034687F837308C
:100A900097F8362097F83730134487F836303B7C88
:100AA0004FEA03239AB23B7D42EA03039BB29AB218
:100AB0007B681A8097F83730184607F13807BD462B
:100AC00080BD00BF80B58AB004AF78604FF01503D9
:100AD0003B754FF016033B744FF06A03BB75BA7D4C
:100AE00007F1140307F10C0100914FF0010101918E
:100AF0004FF0000102914EF20030C2F200001146A8
:100B00001A464FF0010305F0A1FC4EF20030C2F28C
:100B100000004FF0000105F031FD0346FB75BA7D82
:100B200007F1100307F1080100914FF00101019155
:100B30004FF0000102914EF20030C2F20000114667
:100B40001A464FF0010305F081FC4EF20030C2F26C
:100B500000004FF0000105F011FD0346FB753B7BE3
:100B60001A463B7A4FEA03239BB242EA03039BB245
:100B70009AB27B681A804FF00003184607F11807F5
:100B8000BD4680BD80B586B002AFB960134602464F
:100B9000FA73FB714EF22423C2F200034FF00002FD
:100BA0001A7032E0FB79FA7B4FF0000100914DF6AC
:100BB0003850C2F200001146BA6805F063FB4DF6EA
:100BC0003850C2F200004FF0000105F0D7FC034698
:100BD0001A464EF22623C2F200031A704EF2262362
:100BE000C2F200031B78002B02D14FF0000318E083
:100BF0004EF22423C2F200031B7803F10103DAB2A0
:100C00004EF22423C2F200031A704EF22423C2F2E1
:100C100000031B78092BC5D94EF22423C2F200032E
:100C20001B78184607F11007BD4680BD80B586B019
:100C300002AFB96013460246FA73FB714EF22423E9
:100C4000C2F200034FF000021A7032E0FB79FA7B27
:100C50004FF0000100914DF63850C2F200001146ED
:100C6000BA6805F081FB4DF63850C2F200004FF033
:100C7000000105F083FC03461A464EF22623C2F219
:100C800000031A704EF22623C2F200031B78002BD9
:100C900002D14FF0000318E04EF22423C2F2000309
:100CA0001B7803F10103DAB24EF22423C2F20003EF
:100CB0001A704EF22423C2F200031B78092BC5D907
:100CC0004EF22423C2F200031B78184607F11007E6
:100CD000BD4680BD80B582B000AF0B463A6002468B
:100CE000FA71BB71FA7907F10603104619464FF005
:100CF0000102FFF747FF0346092B02D94FF001031A
:100D00000EE0FB79184639684FF00202FFF78EFFBC
:100D10000346092B02D94FF0010301E04FF0000315
:100D2000184607F10807BD4680BD00BF80B582B0F8
:100D300000AF0B463A600246FA71BB714EF22023B7
:100D4000C2F200034FF000021A704EF22023C2F2EA
:100D500000034FF000025A704EF22223C2F2000349
:100D60004FF000021A80BB794FEA4303DBB2FA79F5
:100D7000104619464EF22022C2F20002FFF7AAFFE7
:100D80000346002B1AD14EF22023C2F200031B7837
:100D90004FEA03239AB24EF22023C2F200035B789B
:100DA00042EA03039BB29AB24EF22223C2F200033C
:100DB0001A803B684FF000021A700AE03B684FF05F
:100DC00001021A704EF22223C2F200034FF0000219
:100DD0001A804EF22223C2F200031B88184607F144
:100DE0000807BD4680BD00BF80B582B000AF0B468E
:100DF0003A600246FA71BB714EF22023C2F2000340
:100E00004FF000021A704EF22023C2F200034FF09E
:100E100000025A704EF22223C2F200034FF0000289
:100E20001A80BB794FEA4303DBB203F1FF33DBB235
:100E3000FA79104619464EF22022C2F20002FFF75C
:100E400049FF0346002B1AD14EF22023C2F20003C1
:100E50001B784FEA03239AB24EF22023C2F200031A
:100E60005B7842EA03039BB29AB24EF22223C2F2AB
:100E700000031A803B684FF000021A700AE03B68DA
:100E80004FF001021A704EF22223C2F200034FF01B
:100E900000021A804EF22223C2F200031B88184679
:100EA00007F10807BD4680BD80B58CB004AFF8607F
:100EB0007B600B46FB721346BB72BB7A3B753B7D76
:100EC00043F00803DBB23B753B7D4FEA0313DBB213
:100ED0003B75FA7A07F1140307F1180100914FF0FE
:100EE000020101914FF000010291F86811461A4683
:100EF0004FF0010305F0AAFAF8684FF0000105F081
:100F00003DFB03467B777B7F002B04D07B684FF053
:100F100001021A7012E03B7E4FEA03239AB27B7EF5
:100F200042EA03039BB2FB83FB8B4FEA03534FEA76
:100F30001353FB837B684FF000021A70FB8B18463B
:100F400007F12007BD4680BD80B584B000AF0346E1
:100F50003960FB71FB79002B0ED13B68BB60BB682D
:100F60005968BB689A68BB681B7B084611464FF0FE
:100F7000880205F011F930E0FB790A2B0ED13B68AD
:100F8000FB60FB685A68FB689B68104619464FF087
:100F900088024FF0000305F0FFF81EE0FB790B2BF1
:100FA0001BD14EF20030C2F2000045F20001C5F242
:100FB00000014FF088024FF0000305F0EDF84DF608
:100FC0003850C2F2000042F20001C5F200014FF0B9
:100FD00088024FF0000305F0DFF807F11007BD4667
:100FE00080BD00BF80B584B000AF0346FB80FB88A6
:100FF0004FF47A7202FB03F244F6D353C1F2620358
:10100000A3FB02134FEA9313FB60F86801F09CF90D
:1010100007F11007BD4680BD80B483B000AF034622
:10102000FB80FB884FF47A7202FB03F244F6D35341
:10103000C1F26203A3FB02134FEA9313184607F1B0
:101040000C07BD4680BC704780B483B000AF7860A9
:101050004FF00103184607F10C07BD4680BC7047EE
:1010600080B485B000AF78607B681A785B784FEA0F
:10107000032343EA02039BB24FEA03239AB27B683D
:1010800019785B784FEA032343EA01039BB24FEAE6
:1010900013239BB242EA03039BB2FB814EF26443EB
:1010A000C2F200031A68FB894FEA43534FEA5353D5
:1010B00003F0FF014FF0000040EA010151704FEAD8
:1010C00013239BB24FF0000141EA03039370FB89A5
:1010D0004FEAD3239BB203F00103DBB2002B02D013
:1010E0004FF0010301E04FF00003184607F1140729
:1010F000BD4680BC704700BF80B483B000AF0B46D4
:101100003A600246FA71BB80F9794EF24C42C2F263
:1011100000020B464FEAC303C1EB03031344FA7901
:101120001A70F9794EF24C42C2F200020B464FEAB5
:10113000C303C1EB030313443A794FF0000141EAC2
:1011400002025A707A794FF0000141EA02029A7065
:10115000F8793A684EF24C41C2F2000103464FEA78
:10116000C303C0EB03030B4402F0FF014FF0000088
:1011700040EA0101D9704FEA122101F0FF014FF05E
:10118000000040EA010119714FEA124101F0FF012C
:101190004FF0000040EA010159714FEA12624FF02E
:1011A000000141EA02029A7107F10C07BD4680BCBA
:1011B000704700BF80B500AF4EF21423C2F20003A7
:1011C0001B689A78DB784FEA032343EA02039BB259
:1011D00003F1FF314EF24C42C2F200020B464FEADD
:1011E000C303C1EB03031344DA7819794FEA0121F1
:1011F00041EA020259794FEA014141EA02029B7930
:101200004FEA036343EA02031A464EF21423C2F282
:1012100000031B681846904780BD00BF90B585B09D
:1012200002AF786041F24133C2F200034FF0000098
:101230004FF010011A46FFF75FFF41F25533C2F23B
:1012400000034FF001004FF010011A46FFF754FF62
:1012500041F2E533C2F200034FF002004FF01001FB
:101260001A46FFF749FF7868FFF7FAFE0346002B9E
:101270003BD07B681B791A4644F24023C0F20F032F
:1012800003FB02F31A4644F6D353C1F26203A3FBF5
:1012900002134FEA931241F2B513C2F20003009316
:1012A00047F6DC00C2F2000011464FF000024FF09A
:1012B000000302F0CBFA02464EF21823C2F20003FA
:1012C0001A604EF21823C2F200031C6801F0ACFA57
:1012D00003464FF00002009220464FF001011A46EB
:1012E0004FF0000302F004FB25E07B689A78DB787E
:1012F0004FEA032343EA02039BB203F1FF314EF2AC
:101300004C42C2F200020B464FEAC303C1EB030397
:101310001344DA7819794FEA012141EA0202597936
:101320004FEA014141EA02029B794FEA036343EA33
:1013300002037868984707F10C07BD4690BD00BFCF
:1013400080B485B000AF786007F11407BD4680BC5B
:10135000704700BF90B585B002AF78607B68DB79DD
:10136000002B25D07B689B791A464EF20C23C2F2E3
:10137000000353F822407B68DB791A464FEA421299
:10138000C3EB02024FEA820213444FEAC3039BB24B
:101390001846FFF741FE03464FF000020092204638
:1013A0004FF004011A464FF0000302F0A1FA14E0D6
:1013B0007B689B791A464EF20C23C2F2000353F865
:1013C00022304FF00002009218464FF003014FF018
:1013D00000024FF0000302F08BFA07F10C07BD4644
:1013E00090BD00BF80B483B000AF78604EF2684318
:1013F000C2F200034FF000021A8007F10C07BD464D
:1014000080BC704780B483B000AF78607B6803F124
:1014100008031A467B685A607B684FF0FF329A6077
:101420007B6803F108031A467B68DA607B6803F186
:1014300008031A467B681A617B684FF000021A6045
:1014400007F10C07BD4680BC704700BF80B483B075
:1014500000AF78607B684FF000021A6107F10C075B
:10146000BD4680BC704700BF80B485B000AF7860D7
:1014700039607B685B68FB603B68FA685A60FB68B0
:101480009A683B689A60FB689B683A685A60FB6898
:101490003A689A603B687A681A617B681B6803F156
:1014A00001027B681A6007F11407BD4680BC7047D3
:1014B00080B485B000AF786039603B681B68FB6022
:1014C000FB68B3F1FF3F03D17B681B69BB600DE094
:1014D0007B6803F10803BB6002E0BB685B68BB602C
:1014E000BB685B681A68FB689A42F6D9BB685A68A1
:1014F0003B685A603B685B683A689A603B68BA68C8
:101500009A60BB683A685A603B687A681A617B687F
:101510001B6803F101027B681A6007F11407BD46DE
:1015200080BC704780B485B000AF78607B681B6971
:10153000FB607B685B687A6892689A607B689B68EE
:101540007A6852685A60FB685A687B689A4203D18D
:101550007B689A68FB685A607B684FF000021A61EA
:10156000FB681B6803F1FF32FB681A60FB681B68AD
:10157000184607F11407BD4680BC704780B584B09B
:1015800000AF786039607B68BB60BB68002B09D115
:101590004FF0A00383F31188BFF36F8FBFF34F8F1A
:1015A000FB60FEE703F03AF8BB681A68BB68DB6BC8
:1015B000B968096C01FB03F31A44BB685A60BB6845
:1015C0004FF000029A63BB681A68BB689A60BB68F8
:1015D0001A68BB68DB6B03F1FF33B968096C01FB68
:1015E00003F31A44BB68DA60BB684FF0FF3283F83C
:1015F0004420BB684FF0FF3283F845203B68002B46
:1016000018D1BB681B69002B21D0BB6803F1100304
:10161000184601F047FB0346002B1AD04EF6045340
:10162000CEF200034FF080521A60BFF34F8FBFF32A
:101630006F8F0FE0BB6803F110031846FFF7E2FE5F
:10164000BB6803F124031846FFF7DCFE02E000BF8D
:1016500000E000BF03F01AF84FF00103184607F14D
:101660001007BD4680BD00BF80B58AB002AFF860EC
:10167000B9601346FB71FB68002B09D14FF0A00342
:1016800083F31188BFF36F8FBFF34F8FFB61FEE7CA
:10169000BB68002B03D14FF000037B6104E0FB68C3
:1016A000BA6802FB03F37B617B6903F150031846C0
:1016B00002F066FC03463B613B69002B0BD03B69A3
:1016C00003F15003BB61FB793A690092F868B9688D
:1016D000BA6900F007F83B69184607F12007BD46D4
:1016E00080BD00BF80B584B000AFF860B9607A609B
:1016F000FB70BB68002B03D1BA69BB691A6002E0BA
:101700007A68BB691A60BB69FA68DA63BB69BA6850
:101710001A64B8694FF00101FFF730FFBB69FA782E
:1017200083F84C2007F11007BD4680BD80B582B01C
:1017300000AF78607B68002B14D07B684FF000020C
:101740005A607B684FF000021A607B684FF000021D
:10175000DA6078684FF000014FF000024FF00003AC
:1017600000F020F807F10807BD4680BD80B586B0BF
:1017700000AF0346FB714FF001033B614FF00003E4
:101780007B61FB79386979691A46FFF76DFF03467B
:10179000FB60F868FFF7CAFFFB68184607F11807F7
:1017A000BD4680BD80B58EB000AFF860B9607A608C
:1017B0003B604FF00003FB61FB687B627B6A002BA0
:1017C00009D14FF0A00383F31188BFF36F8FBFF3EC
:1017D0004F8FBB62FEE7BB68002B03D17B6A1B6C9B
:1017E000002B02D14FF0010301E04FF00003002B6A
:1017F00009D14FF0A00383F31188BFF36F8FBFF3BC
:101800004F8FFB62FEE73B68022B03D17B6ADB6BE9
:10181000012B02D14FF0010301E04FF00003002B38
:1018200009D14FF0A00383F31188BFF36F8FBFF38B
:101830004F8F3B63FEE701F03DFC0346002B02D1D6
:101840007B68002B02D14FF0010301E04FF0000351
:10185000002B0AD14FF0A00383F31188BFF36F8FE1
:10186000BFF34F8F7B63FEE700BF02F0D7FE7B6ABA
:101870009A6B7B6ADB6B9A4202D33B68022B34D1B2
:10188000786AB9683A6800F07BFA03463B627B6A83
:101890005B6A002B14D07B6A03F12403184601F025
:1018A00001FA0346002B1AD04EF60453CEF2000381
:1018B0004FF080521A60BFF34F8FBFF36F8F0FE06E
:1018C0003B6A002B0CD04EF60453CEF200034FF0CF
:1018D00080521A60BFF34F8FBFF36F8F00E000BFDD
:1018E00002F0D4FE4FF001036FE07B68002B04D1BF
:1018F00002F0CCFE4FF0000367E0FB69002B07D13C
:1019000007F11403184601F045FA4FF00103FB619B
:1019100002F0BCFE00F0A6FE02F080FE7B6A93F8A7
:101920004430DBB25BB2B3F1FF3F04D17B6A4FF0CE
:10193000000283F844207B6A93F84530DBB25BB247
:10194000B3F1FF3F04D17B6A4FF0000283F84520DA
:1019500002F09CFE07F1140207F104031046194639
:1019600001F03CFA0346002B28D1786A00F018FBFE
:101970000346002B1CD07B6A03F110027B681046E3
:10198000194601F03DF9786A00F09AFA00F07CFE01
:101990000346002B7FF468AF4EF60453CEF20003EB
:1019A0004FF080521A60BFF34F8FBFF36F8F5CE729
:1019B000786A00F085FA00F067FE56E7786A00F072
:1019C0007FFA00F061FE4FF00003184607F1380778
:1019D000BD4680BD80B58EB000AFF860B9607A605A
:1019E0003B60FB68BB61BB69002B09D14FF0A003D2
:1019F00083F31188BFF36F8FBFF34F8F3B62FEE716
:101A0000BB68002B03D1BB691B6C002B02D14FF0CC
:101A1000010301E04FF00003002B09D14FF0A003B8
:101A200083F31188BFF36F8FBFF34F8F7B62FEE7A5
:101A30003B68022B03D1BB69DB6B012B02D14FF05A
:101A4000010301E04FF00003002B09D14FF0A00388
:101A500083F31188BFF36F8FBFF34F8FBB62FEE735
:101A600002F0B0FEEFF311824FF0A00383F3118870
:101A7000BFF36F8FBFF34F8F3A63FB623B6B7B61AA
:101A8000BB699A6BBB69DB6B9A4202D33B68022B42
:101A900034D1BB6993F84530FB77B869B9683A68C7
:101AA00000F06EF997F91F30B3F1FF3F14D1BB6915
:101AB0005B6A002B19D0BB6903F12403184601F0BF
:101AC000F1F80346002B12D07B68002B11D07B6805
:101AD0004FF001021A600DE0FB7F03F10103DBB25E
:101AE0001A46BB6983F8452004E000BF02E000BF4E
:101AF00000E000BF4FF001033B6102E04FF0000344
:101B00003B617B697B637B6B83F311883B69184680
:101B100007F13807BD4680BD80B58EB000AFF860D4
:101B2000B9607A603B604FF00003FB61FB687B6249
:101B30007B6A002B09D14FF0A00383F31188BFF318
:101B40006F8FBFF34F8FFB62FEE7BB68002B03D1A3
:101B50007B6A1B6C002B02D14FF0010301E04FF0B8
:101B60000003002B09D14FF0A00383F31188BFF3CA
:101B70006F8FBFF34F8F3B63FEE701F09BFA034685
:101B8000002B02D17B68002B02D14FF0010301E052
:101B90004FF00003002B0CD14FF0A00383F311880A
:101BA000BFF36F8FBFF34F8F7B63FEE700BF00E093
:101BB00000BF02F033FD7B6A9B6BBB62BB6A002BEC
:101BC00055D07B6ADB683B62786AB96800F050F9EF
:101BD0003B68002B27D1BB6A03F1FF327B6A9A6313
:101BE0007B6A1B68002B05D101F0D4FB03461A4623
:101BF0007B6A5A607B6A1B69002B30D07B6A03F1D9
:101C00001003184601F04EF80346002B29D04EF67B
:101C10000453CEF200034FF080521A60BFF34F8F8F
:101C2000BFF36F8F1EE07B6A3A6ADA607B6A5B6A99
:101C3000002B17D07B6A03F12403184601F032F819
:101C40000346002B0ED04EF60453CEF200034FF0A5
:101C500080521A60BFF34F8FBFF36F8F02E000BF57
:101C600000E000BF02F012FD4FF0010383E07B684B
:101C7000002B04D102F00AFD4FF000037BE0FB696A
:101C8000002B07D107F11403184601F083F84FF039
:101C90000103FB6102F0FAFC00F0E4FC02F0BEFC80
:101CA0007B6A93F84430DBB25BB2B3F1FF3F04D1FF
:101CB0007B6A4FF0000283F844207B6A93F845303A
:101CC000DBB25BB2B3F1FF3F04D17B6A4FF000029D
:101CD00083F8452002F0DAFC07F1140207F104034F
:101CE0001046194601F07AF80346002B35D1786A80
:101CF00000F03CF90346002B29D07B6A1B68002BBF
:101D000008D102F08BFC7B6A5B68184601F0F6F99B
:101D100002F0BCFC7B6A03F124027B681046194682
:101D200000F06EFF786A00F0CBF800F0ADFC0346DF
:101D3000002B7FF43BAF4EF60453CEF200034FF07E
:101D400080521A60BFF34F8FBFF36F8F31E7786A0D
:101D500000F0B6F800F098FC2BE7786A00F0B0F8D5
:101D600000F092FC786A00F001F90346002B3FF482
:101D70001FAF4FF00003184607F13807BD4680BD7E
:101D800080B586B000AFF860B9607A604FF00003AC
:101D90003B61FB689B6B7B61FB681B6C002B0FD16D
:101DA000FB681B68002B55D1FB685B68184601F087
:101DB0004BFA03463B61FB684FF000025A604CE06F
:101DC0007B68002B1AD1FB689A68FB681B6C104675
:101DD000B9681A4605F04CFCFB689A68FB681B6CF6
:101DE0001A44FB689A60FB689A68FB685B689A42D1
:101DF00032D3FB681A68FB689A602EE0FB68DA68E9
:101E0000FB681B6C1046B9681A4605F031FCFB688C
:101E1000DA68FB681B6CC3F100031A44FB68DA60E4
:101E2000FB68DA68FB681B689A4208D2FB685A684C
:101E3000FB681B6CC3F100031A44FB68DA607B6823
:101E4000022B0AD17B69002B07D07B6903F1FF339A
:101E50007B6102E000BF00E000BF7B6903F101028B
:101E6000FB689A633B69184607F11807BD4680BDB9
:101E700080B582B000AF786039607B681B6C002B46
:101E800019D07B68DA687B681B6C1A447B68DA605F
:101E90007B68DA687B685B689A4203D37B681A6860
:101EA0007B68DA607B68DA687B681B6C386811468F
:101EB0001A4605F0DDFB07F10807BD4680BD00BFEF
:101EC00080B584B000AF786002F0A8FB7B6893F81F
:101ED0004530BB7312E07B685B6A002B13D07B68D4
:101EE00003F12403184600F0DDFE0346002B01D069
:101EF00000F0DCFFBB7B03F1FF33BB7397F90E30BF
:101F0000002BE8DC00E000BF7B684FF0FF3283F875
:101F1000452002F0BBFB02F081FB7B6893F8443064
:101F2000FB7312E07B681B69002B13D07B6803F105
:101F30001003184600F0B6FE0346002B01D000F057
:101F4000B5FFFB7B03F1FF33FB7397F90F30002BD9
:101F5000E8DC00E000BF7B684FF0FF3283F84420EC
:101F600002F094FB07F11007BD4680BD80B584B038
:101F700000AF786002F052FB7B689B6B002B03D1B3
:101F80004FF00103FB6002E04FF00003FB6002F042
:101F90007DFBFB68184607F11007BD4680BD00BFFA
:101FA00080B584B000AF786002F038FB7B689A6B34
:101FB0007B68DB6B9A4203D14FF00103FB6002E0C8
:101FC0004FF00003FB6002F061FBFB68184607F16D
:101FD0001007BD4680BD00BF80B586B000AFF86079
:101FE000B9607A60FB687B6102F018FB7B6993F84B
:101FF0004430DBB25BB2B3F1FF3F04D17B694FF0F9
:10200000000283F844207B6993F84530DBB25BB271
:10201000B3F1FF3F04D17B694FF0000283F8452004
:1020200002F034FB7B699B6B002B07D17B6903F1CA
:1020300024031846B9687A6800F008FE7869FFF74B
:102040003FFF07F11807BD4680BD00BF80B58CB0CB
:1020500004AFF860B9603B601346FB80FB884FEA31
:102060008303184601F08CFF0346FB61FB69002BDC
:1020700010D04FF05C0001F083FF03467B617B6969
:10208000002B03D07B69FA691A6306E0F86902F055
:1020900073F802E04FF000037B617B69002B16D0E0
:1020A000FB88BA6A0092FA6A01927A6902924FF04A
:1020B00000020392F868B9681A463B6800F010F80D
:1020C000786900F0A3F84FF00103BB6102E04FF024
:1020D000FF33BB61BB69184607F12007BD4680BDD1
:1020E00080B588B000AFF860B9607A603B603B6B48
:1020F0001A6B7B684FEA830310464FF0A5011A461E
:1021000005F07EFB3B6B1A6B7B6803F1FF334FEAF4
:10211000830313447B617B6923F007037B617B6945
:1021200003F00703002B09D04FF0A00383F31188BD
:10213000BFF36F8FBFF34F8FFB61FEE74FF00003DC
:10214000BB6112E0B969BA68BB6913441A783B6B8A
:102150000B4483F83420BA68BB6913441B78002B06
:1021600007D0BB6903F10103BB61BB69092BE9D946
:1021700000E000BF3B6B4FF0000283F83D20BB6ADC
:10218000042B02D94FF00403BB623B6BBA6ADA62DC
:102190003B6BBA6A9A643B6B4FF00002DA643B6BAC
:1021A00003F104031846FFF751F93B6B03F11803E1
:1021B0001846FFF74BF93B6B3A6B1A61BB6AC3F1E8
:1021C00005023B6B9A613B6B3A6B5A623B6B4FF07B
:1021D00000021A653B6B4FF000025A653B6B4FF0F3
:1021E000000283F858207869F9683A6802F010F91B
:1021F00003461A463B6B1A60FB6A002B02D0FB6A4F
:102200003A6B1A6007F12007BD4680BD80B582B0E9
:1022100000AF786002F002FA47F6C823C2F200036A
:102220001B6803F1010247F6C823C2F200031A60DB
:1022300047F6F013C2F200031B68002B0FD147F6DC
:10224000F013C2F200037A681A6047F6C823C2F29C
:1022500000031B68012B1AD100F050FE18E047F66E
:10226000D423C2F200031B68002B11D147F6F013F0
:10227000C2F200031B68DA6A7B68DB6A9A4207D8FD
:1022800047F6F013C2F200037A681A6000E000BF5C
:1022900047F6E423C2F200031B6803F1010247F68C
:1022A000E423C2F200031A6047F6E423C2F20003FB
:1022B0001A687B681A647B68DB6A4FF0010202FAD5
:1022C00003F247F6D023C2F200031B6842EA03027E
:1022D00047F6D023C2F200031A607B68DA6A13461D
:1022E0004FEA830313444FEA83031A4647F6F41375
:1022F000C2F200031A447B6803F104031046194636
:10230000FFF7B2F802F0C2F947F6D423C2F2000395
:102310001B68002B14D047F6F013C2F200031B68B1
:10232000DA6A7B68DB6A9A420AD24EF60453CEF22E
:1023300000034FF080521A60BFF34F8FBFF36F8FCF
:1023400007F10807BD4680BD80B584B000AF786056
:102350004FF00003BB607B68002B1BD047F6F023D7
:10236000C2F200031B68002B09D04FF0A00383F3D7
:102370001188BFF36F8FBFF34F8FFB60FEE700F054
:1023800071F978684FF0000101F09EF900F07CF9D6
:102390000346BB60BB68002B0AD14EF60453CEF255
:1023A00000034FF080521A60BFF34F8FBFF36F8F5F
:1023B00007F11007BD4680BD80B584B000AF7860DE
:1023C00002F02CF97B68002B05D147F6F013C2F21E
:1023D00000031B6800E07B68BB60BB68DB6AFB60D6
:1023E00002F054F9FB68184607F11007BD4680BD9E
:1023F00080B588B000AF786039604FF00003BB61F2
:102400003B68042B09D94FF0A00383F31188BFF375
:102410006F8FBFF34F8FFB61FEE73B68042B02D940
:102420004FF004033B6002F0F9F87B68002B05D104
:1024300047F6F013C2F200031B6800E07B68FB6004
:10244000FB689B6C3B613A693B689A4200F0A9804B
:102450003A683B699A4214D947F6F013C2F2000376
:102460001B68FA689A4218D047F6F013C2F20003CC
:102470001B68DA6A3B689A4211D84FF00103BB61CE
:102480000EE047F6F013C2F200031B68FA689A42A6
:1024900006D14FF00103BB6102E000BF00E000BFC6
:1024A000FB68DB6A7B61FB689A6CFB68DB6A9A42BB
:1024B00002D1FB683A68DA62FB683A689A64FB68A2
:1024C0009B69002B04DB3B68C3F10502FB689A6142
:1024D000FB6859697A6913464FEA830313444FEA4C
:1024E00083031A4647F6F413C2F2000313449942D9
:1024F00002D14FF0010301E04FF00003002B42D066
:10250000FB6803F104031846FFF70CF80346002BA1
:1025100012D17B694FF0010202FA03F36FEA030262
:1025200047F6D023C2F200031B6802EA030247F613
:10253000D023C2F200031A60FB68DB6A4FF001028D
:1025400002FA03F247F6D023C2F200031B6842EA04
:10255000030247F6D023C2F200031A60FB68DA6A6E
:1025600013464FEA830313444FEA83031A4647F6A0
:10257000F413C2F200031A44FB6803F1040310468B
:102580001946FEF771FFBB69002B0AD04EF60453C3
:10259000CEF200034FF080521A60BFF34F8FBFF3AB
:1025A0006F8F02F073F807F12007BD4680BD00BFB2
:1025B00080B586B002AF4FF00003009347F6EC23DE
:1025C000C2F20003019342F6C560C2F2000047F672
:1025D000E801C2F200014FF050024FF00003FFF794
:1025E00035FD03467B607B68012B03D101F0F4F8D5
:1025F00003467B607B68012B22D14FF0A00383F35D
:102600001188BFF36F8FBFF34F8FBB6047F6E8238E
:10261000C2F200034FF0FF321A6047F6D423C2F231
:1026200000034FF001021A6047F6CC23C2F2000308
:102630004FF000021A60FDF773FE01F069FF0DE034
:102640007B68B3F1FF3F09D14FF0A00383F31188FA
:10265000BFF36F8FBFF34F8FFB60FEE707F11007EB
:10266000BD4680BD80B400AF47F6F023C2F2000340
:102670001B6803F1010247F6F023C2F200031A605F
:10268000BD4680BC704700BF80B584B000AF4FF03E
:1026900000033B604FF000037B6047F6F023C2F27B
:1026A00000031B68002B09D14FF0A00383F31188AE
:1026B000BFF36F8FBFF34F8FFB60FEE701F0AEFFFC
:1026C00047F6F023C2F200031B6803F1FF3247F61E
:1026D000F023C2F200031A6047F6F023C2F20003AF
:1026E0001B68002B40F0988047F6C823C2F2000315
:1026F0001B68002B00F090804AE047F68823C2F266
:102700000003DB68DB683B603B6803F11803184695
:10271000FEF708FF3B6803F104031846FEF702FFCB
:102720003B68DB6A4FF0010202FA03F247F6D0235E
:10273000C2F200031B6842EA030247F6D023C2F24A
:1027400000031A603B68DA6A13464FEA83031344B6
:102750004FEA83031A4647F6F413C2F200031A4401
:102760003B6803F1040310461946FEF77DFE3B6803
:10277000DA6A47F6F013C2F200031B68DB6A9A427A
:1027800006D347F6DC23C2F200034FF001021A60C1
:1027900047F68823C2F200031B68002BADD13B68CB
:1027A000002B01D000F058FC47F6D823C2F20003FA
:1027B0001B68BB60BB68002B19D000F045F80346CE
:1027C000002B06D047F6DC23C2F200034FF00102D3
:1027D0001A60BB6803F1FF33BB60BB68002BECD110
:1027E00047F6D823C2F200034FF000021A6047F602
:1027F000DC23C2F200031B68002B0DD04FF0010355
:102800007B604EF60453CEF200034FF080521A6004
:10281000BFF34F8FBFF36F8F01F038FF7B6818460F
:1028200007F11007BD4680BD80B483B000AF47F606
:10283000CC23C2F200031B687B607B68184607F15B
:102840000C07BD4680BC704780B586B000AF4FF026
:102850000003BB6047F6F023C2F200031B68002BA5
:1028600040F0DC8047F6CC23C2F200031B6803F182
:102870000103FB6047F6CC23C2F20003FA681A603A
:10288000FB68002B35D147F68023C2F200031B689A
:102890001B68002B09D04FF0A00383F31188BFF30E
:1028A0006F8FBFF34F8F7B61FEE747F68023C2F245
:1028B00000031B683B6147F68423C2F200031A68D9
:1028C00047F68023C2F200031A6047F68423C2F25F
:1028D00000033A691A6047F6E023C2F200031B685E
:1028E00003F1010247F6E023C2F200031A6000F090
:1028F000B3FB47F6E823C2F200031B68FA689A426A
:1029000073D300E000BF47F68023C2F200031B68C8
:102910001B68002B02D14FF0010301E04FF00003D0
:10292000002B07D047F6E823C2F200034FF0FF3236
:102930001A605AE047F68023C2F200031B68DB6886
:10294000DB683B603B685B687B60FA687B689A4247
:1029500006D247F6E823C2F200037A681A6044E020
:102960003B6803F104031846FEF7DCFD3B689B6AF5
:10297000002B05D03B6803F118031846FEF7D2FD83
:102980003B68DB6A4FF0010202FA03F247F6D023FC
:10299000C2F200031B6842EA030247F6D023C2F2E8
:1029A00000031A603B68DA6A13464FEA8303134454
:1029B0004FEA83031A4647F6F413C2F200031A449F
:1029C0003B6803F1040310461946FEF74DFD3B68D2
:1029D000DA6A47F6F013C2F200031B68DB6A9A4218
:1029E00090D34FF00103BB608DE747F6F013C2F2BE
:1029F00000031B68DA6A13464FEA830313444FEA65
:102A000083031A4647F6F413C2F2000313441B680B
:102A1000012B10D94FF00103BB600DE047F6D8231E
:102A2000C2F200031B6803F1010247F6D823C2F289
:102A300000031A6000E000BF47F6DC23C2F2000387
:102A40001B68002B02D04FF00103BB60BB68184627
:102A500007F11807BD4680BD80B588B000AF47F6C6
:102A6000F023C2F200031B68002B07D047F6DC23DB
:102A7000C2F200034FF001021A60BCE047F6DC230B
:102A8000C2F200034FF000021A60FDF76DFC02462F
:102A900047F6F823C2F200031A6047F6F823C2F2A1
:102AA00000031A6847F6F423C2F200031B689A4237
:102AB00013D947F6F013C2F200031A68116D47F6F6
:102AC000F823C2F20003186847F6F423C2F20003A9
:102AD0001B68C3EB00030B44136547F6F823C2F2EF
:102AE00000031A6847F6F423C2F200031A6047F69F
:102AF000F013C2F200031B681B6B7B604FF0A53321
:102B0000BB607B681A68BB689A4214D17B6803F18A
:102B100004031A68BB689A420DD17B6803F108036D
:102B20001A68BB689A4206D17B6803F10C031A68E5
:102B3000BB689A420FD047F6F013C2F200031A683E
:102B400047F6F013C2F200031B6803F1340310468A
:102B50001946FDF777FC47F6D023C2F200031B6845
:102B60007B617B69B3FA83F3FB76FB7EC3F11F03C2
:102B7000FB60FA6813464FEA830313444FEA83036A
:102B80001A4647F6F413C2F2000313441B68002BE5
:102B900009D14FF0A00383F31188BFF36F8FBFF308
:102BA0004F8FFB61FEE7FA6813464FEA8303134435
:102BB0004FEA83031A4647F6F413C2F200031344A4
:102BC0003B613B695B685A683B695A603B695A687C
:102BD0003B6903F108039A4204D13B695B685A6878
:102BE0003B695A603B695B68DB681A4647F6F0133D
:102BF000C2F200031A6007F12007BD4680BD00BF86
:102C000080B584B000AF786039607B68002B09D153
:102C10004FF0A00383F31188BFF36F8FBFF34F8F83
:102C2000FB60FEE747F6F013C2F200031B6803F1F6
:102C3000180378681946FEF73BFC38684FF001012D
:102C400000F042FD07F11007BD4680BD80B586B09B
:102C500000AFF860B9607A60FB68002B09D14FF0D3
:102C6000A00383F31188BFF36F8FBFF34F8F7B6196
:102C7000FEE747F6F013C2F200031B6803F11803E6
:102C8000F8681946FEF7F0FB7B68002B02D04FF086
:102C9000FF33BB60B868796800F016FD07F11807CC
:102CA000BD4680BD80B586B000AF78607B68DB68CC
:102CB000DB68FB60FB68002B09D14FF0A00383F3B6
:102CC0001188BFF36F8FBFF34F8F7B61FEE7FB6807
:102CD00003F118031846FEF725FC47F6F023C2F26D
:102CE00000031B68002B2DD1FB6803F10403184679
:102CF000FEF718FCFB68DB6A4FF0010202FA03F2F0
:102D000047F6D023C2F200031B6842EA030247F6EB
:102D1000D023C2F200031A60FB68DA6A13464FEA56
:102D2000830313444FEA83031A4647F6F413C2F2AF
:102D300000031A44FB6803F1040310461946FEF72A
:102D400093FB09E0FB6803F1180347F68820C2F201
:102D500000001946FEF788FBFB68DA6A47F6F013B5
:102D6000C2F200031B68DB6A9A420AD94FF00103E2
:102D70003B6147F6DC23C2F200034FF001021A6008
:102D800002E04FF000033B613B69184607F118076A
:102D9000BD4680BD80B485B000AF78607B68002BF5
:102DA00009D14FF0A00383F31188BFF36F8FBFF3F6
:102DB0004F8FFB60FEE747F6E023C2F200031A687C
:102DC0007B681A6047F6CC23C2F200031A687B685E
:102DD0005A6007F11407BD4680BC704780B586B0C5
:102DE00000AF786039607B68002B09D14FF0A003F9
:102DF00083F31188BFF36F8FBFF34F8F3B61FEE703
:102E00003B68002B09D14FF0A00383F31188BFF377
:102E10006F8FBFF34F8F7B61FEE701F0FFFB47F63B
:102E2000CC23C2F200031B68FB603B681B68B3F154
:102E3000FF3F03D14FF00003BB602EE07B681A68B0
:102E400047F6E023C2F200031B689A4208D07B6871
:102E50005A68FB689A4203D84FF00103BB601CE03C
:102E60007B685B68FA68C3EB02023B681B689A42A6
:102E700010D23B681A687B685968FB68C3EB010392
:102E80001A443B681A607868FFF784FF4FF000032C
:102E9000BB6002E04FF00103BB6001F0F7FBBB68D1
:102EA000184607F11807BD4680BD00BF80B400AFCB
:102EB00047F6DC23C2F200034FF001021A60BD4660
:102EC00080BC704780B582B000AF786000F068F8D1
:102ED00047F6F413C2F200031B68012B0AD94EF621
:102EE0000453CEF200034FF080521A60BFF34F8FAD
:102EF000BFF36F8FFDF7A0FAE8E700BF80B582B09F
:102F000000AF4FF000037B6013E07A6813464FEA8E
:102F1000830313444FEA83031A4647F6F413C2F2BD
:102F2000000313441846FEF76DFA7B6803F10103B2
:102F30007B607B68042BE8D947F65820C2F200007A
:102F4000FEF760FA47F66C20C2F20000FEF75AFA6C
:102F500047F68820C2F20000FEF754FA47F69C209C
:102F6000C2F20000FEF74EFA47F6B420C2F20000AB
:102F7000FEF748FA47F68023C2F2000347F65822CC
:102F8000C2F200021A6047F68423C2F2000347F639
:102F90006C22C2F200021A6007F10807BD4680BD2C
:102FA00080B582B000AF3CE0FFF75CFB47F69C23A6
:102FB000C2F200031B68002B14BF002301233B60F7
:102FC000FFF762FB3B68002B2BD101F027FB47F694
:102FD0009C23C2F20003DB68DB687B607B6803F143
:102FE00004031846FEF79EFA47F6C823C2F2000310
:102FF0001B6803F1FF3247F6C823C2F200031A60D0
:1030000047F6B023C2F200031B6803F1FF3247F614
:10301000B023C2F200031A6001F038FB786800F0B8
:103020000BF847F6B023C2F200031B68002BBBD19C
:1030300007F10807BD4680BD80B582B000AF78605B
:103040007B681B6B184601F097F8786801F094F8DC
:1030500007F10807BD4680BD80B483B000AF47F6D6
:103060008023C2F200031B681B68002B02D14FF0C3
:10307000010301E04FF00003002B07D047F6E823DF
:10308000C2F200034FF0FF321A600EE047F68023D1
:10309000C2F200031B68DB68DB687B607B685A68F0
:1030A00047F6E823C2F200031A6007F10C07BD4699
:1030B00080BC704780B483B000AF47F6D423C2F21F
:1030C00000031B68002B03D14FF001037B600DE070
:1030D00047F6F023C2F200031B68002B03D14FF028
:1030E00002037B6002E04FF000037B607B681846C0
:1030F00007F10C07BD4680BC704700BF80B584B0A7
:1031000000AF78607B68FB607B68002B00F09880E4
:10311000FB68DA6A47F6F013C2F200031B68DB6A49
:103120009A4280F08D80FB689B69002B09DB47F693
:10313000F013C2F200031B68DB6AC3F10502FB68EF
:103140009A61FB685969FB68DA6A13464FEA8303A0
:1031500013444FEA83031A4647F6F413C2F20003FE
:103160001344994202D14FF0010301E04FF00003F4
:10317000002B5DD0FB6803F104031846FEF7D2F97B
:103180000346002B24D1FB68DA6A13464FEA830317
:1031900013444FEA83031A4647F6F413C2F20003BE
:1031A00013441B68002B13D1FB68DB6A4FF001024C
:1031B00002FA03F36FEA030247F6D023C2F20003D8
:1031C0001B6802EA030247F6D023C2F200031A602A
:1031D00047F6F013C2F200031B68DA6AFB68DA6292
:1031E000FB68DB6A4FF0010202FA03F247F6D023D4
:1031F000C2F200031B6842EA030247F6D023C2F280
:1032000000031A60FB68DA6A13464FEA830313442B
:103210004FEA83031A4647F6F413C2F200031A4436
:10322000FB6803F1040310461946FEF71DF907E099
:1032300047F6F013C2F200031B68DA6AFB68DA6231
:1032400007F11007BD4680BD80B586B000AF78603D
:103250007B68BB604FF00003FB607B68002B00F0D5
:10326000928047F6F013C2F200031B68BA689A42D4
:1032700009D04FF0A00383F31188BFF36F8FBFF322
:103280004F8F3B61FEE7BB68DB6C002B09D14FF031
:10329000A00383F31188BFF36F8FBFF34F8F7B6160
:1032A000FEE7BB68DB6C03F1FF32BB68DA64BB6826
:1032B000DA6ABB689B6C9A4265D0BB68DB6C002BFA
:1032C00061D1BB6803F104031846FEF72BF90346EE
:1032D000002B24D1BB68DA6A13464FEA83031344F8
:1032E0004FEA83031A4647F6F413C2F2000313446D
:1032F0001B68002B13D1BB68DB6A4FF0010202FA96
:1033000003F36FEA030247F6D023C2F200031B68FF
:1033100002EA030247F6D023C2F200031A60BB6838
:103320009A6CBB68DA62BB68DB6AC3F10502BB68F2
:103330009A61BB68DB6A4FF0010202FA03F247F6BA
:10334000D023C2F200031B6842EA030247F6D023EF
:10335000C2F200031A60BB68DA6A13464FEA8303BD
:1033600013444FEA83031A4647F6F413C2F20003EC
:103370001A44BB6803F1040310461946FEF774F8BB
:103380004FF00103FB60FB68184607F11807BD46C4
:1033900080BD00BF80B400AF47F6F013C2F2000357
:1033A0001B68002B08D047F6F013C2F200031B681D
:1033B000DA6C02F10102DA6447F6F013C2F200039C
:1033C0001B681846BD4680BC704700BF80B584B0FE
:1033D00000AF7860396001F021F947F6F013C2F2CE
:1033E00000031B685B6D002B1BD147F6F013C2F284
:1033F00000031B684FF0010283F858203B68002B44
:103400000FD038684FF0010100F05EF94EF604531A
:10341000CEF200034FF080521A60BFF34F8FBFF31C
:103420006F8F01F033F901F0F9F847F6F013C2F2AB
:1034300000031B685B6DFB60FB68002B14D07B688E
:10344000002B08D047F6F013C2F200031B684FF0C0
:1034500000025A6508E047F6F013C2F200031B6849
:10346000FA6802F1FF325A6547F6F013C2F2000320
:103470001B684FF0000283F8582001F007F9FB6841
:10348000184607F11007BD4680BD00BF80B586B065
:1034900000AFF860B9607A603B6001F0BFF847F6B2
:1034A000F013C2F200031B6893F85830DBB2022B12
:1034B00027D047F6F013C2F200031B68596DFA6873
:1034C0006FEA020201EA02025A6547F6F013C2F2FD
:1034D00000031B684FF0010283F858203B68002B63
:1034E0000FD038684FF0010100F0EEF84EF60453AB
:1034F000CEF200034FF080521A60BFF34F8FBFF33C
:103500006F8F01F0C3F801F089F87B68002B07D0BA
:1035100047F6F013C2F200031B685A6D7B681A600D
:1035200047F6F013C2F200031B6893F85830DBB281
:10353000012B03D14FF000037B610EE047F6F0133F
:10354000C2F200031B68596DBA686FEA020201EA11
:1035500002025A654FF001037B6147F6F013C2F295
:1035600000031B684FF0000283F8582001F08EF82A
:103570007B69184607F11807BD4680BD80B58AB043
:1035800000AF786039607B68002B09D14FF0A00351
:1035900083F31188BFF36F8FBFF34F8F7B61FEE71B
:1035A00001F010F97B68BB60EFF311824FF0A003CC
:1035B00083F31188BFF36F8FBFF34F8FFA61BB6145
:1035C000FB693B61BB6893F85830FB73BB684FF0F5
:1035D000020283F85820BB685B6D03F10102BB68EF
:1035E0005A65FB7B012B65D1BB689B6A002B09D018
:1035F0004FF0A00383F31188BFF36F8FBFF34F8F9A
:103600003B62FEE747F6F023C2F200031B68002B83
:103610002DD1BB6803F104031846FDF783FFBB6897
:10362000DB6A4FF0010202FA03F247F6D023C2F23E
:1036300000031B6842EA030247F6D023C2F20003EC
:103640001A60BB68DA6A13464FEA830313444FEAF1
:1036500083031A4647F6F413C2F200031A44BB6808
:1036600003F1040310461946FDF7FEFE09E0BB68AE
:1036700003F1180347F68820C2F200001946FDF74F
:10368000F3FEBB68DA6A47F6F013C2F200031B6868
:10369000DB6A9A420ED93B68002B04D03B684FF09E
:1036A00001021A6006E047F6DC23C2F200034FF085
:1036B00001021A603B697B627B6A83F3118807F120
:1036C0002807BD4680BD00BF80B584B000AF7860DC
:1036D000396047F6CC23C2F200031B68FB6047F653
:1036E000F013C2F200031B6803F104031846FDF750
:1036F00019FF0346002B17D147F6F013C2F200035F
:103700001B68DB6A4FF0010202FA03F36FEA03025F
:1037100047F6D023C2F200031B6802EA030247F611
:10372000D023C2F200031A607B68B3F1FF3F11D1CE
:103730003B68002B0ED047F6F013C2F200031B6863
:1037400003F1040347F6B420C2F200001946FDF766
:103750008BFE3DE0FA687B681344BB6047F6F013CC
:10376000C2F200031B68BA685A60BA68FB689A42E2
:1037700010D247F68423C2F200031A6847F6F0130A
:10378000C2F200031B6803F1040310461946FDF75B
:103790008FFE1DE047F68023C2F200031A6847F649
:1037A000F013C2F200031B6803F10403104619462C
:1037B000FDF77EFE47F6E823C2F200031B68BA68F5
:1037C0009A4205D247F6E823C2F20003BA681A60AB
:1037D00007F11007BD4680BD80B584B002AF4FF041
:1037E00000033B6000F072FB47F62C33C2F200038B
:1037F0001B68002B17D04FF00203009347F63033BD
:10380000C2F20003019343F64920C2F2000047F6DA
:103810001811C2F200014FF0A0024FF00003FEF7B2
:1038200015FC03463B603B68002B09D14FF0A00319
:1038300083F31188BFF36F8FBFF34F8F7B60FEE779
:103840003B68184607F10807BD4680BD80B588B0C3
:1038500002AFF860B9607A603B604FF02C0000F076
:103860008FFB03467B617B69002B09D03B6A009389
:103870007B690193F868B9687A683B6800F006F8DC
:103880007B69184607F11807BD4680BD80B586B034
:1038900000AFF860B9607A603B60BB68002B09D16B
:1038A0004FF0A00383F31188BFF36F8FBFF34F8FE7
:1038B0007B61FEE77B6A002B16D000F007FB7B6A7A
:1038C000FA681A607B6ABA689A617B6A7A68DA6118
:1038D0007B6A3A681A627B6A3A6A5A627B6A03F1C7
:1038E00004031846FDF7B2FD07F11807BD4680BD79
:1038F00080B58AB000AFF860B9607A603B604FF085
:1039000000033B62FB68002B09D14FF0A00383F357
:103910001188BFF36F8FBFF34F8F7B62FEE747F6CF
:103920002C33C2F200031B68002B40D0BB683B6104
:103930007B687B61FB68BB61BB68052B27DCFFF7FD
:10394000B9FB0346022B10D147F62C33C2F2000319
:103950001A6807F11003104619463A6B4FF000033E
:10396000FDF720FF03463B6221E047F62C33C2F20D
:1039700000031A6807F11003104619464FF00002C1
:103980004FF00003FDF70EFF03463B620FE047F6E2
:103990002C33C2F200031A6807F1100310461946CF
:1039A0003A684FF00003FEF715F803463B623B6AA6
:1039B000184607F12807BD4680BD00BF80B588B016
:1039C00002AF7860396047F62433C2F200031B6807
:1039D000DB68DB683B613B6903F104031846FDF7D4
:1039E000A1FD3B69DB69012B26D13B699A697B68A4
:1039F0001344386919463A687B6800F0DFF80346DB
:103A0000002B19D04FF00003009338694FF00001EC
:103A10007A684FF00003FFF76BFF0346FB60FB681B
:103A2000002B09D14FF0A00383F31188BFF36F8FF0
:103A3000BFF34F8F7B61FEE73B695B6A386998474C
:103A400007F11807BD4680BD80B584B000AF78602F
:103A500007F10803184600F061F80346FB60BB68F5
:103A6000F868194600F004F800F0F4F8F0E700BF39
:103A700080B584B000AF78603960FEF7F3FD07F1E0
:103A80000803184600F072F80346FB60BB68002B81
:103A90003BD13B68002B0BD17A68FB689A4207D870
:103AA000FEF7F2FD7868F968FFF788FF00BF30E0A5
:103AB0003B68002B0AD047F62833C2F200031B688C
:103AC0001B68002B14BF002301233B6047F62C33F7
:103AD000C2F200031A687968FB68C3EB0103104661
:103AE00019463A68FEF778FAFEF7CEFD0346002B3A
:103AF0000ED14EF60453CEF200034FF080521A60FE
:103B0000BFF34F8FBFF36F8F03E0FEF7BDFD00E003
:103B100000BF07F11007BD4680BD00BF80B485B06F
:103B200000AF786047F62433C2F200031B681B68BD
:103B3000002B14BF002201227B681A607B681B687F
:103B4000002B08D147F62433C2F200031B68DB6860
:103B50001B68FB6002E04FF00003FB60FB68184647
:103B600007F11407BD4680BC704700BF80B584B024
:103B700000AF7860FEF758FE0346FB6047F634332B
:103B8000C2F200031B68FA689A4206D200F024F9D8
:103B90007B684FF001021A6003E07B684FF000027F
:103BA0001A6047F63433C2F20003FA681A60FB6801
:103BB000184607F11007BD4680BD00BF80B586B02E
:103BC00000AFF860B9607A603B604FF000037B6142
:103BD000FB68BA685A60FB68FA681A61BA687B6861
:103BE0009A4218D87A683B68C3EB0202FB689B696B
:103BF0009A4203D34FF001037B6124E047F6283358
:103C0000C2F200031A68FB6803F104031046194668
:103C1000FDF74EFC17E07A683B689A4207D2BA6813
:103C20003B689A4203D34FF001037B610BE047F6F8
:103C30002433C2F200031A68FB6803F10403104640
:103C40001946FDF735FC7B69184607F11807BD4694
:103C500080BD00BF80B58EB002AFA5E07B68002BB1
:103C60001ADA07F1040303F104033B623B6A002BF9
:103C700009D14FF0A00383F31188BFF36F8FBFF317
:103C80004F8F7B62FEE73B6A1B683A6A51683A6A6B
:103C900092680846114698477B68002BC0F28480E2
:103CA000FB687B617B695B69002B05D07B6903F155
:103CB00004031846FDF736FC3B461846FFF756FF4F
:103CC0000346FB617B68092B6ED801A252F823F0F2
:103CD000F93C0020F93C0020F93C0020A93D0020DF
:103CE0005F3D0020973D0020F93C0020F93C00207A
:103CF000A93D00205F3D0020BA687B699B691A449A
:103D0000BB6878691146FA69FFF758FF0346002B34
:103D100045D07B695B6A786998477B69DB69012BD1
:103D20003FD1BA687B699B6913444FF0000200924F
:103D300078694FF000011A464FF00003FFF7D8FDF5
:103D40000346BB61BB69002B2DD14FF0A00383F369
:103D50001188BFF36F8FBFF34F8FBB62FEE7BA6866
:103D60007B699A617B699B69002B09D14FF0A003A5
:103D700083F31188BFF36F8FBFF34F8FFB62FEE7B2
:103D80007B699A69FB69134478691946FA69FB698A
:103D9000FFF714FF08E0786900F0EEF904E000BFD7
:103DA00002E000BF00E000BF47F62C33C2F2000380
:103DB0001A6807F10403104619464FF000024FF04D
:103DC0000003FDF7A9FE0346002B7FF447AF07F180
:103DD0003007BD4680BD00BF80B588B002AF53E05C
:103DE00047F62433C2F200031B68DB681B683B60A4
:103DF00047F62433C2F200031B68DB68DB68FB6014
:103E0000FB6803F104031846FDF78CFBFB685B6A53
:103E1000F8689847FB68DB69012B35D1FB689A6924
:103E20003B6813447B607A683B689A4212D9FB680E
:103E30007A685A60FB68FA681A6147F62433C2F25E
:103E400000031A68FB6803F1040310461946FDF7E6
:103E50002FFB19E04FF000030093F8684FF00001CA
:103E60003A684FF00003FFF743FD03463B613B69AF
:103E7000002B09D14FF0A00383F31188BFF36F8F9C
:103E8000BFF34F8F7B61FEE747F62433C2F2000396
:103E90001B681B68002BA3D147F62433C2F2000332
:103EA0001B68BB6047F62833C2F200031A6847F666
:103EB0002433C2F200031A6047F62833C2F200032B
:103EC000BA681A6007F11807BD4680BD80B500AF1B
:103ED00000F0A4FB47F62C33C2F200031B68002B52
:103EE0002BD147F6FC20C2F20000FDF78BFA47F613
:103EF0001030C2F20000FDF785FA47F62433C2F213
:103F0000000347F6FC22C2F200021A6047F628338B
:103F1000C2F2000347F61032C2F200021A604FF0FC
:103F200005004FF010014FF00002FDF79DFB024627
:103F300047F62C33C2F200031A6000F0A7FB80BDE5
:103F400080B586B000AF78607B68FB607B68002B33
:103F500009D14FF0A00383F31188BFF36F8FBFF334
:103F60004F8F7B61FEE700F059FBFB681B6A3B61EA
:103F700000F08CFB3B69184607F11807BD4680BD71
:103F800080B58AB000AF78604FF00003BB61FEF7E8
:103F900069FB4DF6E843C2F200031B68002B01D118
:103FA00000F056F94DF6F443C2F200031A687B683C
:103FB00002EA0303002B40F0C2807B68002B21D073
:103FC00047F62013C2F200031B687A6813447B6033
:103FD0007B6803F00703002B14D07B6823F00703F2
:103FE00003F108037B607B6803F00703002B09D013
:103FF0004FF0A00383F31188BFF36F8FBFF34F8F90
:10400000FB61FEE77B68002B00F099804DF6EC43E6
:10401000C2F200031B687A689A4200F290804DF663
:10402000E043C2F200033B614DF6E043C2F20003FD
:104030001B68FB6004E0FB683B61FB681B68FB607E
:10404000FB685A687B689A4203D2FB681B68002BA6
:10405000F1D14DF6E843C2F200031B68FA689A42B8
:104060006DD03B691A6847F62013C2F200031B6843
:104070001344BB61FB681A683B691A60FB685A68A5
:104080007B68C3EB020247F62013C2F200031B68F1
:104090004FEA43039A421FD9FA687B6813447B6155
:1040A0007B6903F00703002B09D04FF0A00383F3D3
:1040B0001188BFF36F8FBFF34F8F3B62FEE7FB6842
:1040C0005A687B68C3EB02027B695A60FB687A68B6
:1040D0005A60786900F03EF94DF6EC43C2F20003F5
:1040E0001A68FB685B68C3EB02024DF6EC43C2F250
:1040F00000031A604DF6EC43C2F200031A684DF655
:10410000F043C2F200031B689A4209D24DF6EC4319
:10411000C2F200031A684DF6F043C2F200031A60BF
:10412000FB685A684DF6F443C2F200031B6842EA8A
:104130000302FB685A60FB684FF000021A60FEF74A
:10414000A3FABB69002B01D1FCF768F9BB6903F046
:104150000703002B09D04FF0A00383F31188BFF3AE
:104160006F8FBFF34F8F7B62FEE7BB69184607F185
:104170002807BD4680BD00BF80B586B000AF78601F
:104180007B68BB607B68002B5ED047F62013C2F2D1
:1041900000031B68C3F10003BA681344BB60BB682B
:1041A000FB60FB685A684DF6F443C2F200031B68DB
:1041B00002EA0303002B09D14FF0A00383F3118817
:1041C000BFF36F8FBFF34F8F3B61FEE7FB681B6848
:1041D000002B09D04FF0A00383F31188BFF36F8F3A
:1041E000BFF34F8F7B61FEE7FB685A684DF6F443DF
:1041F000C2F200031B6802EA0303002B24D0FB6811
:104200001B68002B20D1FB685A684DF6F443C2F2BC
:1042100000031B686FEA030302EA0302FB685A60AB
:10422000FEF720FAFB685A684DF6EC43C2F2000331
:104230001B681A444DF6EC43C2F200031A60F8689A
:1042400000F088F8FEF720FA07F11807BD4680BD98
:1042500080B485B000AF46F2A813FB6047F6383350
:10426000C2F20003BB60BB6803F00703002B11D050
:10427000BB6803F10703BB60BB6823F00703BB60A7
:10428000FA68BB68C3EB020247F63833C2F2000398
:104290001344FB60BB687B607A684DF6E043C2F272
:1042A00000031A604DF6E043C2F200034FF0000233
:1042B0005A607A68FB681344BB6047F62013C2F269
:1042C00000031B68BA68C3EB0203BB60BB6823F042
:1042D0000703BB60BA684DF6E843C2F200031A60F8
:1042E0004DF6E843C2F200031B684FF000025A602B
:1042F0004DF6E843C2F200031B684FF000021A605B
:104300007B683B603B68BA68C3EB02023B685A605B
:104310004DF6E843C2F200031A683B681A603B6836
:104320005A684DF6F043C2F200031A603B685A68BF
:104330004DF6EC43C2F200031A604DF6F443C2F2AC
:1043400000034FF000421A6007F11407BD4680BC1D
:10435000704700BF80B485B000AF78604DF6E04391
:10436000C2F20003BB6002E0BB681B68BB60BB68B5
:104370001A687B689A42F7D3BB68FB60BB685A68CF
:10438000FB681A447B689A4208D1BB685A687B680C
:104390005B681A44BB685A60BB687B607B68FB60E3
:1043A0007B685A68FB681A44BB681B689A421ED136
:1043B000BB681A684DF6E843C2F200031B689A42D4
:1043C0000DD07B685A68BB681B685B681A447B68C1
:1043D0005A60BB681B681A687B681A600BE04DF670
:1043E000E843C2F200031A687B681A6003E0BB6806
:1043F0001A687B681A60BA687B689A4202D0BB6808
:104400007A681A6007F11407BD4680BC704700BF88
:1044100080B485B000AFF860B9607A60FB68A3F142
:104420000403FB60FB684FF080721A60FB68A3F125
:104430000403FB60BB6823F00102FB681A60FB68A1
:10444000A3F10403FB6044F27943C2F20003FA686B
:104450001360FB68A3F11403FB607A68FB681A60C1
:10446000FB68A3F12003FB60FB68184607F1140703
:10447000BD4680BC704700BF80B483B000AF47F634
:104480008413C2F200031B68B3F1FF3F09D04FF061
:10449000A00383F31188BFF36F8FBFF34F8F3B608F
:1044A000FEE74FF0A00383F31188BFF36F8FBFF3D4
:1044B0004F8F7B60FEE700BF00000000000000009F
:1044C000074B19680868B0E8F00F80F30988BFF35C
:1044D0006F8F4FF0000080F311884EF00D0E704783
:1044E000F0790020AFF30080AFF30080AFF30080DD
:1044F00006480068006880F3088862B661B6BFF3BA
:104500004F8FBFF36F8F00DF00BF000008ED00E0AA
:1045100080B584B000AF4EF20043CEF20003FB60E2
:10452000FB681B78DBB2BB60FB684FF0FF321A7090
:10453000FB681B78DBB2FB71FB79DBB21A4602F039
:10454000A0024DF6F843C2F200031A704DF6FC4388
:10455000C2F200034FF007021A6011E04DF6FC436F
:10456000C2F200031B6803F1FF324DF6FC43C2F2B6
:1045700000031A60FB79DBB24FEA4303DBB2FB7145
:10458000FB79DBB25BB2002BE8DB4DF6FC43C2F2F9
:1045900000031B684FEA03224DF6FC43C2F20003FE
:1045A0001A604DF6FC43C2F200031B6803F4E0629C
:1045B0004DF6FC43C2F200031A60BB68DAB2FB6836
:1045C0001A704EF62053CEF200034EF62052CEF271
:1045D0000002126842F470021A604EF62053CEF2C6
:1045E00000034EF62052CEF20002126842F07042F2
:1045F0001A6000F0C7F847F68413C2F200034FF0C8
:1046000000021A60FFF774FFFFF736FF4FF0000358
:10461000184607F11007BD4680BD00BF80B483B0C7
:1046200000AF4FF0A00383F31188BFF36F8FBFF388
:104630004F8F3B6047F68413C2F200031B6803F1FF
:10464000010247F68413C2F200031A6047F684138E
:10465000C2F200031B68012B12D14EF60453CEF2B6
:1046600000031B6803F0FF03002B09D04FF0A003E9
:1046700083F31188BFF36F8FBFF34F8F7B60FEE72B
:1046800007F10C07BD4680BC704700BF80B483B003
:1046900000AF47F68413C2F200031B68002B09D158
:1046A0004FF0A00383F31188BFF36F8FBFF34F8FD9
:1046B0003B60FEE747F68413C2F200031B6803F178
:1046C000FF3247F68413C2F200031A6047F68413E0
:1046D000C2F200031B68002B05D14FF000037B6082
:1046E0007B6883F3118807F10C07BD4680BC7047D7
:1046F000EFF30980BFF36F8F0D4B1A6820E9F00FBD
:1047000010602DE908404FF0A00080F31188FEF7FB
:10471000A3F94FF0000080F31188BDE80840196844
:104720000868B0E8F00F80F30988BFF36F8F704717
:10473000F0790020AFF30080AFF30080AFF300808A
:1047400080B582B000AF4FF0A00383F31188BFF3B0
:104750006F8FBFF34F8F3B60FEF776F80346002B59
:1047600006D04EF60453CEF200034FF080521A608A
:104770004FF000037B607B6883F3118807F1080723
:10478000BD4680BD80B400AF4EF21403CEF20003EC
:1047900047F6C812C2F20002116844F6D352C1F2C1
:1047A0006202A2FB01024FEA921202F1FF321A608A
:1047B0004EF21003CEF200034FF007021A60BD461E
:1047C00080BC704780B485B000AFEFF305833B60D9
:1047D0003B680F2B1AD947F62413C2F200031A685C
:1047E0003B6813441B78FB714DF6F843C2F200039B
:1047F0001B78FA799A4209D24FF0A00383F311880B
:10480000BFF36F8FBFF34F8FBB60FEE74EF60C53C5
:10481000CEF200031B6803F4E0624DF6FC43C2F2E3
:1048200000031B689A4209D94FF0A00383F3118853
:10483000BFF36F8FBFF34F8FFB60FEE707F11407E5
:10484000BD4680BC704700BF80B483B000AF034654
:10485000FB714EF20013CEF2000397F907204FEAE6
:104860005212F97901F01F014FF0010000FA01F135
:1048700043F8221007F10C07BD4680BC704700BF0B
:1048800080B483B000AF03463960FB7197F90730FD
:10489000002B10DA4EF60053CEF20003FA7902F044
:1048A0000F02A2F104013A68D2B24FEA0212D2B268
:1048B0000B441A760DE04EF20013CEF2000397F986
:1048C00007103A68D2B24FEA0212D2B20B4483F810
:1048D000002307F10C07BD4680BC704790B589B036
:1048E00000AF78604EF27443C2F200031B681846B2
:1048F000FDF762FD0346BB614EF29043C2F2000336
:104900001B68002B00F0EC814FF00003BB774FF0E9
:104910000003FB774DF6E452C2F200024EF27C43F4
:10492000C2F200031A6007F1160107F1140207F141
:104930001203084611461A46FBF7BCFD0346BB7737
:1049400007F10E0107F10C0207F10A0308461146B0
:104950001A46FBF745FF0346BB774EF27C43C2F293
:1049600000031A684EF26843C2F200031B8803F08A
:10497000FF014FF0000040EA010191734FEA132359
:104980009BB24FF0000141EA0303D3734EF27C4324
:10499000C2F200031A684EF2A843C2F200031B8859
:1049A00003F0FF014FF0000040EA010111744FEAEB
:1049B00013239BB24FF0000141EA030353744EF2FC
:1049C0007C43C2F200031B68FA8A02F0FF014FF039
:1049D000000040EA010199744FEA122292B24FF0AE
:1049E000000141EA0202DA744EF27C43C2F2000393
:1049F0001B68BA8A02F0FF014FF0000040EA010193
:104A000019754FEA122292B24FF0000141EA0202F8
:104A10005A754EF27C43C2F200031B687A8A02F098
:104A2000FF014FF0000040EA010199754FEA1222A0
:104A300092B24FF0000141EA0202DA754EF27C4375
:104A4000C2F200031B68FA8902F0FF014FF0000078
:104A500040EA010119764FEA122292B24FF00001AA
:104A600041EA02025A764EF27C43C2F200031B680E
:104A7000BA8902F0FF014FF0000040EA0101997687
:104A80004FEA122292B24FF0000141EA0202DA76B6
:104A90004EF27C43C2F200031B687A8902F0FF01E8
:104AA0004FF0000040EA010119774FEA122292B25A
:104AB0004FF0000141EA02025A7707F10803184655
:104AC000FCF700F80346BB774EF27C43C2F20003CA
:104AD0001B683A8902F0FF014FF0000040EA010133
:104AE00099774FEA122292B24FF0000141EA020296
:104AF000DA774EF27C43C2F200031C6807F111031F
:104B00004FF040004FF001011A46FCF70FF9034641
:104B10009BB203F0FF024FF0000141EA020284F869
:104B200021204FEA13239BB24FF0000242EA030315
:104B300084F822307A7CFB7F1344FB774EF27C436F
:104B4000C2F200031C6807F111034FF040004FF060
:104B500002011A46FCF7EAF803469BB203F0FF0293
:104B60004FF0000141EA020284F825204FEA1323A6
:104B70009BB24FF0000242EA030384F826307A7CAD
:104B8000FB7F1344FB774EF27C43C2F200031C68A8
:104B900007F111034FF040004FF003011A46FCF7F4
:104BA000C5F803469BB203F0FF024FF0000141EA53
:104BB000020284F829204FEA13239BB24FF000022F
:104BC00042EA030384F82A307A7CFB7F1344FB77A4
:104BD0004EF27C43C2F200031C6807F111034FF050
:104BE00040004FF001011A46FCF7FEF803469BB265
:104BF00003F0FF024FF0000141EA020284F8232093
:104C00004FEA13239BB24FF0000242EA030384F8F9
:104C100024307A7CFB7F1344FB774EF27C43C2F254
:104C200000031C6807F111034FF040004FF0020130
:104C30001A46FCF7D9F803469BB203F0FF024FF087
:104C4000000141EA020284F827204FEA13239BB2B5
:104C50004FF0000242EA030384F828307A7CFB7F9D
:104C60001344FB774EF27C43C2F200031C6807F149
:104C700011034FF040004FF003011A46FCF7B4F85F
:104C800003469BB203F0FF024FF0000141EA02022B
:104C900084F82B204FEA13239BB24FF0000242EA24
:104CA000030384F82C307A7CFB7F1344FB774DF6AA
:104CB000E453C2F200034FF0010283F8FF214EF2E9
:104CC0007443C2F200031A68BB6903F10103104682
:104CD0001946FDF78DFB40F6B830FCF783F922E664
:104CE00007F12407BD4690BDB0B584B000AF786031
:104CF0004FF00000FDF760FB0346BB604EF29C43A3
:104D0000C2F200031B68002B53D04DF60452C2F2CE
:104D100000024EF2A443C2F200031A604FF00003F7
:104D2000FB732EE04EF2A443C2F200031C68FD7B2D
:104D3000BB7BFA7B4EF2E030C2F200004FF0210163
:104D4000FCF7B2F80346194605F1040201F0FF0032
:104D50004FEA420323444FF0000C4CEA00009871E4
:104D60004FEA112398B24FEA420323444FF0000266
:104D70001146024641EA0202DA71FB7B03F10103AC
:104D8000FB73FB7B062BCDD94DF60453C2F2000317
:104D90004FF0020283F83120BB68A3F102034FF009
:104DA00000001946FDF724FB40F6B830FCF71AF96D
:104DB000B4E707F11007BD46B0BD00BF80B588B0AD
:104DC00000AFB96013460246FA73FB71FB7B3B757B
:104DD000BB68BB61FB793B77F97B4EF2E812C2F20C
:104DE00000020B464FEAC3030B444FEA430313444C
:104DF00003F110031B88002B11D04EF2A043C2F226
:104E000000031A6807F11403104619464FF0000218
:104E10004FF00003FCF7C6FC00F04EF90EE04EF236
:104E20006C43C2F200031A6807F1140310461946D6
:104E30004FF000024FF00003FCF7B4FC07F120072D
:104E4000BD4680BD80B584B000AF78607868FFF75C
:104E500077F80346FB60FB68002B40F092804EF22F
:104E60007C43C2F200031B684FF0000242F00802CC
:104E70001A704FF0000242F001025A704EF27C4369
:104E8000C2F20003186847F6C413C2F2000319887F
:104E90000B466FEA83436FEA93439BB29BB24FEAA0
:104EA00003231FFA83FC47F6C413C2F200031A88D7
:104EB00013466FEA83436FEA93439BB29BB24FEA78
:104EC00013239BB24CEA03039BB29BB203F0FF0C8B
:104ED0004FF0000E4EEA0C0C80F802C04FEA13238C
:104EE0009BB24FF0000C4CEA0303C37001F10103C5
:104EF00099B247F6C413C2F20003198002F101030C
:104F00009AB247F6C413C2F200031A804EF27C43F1
:104F1000C2F200031B684FF000021A714FF000024A
:104F200042F02E025A714EF27C43C2F200031B681B
:104F30004FF000029A714FF00002DA714FF0000258
:104F40001A724FF000025A724EF27C43C2F2000312
:104F50001B684FF000029A724FF00002DA724FF0B5
:104F600000021A734FF000025A734EF27C43C2F2F1
:104F700000031B684FF0000019464FF02E02FFF7A8
:104F80001DFFFB68012B40F092804EF2A443C2F259
:104F900000031B684FF0000242F008021A704FF045
:104FA000000242F002025A704EF2A443C2F2000321
:104FB000186847F6C613C2F2000319880B466FEA59
:104FC00083436FEA93439BB29BB24FEA03231FFADA
:104FD00083FC47F6C613C2F200031A8813466FEA31
:104FE00083436FEA93439BB29BB24FEA13239BB276
:104FF0004CEA03039BB29BB203F0FF0C4FF0000E90
:105000004EEA0C0C80F802C04FEA13239BB24FF01B
:10501000000C4CEA0303C37001F1010399B247F697
:10502000C613C2F20003198002F101039AB247F6D7
:10503000C613C2F200031A804EF2A443C2F2000368
:105040001B684FF000021A714FF0000242F01E027E
:105050005A714EF2A443C2F200031B684FF00002E3
:105060009A714FF00002DA714FF000021A724FF09D
:1050700000025A724EF2A443C2F200031B684FF0C2
:1050800000029A724FF00002DA724FF000021A73B7
:105090004FF000025A734EF2A443C2F200031B68A1
:1050A0004FF0010019464FF01E02FFF787FE07F18F
:1050B0001007BD4680BD00BF80B586B000AF7860E8
:1050C0004EF2A043C2F200031A6807F10C03104627
:1050D00019464FF0FF324FF00003FCF71DFD3B690E
:1050E0001A463B7D4EF2F040C2F2000011461A46CD
:1050F00000F050FB07F11807BD4680BD80B584B0B5
:1051000000AF786007F10C034FF000004FF0000192
:105110001A464FF0FF33FEF7B9F94FF001004FF098
:105120000101FEF753F97A684EF21423C2F200032C
:105130001A604EF21423C2F200031B681846FBF7F4
:1051400083FF0346002B15D04EF21423C2F2000356
:105150001B681846FCF762F84EF26843C2F200037F
:105160001B8803F101039AB24EF26843C2F20003B6
:105170001A80C7E74EF2A843C2F200031B8803F16E
:1051800001039AB24EF2A843C2F200031A80B9E7B3
:1051900080B584B000AF786078684DF6A451C2F253
:1051A00000014FF0080200F067FB02464DF6E053A5
:1051B000C2F200031A604FF00003FB604DF600538B
:1051C000C2F200031A6807F10C0310461946FEF7F5
:1051D000D5F9FB68002B0AD04EF60453CEF200033B
:1051E0004FF080521A60BFF34F8FBFF36F8F07F1FC
:1051F0001007BD4680BD00BF90B58DB002AF4FF027
:1052000038033B744FF000037B744FF00003BB7412
:1052100047F64C12C2F2000207F10C031268114665
:10522000198003F102034FEA12421A7047F6501236
:10523000C2F2000207F1080312681146198003F157
:1052400002034FEA12421A7047F65412C2F20002E9
:1052500007F1040312681146198003F102034FEAB3
:1052600012421A704EF2E403C2F200037B6147F669
:105270008813C2F20003BB617A6940F64973C2F237
:10528000000313607B691B684FF00000B969984701
:105290004EF2E030C2F2000044F20001C5F200011B
:1052A0004FF021024FF0000300F076FF4EF2E403CE
:1052B000C2F20003FB6147F6A813C2F200033B628F
:1052C000FA6940F64973C2F200031360FB691B6878
:1052D0004FF00A00396A98474FF003004FF00C0175
:1052E0004FF00002FCF7C0F902464EF2A043C2F2B2
:1052F00000031A604FF003004FF00C014FF0000262
:10530000FCF7B2F902464EF26C43C2F200031A6097
:105310004FF000004FF00301FBF7A4F84FF001003D
:105320004FF00A01FBF79EF84FF00A00FFF78CFAE6
:105330004FF00A004FF09F01FFF7A2FA4EF2F04043
:10534000C2F200004FF416514FF0030200F0E0F9F2
:105350004EF2F040C2F2000045F29111C2F200019B
:105360004FF0800200F0F6FA4FF00100FCF7FEF972
:1053700002464EF28C43C2F200031A604FF0020361
:1053800000934EF29843C2F20003019344F6DD000D
:10539000C2F2000047F62811C2F200014FF050029D
:1053A0004DF6E453C2F20003FCF750FE02464EF203
:1053B0009043C2F200031A604FF0010300934EF2D3
:1053C0007443C2F20003019344F6E940C2F20000C4
:1053D00047F62C11C2F200014FF050024DF6E45393
:1053E000C2F20003FCF732FE02464EF29C43C2F2C8
:1053F00000031A604FF0030300934DF60053C2F20E
:105400000003019345F2FD00C2F2000047F634119B
:10541000C2F200014FF050024DF6A453C2F2000355
:10542000FCF714FE4FF0000387F827308EE097F862
:1054300027104EF2E812C2F200020B464FEAC303F5
:105440000B444FEA4303134403F110031A8842F25A
:1054500010739A4245D097F8274097F827104EF2DC
:10546000E812C2F200020B464FEAC3030B444FEAB4
:105470004303134403F110031B881846FBF7CCFDCC
:10548000024697F827309C4644F64563C2F2000373
:10549000009347F64010C2F2000011464FF001029F
:1054A0006346FEF7D3F902464EF20C23C2F2000324
:1054B00043F8242097F827204EF20C23C2F2000371
:1054C00053F82240FDF7B0F903464FF00002009276
:1054D00020464FF001011A464FF00003FEF708FA8C
:1054E0002EE097F8274097F827104EF2E812C2F204
:1054F00000020B464FEAC3030B444FEA4303134435
:1055000003F110031B881846FBF786FD024697F847
:1055100027309C4644F64563C2F20003009347F6E9
:105520004010C2F2000011464FF001026346FEF740
:105530008DF902464EF20C23C2F2000343F82420F8
:1055400097F8273003F1010387F8273097F82730C1
:10555000012B7FF66CAFFDF72BF807F12C07BD464A
:1055600090BD00BF80B500AF4EF22820C2F200000F
:1055700001F038F880BD00BF80B500AF4EF2942036
:10558000C2F2000001F02EF880BD00BF80B500AF70
:105590004DF63850C2F2000001F024F880BD00BF83
:1055A00080B500AF4EF26C30C2F2000001F01AF884
:1055B00080BD00BF80B500AF4EF2E030C2F2000007
:1055C00001F010F880BD00BF80B500AF4EF2003092
:1055D000C2F2000001F006F880BD00BF80B483B0C5
:1055E00000AF0346FB714EF20013CEF2000397F9B1
:1055F00007204FEA5212F97901F01F014FF0010024
:1056000000FA01F143F8221007F10C07BD4680BCF7
:10561000704700BF80B483B000AF0346FB714EF209
:105620000013CEF2000397F907204FEA5212F979DE
:1056300001F01F014FF0010000FA01F102F16002D8
:1056400043F8221007F10C07BD4680BC704700BF2D
:1056500080B483B000AF78600B46FB707B6803F0CA
:1056600070427B6823F07F4323F470034FEA4313B7
:105670001A44FB784FEA8303134403F100734FF09D
:1056800001021A6007F10C07BD4680BC704700BFDD
:1056900080B483B000AF78600B46FB707B6803F08A
:1056A00070427B6823F07F4323F470034FEA431377
:1056B0001A44FB784FEA8303134403F100734FF05D
:1056C00000021A6007F10C07BD4680BC704700BF9E
:1056D00080B483B000AF78600B46FB707B6803F04A
:1056E00070427B6823F07F4323F470034FEA431337
:1056F0001A44FB784FEA8303134403F100731B68D9
:10570000DBB2184607F10C07BD4680BC704700BFEE
:1057100080B584B000AFF860B9601346FB71FA68D9
:105720004EF2F043C2F200039A4207D0FA684EF2FA
:10573000B043C2F200039A4200D000BEFB79F86881
:10574000B9681A4600F056FAFB681B6803F130038B
:1057500018464FF00301FFF79BFFFB681B6803F13E
:10576000340318464FF00201FFF792FFFB681B68F5
:1057700003F1380318464FF00001FFF789FFFA687C
:1057800046F28D03C2F20003536207F11007BD46D3
:1057900080BD00BF80B489B000AFF860B9607A60A6
:1057A0004FF000033B61FA684EF2F043C2F200038F
:1057B0009A4207D0FA684EF2B043C2F200039A420E
:1057C00000D000BEBB68002B00D100BE7B68002B60
:1057D00000D100BEFA684EF2F043C2F200039A42D2
:1057E00006D0FA684EF2B043C2F200039A423DD1AD
:1057F000BB68002B3AD07B68002B37D0FB681B6856
:105800001B7DFB76FB685A7BFB7E42EA0303DAB220
:10581000FB685A73FB7E03F02003002B23D04FF06C
:105820001003FB617B680F2B01D87B68FB614FF095
:1058300000037B610EE0FB681B68B9683A690A44A3
:1058400012781A703B6903F101033B617B6903F134
:1058500001037B617A69FB699A42ECD37A687B69C0
:10586000C3EB02037B607B68002BC7D107F12407E1
:10587000BD4680BC704700BF80B487B000AFF86001
:10588000B9607A604FF000033B614FF00003FB7595
:10589000FA684EF2F043C2F200039A4207D0FA6867
:1058A0004EF2B043C2F200039A4200D000BEBB6881
:1058B000002B00D100BE7B68002B00D100BEFA682F
:1058C0004EF2F043C2F200039A4206D0FA684EF25A
:1058D000B043C2F200039A4234D1BB68002B31D0EE
:1058E0007B68002B2ED0FB681B681B7DFB75FB685B
:1058F0005A7BFB7D42EA0303DAB2FB685A7317E076
:10590000BA683B691344FA6812681278D2B21A7006
:105910003B6903F101033B61FB681B681B7DFB7561
:10592000FB685A7BFB7D42EA0303DAB2FB685A73D9
:10593000FB7D03F00103DBB2002B03D03A697B68E7
:105940009A42DDD33B69184607F11C07BD4680BC6F
:10595000704700BF80B584B000AFF860B9601346EF
:10596000FB71FA684EF2F043C2F200039A4207D08C
:10597000FA684EF2B043C2F200039A4200D000BE71
:10598000BB68002B00D100BEFB79C02B00D900BE44
:10599000FA684EF2F043C2F200039A4206D0FA6867
:1059A0004EF2B043C2F200039A422ED1BB68002BE4
:1059B0002BD0FB79C02B28D8FB68BA681A62FB6829
:1059C0001A68FB681B681B7ADBB2DBB203F03F038B
:1059D000F8791946034641EA0303DBB2DBB21372DE
:1059E000FB681B795BB21846FFF714FEFB681B6867
:1059F00003F1040318464FF00001FFF729FEFB688E
:105A00001B795BB21846FFF7E9FD07F11007BD46A9
:105A100080BD00BF684620F007018D4689B500AF04
:105A20004EF2F040C2F2000000F01AFABD46BDE8A6
:105A300089408546704700BF684620F007018D46C3
:105A400089B500AF4EF2B040C2F2000000F008FA93
:105A5000BD46BDE889408546704700BF80B588B027
:105A600000AF786039607A684EF2F043C2F200030A
:105A70009A4207D07A684EF2B043C2F200039A42CB
:105A800000D000BE7A684EF2F043C2F200039A42A0
:105A900007D07A684EF2B043C2F200039A4240F057
:105AA000A4807B683A689A6001F0CAFB7A684EF27B
:105AB000F043C2F200039A4206D147F6CC13C2F279
:105AC00000031B68FB6105E047F6D013C2F2000338
:105AD0001B68FB61FB694FEAC3023B68B2FBF3F34F
