:020000042000DA
:100000000000012089010020F9010020FB010020EF
:10001000FD010020FF01002001020020000000007F
:10002000000000000000000000000000B13A0020C5
:100030000502002000000000E13C0020313D0020CE
:100040000B0200200D0200200F02002011020020F0
:1000500013020020150200201702002019020020C0
:100060001B0200201D020020594D00207D4D002064
:100070002302002025020020270200202902002060
:100080002B0200202D0200202F0200203102002030
:100090003302002035020020370200203902002000
:1000A0003B0200203D0200203F02002041020020D0
:1000B00043020020450200204702002049020020A0
:1000C0004B0200204D020020A9480020BD4800201E
:1000D000D1480020E5480020F94800200D490020C3
:1000E0005B0200205D0200205F0200206102002010
:1000F00063020020650200206702002069020020E0
:100100006B0200206D0200206F02002071020020AF
:10011000730200207502002077020020790200207F
:100120007B0200207D0200207F020020810200204F
:10013000830200208502002087020020890200201F
:100140008B0200208D0200208F02002091020020EF
:1001500093020020950200209702002099020020BF
:100160009B0200209D0200209F020020A10200208F
:10017000A3020020A5020020A7020020A90200205F
:10018000AB020020AD0200204948804749480028C2
:100190000BD1494849494A4A884206D091421CBF7E
:1001A00050F8043B41F8043BF8D146484649474AD9
:1001B000884206D091421CBF50F8043B41F8043BF2
:1001C000F8D143484349444A914218BF41F8040BCF
:1001D000FAD1000000000000000000000000000054
:1001E000DFF8F8000FF2030E00474FF000004FF069
:1001F0000001DFF8ECF0FEE7FEE7FEE7FEE7FEE7D2
:10020000FEE7FEE7FEE7FEE7FEE7FEE7FEE7FEE7C6
:10021000FEE7FEE7FEE7FEE7FEE7FEE7FEE7FEE7B6
:10022000FEE7FEE7FEE7FEE7FEE7FEE7FEE7FEE7A6
:10023000FEE7FEE7FEE7FEE7FEE7FEE7FEE7FEE796
:10024000FEE7FEE7FEE7FEE7FEE7FEE7FEE7FEE786
:10025000FEE7FEE7FEE7FEE7FEE7FEE7FEE7FEE776
:10026000FEE7FEE7FEE7FEE7FEE7FEE7FEE7FEE766
:10027000FEE7FEE7FEE7FEE7FEE7FEE7FEE7FEE756
:10028000FEE7FEE7FEE7FEE7FEE7FEE7FEE7FEE746
:10029000FEE7FEE7FEE7FEE7FEE7FEE7FEE7FEE736
:1002A000FEE7FEE7FEE7FEE7FEE7FEE7FEE7704754
:1002B0005965002000000000000000200000002020
:1002C000C06C0020C06C0020C06C0020206D00209D
:1002D00000000000206D002020D80020656900206B
:1002E0000D040020000000000000000000000000DD
:1002F00046F62053C2F200031A780AB9012018709A
:10030000704700BF46F6C040C2F2000008B503685F
:100310002BB140F20003C0F2000303B1984708BDBF
:1003200080B400AF4EF6FC53CEF200034EF6FC5202
:10033000CEF20002126842F080721A6041F20403A9
:10034000CEF200034FF000021A6041F20003CEF239
:10035000000341F20002CEF20002126842F00102F4
:100360001A60BD4680BC704780B483B000AF41F2D4
:100370000403CEF200031B687B6046F62453C2F2EE
:1003800000031B687A689A420BD246F62853C2F2E1
:1003900000031B6803F1010246F62853C2F2000372
:1003A0001A6046F62453C2F200037A681A6046F6D1
:1003B0000453C2F200031A6841F67F53C0F22C4383
:1003C0009A420ED87B684FEA53337B6046F6285337
:1003D000C2F200031B684FEAC3437A6813447B6090
:1003E0000DE07B684FEA93337B6046F62853C2F2F8
:1003F00000031B684FEA83437A6813447B607B6881
:10040000184607F10C07BD4680BC704780B500AFA9
:1004100004F022F94FF00003184680BD80B483B089
:1004200000AF4FF0A00383F31188BFF36F8FBFF3CA
:100430004F8F7B60FEE700BF80B400AFBD4680BC3D
:10044000704700BF80B485B000AF786039604FF06E
:10045000A00383F31188BFF36F8FBFF34F8FFB604F
:10046000FEE700BF80B592B004AFF860B9607A6073
:1004700046F61C43C2F200031B88BB864FF02803DC
:1004800087F830304FF02A0387F82C304FF02C03D8
:1004900087F828304FF0290387F824304FF02B03DA
:1004A00087F820304FF02D033B774FF0000387F89B
:1004B000363007F134034FF0000200924DF2046031
:1004C000C2F200004FF06A011A464FF0020305F035
:1004D0007BF807F118034FF0000200924DF2046020
:1004E000C2F200004FF06A011A464FF0010305F016
:1004F000DDF84DF20460C2F200004FF0000105F09B
:10050000DFF9034687F8373097F8362097F8373009
:10051000134487F8363007F1280307F118020092D8
:100520004FF0010201924FF0000202924DF204607E
:10053000C2F200004FF06A011A464FF0010305F0C5
:1005400027F94DF20460C2F200004FF0000105F0FF
:10055000B7F9034687F8373097F8362097F83730E1
:10056000134487F8363007F11C0307F11402009298
:100570004FF0010201924FF0000202924DF204602E
:10058000C2F200004FF06A011A464FF0010305F075
:10059000FFF84DF20460C2F200004FF0000105F0D8
:1005A0008FF9034687F8373097F8362097F83730B9
:1005B000134487F836303B7D4FEA03239AB23B7EE3
:1005C00042EA03039BB29AB27B681A807B681B885D
:1005D000B3F5004F06D97B681B886FEA03039AB214
:1005E0007B681A8007F12C0307F1180200924FF084
:1005F000010201924FF0000202924DF20460C2F239
:1006000000004FF06A011A464FF0010305F0C0F8F0
:100610004DF20460C2F200004FF0000105F050F905
:10062000034687F8373097F8362097F83730134469
:1006300087F8363007F1200307F1140200924FF0DB
:10064000010201924FF0000202924DF20460C2F2E8
:1006500000004FF06A011A464FF0010305F098F8C8
:100660004DF20460C2F200004FF0000105F028F9DD
:10067000034687F8373097F8362097F83730134419
:1006800087F836303B7D4FEA03239AB23B7E42EA3D
:1006900003039BB29AB2BB681A80BB681B88B3F590
:1006A000004F06D9BB681B886FEA03039AB2BB6888
:1006B0001A8007F1300307F1180200924FF001028F
:1006C00001924FF0000202924DF20460C2F200006B
:1006D0004FF06A011A464FF0010305F059F84DF248
:1006E0000460C2F200004FF0000105F0E9F8034693
:1006F00087F8373097F8362097F83730134487F863
:10070000363007F1240307F1140200924FF0010282
:1007100001924FF0000202924DF20460C2F200001A
:100720004FF06A011A464FF0010305F031F84DF21F
:100730000460C2F200004FF0000105F0C1F803466A
:1007400087F8373097F8362097F83730134487F812
:1007500036303B7D4FEA03239AB23B7E42EA0303E5
:100760009BB29AB2FB681A80FB681B88B3F5004FF6
:1007700006D9FB681B886FEA03039AB2FB681A80EC
:1007800097F83730184607F13807BD4680BD00BFDF
:1007900080B592B004AFF860B9607A6046F618434D
:1007A000C2F200031B883B864FF0180387F82C30F9
:1007B0004FF01A0387F828304FF01C0387F82430D5
:1007C0004FF0190387F820304FF01B033B774FF0B1
:1007D0001D033B764FF06A0387F835304FF0000376
:1007E00087F8363097F8352007F1300307F1140108
:1007F00000914FF0010101914FF0000102914DF283
:100800000460C2F2000011461A464FF0020304F0E1
:10081000BFFF4DF20460C2F200004FF0000105F08E
:100820004FF8034687F8373097F8362097F8373077
:10083000134487F8363097F8352007F1240307F181
:10084000140100914FF0010101914FF0000102915C
:100850004DF20460C2F2000011461A464FF0010347
:1008600004F096FF4DF20460C2F200004FF0000168
:1008700005F026F8034687F8373097F8362097F8C2
:100880003730134487F8363097F8352007F11803CE
:1008900007F1100100914FF0010101914FF00001AB
:1008A00002914DF20460C2F2000011461A464FF068
:1008B000010304F06DFF4DF20460C2F200004FF03E
:1008C000000104F0FDFF034687F8373097F8362023
:1008D00097F83730134487F836303B7C4FEA0323D0
:1008E0009AB23B7D42EA03039BB29AB2FB681A803C
:1008F00097F8352007F1280307F1140100914FF014
:10090000010101914FF0000102914DF20460C2F229
:10091000000011461A464FF0010304F039FF4DF272
:100920000460C2F200004FF0000104F0C9FF03466A
:1009300087F8373097F8362097F83730134487F820
:10094000363097F8352007F11C0307F110010091AC
:100950004FF0010101914FF0000102914DF204604E
:10096000C2F2000011461A464FF0010304F010FFD6
:100970004DF20460C2F200004FF0000104F0A0FF4D
:10098000034687F8373097F8362097F83730134406
:1009900087F836303B7C4FEA03239AB23B7D42EA2C
:1009A00003039BB29AB2BB681A8097F8352007F10F
:1009B0002C0307F1140100914FF0010101914FF058
:1009C000000102914DF20460C2F2000011461A4685
:1009D0004FF0010304F0DCFE4DF20460C2F20000AF
:1009E0004FF0000104F06CFF034687F8373097F8AA
:1009F000362097F83730134487F8363097F835208B
:100A000007F1200307F1100100914FF0010101915E
:100A10004FF0000102914DF20460C2F20000114655
:100A20001A464FF0010304F0B3FE4DF20460C2F227
:100A300000004FF0000104F043FF034687F8373011
:100A400097F8362097F83730134487F836303B7CD8
:100A50004FEA03239AB23B7D42EA03039BB29AB268
:100A60007B681A8097F83730184607F13807BD467B
:100A700080BD00BF80B58AB004AF78604FF0150329
:100A80003B754FF016033B744FF06A03BB75BA7D9C
:100A900007F1140307F10C0100914FF001010191DE
:100AA0004FF0000102914DF20460C2F200001146C5
:100AB0001A464FF0010304F06BFE4DF20460C2F2DF
:100AC00000004FF0000104F0FBFE0346FB75BA7D09
:100AD00007F1100307F1080100914FF001010191A6
:100AE0004FF0000102914DF20460C2F20000114685
:100AF0001A464FF0010304F04BFE4DF20460C2F2BF
:100B000000004FF0000104F0DBFE0346FB753B7B69
:100B10001A463B7A4FEA03239BB242EA03039BB295
:100B20009AB27B681A804FF00003184607F1180745
:100B3000BD4680BD80B586B002AFB960134602469F
:100B4000FA73FB714DF22853C2F200034FF000021A
:100B50001A7032E0FB79FA7B4FF0000100914DF200
:100B60007000C2F200001146BA6804F02DFD4DF28B
:100B70007000C2F200004FF0000104F0A1FE034635
:100B80001A464DF22A53C2F200031A704DF22A534C
:100B9000C2F200031B78002B02D14FF0000318E0D3
:100BA0004DF22853C2F200031B7803F10103DAB2BD
:100BB0004DF22853C2F200031A704DF22853C2F2CC
:100BC00000031B78092BC5D94DF22853C2F200034C
:100BD0001B78184607F11007BD4680BD80B586B06A
:100BE00002AFB96013460246FA73FB714DF2285307
:100BF000C2F200034FF000021A7032E0FB79FA7B78
:100C00004FF0000100914DF27000C2F20000114659
:100C1000BA6804F04BFD4DF27000C2F200004FF0D4
:100C2000000104F04DFE03461A464DF22A53C2F26B
:100C300000031A704DF22A53C2F200031B78002BF6
:100C400002D14FF0000318E04DF22853C2F2000326
:100C50001B7803F10103DAB24DF22853C2F200030C
:100C60001A704DF22853C2F200031B78092BC5D924
:100C70004DF22853C2F200031B78184607F1100703
:100C8000BD4680BD80B582B000AF0B463A600246DB
:100C9000FA71BB71FA7907F10603104619464FF055
:100CA0000102FFF747FF0346092B02D94FF001036A
:100CB0000EE0FB79184639684FF00202FFF78EFF0D
:100CC0000346092B02D94FF0010301E04FF0000366
:100CD000184607F10807BD4680BD00BF80B582B049
:100CE00000AF0B463A600246FA71BB714DF22453D5
:100CF000C2F200034FF000021A704DF22453C2F208
:100D000000034FF000025A704DF22653C2F2000366
:100D10004FF000021A80BB794FEA4303DBB2FA7945
:100D2000104619464DF22452C2F20002FFF7AAFF04
:100D30000346002B1AD14DF22453C2F200031B7854
:100D40004FEA03239AB24DF22453C2F200035B78B8
:100D500042EA03039BB29AB24DF22653C2F2000359
:100D60001A803B684FF000021A700AE03B684FF0AF
:100D700001021A704DF22653C2F200034FF0000236
:100D80001A804DF22653C2F200031B88184607F161
:100D90000807BD4680BD00BF80B582B000AF0B46DE
:100DA0003A600246FA71BB714DF22453C2F200035D
:100DB0004FF000021A704DF22453C2F200034FF0BC
:100DC00000025A704DF22653C2F200034FF00002A7
:100DD0001A80BB794FEA4303DBB203F1FF33DBB286
:100DE000FA79104619464DF22452C2F20002FFF77A
:100DF00049FF0346002B1AD14DF22453C2F20003DF
:100E00001B784FEA03239AB24DF22453C2F2000337
:100E10005B7842EA03039BB29AB24DF22653C2F2C8
:100E200000031A803B684FF000021A700AE03B682A
:100E30004FF001021A704DF22653C2F200034FF038
:100E400000021A804DF22653C2F200031B88184696
:100E500007F10807BD4680BD80B58CB004AFF860CF
:100E60007B600B46FB721346BB72BB7A3B753B7DC6
:100E700043F00803DBB23B753B7D4FEA0313DBB263
:100E80003B75FA7A07F1140307F1180100914FF04E
:100E9000020101914FF000010291F86811461A46D3
:100EA0004FF0010304F074FCF8684FF0000104F007
:100EB00007FD03467B777B7F002B04D07B684FF0D8
:100EC00001021A7012E03B7E4FEA03239AB27B7E46
:100ED00042EA03039BB2FB83FB8B4FEA03534FEAC7
:100EE0001353FB837B684FF000021A70FB8B18468C
:100EF00007F12007BD4680BD80B584B000AF034632
:100F00003960FB71FB79002B0ED13B68BB60BB687D
:100F10005968BB689A68BB681B7B084611464FF04E
:100F2000880204F0DBFA30E0FB790A2B0ED13B6833
:100F3000FB60FB685968FB689A68FB681B7B084686
:100F400011464FF0880204F0C9FA1EE0FB790B2B22
:100F50001BD14DF20460C2F2000045F20001C5F25F
:100F600000014FF088024FF0000304F0B7FA4DF291
:100F70007000C2F2000042F20001C5F200014FF021
:100F800088024FF0000304F0A9FA07F11007BD46EC
:100F900080BD00BF80B483B000AF78607B6803F190
:100FA00008031A467B685A607B684FF0FF329A60EC
:100FB0007B6803F108031A467B68DA607B6803F1FB
:100FC00008031A467B681A617B684FF000021A60BA
:100FD00007F10C07BD4680BC704700BF80B483B0EA
:100FE00000AF78607B684FF000021A6107F10C07D0
:100FF000BD4680BC704700BF80B485B000AF78604C
:1010000039607B685B68FB603B68FA685A60FB6824
:101010009A683B689A60FB689B683A685A60FB680C
:101020003A689A603B687A681A617B681B6803F1CA
:1010300001027B681A6007F11407BD4680BC704747
:1010400080B485B000AF786039603B681B68FB6096
:10105000FB68B3F1FF3F03D17B681B69BB600DE008
:101060007B6803F10803BB6002E0BB685B68BB60A0
:10107000BB685B681A68FB689A42F6D9BB685A6815
:101080003B685A603B685B683A689A603B68BA683C
:101090009A60BB683A685A603B687A681A617B68F4
:1010A0001B6803F101027B681A6007F11407BD4653
:1010B00080BC704780B485B000AF78607B681B69E6
:1010C000FB607B685B687A6892689A607B689B6863
:1010D0007A6852685A60FB685A687B689A4203D102
:1010E0007B689A68FB685A607B684FF000021A615F
:1010F000FB681B6803F1FF32FB681A60FB681B6822
:10110000184607F11407BD4680BC704780B584B00F
:1011100000AF786039607B68BB60BB68002B09D189
:101120004FF0A00383F31188BFF36F8FBFF34F8F8E
:10113000FB60FEE702F06AFDBB681A68BB68DB6B08
:10114000B968096C01FB03F31A44BB685A60BB68B9
:101150004FF000029A63BB681A68BB689A60BB686C
:101160001A68BB68DB6B03F1FF33B968096C01FBDC
:1011700003F31A44BB68DA60BB684FF0FF3283F8B0
:101180004420BB684FF0FF3283F845203B68002BBA
:1011900018D1BB681B69002B21D0BB6803F1100379
:1011A000184601F013FA0346002B1AD04EF60453EA
:1011B000CEF200034FF080521A60BFF34F8FBFF39F
:1011C0006F8F0FE0BB6803F110031846FFF7E2FED4
:1011D000BB6803F124031846FFF7DCFE02E000BF02
:1011E00000E000BF02F04AFD4FF00103184607F18E
:1011F0001007BD4680BD00BF80B58AB002AFF86061
:10120000B9601346FB71FB68002B09D14FF0A003B6
:1012100083F31188BFF36F8FBFF34F8FFB61FEE73E
:10122000BB68002B03D14FF000037B6104E0FB6837
:10123000BA6802FB03F37B617B6903F15003184634
:1012400002F094F903463B613B69002B0BD03B69EC
:1012500003F15003BB61FB793A690092F868B96801
:10126000BA6900F007F83B69184607F12007BD4648
:1012700080BD00BF80B584B000AFF860B9607A600F
:10128000FB70BB68002B03D1BA69BB691A6002E02E
:101290007A68BB691A60BB69FA68DA63BB69BA68C5
:1012A0001A64B8694FF00101FFF730FFBB69FA78A3
:1012B00083F84C2007F11007BD4680BD80B582B091
:1012C00000AF78607B68002B14D07B684FF0000281
:1012D0005A607B684FF000021A607B684FF0000292
:1012E000DA6078684FF000014FF000024FF0000321
:1012F00000F020F807F10807BD4680BD80B586B034
:1013000000AF0346FB714FF001033B614FF0000358
:101310007B61FB79386979691A46FFF76DFF0346EF
:10132000FB60F868FFF7CAFFFB68184607F118076B
:10133000BD4680BD80B58EB000AFF860B9607A6000
:101340003B604FF00003FB61FB687B627B6A002B14
:1013500009D14FF0A00383F31188BFF36F8FBFF360
:101360004F8FBB62FEE7BB68002B03D17B6A1B6C0F
:10137000002B02D14FF0010301E04FF00003002BDE
:1013800009D14FF0A00383F31188BFF36F8FBFF330
:101390004F8FFB62FEE73B68022B03D17B6ADB6B5E
:1013A000012B02D14FF0010301E04FF00003002BAD
:1013B00009D14FF0A00383F31188BFF36F8FBFF300
:1013C0004F8F3B63FEE701F009FB0346002B02D180
:1013D0007B68002B02D14FF0010301E04FF00003C6
:1013E000002B0AD14FF0A00383F31188BFF36F8F56
:1013F000BFF34F8F7B63FEE700BF02F007FC7B6A01
:101400009A6B7B6ADB6B9A4202D33B68022B34D126
:10141000786AB9683A6800F07BFA03463B627B6AF7
:101420005B6A002B14D07B6A03F12403184601F099
:10143000CDF80346002B1AD04EF60453CEF200032B
:101440004FF080521A60BFF34F8FBFF36F8F0FE0E2
:101450003B6A002B0CD04EF60453CEF200034FF043
:1014600080521A60BFF34F8FBFF36F8F00E000BF51
:1014700002F004FC4FF001036FE07B68002B04D105
:1014800002F0FCFB4FF0000367E0FB69002B07D183
:1014900007F11403184601F011F94FF00103FB6145
:1014A00002F0ECFB00F072FD02F0B0FB7B6A93F8F7
:1014B0004430DBB25BB2B3F1FF3F04D17B6A4FF043
:1014C000000283F844207B6A93F84530DBB25BB2BC
:1014D000B3F1FF3F04D17B6A4FF0000283F845204F
:1014E00002F0CCFB07F1140207F104031046194681
:1014F00001F008F90346002B28D1786A00F018FBA8
:101500000346002B1CD07B6A03F110027B68104657
:10151000194601F009F8786A00F09AFA00F048FDDF
:101520000346002B7FF468AF4EF60453CEF200035F
:101530004FF080521A60BFF34F8FBFF36F8F5CE79D
:10154000786A00F085FA00F033FD56E7786A00F01B
:101550007FFA00F02DFD4FF00003184607F1380721
:10156000BD4680BD80B58EB000AFF860B9607A60CE
:101570003B60FB68BB61BB69002B09D14FF0A00346
:1015800083F31188BFF36F8FBFF34F8F3B62FEE78A
:10159000BB68002B03D1BB691B6C002B02D14FF041
:1015A000010301E04FF00003002B09D14FF0A0032D
:1015B00083F31188BFF36F8FBFF34F8F7B62FEE71A
:1015C0003B68022B03D1BB69DB6B012B02D14FF0CF
:1015D000010301E04FF00003002B09D14FF0A003FD
:1015E00083F31188BFF36F8FBFF34F8FBB62FEE7AA
:1015F00002F0E0FBEFF311824FF0A00383F31188B8
:10160000BFF36F8FBFF34F8F3A63FB623B6B7B611E
:10161000BB699A6BBB69DB6B9A4202D33B68022BB6
:1016200034D1BB6993F84530FB77B869B9683A683B
:1016300000F06EF997F91F30B3F1FF3F14D1BB6989
:101640005B6A002B19D0BB6903F12403184600F034
:10165000BDFF0346002B12D07B68002B11D07B68A6
:101660004FF001021A600DE0FB7F03F10103DBB2D2
:101670001A46BB6983F8452004E000BF02E000BFC2
:1016800000E000BF4FF001033B6102E04FF00003B8
:101690003B617B697B637B6B83F311883B691846F5
:1016A00007F13807BD4680BD80B58EB000AFF86049
:1016B000B9607A603B604FF00003FB61FB687B62BE
:1016C0007B6A002B09D14FF0A00383F31188BFF38D
:1016D0006F8FBFF34F8FFB62FEE7BB68002B03D118
:1016E0007B6A1B6C002B02D14FF0010301E04FF02D
:1016F0000003002B09D14FF0A00383F31188BFF33F
:101700006F8FBFF34F8F3B63FEE701F067F903462E
:10171000002B02D17B68002B02D14FF0010301E0C6
:101720004FF00003002B0CD14FF0A00383F311887E
:10173000BFF36F8FBFF34F8F7B63FEE700BF00E007
:1017400000BF02F063FA7B6A9B6BBB62BB6A002B33
:1017500055D07B6ADB683B62786AB96800F050F963
:101760003B68002B27D1BB6A03F1FF327B6A9A6387
:101770007B6A1B68002B05D101F0A0FA03461A46CC
:101780007B6A5A607B6A1B69002B30D07B6A03F14D
:101790001003184600F01AFF0346002B29D04EF61E
:1017A0000453CEF200034FF080521A60BFF34F8F04
:1017B000BFF36F8F1EE07B6A3A6ADA607B6A5B6A0E
:1017C000002B17D07B6A03F12403184600F0FEFEBD
:1017D0000346002B0ED04EF60453CEF200034FF01A
:1017E00080521A60BFF34F8FBFF36F8F02E000BFCC
:1017F00000E000BF02F042FA4FF0010383E07B6893
:10180000002B04D102F03AFA4FF000037BE0FB69B1
:10181000002B07D107F11403184600F04FFF4FF0DB
:101820000103FB6102F02AFA00F0B0FB02F0EEF9CE
:101830007B6A93F84430DBB25BB2B3F1FF3F04D173
:101840007B6A4FF0000283F844207B6A93F84530AE
:10185000DBB25BB2B3F1FF3F04D17B6A4FF0000211
:1018600083F8452002F00AFA07F1140207F1040395
:101870001046194600F046FF0346002B35D1786A22
:1018800000F03CF90346002B29D07B6A1B68002B33
:1018900008D102F0BBF97B6A5B68184601F0C2F818
:1018A00002F0ECF97B6A03F124027B6810461946CA
:1018B00000F03AFE786A00F0CBF800F079FB0346BE
:1018C000002B7FF43BAF4EF60453CEF200034FF0F3
:1018D00080521A60BFF34F8FBFF36F8F31E7786A82
:1018E00000F0B6F800F064FB2BE7786A00F0B0F87F
:1018F00000F05EFB786A00F001F90346002B3FF42C
:101900001FAF4FF00003184607F13807BD4680BDF2
:1019100080B586B000AFF860B9607A604FF0000320
:101920003B61FB689B6B7B61FB681B6C002B0FD1E1
:10193000FB681B68002B55D1FB685B68184601F0FB
:1019400017F903463B61FB684FF000025A604CE018
:101950007B68002B1AD1FB689A68FB681B6C1046E9
:10196000B9681A4605F026F8FB689A68FB681B6C94
:101970001A44FB689A60FB689A68FB685B689A4245
:1019800032D3FB681A68FB689A602EE0FB68DA685D
:10199000FB681B6C1046B9681A4605F00BF8FB682B
:1019A000DA68FB681B6CC3F100031A44FB68DA6059
:1019B000FB68DA68FB681B689A4208D2FB685A68C1
:1019C000FB681B6CC3F100031A44FB68DA607B6898
:1019D000022B0AD17B69002B07D07B6903F1FF330F
:1019E0007B6102E000BF00E000BF7B6903F1010200
:1019F000FB689A633B69184607F11807BD4680BD2E
:101A000080B582B000AF786039607B681B6C002BBA
:101A100019D07B68DA687B681B6C1A447B68DA60D3
:101A20007B68DA687B685B689A4203D37B681A68D4
:101A30007B68DA607B68DA687B681B6C3868114603
:101A40001A4604F0B7FF07F10807BD4680BD00BF86
:101A500080B584B000AF786002F0D8F87B6893F866
:101A60004530BB7312E07B685B6A002B13D07B6848
:101A700003F12403184600F0A9FD0346002B01D012
:101A800000F0A8FEBB7B03F1FF33BB7397F90E3068
:101A9000002BE8DC00E000BF7B684FF0FF3283F8EA
:101AA000452002F0EBF802F0B1F87B6893F844307F
:101AB000FB7312E07B681B69002B13D07B6803F17A
:101AC0001003184600F082FD0346002B01D000F001
:101AD00081FEFB7B03F1FF33FB7397F90F30002B83
:101AE000E8DC00E000BF7B684FF0FF3283F8442061
:101AF00002F0C4F807F11007BD4680BD80B584B080
:101B000000AF786002F082F87B689B6B002B03D1FA
:101B10004FF00103FB6002E04FF00003FB6002F0B6
:101B2000ADF8FB68184607F11007BD4680BD00BF41
:101B300080B584B000AF786002F068F87B689A6B7B
:101B40007B68DB6B9A4203D14FF00103FB6002E03C
:101B50004FF00003FB6002F091F8FB68184607F1B4
:101B60001007BD4680BD00BF80B586B000AFF860ED
:101B7000B9607A60FB687B6102F048F87B6993F892
:101B80004430DBB25BB2B3F1FF3F04D17B694FF06D
:101B9000000283F844207B6993F84530DBB25BB2E6
:101BA000B3F1FF3F04D17B694FF0000283F8452079
:101BB00002F064F87B699B6B002B07D17B6903F112
:101BC00024031846B9687A6800F0D4FC7869FFF7F6
:101BD0003FFF07F11807BD4680BD00BF80B58CB040
:101BE00004AFF860B9603B601346FB80FB884FEAA6
:101BF0008303184601F0BAFC0346FB61FB69002B26
:101C000010D04FF05C0001F0B1FC03467B617B69B2
:101C1000002B03D07B69FA691A6306E0F86901F0CA
:101C2000A1FD02E04FF000037B617B69002B16D021
:101C3000FB88BA6A0092FA6A01927A6902924FF0BE
:101C400000020392F868B9681A463B6800F010F881
:101C5000786900F0A3F84FF00103BB6102E04FF098
:101C6000FF33BB61BB69184607F12007BD4680BD45
:101C700080B588B000AFF860B9607A603B603B6BBC
:101C80001A6B7B684FEA830310464FF0A5011A4692
:101C900004F058FF3B6B1A6B7B6803F1FF334FEA8C
:101CA000830313447B617B6923F007037B617B69BA
:101CB00003F00703002B09D04FF0A00383F3118832
:101CC000BFF36F8FBFF34F8FFB61FEE74FF0000351
:101CD000BB6112E0B969BA68BB6913441A783B6BFF
:101CE0000B4483F83420BA68BB6913441B78002B7B
:101CF00007D0BB6903F10103BB61BB69092BE9D9BB
:101D000000E000BF3B6B4FF0000283F83D20BB6A50
:101D1000042B02D94FF00403BB623B6BBA6ADA6250
:101D20003B6BBA6A9A643B6B4FF00002DA643B6B20
:101D300003F104031846FFF751F93B6B03F1180355
:101D40001846FFF74BF93B6B3A6B1A61BB6AC3F15C
:101D500005023B6B9A613B6B3A6B5A623B6B4FF0EF
:101D600000021A653B6B4FF000025A653B6B4FF067
:101D7000000283F858207869F9683A6801F03EFE5D
:101D800003461A463B6B1A60FB6A002B02D0FB6AC3
:101D90003A6B1A6007F12007BD4680BD80B582B05E
:101DA00000AF786001F032FF46F60463C2F2000330
:101DB0001B6803F1010246F60463C2F200031A60D5
:101DC00046F62C53C2F200031B68002B0FD146F6D7
:101DD0002C53C2F200037A681A6046F60463C2F21A
:101DE00000031B68012B1AD100F01CFD18E046F619
:101DF0001063C2F200031B68002B11D146F62C536E
:101E0000C2F200031B68DA6A7B68DB6A9A4207D871
:101E100046F62C53C2F200037A681A6000E000BF55
:101E200046F62063C2F200031B6803F1010246F686
:101E30002063C2F200031A6046F62063C2F2000378
:101E40001A687B681A647B68DB6A4FF0010202FA49
:101E500003F246F60C63C2F200031B6842EA030277
:101E600046F60C63C2F200031A607B68DA6A134616
:101E70004FEA830313444FEA83031A4646F630536E
:101E8000C2F200031A447B6803F1040310461946AA
:101E9000FFF7B2F801F0F2FE46F61063C2F200035B
:101EA0001B68002B14D046F62C53C2F200031B68AB
:101EB000DA6A7B68DB6A9A420AD24EF60453CEF2A3
:101EC00000034FF080521A60BFF34F8FBFF36F8F44
:101ED00007F10807BD4680BD80B586B002AF4FF060
:101EE0000003009346F62863C2F20003019342F216
:101EF000ED70C2F2000046F62041C2F200014FF040
:101F000050024FF00003FFF769FE03467B607B68D9
:101F1000012B03D100F076FF03467B607B68012B29
:101F200022D14FF0A00383F31188BFF36F8FBFF36B
:101F30004F8FBB6046F62463C2F200034FF0FF32BE
:101F40001A6046F61063C2F200034FF001021A60F5
:101F500046F60863C2F200034FF000021A60FEF773
:101F6000DFF901F0CDFD0DE07B68B3F1FF3F09D152
:101F70004FF0A00383F31188BFF36F8FBFF34F8F30
:101F8000FB60FEE707F11007BD4680BD80B400AFDF
:101F900046F62C63C2F200031B6803F1010246F609
:101FA0002C63C2F200031A60BD4680BC704700BFBC
:101FB00080B584B000AF4FF000033B604FF00003EA
:101FC0007B6046F62C63C2F200031B68002B09D12C
:101FD0004FF0A00383F31188BFF36F8FBFF34F8FD0
:101FE000FB60FEE701F012FE46F62C63C2F200032E
:101FF0001B6803F1FF3246F62C63C2F200031A603D
:1020000046F62C63C2F200031B68002B40F0988058
:1020100046F60463C2F200031B68002B00F09080B8
:102020004AE046F6C453C2F20003DB68DB683B605B
:102030003B6803F118031846FFF73CF83B6803F1CF
:1020400004031846FFF736F83B68DB6A4FF00102DD
:1020500002FA03F246F60C63C2F200031B6842EA7E
:10206000030246F60C63C2F200031A603B68DA6AA8
:1020700013464FEA830313444FEA83031A4646F696
:102080003053C2F200031A443B6803F104031046C4
:102090001946FEF7B1FF3B68DA6A46F62C53C2F2E6
:1020A00000031B68DB6A9A4206D346F61863C2F245
:1020B00000034FF001021A6046F6C453C2F2000357
:1020C0001B68002BADD13B68002B01D000F058FC01
:1020D00046F61463C2F200031B68BB60BB68002BAA
:1020E00019D000F045F80346002B06D046F61863D9
:1020F000C2F200034FF001021A60BB6803F1FF3324
:10210000BB60BB68002BECD146F61463C2F200033F
:102110004FF000021A6046F61863C2F200031B6813
:10212000002B0DD04FF001037B604EF60453CEF22E
:1021300000034FF080521A60BFF34F8FBFF36F8FD1
:1021400001F09CFD7B68184607F11007BD4680BD75
:1021500080B483B000AF46F60863C2F200031B6888
:102160007B607B68184607F10C07BD4680BC704752
:1021700080B586B000AF4FF00003BB6046F62C631D
:10218000C2F200031B68002B40F0DC8046F60863B7
:10219000C2F200031B6803F10103FB6046F608630B
:1021A000C2F20003FA681A60FB68002B35D146F6CC
:1021B000BC53C2F200031B681B68002B09D04FF010
:1021C000A00383F31188BFF36F8FBFF34F8F7B6141
:1021D000FEE746F6BC53C2F200031B683B6146F6BD
:1021E000C053C2F200031A6846F6BC53C2F20003A1
:1021F0001A6046F6C053C2F200033A691A6046F606
:102200001C63C2F200031B6803F1010246F61C6363
:10221000C2F200031A6000F0B3FB46F62463C2F278
:1022200000031B68FA689A4273D300E000BF46F6C9
:10223000BC53C2F200031B681B68002B02D14FF095
:10224000010301E04FF00003002B07D046F62463A2
:10225000C2F200034FF0FF321A605AE046F6BC5358
:10226000C2F200031B68DB68DB683B603B685B68AD
:102270007B60FA687B689A4206D246F62463C2F213
:1022800000037A681A6044E03B6803F104031846CF
:10229000FEF710FF3B689B6A002B05D03B6803F1FB
:1022A00018031846FEF706FF3B68DB6A4FF0010291
:1022B00002FA03F246F60C63C2F200031B6842EA1C
:1022C000030246F60C63C2F200031A603B68DA6A46
:1022D00013464FEA830313444FEA83031A4646F634
:1022E0003053C2F200031A443B6803F10403104662
:1022F0001946FEF781FE3B68DA6A46F62C53C2F2B5
:1023000000031B68DB6A9A4290D34FF00103BB6065
:102310008DE746F62C53C2F200031B68DA6A1346B7
:102320004FEA830313444FEA83031A4646F63053B9
:10233000C2F2000313441B68012B10D94FF00103B4
:10234000BB600DE046F61463C2F200031B6803F1A4
:10235000010246F61463C2F200031A6000E000BFF7
:1023600046F61863C2F200031B68002B02D04FF040
:102370000103BB60BB68184607F11807BD4680BD66
:1023800080B588B000AF46F62C63C2F200031B682C
:10239000002B07D046F61863C2F200034FF001028B
:1023A0001A60BCE046F61863C2F200034FF0000268
:1023B0001A60FDF7D9FF024646F63463C2F2000305
:1023C0001A6046F63463C2F200031A6846F63063B8
:1023D000C2F200031B689A4213D946F62C53C2F28C
:1023E00000031A68116D46F63463C2F200031868E0
:1023F00046F63063C2F200031B68C3EB00030B44D4
:10240000136546F63463C2F200031A6846F6306379
:10241000C2F200031A6046F62C53C2F200031B6896
:102420001B6B7B604FF0A533BB607B681A68BB6891
:102430009A4214D17B6803F104031A68BB689A427C
:102440000DD17B6803F108031A68BB689A4206D174
:102450007B6803F10C031A68BB689A420FD046F6FA
:102460002C53C2F200031A6846F62C53C2F2000342
:102470001B6803F1340310461946FDF7E3FF46F6E7
:102480000C63C2F200031B687B617B69B3FA83F3C0
:10249000FB76FB7EC3F11F03FB60FA6813464FEA2D
:1024A000830313444FEA83031A4646F63053C2F2BD
:1024B000000313441B68002B09D14FF0A00383F3E2
:1024C0001188BFF36F8FBFF34F8FFB61FEE7FA6890
:1024D00013464FEA830313444FEA83031A4646F632
:1024E0003053C2F2000313443B613B695B685A6896
:1024F0003B695A603B695A683B6903F108039A4299
:1025000004D13B695B685A683B695A603B695B6808
:10251000DB681A4646F62C53C2F200031A6007F134
:102520002007BD4680BD00BF80B584B000AF786095
:1025300039607B68002B09D14FF0A00383F3118829
:10254000BFF36F8FBFF34F8FFB60FEE746F62C5350
:10255000C2F200031B6803F1180378681946FEF7FE
:102560006FFD38684FF0010100F0C4FB07F1100760
:10257000BD4680BD80B586B000AFF860B9607A60B6
:10258000FB68002B09D14FF0A00383F31188BFF340
:102590006F8FBFF34F8F7B61FEE746F62C53C2F27D
:1025A00000031B6803F11803F8681946FEF724FDC1
:1025B0007B68002B02D04FF0FF33BB60B8687968AE
:1025C00000F098FB07F11807BD4680BD80B586B0C6
:1025D00000AF78607B68DB68DB68FB60FB68002B22
:1025E00009D14FF0A00383F31188BFF36F8FBFF3BE
:1025F0004F8F7B61FEE7FB6803F118031846FEF777
:1026000059FD46F62C63C2F200031B68002B2DD146
:10261000FB6803F104031846FEF74CFDFB68DB6A18
:102620004FF0010202FA03F246F60C63C2F2000315
:102630001B6842EA030246F60C63C2F200031A600A
:10264000FB68DA6A13464FEA830313444FEA8303B5
:102650001A4646F63053C2F200031A44FB6803F1EF
:10266000040310461946FEF7C7FC09E0FB6803F1B6
:10267000180346F6C450C2F200001946FEF7BCFC2F
:10268000FB68DA6A46F62C53C2F200031B68DB6A69
:102690009A420AD94FF001033B6146F61863C2F231
:1026A00000034FF001021A6002E04FF000033B61AB
:1026B0003B69184607F11807BD4680BD80B485B058
:1026C00000AF78607B68002B09D14FF0A00383F343
:1026D0001188BFF36F8FBFF34F8FFB60FEE746F6A5
:1026E0001C63C2F200031A687B681A6046F608632E
:1026F000C2F200031A687B685A6007F11407BD46EE
:1027000080BC704780B586B000AF786039607B6868
:10271000002B09D14FF0A00383F31188BFF36F8F13
:10272000BFF34F8F3B61FEE73B68002B09D14FF0B1
:10273000A00383F31188BFF36F8FBFF34F8F7B61CB
:10274000FEE701F063FA46F60863C2F200031B6875
:10275000FB603B681B68B3F1FF3F03D14FF0000300
:10276000BB602EE07B681A6846F61C63C2F2000369
:102770001B689A4208D07B685A68FB689A4203D863
:102780004FF00103BB601CE07B685B68FA68C3EB39
:1027900002023B681B689A4210D23B681A687B6849
:1027A0005968FB68C3EB01031A443B681A607868F8
:1027B000FFF784FF4FF00003BB6002E04FF001031E
:1027C000BB6001F05BFABB68184607F11807BD460D
:1027D00080BD00BF80B400AF46F61863C2F20003AC
:1027E0004FF001021A60BD4680BC704780B582B0D0
:1027F00000AF786000F068F846F63053C2F200038C
:102800001B68012B0AD94EF60453CEF200034FF099
:1028100080521A60BFF34F8FBFF36F8FFDF70CFE2E
:10282000E8E700BF80B582B000AF4FF000037B60E7
:1028300013E07A6813464FEA830313444FEA830395
:102840001A4646F63053C2F2000313441846FEF708
:10285000A1FB7B6803F101037B607B68042BE8D953
:1028600046F69450C2F20000FEF794FB46F6A850DC
:10287000C2F20000FEF78EFB46F6C450C2F2000022
:10288000FEF788FB46F6D850C2F20000FEF782FB46
:1028900046F6F050C2F20000FEF77CFB46F6BC5351
:1028A000C2F2000346F69452C2F200021A6046F6E3
:1028B000C053C2F2000346F6A852C2F200021A60E8
:1028C00007F10807BD4680BD80B582B000AF3CE08F
:1028D000FFF75CFB46F6D853C2F200031B68002BDF
:1028E00014BF002301233B60FFF762FB3B68002B12
:1028F0002BD101F08BF946F6D853C2F20003DB6806
:10290000DB687B607B6803F104031846FEF7D2FBAB
:1029100046F60463C2F200031B6803F1FF3246F679
:102920000463C2F200031A6046F6EC53C2F20003DD
:102930001B6803F1FF3246F6EC53C2F200031A6043
:1029400001F09CF9786800F00BF846F6EC53C2F2FF
:1029500000031B68002BBBD107F10807BD4680BDF3
:1029600080B582B000AF78607B681B6B184600F0C2
:10297000F9FE786800F0F6FE07F10807BD4680BD55
:1029800080B483B000AF46F6BC53C2F200031B68AC
:102990001B68002B02D14FF0010301E04FF0000350
:1029A000002B07D046F62463C2F200034FF0FF323B
:1029B0001A600EE046F6BC53C2F200031B68DB68E7
:1029C000DB687B607B685A6846F62463C2F20003CA
:1029D0001A6007F10C07BD4680BC704780B483B015
:1029E00000AF46F61063C2F200031B68002B03D150
:1029F0004FF001037B600DE046F62C63C2F200034A
:102A00001B68002B03D14FF002037B6002E04FF004
:102A100000037B607B68184607F10C07BD4680BC4D
:102A2000704700BF80B584B000AF78607B68FB6002
:102A30007B68002B00F09880FB68DA6A46F62C531E
:102A4000C2F200031B68DB6A9A4280F08D80FB684B
:102A50009B69002B09DB46F62C53C2F200031B686E
:102A6000DB6AC3F10502FB689A61FB685969FB6880
:102A7000DA6A13464FEA830313444FEA83031A4684
:102A800046F63053C2F200031344994202D14FF08C
:102A9000010301E04FF00003002B5DD0FB6803F160
:102AA00004031846FEF706FB0346002B24D1FB68FF
:102AB000DA6A13464FEA830313444FEA83031A4644
:102AC00046F63053C2F2000313441B68002B13D1A7
:102AD000FB68DB6A4FF0010202FA03F36FEA0302BC
:102AE00046F60C63C2F200031B6802EA030246F6D4
:102AF0000C63C2F200031A6046F62C53C2F20003C4
:102B00001B68DA6AFB68DA62FB68DB6A4FF0010275
:102B100002FA03F246F60C63C2F200031B6842EAB3
:102B2000030246F60C63C2F200031A60FB68DA6A1D
:102B300013464FEA830313444FEA83031A4646F6CB
:102B40003053C2F200031A44FB6803F10403104639
:102B50001946FEF751FA07E046F62C53C2F200037D
:102B60001B68DA6AFB68DA6207F11007BD4680BDB0
:102B700080B586B000AF78607B68BB604FF0000323
:102B8000FB607B68002B00F0928046F62C53C2F26B
:102B900000031B68BA689A4209D04FF0A00383F380
:102BA0001188BFF36F8FBFF34F8F3B61FEE7BB68A8
:102BB000DB6C002B09D14FF0A00383F31188BFF326
:102BC0006F8FBFF34F8F7B61FEE7BB68DB6C03F158
:102BD000FF32BB68DA64BB68DA6ABB689B6C9A42F6
:102BE00065D0BB68DB6C002B61D1BB6803F10403CB
:102BF0001846FEF75FFA0346002B24D1BB68DA6A59
:102C000013464FEA830313444FEA83031A4646F6FA
:102C10003053C2F2000313441B68002B13D1BB686E
:102C2000DB6A4FF0010202FA03F36FEA030246F691
:102C30000C63C2F200031B6802EA030246F60C634F
:102C4000C2F200031A60BB689A6CBB68DA62BB68A8
:102C5000DB6AC3F10502BB689A61BB68DB6A4FF0AF
:102C6000010202FA03F246F60C63C2F200031B688B
:102C700042EA030246F60C63C2F200031A60BB6824
:102C8000DA6A13464FEA830313444FEA83031A4672
:102C900046F63053C2F200031A44BB6803F1040342
:102CA00010461946FEF7A8F94FF00103FB60FB68D8
:102CB000184607F11807BD4680BD00BF80B400AFBD
:102CC00046F62C53C2F200031B68002B08D046F6D0
:102CD0002C53C2F200031B68DA6C02F10102DA64C1
:102CE00046F62C53C2F200031B681846BD4680BC52
:102CF000704700BF80B584B000AF7860396046F699
:102D00000863C2F200031B68FB6046F62C53C2F254
:102D100000031B6803F104031846FEF7CBF90346D2
:102D2000002B17D146F62C53C2F200031B68DB6A56
:102D30004FF0010202FA03F36FEA030246F60C6356
:102D4000C2F200031B6802EA030246F60C63C2F2F9
:102D500000031A607B68B3F1FF3F11D13B68002B81
:102D60000ED046F62C53C2F200031B6803F1040395
:102D700046F6F050C2F200001946FEF73DF93DE07C
:102D8000FA687B681344BB6046F62C53C2F200031A
:102D90001B68BA685A60BA68FB689A4210D246F655
:102DA000C053C2F200031A6846F62C53C2F2000365
:102DB0001B6803F1040310461946FEF741F91DE0B4
:102DC00046F6BC53C2F200031A6846F62C53C2F210
:102DD00000031B6803F1040310461946FEF730F99F
:102DE00046F62463C2F200031B68BA689A4205D211
:102DF00046F62463C2F20003BA681A6007F11007AE
:102E0000BD4680BD80B584B002AF4FF000033B608B
:102E100000F072FB46F66863C2F200031B68002BE9
:102E200017D04FF00203009346F66C63C2F2000322
:102E3000019343F27500C2F2000046F65041C2F21F
:102E400000014FF0A0024FF00003FEF7C7FE03465B
:102E50003B603B68002B09D14FF0A00383F311883E
:102E6000BFF36F8FBFF34F8F7B60FEE73B68184661
:102E700007F10807BD4680BD80B588B002AFF86095
:102E8000B9607A603B604FF02C0000F06FFB0346A6
:102E90007B617B69002B09D03B6A00937B690193BE
:102EA000F868B9687A683B6800F006F87B691846EC
:102EB00007F11807BD4680BD80B586B000AFF86049
:102EC000B9607A603B60BB68002B09D14FF0A0036A
:102ED00083F31188BFF36F8FBFF34F8F7B61FEE7E2
:102EE0007B6A002B16D000F007FB7B6AFA681A6039
:102EF0007B6ABA689A617B6A7A68DA617B6A3A6847
:102F00001A627B6A3A6A5A627B6A03F104031846C2
:102F1000FEF764F807F11807BD4680BD80B58AB09A
:102F200000AFF860B9607A603B604FF000033B622D
:102F3000FB68002B09D14FF0A00383F31188BFF386
:102F40006F8FBFF34F8F7B62FEE746F66863C2F276
:102F500000031B68002B40D0BB683B617B687B6132
:102F6000FB68BB61BB68052B27DCFFF737FD034619
:102F7000022B10D146F66863C2F200031A6807F10B
:102F80001003104619463A6B4FF00003FEF7D2F9D2
:102F900003463B6221E046F66863C2F200031A680A
:102FA00007F11003104619464FF000024FF00003DE
:102FB000FEF7C0F903463B620FE046F66863C2F2D3
:102FC00000031A6807F11003104619463A684FF0DB
:102FD0000003FEF7C7FA03463B623B6A184607F157
:102FE0002807BD4680BD00BF80B588B002AF7860BD
:102FF000396046F66063C2F200031B68DB68DB6879
:103000003B613B6903F104031846FEF753F83B6943
:10301000DB69012B26D13B699A697B6813443869C7
:1030200019463A687B6800F0DFF80346002B19D098
:103030004FF00003009338694FF000017A684FF0B9
:103040000003FFF76BFF0346FB60FB68002B09D111
:103050004FF0A00383F31188BFF36F8FBFF34F8F3F
:103060007B61FEE73B695B6A3869984707F118079F
:10307000BD4680BD80B584B000AF786007F108031D
:10308000184600F061F80346FB60BB68F868194613
:1030900000F004F800F0F4F8F0E700BF80B584B069
:1030A00000AF78603960FEF771FF07F1080318463A
:1030B00000F072F80346FB60BB68002B3BD13B6815
:1030C000002B0BD17A68FB689A4207D8FEF770FF95
:1030D0007868F968FFF788FF00BF30E03B68002B95
:1030E0000AD046F66463C2F200031B681B68002B1B
:1030F00014BF002301233B6046F66863C2F200035D
:103100001A687968FB68C3EB0103104619463A68F0
:10311000FEF72AFDFEF74CFF0346002B0ED14EF6BC
:103120000453CEF200034FF080521A60BFF34F8F6A
:10313000BFF36F8F03E0FEF73BFF00E000BF07F136
:103140001007BD4680BD00BF80B485B000AF786079
:1031500046F66063C2F200031B681B68002B14BFB5
:10316000002201227B681A607B681B68002B08D153
:1031700046F66063C2F200031B68DB681B68FB60F5
:1031800002E04FF00003FB60FB68184607F11407EC
:10319000BD4680BC704700BF80B584B000AF78608A
:1031A000FEF7D6FF0346FB6046F67063C2F20003EB
:1031B0001B68FA689A4206D200F024F97B684FF047
:1031C00001021A6003E07B684FF000021A6046F6C5
:1031D0007063C2F20003FA681A60FB68184607F1D0
:1031E0001007BD4680BD00BF80B586B000AFF86057
:1031F000B9607A603B604FF000037B61FB68BA689E
:103200005A60FB68FA681A61BA687B689A4218D8F3
:103210007A683B68C3EB0202FB689B699A4203D35E
:103220004FF001037B6124E046F66463C2F20003C1
:103230001A68FB6803F1040310461946FDF700FF06
:1032400017E07A683B689A4207D2BA683B689A42AC
:1032500003D34FF001037B610BE046F66063C2F2DB
:1032600000031A68FB6803F1040310461946FDF7D2
:10327000E7FE7B69184607F11807BD4680BD00BF11
:1032800080B58EB002AFA5E07B68002B1ADA07F19B
:10329000040303F104033B623B6A002B09D14FF0A6
:1032A000A00383F31188BFF36F8FBFF34F8F7B624F
:1032B000FEE73B6A1B683A6A51683A6A92680846B8
:1032C000114698477B68002BC0F28480FB687B61C5
:1032D0007B695B69002B05D07B6903F10403184609
:1032E000FDF7E8FE3B461846FFF756FF0346FB6135
:1032F0007B68092B6ED801A252F823F025330020F9
:103300002533002025330020D53300208B330020C7
:10331000C33300202533002025330020D53300207F
:103320008B330020BA687B699B691A44BB68786953
:103330001146FA69FFF758FF0346002B45D07B6919
:103340005B6A786998477B69DB69012B3FD1BA6872
:103350007B699B6913444FF00002009278694FF03B
:1033600000011A464FF00003FFF7D8FD0346BB618A
:10337000BB69002B2DD14FF0A00383F31188BFF35D
:103380006F8FBFF34F8FBB62FEE7BA687B699A61AC
:103390007B699B69002B09D14FF0A00383F311884F
:1033A000BFF36F8FBFF34F8FFB62FEE77B699A69B4
:1033B000FB69134478691946FA69FB69FFF714FF42
:1033C00008E0786900F0CEF904E000BF02E000BF39
:1033D00000E000BF46F66863C2F200031A6807F116
:1033E0000403104619464FF000024FF00003FEF7A9
:1033F0005BF90346002B7FF447AF07F13007BD466A
:1034000080BD00BF80B588B002AF53E046F6606370
:10341000C2F200031B68DB681B683B6046F6606312
:10342000C2F200031B68DB68DB68FB60FB6803F12A
:1034300004031846FDF73EFEFB685B6AF868984790
:10344000FB68DB69012B35D1FB689A693B68134443
:103450007B607A683B689A4212D9FB687A685A6046
:10346000FB68FA681A6146F66063C2F200031A68E4
:10347000FB6803F1040310461946FDF7E1FD19E06E
:103480004FF000030093F8684FF000013A684FF0E6
:103490000003FFF743FD03463B613B69002B09D165
:1034A0004FF0A00383F31188BFF36F8FBFF34F8FEB
:1034B0007B61FEE746F66063C2F200031B681B688F
:1034C000002BA3D146F66063C2F200031B68BB6009
:1034D00046F66463C2F200031A6846F66063C2F2FD
:1034E00000031A6046F66463C2F20003BA681A6009
:1034F00007F11807BD4680BD80B500AF00F086FB20
:1035000046F66863C2F200031B68002B2BD146F617
:103510003860C2F20000FDF73DFD46F64C60C2F295
:103520000000FDF737FD46F66063C2F2000346F681
:103530003862C2F200021A6046F66463C2F2000307
:1035400046F64C62C2F200021A604FF005004FF0DE
:1035500010014FF00002FDF74FFE024646F6686389
:10356000C2F200031A6000F089FB80BD80B58AB00A
:1035700000AF78604FF00003BB61FEF707FD4DF22E
:103580002403C2F200031B68002B01D100F056F99E
:103590004DF23003C2F200031A687B6802EA0303AB
:1035A000002B40F0C2807B68002B21D046F65843A8
:1035B000C2F200031B687A6813447B607B6803F0E7
:1035C0000703002B14D07B6823F0070303F10803E3
:1035D0007B607B6803F00703002B09D04FF0A0034A
:1035E00083F31188BFF36F8FBFF34F8FFB61FEE74B
:1035F0007B68002B00F099804DF22803C2F2000393
:103600001B687A689A4200F290804DF21C03C2F265
:1036100000033B614DF21C03C2F200031B68FB6018
:1036200004E0FB683B61FB681B68FB60FB685A6851
:103630007B689A4203D2FB681B68002BF1D14DF2E4
:103640002403C2F200031B68FA689A426DD03B69FA
:103650001A6846F65843C2F200031B681344BB6164
:10366000FB681A683B691A60FB685A687B68C3EBA1
:10367000020246F65843C2F200031B684FEA4303B6
:103680009A421FD9FA687B6813447B617B6903F017
:103690000703002B09D04FF0A00383F31188BFF379
:1036A0006F8FBFF34F8F3B62FEE7FB685A687B6802
:1036B000C3EB02027B695A60FB687A685A607869DA
:1036C00000F03EF94DF22803C2F200031A68FB68CD
:1036D0005B68C3EB02024DF22803C2F200031A60DA
:1036E0004DF22803C2F200031A684DF22C03C2F215
:1036F00000031B689A4209D24DF22803C2F200036C
:103700001A684DF22C03C2F200031A60FB685A6873
:103710004DF23003C2F200031B6842EA0302FB6869
:103720005A60FB684FF000021A60FEF741FCBB696B
:10373000002B01D1FCF772FEBB6903F00703002BDD
:1037400009D04FF0A00383F31188BFF36F8FBFF34D
:103750004F8F7B62FEE7BB69184607F12807BD461D
:1037600080BD00BF80B586B000AF78607B68BB606D
:103770007B68002B5ED046F65843C2F200031B68FC
:10378000C3F10003BA681344BB60BB68FB60FB680D
:103790005A684DF23003C2F200031B6802EA0303C9
:1037A000002B09D14FF0A00383F31188BFF36F8F73
:1037B000BFF34F8F3B61FEE7FB681B68002B09D00E
:1037C0004FF0A00383F31188BFF36F8FBFF34F8FC8
:1037D0007B61FEE7FB685A684DF23003C2F20003DA
:1037E0001B6802EA0303002B24D0FB681B68002B34
:1037F00020D1FB685A684DF23003C2F200031B6807
:103800006FEA030302EA0302FB685A60FEF7BEFB9D
:10381000FB685A684DF22803C2F200031B681A4481
:103820004DF22803C2F200031A60F86800F088F82D
:10383000FEF7BEFB07F11807BD4680BD80B485B01A
:1038400000AF46F2A813FB6046F67463C2F20003B1
:10385000BB60BB6803F00703002B11D0BB6803F10A
:103860000703BB60BB6823F00703BB60FA68BB6853
:10387000C3EB020246F67463C2F200031344FB601A
:10388000BB687B607A684DF21C03C2F200031A60C9
:103890004DF21C03C2F200034FF000025A607A6836
:1038A000FB681344BB6046F65843C2F200031B6832
:1038B000BA68C3EB0203BB60BB6823F00703BB60BD
:1038C000BA684DF22403C2F200031A604DF22403D9
:1038D000C2F200031B684FF000025A604DF224034D
:1038E000C2F200031B684FF000021A607B683B6065
:1038F0003B68BA68C3EB02023B685A604DF224038E
:10390000C2F200031A683B681A603B685A684DF2BD
:103910002C03C2F200031A603B685A684DF2280378
:10392000C2F200031A604DF23003C2F200034FF0FE
:1039300000421A6007F11407BD4680BC704700BF03
:1039400080B485B000AF78604DF21C03C2F2000372
:10395000BB6002E0BB681B68BB60BB681A687B6821
:103960009A42F7D3BB68FB60BB685A68FB681A448D
:103970007B689A4208D1BB685A687B685B681A44C6
:10398000BB685A60BB687B607B68FB607B685A6879
:10399000FB681A44BB681B689A421ED1BB681A6850
:1039A0004DF22403C2F200031B689A420DD07B68DB
:1039B0005A68BB681B685B681A447B685A60BB68BE
:1039C0001B681A687B681A600BE04DF22403C2F290
:1039D00000031A687B681A6003E0BB681A687B689A
:1039E0001A60BA687B689A4202D0BB687A681A602B
:1039F00007F11407BD4680BC704700BF80B485B096
:103A000000AFF860B9607A60FB68A3F10403FB6063
:103A1000FB684FF080721A60FB68A3F10403FB603F
:103A2000BB6823F00102FB681A60FB68A3F1040382
:103A3000FB6043F66523C2F20003FA681360FB687B
:103A4000A3F11403FB607A68FB681A60FB68A3F1BA
:103A50002003FB60FB68184607F11407BD4680BCD5
:103A6000704700BF80B483B000AF46F6C443C2F2D3
:103A700000031B68B3F1FF3F09D04FF0A00383F3AD
:103A80001188BFF36F8FBFF34F8F3B60FEE74FF09E
:103A9000A00383F31188BFF36F8FBFF34F8F7B6059
:103AA000FEE700BF00000000000000000000000072
:103AB000074B19680868B0E8F00F80F30988BFF376
:103AC0006F8F4FF0000080F311884EF00D0E70479D
:103AD0002C6D0020AFF30080AFF30080AFF30080C7
:103AE00006480068006880F3088862B661B6BFF3D4
:103AF0004F8FBFF36F8F00DF00BF000008ED00E0C5
:103B000080B584B000AF4EF20043CEF20003FB60FC
:103B1000FB681B78DBB2BB60FB684FF0FF321A70AA
:103B2000FB681B78DBB2FB71FB79DBB21A4602F053
:103B3000A0024DF23403C2F200031A704DF23803B2
:103B4000C2F200034FF007021A6011E04DF2380391
:103B5000C2F200031B6803F1FF324DF23803C2F2D8
:103B600000031A60FB79DBB24FEA4303DBB2FB715F
:103B7000FB79DBB25BB2002BE8DB4DF23803C2F21B
:103B800000031B684FEA03224DF23803C2F2000320
:103B90001A604DF23803C2F200031B6803F4E062BE
:103BA0004DF23803C2F200031A60BB68DAB2FB6858
:103BB0001A704EF62053CEF200034EF62052CEF28B
:103BC0000002126842F470021A604EF62053CEF2E0
:103BD00000034EF62052CEF20002126842F070420C
:103BE0001A6000F0C7F846F6C443C2F200034FF073
:103BF00000021A60FFF774FFFFF734FF4FF0000375
:103C0000184607F11007BD4680BD00BF80B483B0E1
:103C100000AF4FF0A00383F31188BFF36F8FBFF3A2
:103C20004F8F3B6046F6C443C2F200031B6803F1AA
:103C3000010246F6C443C2F200031A6046F6C443CA
:103C4000C2F200031B68012B12D14EF60453CEF2D0
:103C500000031B6803F0FF03002B09D04FF0A00303
:103C600083F31188BFF36F8FBFF34F8F7B60FEE745
:103C700007F10C07BD4680BC704700BF80B483B01D
:103C800000AF46F6C443C2F200031B68002B09D103
:103C90004FF0A00383F31188BFF36F8FBFF34F8FF3
:103CA0003B60FEE746F6C443C2F200031B6803F123
:103CB000FF3246F6C443C2F200031A6046F6C4431C
:103CC000C2F200031B68002B05D14FF000037B609C
:103CD0007B6883F3118807F10C07BD4680BC7047F1
:103CE000EFF30980BFF36F8F0D4B1A6820E9F00FD7
:103CF00010602DE908404FF0A00080F31188FEF716
:103D00003FFB4FF0000080F31188BDE808401968C0
:103D10000868B0E8F00F80F30988BFF36F8F704731
:103D20002C6D0020AFF30080AFF30080AFF3008074
:103D300080B582B000AF4FF0A00383F31188BFF3CA
:103D40006F8FBFF34F8F3B60FEF712FA0346002BD5
:103D500006D04EF60453CEF200034FF080521A60A4
:103D60004FF000037B607B6883F3118807F108073D
:103D7000BD4680BD80B400AF4EF21403CEF2000306
:103D800046F60452C2F20002116844F6D352C1F260
:103D90006202A2FB01024FEA921202F1FF321A60A4
:103DA0004EF21003CEF200034FF007021A60BD4638
:103DB00080BC704780B485B000AFEFF305833B60F3
:103DC0003B680F2B1AD946F65C43C2F200031A680F
:103DD0003B6813441B78FB714DF23403C2F20003BD
:103DE0001B78FA799A4209D24FF0A00383F3118825
:103DF000BFF36F8FBFF34F8FBB60FEE74EF60C53E0
:103E0000CEF200031B6803F4E0624DF23803C2F205
:103E100000031B689A4209D94FF0A00383F311886D
:103E2000BFF36F8FBFF34F8FFB60FEE707F11407FF
:103E3000BD4680BC704700BF90B589B000AF7860C8
:103E40004FF00003BB774FF00003FB774DF21C12DD
:103E5000C2F200024DF27073C2F200031A6007F161
:103E60001C0107F11A0207F11803084611461A4609
:103E7000FCF7F8FA0346BB7707F1140107F11202C9
:103E800007F11003084611461A46FCF781FC034669
:103E9000BB774DF27073C2F200031A684DF2607383
:103EA000C2F200031B8803F0FF014FF0000040EA5C
:103EB000010191734FEA13239BB24FF0000141EAD5
:103EC0000303D3734DF27073C2F200031B68BA8B05
:103ED00002F0FF014FF0000040EA010119744FEABF
:103EE000122292B24FF0000141EA02025A744DF2DE
:103EF0007073C2F200031B687A8B02F0FF014FF06F
:103F0000000040EA010199744FEA122292B24FF088
:103F1000000141EA0202DA744DF27073C2F200034A
:103F20001B683A8B02F0FF014FF0000040EA0101EC
:103F300019754FEA122292B24FF0000141EA0202D3
:103F40005A754DF27073C2F200031B68BA8A02F010
:103F5000FF014FF0000040EA010199754FEA12227B
:103F600092B24FF0000141EA0202DA754DF270732D
:103F7000C2F200031B687A8A02F0FF014FF00000D2
:103F800040EA010119764FEA122292B24FF0000185
:103F900041EA02025A764DF27073C2F200031B68C6
:103FA0003A8A02F0FF014FF0000040EA01019976E1
:103FB0004FEA122292B24FF0000141EA0202DA7691
:103FC00007F10E031846FCF755FD0346BB774DF28B
:103FD0007073C2F200031B68FA8902F0FF014FF010
:103FE000000040EA010119774FEA122292B24FF025
:103FF000000141EA02025A774DF27073C2F20003E7
:104000001C6807F117034FF040004FF001011A46FA
:10401000FCF764FE03469BB203F0FF024FF0000181
:1040200041EA0202E2774FEA13239BB24FF000020B
:1040300042EA030384F82030FA7DFB7F1344FB77C8
:104040004DF27073C2F200031C6807F117034FF0C2
:1040500040004FF002011A46FCF740FE03469BB2B7
:1040600003F0FF024FF0000141EA020284F823202E
:104070004FEA13239BB24FF0000242EA030384F895
:104080002430FA7DFB7F1344FB774DF27073C2F24C
:1040900000031C6807F117034FF040004FF00301C5
:1040A0001A46FCF71BFE03469BB203F0FF024FF0DB
:1040B000000141EA020284F827204FEA13239BB251
:1040C0004FF0000242EA030384F82830FA7DFB7FB8
:1040D0001344FB774DF27073C2F200031C6807F1C2
:1040E00017034FF040004FF001011A46FCF754FE51
:1040F00003469BB203F0FF024FF0000141EA0202C7
:1041000084F821204FEA13239BB24FF0000242EAC9
:10411000030384F82230FA7DFB7F1344FB774DF2D2
:104120007073C2F200031C6807F117034FF04000E0
:104130004FF002011A46FCF72FFE03469BB203F034
:10414000FF024FF0000141EA020284F825204FEA05
:1041500013239BB24FF0000242EA030384F8263097
:10416000FA7DFB7F1344FB774DF27073C2F20003BC
:104170001C6807F117034FF040004FF003011A4687
:10418000FCF70AFE03469BB203F0FF024FF000016A
:1041900041EA020284F829204FEA13239BB24FF030
:1041A000000242EA030384F82A30FA7DFB7F1344BD
:1041B000FB774DF21C13C2F200034FF0010283F8AB
:1041C000FF2107F12407BD4690BD00BFB0B584B004
:1041D00000AF78604DF23C02C2F200024DF29873DB
:1041E000C2F200031A604FF00003FB732EE04DF2A1
:1041F0009873C2F200031C68FD7BBB7BFA7B4DF217
:10420000E460C2F200004FF02101FCF725FE0346F6
:10421000194605F1040201F0FF004FEA420323446E
:104220004FF0000C4CEA000098714FEA112398B24D
:104230004FEA420323444FF000021146024641EA8E
:104240000202DA71FB7B03F10103FB73FB7B062B9C
:10425000CDD94DF23C03C2F200034FF0020283F8C5
:10426000312007F11007BD46B0BD00BF80B485B056
:1042700000AF78604FF00003FB814DF21C13C2F2D7
:10428000000393F8FF31012B7BD14DF27073C2F222
:1042900000031B684FF0000242F008021A704FF052
:1042A000000242F001025A704DF27073C2F2000334
:1042B0001A68FB8903F10103FB81FB896FEA8343E1
:1042C0006FEA93439BB29BB24FEA032399B2FB89F7
:1042D00003F10103FB81FB896FEA83436FEA934398
:1042E0009BB29BB24FEA13239BB241EA03039BB2FA
:1042F0009BB203F0FF014FF0000040EA0101917012
:104300004FEA13239BB24FF0000141EA0303D3703D
:104310004DF27073C2F200031B684FF000021A7175
:104320004FF0000242F02C025A714DF27073C2F24B
:1043300000031B684FF000029A714FF00002DA711F
:104340004FF000021A724FF000025A724DF2707371
:10435000C2F200031B684FF000029A724FF0000295
:10436000DA724FF000021A734FF000025A734DF2E6
:104370007073C2F200031A684DF28073C2F2000338
:104380001A604DF23C03C2F2000393F83130022B65
:104390007BD14DF29873C2F200031B684FF000020C
:1043A00042F008021A704FF0000242F002025A7006
:1043B0004DF29873C2F200031A68FB8903F10103FE
:1043C000FB81FB896FEA83436FEA93439BB29BB205
:1043D0004FEA032399B2FB8903F10103FB81FB89B7
:1043E0006FEA83436FEA93439BB29BB24FEA132376
:1043F0009BB241EA03039BB29BB203F0FF014FF073
:10440000000040EA010191704FEA13239BB24FF084
:10441000000141EA0303D3704DF29873C2F2000326
:104420001B684FF000021A714FF0000242F01E02AA
:104430005A714DF29873C2F200031B684FF00002EC
:104440009A714FF00002DA714FF000021A724FF0C9
:1044500000025A724DF29873C2F200031B684FF0CB
:1044600000029A724FF00002DA724FF000021A73E3
:104470004FF000025A734DF29873C2F200031A68AB
:104480004DF29073C2F200031A6007F11407BD46A3
:1044900080BC704780B582B000AF78604DF21C13CD
:1044A000C2F2000393F8FF31012B0DD14DF280735E
:1044B000C2F200031B684DF2DC70C2F20000194624
:1044C0004FF02C0200F008FB4DF23C03C2F2000357
:1044D00093F83130022B0DD14DF29073C2F20003EC
:1044E0001B684DF2DC70C2F2000019464FF01E024C
:1044F00000F0F2FA07F10807BD4680BD80B582B032
:1045000000AF786078684DF2DC01C2F200014FF034
:10451000010200F053FB02464DF21813C2F20003F1
:104520001A604DF26073C2F200034FF000021A806D
:104530004DF2DC03C2F200031B787F2B4AD14DF20F
:104540001C53C2F200031B781A464DF2FC03C2F260
:1045500000034FF0000199544DF21C53C2F20003C6
:104560001B7803F1FF324DF2FC03C2F200034FF05F
:104570007F0199544DF26073C2F200031B8803F16E
:1045800001039AB24DF26073C2F200031A804DF239
:104590001C53C2F200031B7803F1FF324DF2FC03FF
:1045A000C2F2000313444DF2DC70C2F2000019465F
:1045B0004FF0010200F090FA4DF21C53C2F20003DA
:1045C0001B7803F1FF33DAB24DF21C53C2F2000341
:1045D0001A703DE04DF21C53C2F200031B781A46DC
:1045E0004DF2DC03C2F2000319784DF2FC03C2F273
:1045F000000399544DF26073C2F200031B8803F16B
:1046000001039AB24DF26073C2F200031A804DF2B8
:104610001C53C2F200031B781A464DF2FC03C2F28F
:10462000000313444DF2DC70C2F2000019464FF053
:10463000010200F051FA4DF21C53C2F200031B7844
:1046400003F10103DAB24DF21C53C2F200031A70F7
:1046500007F10807BD4680BD90B587B002AF4DF2A7
:104660001C43C2F200033B6046F6C843C2F200039B
:104670007B603A6840F6F963C2F2000313603B685E
:104680001B684FF00000796898474DF2E460C2F271
:10469000000044F20001C5F200014FF021024FF08A
:1046A000000300F01BFF4DF21C43C2F20003BB608D
:1046B00046F6E843C2F20003FB60BA6840F6F963CD
:1046C000C2F200031360BB681B684FF00A00F96870
:1046D00098474FF001004FF02C014FF00002FCF71B
:1046E0008BFD02464DF28073C2F200031A604FF058
:1046F00001004FF01E014FF00002FCF77DFD024665
:104700004DF29073C2F200031A6043F63963C2F2AD
:104710000003009346F66040C2F200004FF4FA61D5
:104720004FF001024FF00003FEF7A6FB02464DF2E8
:104730005073C2F200031A604DF25073C2F20003CC
:104740001C68FDF705FD03464FF00002009220466D
:104750004FF001011A464FF00003FEF7DFFB44F271
:10476000CD13C2F20003009346F66C40C2F2000083
:104770004FF47A614FF001024FF00003FEF77CFB2B
:1047800002464DF25073C2F20003DA604DF25073EC
:10479000C2F20003DC68FDF7DBFC03464FF00002C9
:1047A000009220464FF001011A464FF00003FEF739
:1047B000B5FB44F26D23C2F20003009346F6784045
:1047C000C2F2000041F292314FF001024FF00003BB
:1047D000FEF752FB02464DF25073C2F200035A60DC
:1047E0004DF25073C2F200035C68FDF7B1FC034662
:1047F0004FF00002009220464FF001011A464FF0A0
:104800000003FEF78BFB44F29543C2F200030093D2
:1048100046F68840C2F2000041F297314FF00102A3
:104820004FF00003FEF728FB02464DF25073C2F230
:1048300000039A604DF25073C2F200039C68FDF7CA
:1048400087FC03464FF00002009220464FF0010122
:104850001A464FF00003FEF761FB4DF2DC70C2F226
:1048600000004FF416514FF0030200F0F3F84DF240
:10487000DC70C2F2000044F2FD41C2F200014FF0D0
:10488000000200F009FA4FF00100FCF737FD024684
:104890004DF27C73C2F200031A60FDF71DFB07F1B5
:1048A0001407BD4690BD00BF80B500AF4DF22C503F
:1048B000C2F2000001F038F880BD00BF80B500AF43
:1048C0004DF29850C2F2000001F02EF880BD00BFFA
:1048D00080B500AF4DF27000C2F2000001F024F884
:1048E00080BD00BF80B500AF4DF27060C2F2000025
:1048F00001F01AF880BD00BF80B500AF4DF2E46052
:10490000C2F2000001F010F880BD00BF80B500AF1A
:104910004DF20460C2F2000001F006F880BD00BF55
:1049200080B483B000AF0346FB714EF20013CEF2A9
:10493000000397F907204FEA5212F97901F01F019D
:104940004FF0010000FA01F143F8221007F10C07C3
:10495000BD4680BC704700BF80B483B000AF034643
:10496000FB714EF20013CEF2000397F907204FEAD5
:104970005212F97901F01F014FF0010000FA01F124
:1049800002F1600243F8221007F10C07BD4680BC1B
:10499000704700BF80B483B000AF78600B46FB70F7
:1049A0007B6803F070427B6823F07F4323F470033D
:1049B0004FEA43131A44FB784FEA8303134403F18D
:1049C00000734FF001021A6007F10C07BD4680BC6E
:1049D000704700BF80B483B000AF78600B46FB70B7
:1049E0007B6803F070427B6823F07F4323F47003FD
:1049F0004FEA43131A44FB784FEA8303134403F14D
:104A000000734FF000021A6007F10C07BD4680BC2E
:104A1000704700BF80B483B000AF78600B46FB7076
:104A20007B6803F070427B6823F07F4323F47003BC
:104A30004FEA43131A44FB784FEA8303134403F10C
:104A400000731B68DBB2184607F10C07BD4680BC3B
:104A5000704700BF80B584B000AFF860B9601346FE
:104A6000FB71FA684DF2DC73C2F200039A4207D080
:104A7000FA684DF29C73C2F200039A4200D000BE65
:104A8000FB79F868B9681A4600F056FAFB681B68AB
:104A900003F1300318464FF00301FFF79BFFFB685B
:104AA0001B6803F1340318464FF00201FFF792FF31
:104AB000FB681B6803F1380318464FF00001FFF74D
:104AC00089FFFA6845F2D133C2F20003536207F15D
:104AD0001007BD4680BD00BF80B489B000AFF8604C
:104AE000B9607A604FF000033B61FA684DF2DC7305
:104AF000C2F200039A4207D0FA684DF29C73C2F2E8
:104B000000039A4200D000BEBB68002B00D100BE5B
:104B10007B68002B00D100BEFA684DF2DC73C2F254
:104B200000039A4206D0FA684DF29C73C2F2000369
:104B30009A423DD1BB68002B3AD07B68002B37D01E
:104B4000FB681B681B7DFB76FB685A7BFB7E42EA99
:104B50000303DAB2FB685A73FB7E03F02003002BD9
:104B600023D04FF01003FB617B680F2B01D87B68CB
:104B7000FB614FF000037B610EE0FB681B68B968C6
:104B80003A690A4412781A703B6903F101033B61E8
:104B90007B6903F101037B617A69FB699A42ECD37B
:104BA0007A687B69C3EB02037B607B68002BC7D10B
:104BB00007F12407BD4680BC704700BF80B487B0B2
:104BC00000AFF860B9607A604FF000033B614FF0CE
:104BD0000003FB75FA684DF2DC73C2F200039A42DF
:104BE00007D0FA684DF29C73C2F200039A4200D0DB
:104BF00000BEBB68002B00D100BE7B68002B00D13B
:104C000000BEFA684DF2DC73C2F200039A4206D08D
:104C1000FA684DF29C73C2F200039A4234D1BB6829
:104C2000002B31D07B68002B2ED0FB681B681B7DCE
:104C3000FB75FB685A7BFB7D42EA0303DAB2FB6833
:104C40005A7317E0BA683B691344FA68126812781D
:104C5000D2B21A703B6903F101033B61FB681B6828
:104C60001B7DFB75FB685A7BFB7D42EA0303DAB2CE
:104C7000FB685A73FB7D03F00103DBB2002B03D00A
:104C80003A697B689A42DDD33B69184607F11C07F5
:104C9000BD4680BC704700BF80B584B000AFF860EF
:104CA000B9601346FB71FA684DF2DC73C2F200037F
:104CB0009A4207D0FA684DF29C73C2F200039A42FE
:104CC00000D000BEBB68002B00D100BEFB79C02B1A
:104CD00000D900BEFA684DF2DC73C2F200039A42BA
:104CE00006D0FA684DF29C73C2F200039A422ED1AC
:104CF000BB68002B2BD0FB79C02B28D8FB68BA6887
:104D00001A62FB681A68FB681B681B7ADBB2DBB2AD
:104D100003F03F03F8791946034641EA0303DBB287
:104D2000DBB21372FB681B795BB21846FFF714FE07
:104D3000FB681B6803F1040318464FF00001FFF7FE
:104D400029FEFB681B795BB21846FFF7E9FD07F106
:104D50001007BD4680BD00BF684620F007018D46A4
:104D600089B500AF4DF2DC70C2F2000000F01AFA13
:104D7000BD46BDE889408546704700BF684620F0C3
:104D800007018D4689B500AF4DF29C70C2F200005C
:104D900000F008FABD46BDE889408546704700BF6F
:104DA00080B588B000AF786039607A684DF2DC7306
:104DB000C2F200039A4207D07A684DF29C73C2F2A5
:104DC00000039A4200D000BE7A684DF2DC73C2F252
:104DD00000039A4207D07A684DF29C73C2F2000336
:104DE0009A4240F0A4807B683A689A6001F0CAFB5E
:104DF0007A684DF2DC73C2F200039A4206D146F69D
:104E00000853C2F200031B68FB6105E046F60C5331
:104E1000C2F200031B68FB61FB694FEAC3023B68F7
:104E2000B2FBF3F37B617B694FEA53033B613B6960
:104E30004FEA9313FB60FB684FEA83133A69C3EBB5
:104E40000203BB61FB684FEAC3137A69C3EB02023A
:104E5000BB694FEA4303C3EB0203BA691344BB6166
:104E6000FA684FF6FF739A4200D900BEFA684FF60F
:104E7000FF739A425BD8FB68012B31D97B681B68B2
:104E800003F10C0318464FF00701FFF783FD7B6821
:104E90001B68FA684FEA1222D2B21A717B681B684B
:104EA000FA68D2B21A707B681B6803F10C031846CB
:104EB0004FF00701FFF78EFD7B681B6803F130039D
:104EC00018464FF00701FFF765FDBB69FF2B00D9BE
:104ED00000BE7B681B68BA69D2B283F83C2026E02A
:104EE0007B681B6803F10C0318464FF00701FFF7BE
:104EF00051FD7B681B68FA684FEA1222D2B21A7120
:104F00007B681B68FA68D2B21A707B681B6803F171
:104F10000C0318464FF00701FFF75CFD7B681B6828
:104F200003F1300318464FF00701FFF753FD07F177
:104F30002007BD4680BD00BF80B584B000AFF860DB
:104F4000B9601346FB71FA684DF2DC73C2F20003DC
:104F50009A4207D0FA684DF29C73C2F200039A425B
:104F600000D000BEFA684DF2DC73C2F200039A4230
:104F700024D1FB684FF080421A60FB684FF00A02B0
:104F80001A7148F20003C4F2030348F20002C4F2AB
:104F90000302926C42F080029A644FF00A00FFF71D
:104FA000DBFC48F20003C4F2030348F20002C4F23F
:104FB0000302926C22F080029A6425E0FA6840F2C3
:104FC0000003C4F201031360FB684FF00B021A7177
:104FD00048F20003C4F2030348F20002C4F20302E1
:104FE000926C42F480729A644FF00B00FFF7B4FCAD
:104FF00048F20003C4F2030348F20002C4F20302C1
:10500000926C22F480729A64FB681B684FF0000275
:105010001A71FB681B684FF000021A72FB681B686C
:1050200003F1080318464FF00101FFF7B3FCFB68DA
:105030001B6803F1080318464FF00201FFF7AAFCB2
:10504000FB681B6803F1080318464FF00001FFF7E7
:10505000A1FCFB681B6803F1100318464FF0040124
:10506000FFF7B8FCFB681B6803F1100318464FF00C
:105070000501FFF7AFFCFB681B6803F1340318461A
:105080004FF00101FFF7A6FCFB681B6803F1340336
:1050900018464FF00001FFF79DFCFB681B6803F109
:1050A000380318464FF00101FFF794FCFB681B68BA
:1050B00003F1300318464FF00501FFF78BFCFB6846
:1050C0001B6803F1300318464FF00601FFF782FC1E
:1050D000FB681B6803F1300318464FF00701FFF728
:1050E00079FCFB681B6803F1380318464FF0030195
:1050F000FFF770FCFB681B684FF0000283F8442048
:10510000FB681B684FF0000283F84820FB681B68AF
:105110004FF0000283F84C20F868B968FFF740FEB2
:10512000FB681B68FA791A73FB68BA689A60FB68B7
:10513000FA791A73FB684FF000025A61FB684FF06E
:1051400000021A61FB684FF000029A61FB684FF0A1
:1051500000021A62FB684FF000025A62FB684FF0CF
:105160000002DA61FB684FF000029A62FB684FF0C0
:105170000002DA62FB684FF000021A63FB684FF02E
:1051800000025A63FB684FF000029A63FB684FF01D
:105190000002DA63FB684FF000025A7307F1100750
:1051A000BD4680BD80B584B000AF78607A684DF2AE
:1051B000DC73C2F200039A4207D07A684DF29C7306
:1051C000C2F200039A4200D000BE7A684DF2DC734E
:1051D000C2F200039A4207D07A684DF29C73C2F281
:1051E00000039A4240F0EF807B681B681B7ADBB2B9
:1051F00003F00F03FB73FB7B0C2B00F2D78001A2A3
:1052000052F823F039520020AD53002057520020AD
:10521000B152002075520020AD530020935200205F
:10522000AD530020AD530020AD530020AD530020FE
:10523000AD530020755200207B689B6A002B00D183
:1052400000BE7B689B6A002B00F0B2807B689B6A83
:1052500078689847B7E07B685B6A002B00D100BE96
:105260007B685B6A002B00F0A5807B685B6A7868CE
:105270009847A8E07B681B6A002B00D100BE7B68C2
:105280001B6A002B00F098807B681B6A786898473F
:1052900099E07B68DB69002B00D100BE7B68DB698D
:1052A000002B00F08B807B68DB69786898478AE088
:1052B0007B681B6803F1280318464FF00001FFF7D5
:1052C000A9FB0346002B0CD07B68DB6A002B00D1C6
:1052D00000BE7B68DB6A002B03D07B68DB6A7868E2
:1052E00098477B681B6803F1280318464FF00101BB
:1052F000FFF790FB0346002B0CD07B681B6B002B49
:1053000000D100BE7B681B6B002B03D07B681B6B3E
:10531000786898477B681B6803F1280318464FF0AC
:105320000201FFF777FB0346002B0CD07B685B6B19
:10533000002B00D100BE7B685B6B002B03D07B6829
:105340005B6B786898477B681B6803F128031846F5
:105350004FF00301FFF75EFB0346002B0CD07B6888
:105360009B6B002B00D100BE7B689B6B002B03D096
:105370007B689B6B786898477B681B6803F1280300
:1053800018464FF00401FFF745FB0346002B17D0EA
:105390007B68DB6B002B00D100BE7B68DB6B002BD6
:1053A00010D07B68DB6B786898470CE000BE0AE0A1
:1053B00000BF08E000BF06E000BF04E000BF02E05D
:1053C00000BF00E000BF07F11007BD4680BD00BF71
:1053D00080B586B000AF78607A684DF2DC73C2F2B7
:1053E00000039A4207D07A684DF29C73C2F2000320
:1053F0009A4200D000BE7B681B69002B00D100BE22
:105400007B685B69002B00D100BE7A684DF2DC73CB
:10541000C2F200039A4206D07A684DF29C73C2F23F
:1054200000039A4255D17B681B69002B51D07B68E1
:105430005B69002B4DD07B681B681B7DFB727B6812
:105440005A7BFB7A42EA0303DAB27B685A73FB7A2F
:1054500003F02003002B29D04FF010033B617B6841
:105460005A697B689B69C3EB02037B617B690F2BE5
:1054700001D87B693B614FF00003FB6012E07B6861
:105480001B687A6811697A6892690A4412781A70FE
:105490007B689B6903F101027B689A61FB6803F1F9
:1054A0000103FB60FA683B699A42E8D37B689A691A
:1054B0007B685B699A420CD17B684FF000025A61AD
:1054C0007B681B6803F1040318464FF00101FFF7E6
:1054D00081FA07F11807BD4680BD00BF80B586B0D0
:1054E00000AFF860B960FA71BB71BB797B6101F004
:1054F000E9F903463B61F8684FF000014FF06C0298
:1055000001F020FBFB68BA681A60FB794FEA43029E
:10551000FB685A60FB681B6818464FF006014FF0A5
:1055200040024FF0000301F008FAFB681B681846C0
:105530004FF006014FF040024FF0010301F0FDF97A
:10554000FB681A687B694FEA930303F00103104676
:105550004FF007014FF0800201F0EFF9FB681A6885
:105560007B694FEA530303F0010310464FF001013A
:105570004FF0020201F0E1F9FB681A687B6903F061
:10558000010310464FF000014FF0010201F0D5F980
:10559000FB681B6803F10C02FB685B681046194648
:1055A00001F0C7F9FB681B6803F11C02FB685B682C
:1055B0001046194601F0BDF9386901F087F907F185
:1055C0001807BD4680BD00BF80B586B000AFF8604B
:1055D0007A600A46FA727B8001F074F903467B61B7
:1055E000FB681B7B002B03D1FB684FF001021A7391
:1055F000FB684FF0010283F86A20FB7A4FEA43020E
:10560000FB689A60FB684FF000025A62FB687A6898
:105610009A617A88FB68DA61FB684FF000021A62CF
:10562000FB684FF0010283F83420FB6897F82020D4
:105630001A75FB6893F85430DBB2012B05D1FB6877
:105640004FF0010283F869200AE0FB681B681846E6
:105650004FF005014FF020024FF0010301F06DF90A
:10566000FB6893F86830012B0AD1FB681B68184669
:105670004FF003014FF008024FF0000301F05DF915
:10568000FB681B6803F10403184601F054F9034654
:10569000FB74FB7CDBB2FB74F86800F0C9FE786930
:1056A00001F014F907F11807BD4680BD80B586B03A
:1056B00000AFF8607A600A46FA727B8001F002F966
:1056C00003467B61FB681B7B002B03D1FB684FF01B
:1056D00002021A73FB684FF0020283F86A20FB7A19
:1056E0004FEA4302FB689A60FB684FF001025A627E
:1056F000FB687A689A627A88FB68DA62FB684FF026
:1057000000021A63FB684FF0010283F83420FB6843
:1057100097F820201A75FB6893F85430DBB2012B00
:1057200005D1FB684FF0010283F869200AE0FB68AD
:105730001B6818464FF005014FF020024FF001039F
:1057400001F0FBF8FB6893F86830012B0AD1FB6885
:105750001B6818464FF003014FF008024FF000039A
:1057600001F0EBF8FB681B6803F10403184601F035
:10577000E2F80346FB74FB7CDBB2FB74F86800F0D4
:1057800057FE786901F0A2F807F11807BD4680BD01
:1057900080B586B000AFF8607A600A46FA727B8006
:1057A0007B88002B00D100BE7B68002B00D100BE9F
:1057B000BB8C002B00D100BE3B6A002B00D100BE89
:1057C000FB684FF0020283F83420BB8C002B72D0B0
:1057D0007B88002B6FD001F075F803467B61FB6876
:1057E0001B7B002B03D1FB684FF003021A73FB688D
:1057F0004FF0030283F86A20FB7A4FEA4302FB680A
:105800009A60FB684FF000025A62FB687A689A61FE
:105810007A88FB68DA61FB684FF000021A62FB6865
:105820003A6A9A62BA8CFB68DA62FB684FF000024F
:105830001A63FB684FF0010283F83420FB6897F885
:1058400028201A75FB6893F85430DBB2012B05D180
:10585000FB684FF0010283F869200AE0FB681B68CF
:1058600018464FF005014FF020024FF0010301F000
:1058700064F8FB6893F86830012B0AD1FB681B6859
:1058800018464FF003014FF008024FF0000301F0FB
:1058900054F8FB681B6803F10403184601F04BF849
:1058A0000346FB74FB7CDBB2FB74F86800F0C0FDC0
:1058B000786901F00BF807F11807BD4680BD00BFFD
:1058C00080B584B000AF7860396000F0FBFF03461C
:1058D000FB607B683A689A63F86800F0F7FF7B68C2
:1058E00093F83430FB72FB7A012BF8D0FB7A184620
:1058F00007F11007BD4680BD80B582B000AF78606B
:105900007B6893F86030002B0AD07B681B681846D0
:105910004FF002014FF004024FF0010301F00DF8C7
:1059200007F10807BD4680BDB0B584B000AF786010
:105930004FF00103BB737B681B6803F10403184637
:1059400000F0F9FF0346FB72FB7ADBB2A3F1080318
:10595000D82B00F2E38401A252F823F0C15C0020AE
:105960001D6300201D6300201D6300201D630020B7
:105970001D6300201D6300201D630020C15C00200A
:105980001D6300201D6300201D6300201D63002097
:105990001D6300201D6300201D630020975D002013
:1059A0001D6300201D6300201D6300201D63002077
:1059B0001D6300201D6300201D630020675D002023
:1059C0001D6300201D6300201D6300201D63002057
:1059D0001D6300201D6300201D630020975D0020D3
:1059E0001D6300201D6300201D6300201D63002037
:1059F0001D6300201D6300201D630020475E002002
:105A00001D6300201D6300201D6300201D63002016
:105A10001D6300201D6300201D6300204F5D0020DA
:105A20001D6300201D6300201D6300201D630020F6
:105A30001D6300201D6300201D630020775E002091
:105A40001D6300201D6300201D6300201D630020D6
:105A50001D6300201D6300201D630020F75E0020F1
:105A60001D6300201D6300201D6300201D630020B6
:105A70001D6300201D6300201D630020275F0020A0
:105A80001D6300201D6300201D6300201D63002096
:105A90001D6300201D6300201D630020775F002030
:105AA0001D6300201D6300201D6300201D63002076
:105AB0001D6300201D6300201D6300204160002045
:105AC0001D6300201D6300201D6300201D63002056
:105AD0001D6300201D6300201D630020376000202F
