S010000052544F5344656D6F2E7372656347
S315200000000000012089010020F9010020FB010020C9
S31520000010FD010020FF010020010200200000000059
S31520000020000000000000000000000000A13F0020AA
S315200000300502002000000000D141002021420020BE
S315200000400B0200200D0200200F02002011020020CA
S31520000050130200201502002017020020190200209A
S315200000601B0200201D02002091530020B5530020C2
S31520000070230200202502002027020020290200203A
S315200000802B0200202D0200202F020020310200200A
S3152000009033020020350200203702002039020020DA
S315200000A03B0200203D0200203F02002041020020AA
S315200000B0430200204502002047020020490200207A
S315200000C04B0200204D020020E14E0020F54E00207C
S315200000D0094F00201D4F0020314F0020454F0020A2
S315200000E05B0200205D0200205F02002061020020EA
S315200000F063020020650200206702002069020020BA
S315200001006B0200206D0200206F0200207102002089
S315200001107302002075020020770200207902002059
S315200001207B0200207D0200207F0200208102002029
S3152000013083020020850200208702002089020020F9
S315200001408B0200208D0200208F02002091020020C9
S315200001509302002095020020970200209902002099
S315200001609B0200209D0200209F020020A102002069
S31520000170A3020020A5020020A7020020A902002039
S31520000180AB020020AD02002049488047494800289C
S315200001900BD1494849494A4A884206D091421CBF58
S315200001A050F8043B41F8043BF8D146484649474AB3
S315200001B0884206D091421CBF50F8043B41F8043BCC
S315200001C0F8D143484349444A914218BF41F8040BA9
S315200001D0FAD100000000000000000000000000002E
S315200001E0DFF8F8000FF2030E00474FF000004FF043
S315200001F00001DFF8ECF0FEE7FEE7FEE7FEE7FEE7AC
S31520000200FEE7FEE7FEE7FEE7FEE7FEE7FEE7FEE7A0
S31520000210FEE7FEE7FEE7FEE7FEE7FEE7FEE7FEE790
S31520000220FEE7FEE7FEE7FEE7FEE7FEE7FEE7FEE780
S31520000230FEE7FEE7FEE7FEE7FEE7FEE7FEE7FEE770
S31520000240FEE7FEE7FEE7FEE7FEE7FEE7FEE7FEE760
S31520000250FEE7FEE7FEE7FEE7FEE7FEE7FEE7FEE750
S31520000260FEE7FEE7FEE7FEE7FEE7FEE7FEE7FEE740
S31520000270FEE7FEE7FEE7FEE7FEE7FEE7FEE7FEE730
S31520000280FEE7FEE7FEE7FEE7FEE7FEE7FEE7FEE720
S31520000290FEE7FEE7FEE7FEE7FEE7FEE7FEE7FEE710
S315200002A0FEE7FEE7FEE7FEE7FEE7FEE7FEE770472E
S315200002B0916B0020000000000000002000000020BC
S315200002C0F8720020F8720020F8720020587300207F
S315200002D0000000005873002058DE00209D6F00208B
S315200002E00D040020000000000000000000000000B7
S315200002F047F25833C2F200031A780AB9012018705F
S31520000300704700BF47F2F820C2F2000008B5036824
S315200003102BB140F20003C0F2000303B1984708BD99
S3152000032080B400AF4EF6FC53CEF200034EF6FC52DC
S31520000330CEF20002126842F080721A6041F2040383
S31520000340CEF200034FF000021A6041F20003CEF213
S31520000350000341F20002CEF20002126842F00102CE
S315200003601A60BD4680BC704780B483B000AF41F2AE
S315200003700403CEF200031B687B6047F25C33C2F2B3
S3152000038000031B687A689A420BD247F26033C2F2A6
S3152000039000031B6803F1010247F26033C2F2000337
S315200003A01A6047F25C33C2F200037A681A6047F299
S315200003B03C33C2F200031A6841F67F53C0F22C4345
S315200003C09A420ED87B684FEA53337B6047F26033FC
S315200003D0C2F200031B684FEAC3437A6813447B606A
S315200003E00DE07B684FEA93337B6047F26033C2F2BD
S315200003F000031B684FEA83437A6813447B607B685B
S31520000400184607F10C07BD4680BC704780B500AF83
S3152000041004F036FC4FF00003184680BD80B483B04C
S3152000042000AF4FF0A00383F31188BFF36F8FBFF3A4
S315200004304F8F7B60FEE700BF80B400AFBD4680BC17
S31520000440704700BF80B485B000AF786039604FF048
S31520000450A00383F31188BFF36F8FBFF34F8FFB6029
S31520000460FEE700BF80B592B004AFF860B9607A604D
S3152000047047F25423C2F200031B88BB864FF02803A1
S3152000048087F830304FF02A0387F82C304FF02C03B2
S3152000049087F828304FF0290387F824304FF02B03B4
S315200004A087F820304FF02D033B774FF0000387F875
S315200004B0363007F134034FF0000200924DF64040EB
S315200004C0C2F200004FF06A011A464FF0020305F00F
S315200004D097FB07F118034FF0000200924DF64040BB
S315200004E0C2F200004FF06A011A464FF0010305F0F0
S315200004F0F9FB4DF64040C2F200004FF0000105F036
S31520000500FBFC034687F8373097F8362097F83730C4
S31520000510134487F8363007F1280307F118020092B2
S315200005204FF0010201924FF0000202924DF6404038
S31520000530C2F200004FF06A011A464FF0010305F09F
S3152000054043FC4DF64040C2F200004FF0000105F09A
S31520000550D3FC034687F8373097F8362097F837309C
S31520000560134487F8363007F11C0307F11402009272
S315200005704FF0010201924FF0000202924DF64040E8
S31520000580C2F200004FF06A011A464FF0010305F04F
S315200005901BFC4DF64040C2F200004FF0000105F072
S315200005A0ABFC034687F8373097F8362097F8373074
S315200005B0134487F836303B7D4FEA03239AB23B7EBD
S315200005C042EA03039BB29AB27B681A807B681B8837
S315200005D0B3F5004F06D97B681B886FEA03039AB2EE
S315200005E07B681A8007F12C0307F1180200924FF05E
S315200005F0010201924FF0000202924DF64040C2F2F3
S3152000060000004FF06A011A464FF0010305F0DCFBAB
S315200006104DF64040C2F200004FF0000105F06CFCA0
S31520000620034687F8373097F8362097F83730134443
S3152000063087F8363007F1200307F1140200924FF0B5
S31520000640010201924FF0000202924DF64040C2F2A2
S3152000065000004FF06A011A464FF0010305F0B4FB83
S315200006604DF64040C2F200004FF0000105F044FC78
S31520000670034687F8373097F8362097F837301344F3
S3152000068087F836303B7D4FEA03239AB23B7E42EA17
S3152000069003039BB29AB2BB681A80BB681B88B3F56A
S315200006A0004F06D9BB681B886FEA03039AB2BB6862
S315200006B01A8007F1300307F1180200924FF0010269
S315200006C001924FF0000202924DF64040C2F2000025
S315200006D04FF06A011A464FF0010305F075FB4DF6FF
S315200006E04040C2F200004FF0000105F005FC034631
S315200006F087F8373097F8362097F83730134487F83D
S31520000700363007F1240307F1140200924FF001025C
S3152000071001924FF0000202924DF64040C2F20000D4
S315200007204FF06A011A464FF0010305F04DFB4DF6D6
S315200007304040C2F200004FF0000105F0DDFB034609
S3152000074087F8373097F8362097F83730134487F8EC
S3152000075036303B7D4FEA03239AB23B7E42EA0303BF
S315200007609BB29AB2FB681A80FB681B88B3F5004FD0
S3152000077006D9FB681B886FEA03039AB2FB681A80C6
S3152000078097F83730184607F13807BD4680BD00BFB9
S3152000079080B592B004AFF860B9607A6047F2502312
S315200007A0C2F200031B883B864FF0180387F82C30D3
S315200007B04FF01A0387F828304FF01C0387F82430AF
S315200007C04FF0190387F820304FF01B033B774FF08B
S315200007D01D033B764FF06A0387F835304FF0000350
S315200007E087F8363097F8352007F1300307F11401E2
S315200007F000914FF0010101914FF0000102914DF659
S315200008004040C2F2000011461A464FF0020305F09E
S31520000810DBFA4DF64040C2F200004FF0000105F031
S315200008206BFB034687F8373097F8362097F8373032
S31520000830134487F8363097F8352007F1240307F15B
S31520000840140100914FF0010101914FF00001029136
S315200008504DF64040C2F2000011461A464FF0010301
S3152000086005F0B2FA4DF64040C2F200004FF000010A
S3152000087005F042FB034687F8373097F8362097F87D
S315200008803730134487F8363097F8352007F11803A8
S3152000089007F1100100914FF0010101914FF0000185
S315200008A002914DF64040C2F2000011461A464FF022
S315200008B0010305F089FA4DF64040C2F200004FF0E0
S315200008C0000105F019FB034687F8373097F83620E4
S315200008D097F83730134487F836303B7C4FEA0323AA
S315200008E09AB23B7D42EA03039BB29AB2FB681A8016
S315200008F097F8352007F1280307F1140100914FF0EE
S31520000900010101914FF0000102914DF64040C2F2E3
S31520000910000011461A464FF0010305F055FA4DF630
S315200009204040C2F200004FF0000105F0E5FA034610
S3152000093087F8373097F8362097F83730134487F8FA
S31520000940363097F8352007F11C0307F11001009186
S315200009504FF0010101914FF0000102914DF6404008
S31520000960C2F2000011461A464FF0010305F02CFA98
S315200009704DF64040C2F200004FF0000105F0BCFAEF
S31520000980034687F8373097F8362097F837301344E0
S3152000099087F836303B7C4FEA03239AB23B7D42EA06
S315200009A003039BB29AB2BB681A8097F8352007F1E9
S315200009B02C0307F1140100914FF0010101914FF032
S315200009C0000102914DF64040C2F2000011461A463F
S315200009D04FF0010305F0F8F94DF64040C2F2000051
S315200009E04FF0000105F088FA034687F8373097F86C
S315200009F0362097F83730134487F8363097F8352065
S31520000A0007F1200307F1100100914FF00101019138
S31520000A104FF0000102914DF64040C2F2000011460F
S31520000A201A464FF0010305F0CFF94DF64040C2F2C9
S31520000A3000004FF0000105F05FFA034687F83730D3
S31520000A4097F8362097F83730134487F836303B7CB2
S31520000A504FEA03239AB23B7D42EA03039BB29AB242
S31520000A607B681A8097F83730184607F13807BD4655
S31520000A7080BD00BF80B58AB004AF78604FF0150303
S31520000A803B754FF016033B744FF06A03BB75BA7D76
S31520000A9007F1140307F10C0100914FF001010191B8
S31520000AA04FF0000102914DF64040C2F2000011467F
S31520000AB01A464FF0010305F087F94DF64040C2F281
S31520000AC000004FF0000105F017FA0346FB75BA7DCA
S31520000AD007F1100307F1080100914FF00101019180
S31520000AE04FF0000102914DF64040C2F2000011463F
S31520000AF01A464FF0010305F067F94DF64040C2F261
S31520000B0000004FF0000105F0F7F90346FB753B7B2B
S31520000B101A463B7A4FEA03239BB242EA03039BB26F
S31520000B209AB27B681A804FF00003184607F118071F
S31520000B30BD4680BD80B586B002AFB9601346024679
S31520000B40FA73FB714DF66433C2F200034FF00002D4
S31520000B501A7032E0FB79FA7B4FF0000100914DF2DA
S31520000B60AC60C2F200001146BA6805F049F84DF2B1
S31520000B70AC60C2F200004FF0000105F0BDF903465B
S31520000B801A464DF66633C2F200031A704DF66633E6
S31520000B90C2F200031B78002B02D14FF0000318E0AD
S31520000BA04DF66433C2F200031B7803F10103DAB277
S31520000BB04DF66433C2F200031A704DF66433C2F266
S31520000BC000031B78092BC5D94DF66433C2F2000306
S31520000BD01B78184607F11007BD4680BD80B586B044
S31520000BE002AFB96013460246FA73FB714DF66433C1
S31520000BF0C2F200034FF000021A7032E0FB79FA7B52
S31520000C004FF0000100914DF2AC60C2F20000114697
S31520000C10BA6805F067F84DF2AC60C2F200004FF0FA
S31520000C20000105F069F903461A464DF66633C2F20D
S31520000C3000031A704DF66633C2F200031B78002BB0
S31520000C4002D14FF0000318E04DF66433C2F20003E0
S31520000C501B7803F10103DAB24DF66433C2F20003C6
S31520000C601A704DF66433C2F200031B78092BC5D9DE
S31520000C704DF66433C2F200031B78184607F11007BD
S31520000C80BD4680BD80B582B000AF0B463A600246B5
S31520000C90FA71BB71FA7907F10603104619464FF02F
S31520000CA00102FFF747FF0346092B02D94FF0010344
S31520000CB00EE0FB79184639684FF00202FFF78EFFE7
S31520000CC00346092B02D94FF0010301E04FF0000340
S31520000CD0184607F10807BD4680BD00BF80B582B023
S31520000CE000AF0B463A600246FA71BB714DF660338F
S31520000CF0C2F200034FF000021A704DF66033C2F2C2
S31520000D0000034FF000025A704DF66233C2F2000320
S31520000D104FF000021A80BB794FEA4303DBB2FA791F
S31520000D20104619464DF66032C2F20002FFF7AAFFBE
S31520000D300346002B1AD14DF66033C2F200031B780E
S31520000D404FEA03239AB24DF66033C2F200035B7872
S31520000D5042EA03039BB29AB24DF66233C2F2000313
S31520000D601A803B684FF000021A700AE03B684FF089
S31520000D7001021A704DF66233C2F200034FF00002F0
S31520000D801A804DF66233C2F200031B88184607F11B
S31520000D900807BD4680BD00BF80B582B000AF0B46B8
S31520000DA03A600246FA71BB714DF66033C2F2000317
S31520000DB04FF000021A704DF66033C2F200034FF076
S31520000DC000025A704DF66233C2F200034FF0000261
S31520000DD01A80BB794FEA4303DBB203F1FF33DBB260
S31520000DE0FA79104619464DF66032C2F20002FFF734
S31520000DF049FF0346002B1AD14DF66033C2F2000399
S31520000E001B784FEA03239AB24DF66033C2F20003F1
S31520000E105B7842EA03039BB29AB24DF66233C2F282
S31520000E2000031A803B684FF000021A700AE03B6804
S31520000E304FF001021A704DF66233C2F200034FF0F2
S31520000E4000021A804DF66233C2F200031B88184650
S31520000E5007F10807BD4680BD80B58CB004AFF860A9
S31520000E607B600B46FB721346BB72BB7A3B753B7DA0
S31520000E7043F00803DBB23B753B7D4FEA0313DBB23D
S31520000E803B75FA7A07F1140307F1180100914FF028
S31520000E90020101914FF000010291F86811461A46AD
S31520000EA04FF0010304F090FFF8684FF0000105F0C1
S31520000EB023F803467B777B7F002B04D07B684FF09B
S31520000EC001021A7012E03B7E4FEA03239AB27B7E20
S31520000ED042EA03039BB2FB83FB8B4FEA03534FEAA1
S31520000EE01353FB837B684FF000021A70FB8B184666
S31520000EF007F12007BD4680BD80B584B000AF03460C
S31520000F003960FB71FB79002B0ED13B68BB60BB6857
S31520000F105968BB689A68BB681B7B084611464FF028
S31520000F20880204F0F7FD30E0FB790A2B0ED13B68EE
S31520000F30FB60FB685968FB689A68FB681B7B084660
S31520000F4011464FF0880204F0E5FD1EE0FB790B2BDD
S31520000F501BD14DF64040C2F2000045F20001C5F219
S31520000F6000014FF088024FF0000304F0D3FD4DF24C
S31520000F70AC60C2F2000042F20001C5F200014FF05F
S31520000F8088024FF0000304F0C5FD07F11007BD46A7
S31520000F9080BD00BF80B483B000AF78607B6803F16A
S31520000FA008031A467B685A607B684FF0FF329A60C6
S31520000FB07B6803F108031A467B68DA607B6803F1D5
S31520000FC008031A467B681A617B684FF000021A6094
S31520000FD007F10C07BD4680BC704700BF80B483B0C4
S31520000FE000AF78607B684FF000021A6107F10C07AA
S31520000FF0BD4680BC704700BF80B485B000AF786026
S3152000100039607B685B68FB603B68FA685A60FB68FE
S315200010109A683B689A60FB689B683A685A60FB68E6
S315200010203A689A603B687A681A617B681B6803F1A4
S3152000103001027B681A6007F11407BD4680BC704721
S3152000104080B485B000AF786039603B681B68FB6070
S31520001050FB68B3F1FF3F03D17B681B69BB600DE0E2
S315200010607B6803F10803BB6002E0BB685B68BB607A
S31520001070BB685B681A68FB689A42F6D9BB685A68EF
S315200010803B685A603B685B683A689A603B68BA6816
S315200010909A60BB683A685A603B687A681A617B68CE
S315200010A01B6803F101027B681A6007F11407BD462D
S315200010B080BC704780B485B000AF78607B681B69C0
S315200010C0FB607B685B687A6892689A607B689B683D
S315200010D07A6852685A60FB685A687B689A4203D1DC
S315200010E07B689A68FB685A607B684FF000021A6139
S315200010F0FB681B6803F1FF32FB681A60FB681B68FC
S31520001100184607F11407BD4680BC704780B584B0E9
S3152000111000AF786039607B68BB60BB68002B09D163
S315200011204FF0A00383F31188BFF36F8FBFF34F8F68
S31520001130FB60FEE702F0E2FFBB681A68BB68DB6B68
S31520001140B968096C01FB03F31A44BB685A60BB6893
S315200011504FF000029A63BB681A68BB689A60BB6846
S315200011601A68BB68DB6B03F1FF33B968096C01FBB6
S3152000117003F31A44BB68DA60BB684FF0FF3283F88A
S315200011804420BB684FF0FF3283F845203B68002B94
S3152000119018D1BB681B69002B21D0BB6803F1100353
S315200011A0184601F00FFB0346002B1AD04EF60453C7
S315200011B0CEF200034FF080521A60BFF34F8FBFF379
S315200011C06F8F0FE0BB6803F110031846FFF7E2FEAE
S315200011D0BB6803F124031846FFF7DCFE02E000BFDC
S315200011E000E000BF02F0C2FF4FF00103184607F1EE
S315200011F01007BD4680BD00BF80B58AB002AFF8603B
S31520001200B9601346FB71FB68002B09D14FF0A00390
S3152000121083F31188BFF36F8FBFF34F8FFB61FEE718
S31520001220BB68002B03D14FF000037B6104E0FB6811
S31520001230BA6802FB03F37B617B6903F1500318460E
S3152000124002F00EFC03463B613B69002B0BD03B6949
S3152000125003F15003BB61FB793A690092F868B968DB
S31520001260BA6900F007F83B69184607F12007BD4622
S3152000127080BD00BF80B584B000AFF860B9607A60E9
S31520001280FB70BB68002B03D1BA69BB691A6002E008
S315200012907A68BB691A60BB69FA68DA63BB69BA689F
S315200012A01A64B8694FF00101FFF730FFBB69FA787D
S315200012B083F84C2007F11007BD4680BD80B582B06B
S315200012C000AF78607B68002B14D07B684FF000025B
S315200012D05A607B684FF000021A607B684FF000026C
S315200012E0DA6078684FF000014FF000024FF00003FB
S315200012F000F020F807F10807BD4680BD80B586B00E
S3152000130000AF0346FB714FF001033B614FF0000332
S315200013107B61FB79386979691A46FFF76DFF0346C9
S31520001320FB60F868FFF7CAFFFB68184607F1180745
S31520001330BD4680BD80B58EB000AFF860B9607A60DA
S315200013403B604FF00003FB61FB687B627B6A002BEE
S3152000135009D14FF0A00383F31188BFF36F8FBFF33A
S315200013604F8FBB62FEE7BB68002B03D17B6A1B6CE9
S31520001370002B02D14FF0010301E04FF00003002BB8
S3152000138009D14FF0A00383F31188BFF36F8FBFF30A
S315200013904F8FFB62FEE73B68022B03D17B6ADB6B38
S315200013A0012B02D14FF0010301E04FF00003002B87
S315200013B009D14FF0A00383F31188BFF36F8FBFF3DA
S315200013C04F8F3B63FEE701F005FC0346002B02D15D
S315200013D07B68002B02D14FF0010301E04FF00003A0
S315200013E0002B0AD14FF0A00383F31188BFF36F8F30
S315200013F0BFF34F8F7B63FEE700BF02F07FFE7B6A61
S315200014009A6B7B6ADB6B9A4202D33B68022B34D100
S31520001410786AB9683A6800F07BFA03463B627B6AD1
S315200014205B6A002B14D07B6A03F12403184601F073
S31520001430C9F90346002B1AD04EF60453CEF2000308
S315200014404FF080521A60BFF34F8FBFF36F8F0FE0BC
S315200014503B6A002B0CD04EF60453CEF200034FF01D
S3152000146080521A60BFF34F8FBFF36F8F00E000BF2B
S3152000147002F07CFE4FF001036FE07B68002B04D165
S3152000148002F074FE4FF0000367E0FB69002B07D1E2
S3152000149007F11403184601F00DFA4FF00103FB6122
S315200014A002F064FE00F06EFE02F028FE7B6A93F8DE
S315200014B04430DBB25BB2B3F1FF3F04D17B6A4FF01D
S315200014C0000283F844207B6A93F84530DBB25BB296
S315200014D0B3F1FF3F04D17B6A4FF0000283F8452029
S315200014E002F044FE07F1140207F1040310461946E0
S315200014F001F004FA0346002B28D1786A00F018FB85
S315200015000346002B1CD07B6A03F110027B68104631
S31520001510194601F005F9786A00F09AFA00F044FEBF
S315200015200346002B7FF468AF4EF60453CEF2000339
S315200015304FF080521A60BFF34F8FBFF36F8F5CE777
S31520001540786A00F085FA00F02FFE56E7786A00F0F8
S315200015507FFA00F029FE4FF00003184607F13807FE
S31520001560BD4680BD80B58EB000AFF860B9607A60A8
S315200015703B60FB68BB61BB69002B09D14FF0A00320
S3152000158083F31188BFF36F8FBFF34F8F3B62FEE764
S31520001590BB68002B03D1BB691B6C002B02D14FF01B
S315200015A0010301E04FF00003002B09D14FF0A00307
S315200015B083F31188BFF36F8FBFF34F8F7B62FEE7F4
S315200015C03B68022B03D1BB69DB6B012B02D14FF0A9
S315200015D0010301E04FF00003002B09D14FF0A003D7
S315200015E083F31188BFF36F8FBFF34F8FBB62FEE784
S315200015F002F058FEEFF311824FF0A00383F3118817
S31520001600BFF36F8FBFF34F8F3A63FB623B6B7B61F8
S31520001610BB699A6BBB69DB6B9A4202D33B68022B90
S3152000162034D1BB6993F84530FB77B869B9683A6815
S3152000163000F06EF997F91F30B3F1FF3F14D1BB6963
S315200016405B6A002B19D0BB6903F12403184601F00D
S31520001650B9F80346002B12D07B68002B11D07B688B
S315200016604FF001021A600DE0FB7F03F10103DBB2AC
S315200016701A46BB6983F8452004E000BF02E000BF9C
S3152000168000E000BF4FF001033B6102E04FF0000392
S315200016903B617B697B637B6B83F311883B691846CF
S315200016A007F13807BD4680BD80B58EB000AFF86023
S315200016B0B9607A603B604FF00003FB61FB687B6298
S315200016C07B6A002B09D14FF0A00383F31188BFF367
S315200016D06F8FBFF34F8FFB62FEE7BB68002B03D1F2
S315200016E07B6A1B6C002B02D14FF0010301E04FF007
S315200016F00003002B09D14FF0A00383F31188BFF319
S315200017006F8FBFF34F8F3B63FEE701F063FA03460B
S31520001710002B02D17B68002B02D14FF0010301E0A0
S315200017204FF00003002B0CD14FF0A00383F3118858
S31520001730BFF36F8FBFF34F8F7B63FEE700BF00E0E1
S3152000174000BF02F0DBFC7B6A9B6BBB62BB6A002B93
S3152000175055D07B6ADB683B62786AB96800F050F93D
S315200017603B68002B27D1BB6A03F1FF327B6A9A6361
S315200017707B6A1B68002B05D101F09CFB03461A46A9
S315200017807B6A5A607B6A1B69002B30D07B6A03F127
S315200017901003184601F016F80346002B29D04EF602
S315200017A00453CEF200034FF080521A60BFF34F8FDE
S315200017B0BFF36F8F1EE07B6A3A6ADA607B6A5B6AE8
S315200017C0002B17D07B6A03F12403184600F0FAFF9A
S315200017D00346002B0ED04EF60453CEF200034FF0F4
S315200017E080521A60BFF34F8FBFF36F8F02E000BFA6
S315200017F000E000BF02F0BAFC4FF0010383E07B68F3
S31520001800002B04D102F0B2FC4FF000037BE0FB6911
S31520001810002B07D107F11403184601F04BF84FF0BF
S315200018200103FB6102F0A2FC00F0ACFC02F066FCB6
S315200018307B6A93F84430DBB25BB2B3F1FF3F04D14D
S315200018407B6A4FF0000283F844207B6A93F8453088
S31520001850DBB25BB2B3F1FF3F04D17B6A4FF00002EB
S3152000186083F8452002F082FC07F1140207F10403F5
S315200018701046194601F042F80346002B35D1786A06
S3152000188000F03CF90346002B29D07B6A1B68002B0D
S3152000189008D102F033FC7B6A5B68184601F0BEF97A
S315200018A002F064FC7B6A03F124027B681046194629
S315200018B000F036FF786A00F0CBF800F075FC03469E
S315200018C0002B7FF43BAF4EF60453CEF200034FF0CD
S315200018D080521A60BFF34F8FBFF36F8F31E7786A5C
S315200018E000F0B6F800F060FC2BE7786A00F0B0F85C
S315200018F000F05AFC786A00F001F90346002B3FF409
S315200019001FAF4FF00003184607F13807BD4680BDCC
S3152000191080B586B000AFF860B9607A604FF00003FA
S315200019203B61FB689B6B7B61FB681B6C002B0FD1BB
S31520001930FB681B68002B55D1FB685B68184601F0D5
S3152000194013FA03463B61FB684FF000025A604CE0F5
S315200019507B68002B1AD1FB689A68FB681B6C1046C3
S31520001960B9681A4605F042FBFB689A68FB681B6C4F
S315200019701A44FB689A60FB689A68FB685B689A421F
S3152000198032D3FB681A68FB689A602EE0FB68DA6837
S31520001990FB681B6C1046B9681A4605F027FBFB68E6
S315200019A0DA68FB681B6CC3F100031A44FB68DA6033
S315200019B0FB68DA68FB681B689A4208D2FB685A689B
S315200019C0FB681B6CC3F100031A44FB68DA607B6872
S315200019D0022B0AD17B69002B07D07B6903F1FF33E9
S315200019E07B6102E000BF00E000BF7B6903F10102DA
S315200019F0FB689A633B69184607F11807BD4680BD08
S31520001A0080B582B000AF786039607B681B6C002B94
S31520001A1019D07B68DA687B681B6C1A447B68DA60AD
S31520001A207B68DA687B685B689A4203D37B681A68AE
S31520001A307B68DA607B68DA687B681B6C38681146DD
S31520001A401A4605F0D3FA07F10807BD4680BD00BF48
S31520001A5080B584B000AF786002F050FB7B6893F8C5
S31520001A604530BB7312E07B685B6A002B13D07B6822
S31520001A7003F12403184600F0A5FE0346002B01D0EF
S31520001A8000F0A4FFBB7B03F1FF33BB7397F90E3045
S31520001A90002BE8DC00E000BF7B684FF0FF3283F8C4
S31520001AA0452002F063FB02F029FB7B6893F8443063
S31520001AB0FB7312E07B681B69002B13D07B6803F154
S31520001AC01003184600F07EFE0346002B01D000F0DE
S31520001AD07DFFFB7B03F1FF33FB7397F90F30002B60
S31520001AE0E8DC00E000BF7B684FF0FF3283F844203B
S31520001AF002F03CFB07F11007BD4680BD80B584B0DF
S31520001B0000AF786002F0FAFA7B689B6B002B03D15A
S31520001B104FF00103FB6002E04FF00003FB6002F090
S31520001B2025FBFB68184607F11007BD4680BD00BFA0
S31520001B3080B584B000AF786002F0E0FA7B689A6BDB
S31520001B407B68DB6B9A4203D14FF00103FB6002E016
S31520001B504FF00003FB6002F009FBFB68184607F113
S31520001B601007BD4680BD00BF80B586B000AFF860C7
S31520001B70B9607A60FB687B6102F0C0FA7B6993F8F2
S31520001B804430DBB25BB2B3F1FF3F04D17B694FF047
S31520001B90000283F844207B6993F84530DBB25BB2C0
S31520001BA0B3F1FF3F04D17B694FF0000283F8452053
S31520001BB002F0DCFA7B699B6B002B07D17B6903F172
S31520001BC024031846B9687A6800F0D0FD7869FFF7D3
S31520001BD03FFF07F11807BD4680BD00BF80B58CB01A
S31520001BE004AFF860B9603B601346FB80FB884FEA80
S31520001BF08303184601F034FF0346FB61FB69002B83
S31520001C0010D04FF05C0001F02BFF03467B617B690F
S31520001C10002B03D07B69FA691A6306E0F86902F0A3
S31520001C201BF802E04FF000037B617B69002B16D086
S31520001C30FB88BA6A0092FA6A01927A6902924FF098
S31520001C4000020392F868B9681A463B6800F010F85B
S31520001C50786900F0A3F84FF00103BB6102E04FF072
S31520001C60FF33BB61BB69184607F12007BD4680BD1F
S31520001C7080B588B000AFF860B9607A603B603B6B96
S31520001C801A6B7B684FEA830310464FF0A5011A466C
S31520001C9005F074FA3B6B1A6B7B6803F1FF334FEA4E
S31520001CA0830313447B617B6923F007037B617B6994
S31520001CB003F00703002B09D04FF0A00383F311880C
S31520001CC0BFF36F8FBFF34F8FFB61FEE74FF000032B
S31520001CD0BB6112E0B969BA68BB6913441A783B6BD9
S31520001CE00B4483F83420BA68BB6913441B78002B55
S31520001CF007D0BB6903F10103BB61BB69092BE9D995
S31520001D0000E000BF3B6B4FF0000283F83D20BB6A2A
S31520001D10042B02D94FF00403BB623B6BBA6ADA622A
S31520001D203B6BBA6A9A643B6B4FF00002DA643B6BFA
S31520001D3003F104031846FFF751F93B6B03F118032F
S31520001D401846FFF74BF93B6B3A6B1A61BB6AC3F136
S31520001D5005023B6B9A613B6B3A6B5A623B6B4FF0C9
S31520001D6000021A653B6B4FF000025A653B6B4FF041
S31520001D70000283F858207869F9683A6802F0B8F8C2
S31520001D8003461A463B6B1A60FB6A002B02D0FB6A9D
S31520001D903A6B1A6007F12007BD4680BD80B582B038
S31520001DA000AF786002F0AAF947F23C43C2F2000382
S31520001DB01B6803F1010247F23C43C2F200031A609A
S31520001DC047F26433C2F200031B68002B0FD147F29F
S31520001DD06433C2F200037A681A6047F23C43C2F2C7
S31520001DE000031B68012B1AD100F018FE18E047F2F9
S31520001DF04843C2F200031B68002B11D147F264331B
S31520001E00C2F200031B68DA6A7B68DB6A9A4207D84B
S31520001E1047F26433C2F200037A681A6000E000BF1A
S31520001E2047F25843C2F200031B6803F1010247F24E
S31520001E305843C2F200031A6047F25843C2F2000325
S31520001E401A687B681A647B68DB6A4FF0010202FA23
S31520001E5003F247F24443C2F200031B6842EA03023C
S31520001E6047F24443C2F200031A607B68DA6A1346DB
S31520001E704FEA830313444FEA83031A4647F2683333
S31520001E80C2F200031A447B6803F104031046194684
S31520001E90FFF7B2F802F06AF947F24843C2F20003AC
S31520001EA01B68002B14D047F26433C2F200031B6870
S31520001EB0DA6A7B68DB6A9A420AD24EF60453CEF27D
S31520001EC000034FF080521A60BFF34F8FBFF36F8F1E
S31520001ED007F10807BD4680BD80B584B000AF7860A5
S31520001EE002F00CF97B68002B05D147F26433C2F26D
S31520001EF000031B6800E07B68BB60BB68DB6AFB6095
S31520001F0002F034F9FB68184607F11007BD4680BD7C
S31520001F1080B588B000AF786039604FF00003BB61B0
S31520001F203B68042B09D94FF0A00383F31188BFF334
S31520001F306F8FBFF34F8FFB61FEE73B68042B02D9FF
S31520001F404FF004033B6002F0D9F87B68002B05D1E3
S31520001F5047F26433C2F200031B6800E07B68FB6033
S31520001F60FB689B6C3B613A693B689A4200F0A9800A
S31520001F703A683B699A4214D947F26433C2F20003A5
S31520001F801B68FA689A4218D047F26433C2F20003FB
S31520001F901B68DA6A3B689A4211D84FF00103BB618D
S31520001FA00EE047F26433C2F200031B68FA689A42D5
S31520001FB006D14FF00103BB6102E000BF00E000BF85
S31520001FC0FB68DB6A7B61FB689A6CFB68DB6A9A427A
S31520001FD002D1FB683A68DA62FB683A689A64FB6861
S31520001FE09B69002B04DB3B68C3F10502FB689A6101
S31520001FF0FB6859697A6913464FEA830313444FEA0B
S3152000200083031A4647F26833C2F200031344994207
S3152000201002D14FF0010301E04FF00003002B42D024
S31520002020FB6803F104031846FFF744F80346002B28
S3152000203012D17B694FF0010202FA03F36FEA030221
S3152000204047F24443C2F200031B6802EA030247F246
S315200020504443C2F200031A60FB68DB6A4FF00102B8
S3152000206002FA03F247F24443C2F200031B6842EA33
S31520002070030247F24443C2F200031A60FB68DA6A9D
S3152000208013464FEA830313444FEA83031A4647F263
S315200020906833C2F200031A44FB6803F104031046B6
S315200020A01946FEF7A9FFBB69002B0AD04EF604534A
S315200020B0CEF200034FF080521A60BFF34F8FBFF36A
S315200020C06F8F02F053F807F12007BD4680BD00BF91
S315200020D080B586B002AF4FF00003009347F260430D
S315200020E0C2F20003019342F6E510C2F2000047F265
S315200020F05821C2F200014FF050024FF00003FFF7C3
S315200021006DFD03467B607B68012B03D101F0F4F85B
S3152000211003467B607B68012B22D14FF0A00383F31B
S315200021201188BFF36F8FBFF34F8FBB6047F25C43BD
S31520002130C2F200034FF0FF321A6047F24843C2F260
S3152000214000034FF001021A6047F24043C2F2000337
S315200021504FF000021A60FEF7E3F801F049FF0DE0A8
S315200021607B68B3F1FF3F09D14FF0A00383F31188B9
S31520002170BFF36F8FBFF34F8FFB60FEE707F11007AA
S31520002180BD4680BD80B400AF47F26443C2F200036F
S315200021901B6803F1010247F26443C2F200031A608E
S315200021A0BD4680BC704700BF80B584B000AF4FF0FD
S315200021B000033B604FF000037B6047F26443C2F2AA
S315200021C000031B68002B09D14FF0A00383F311886D
S315200021D0BFF36F8FBFF34F8FFB60FEE701F08EFFDB
S315200021E047F26443C2F200031B6803F1FF3247F251
S315200021F06443C2F200031A6047F26443C2F200034A
S315200022001B68002B40F0988047F23C43C2F2000343
S315200022101B68002B00F090804AE047F2FC33C2F2A4
S315200022200003DB68DB683B603B6803F11803184654
S31520002230FEF740FF3B6803F104031846FEF73AFF1A
S315200022403B68DB6A4FF0010202FA03F247F244438D
S31520002250C2F200031B6842EA030247F24443C2F279
S3152000226000031A603B68DA6A13464FEA8303134475
S315200022704FEA83031A4647F26833C2F200031A4430
S315200022803B6803F1040310461946FEF7B5FE3B688A
S31520002290DA6A47F26433C2F200031B68DB6A9A42A9
S315200022A006D347F25043C2F200034FF001021A60F0
S315200022B047F2FC33C2F200031B68002BADD13B680A
S315200022C0002B01D000F058FC47F24C43C2F2000329
S315200022D01B68BB60BB68002B19D000F045F803468D
S315200022E0002B06D047F25043C2F200034FF0010202
S315200022F01A60BB6803F1FF33BB60BB68002BECD1CF
S3152000230047F24C43C2F200034FF000021A6047F234
S315200023105043C2F200031B68002B0DD04FF001037F
S315200023207B604EF60453CEF200034FF080521A60C3
S31520002330BFF34F8FBFF36F8F01F018FF7B681846EE
S3152000234007F11007BD4680BD80B483B000AF47F2C9
S315200023504043C2F200031B687B607B68184607F186
S315200023600C07BD4680BC704780B586B000AF4FF0E5
S315200023700003BB6047F26443C2F200031B68002BD4
S3152000238040F0DC8047F24043C2F200031B6803F1B1
S315200023900103FB6047F24043C2F20003FA681A6069
S315200023A0FB68002B35D147F2F433C2F200031B68D9
S315200023B01B68002B09D04FF0A00383F31188BFF3CD
S315200023C06F8FBFF34F8F7B61FEE747F2F433C2F284
S315200023D000031B683B6147F2F833C2F200031A6818
S315200023E047F2F433C2F200031A6047F2F833C2F21E
S315200023F000033A691A6047F25443C2F200031B688D
S3152000240003F1010247F25443C2F200031A6000F0BE
S31520002410B3FB47F25C43C2F200031B68FA689A4298
S3152000242073D300E000BF47F2F433C2F200031B6807
S315200024301B68002B02D14FF0010301E04FF000038F
S31520002440002B07D047F25C43C2F200034FF0FF3265
S315200024501A605AE047F2F433C2F200031B68DB68C5
S31520002460DB683B603B685B687B60FA687B689A4206
S3152000247006D247F25C43C2F200037A681A6044E04F
S315200024803B6803F104031846FEF714FE3B689B6A7B
S31520002490002B05D03B6803F118031846FEF70AFE09
S315200024A03B68DB6A4FF0010202FA03F247F244432B
S315200024B0C2F200031B6842EA030247F24443C2F217
S315200024C000031A603B68DA6A13464FEA8303134413
S315200024D04FEA83031A4647F26833C2F200031A44CE
S315200024E03B6803F1040310461946FEF785FD3B6859
S315200024F0DA6A47F26433C2F200031B68DB6A9A4247
S3152000250090D34FF00103BB608DE747F26433C2F2EC
S3152000251000031B68DA6A13464FEA830313444FEA23
S3152000252083031A4647F26833C2F2000313441B683A
S31520002530012B10D94FF00103BB600DE047F24C434D
S31520002540C2F200031B6803F1010247F24C43C2F2B8
S3152000255000031A6000E000BF47F25043C2F20003B6
S315200025601B68002B02D04FF00103BB60BB681846E6
S3152000257007F11807BD4680BD80B588B000AF47F289
S315200025806443C2F200031B68002B07D047F2504376
S31520002590C2F200034FF001021A60BCE047F250433A
S315200025A0C2F200034FF000021A60FDF7DDFE02467C
S315200025B047F26C43C2F200031A6047F26C43C2F240
S315200025C000031A6847F26843C2F200031B689A4266
S315200025D013D947F26433C2F200031A68116D47F229
S315200025E06C43C2F20003186847F26843C2F2000344
S315200025F01B68C3EB00030B44136547F26C43C2F21E
S3152000260000031A6847F26843C2F200031A6047F2D1
S315200026106433C2F200031B681B6B7B604FF0A5334B
S31520002620BB607B681A68BB689A4214D17B6803F149
S3152000263004031A68BB689A420DD17B6803F108032C
S315200026401A68BB689A4206D17B6803F10C031A68A4
S31520002650BB689A420FD047F26433C2F200031A686D
S3152000266047F26433C2F200031B6803F134031046B9
S315200026701946FDF7E7FE47F24443C2F200031B6802
S315200026807B617B69B3FA83F3FB76FB7EC3F11F0381
S31520002690FB60FA6813464FEA830313444FEA830329
S315200026A01A4647F26833C2F2000313441B68002B14
S315200026B009D14FF0A00383F31188BFF36F8FBFF3C7
S315200026C04F8FFB61FEE7FA6813464FEA83031344F4
S315200026D04FEA83031A4647F26833C2F200031344D3
S315200026E03B613B695B685A683B695A603B695A683B
S315200026F03B6903F108039A4204D13B695B685A6837
S315200027003B695A603B695B68DB681A4647F264336B
S31520002710C2F200031A6007F12007BD4680BD00BF44
S3152000272080B584B000AF786039607B68002B09D112
S315200027304FF0A00383F31188BFF36F8FBFF34F8F42
S31520002740FB60FEE747F26433C2F200031B6803F125
S31520002750180378681946FEF773FC38684FF00101B4
S3152000276000F042FD07F11007BD4680BD80B586B05A
S3152000277000AFF860B9607A60FB68002B09D14FF092
S31520002780A00383F31188BFF36F8FBFF34F8F7B6155
S31520002790FEE747F26433C2F200031B6803F1180315
S315200027A0F8681946FEF728FC7B68002B02D04FF00C
S315200027B0FF33BB60B868796800F016FD07F118078B
S315200027C0BD4680BD80B586B000AF78607B68DB688B
S315200027D0DB68FB60FB68002B09D14FF0A00383F375
S315200027E01188BFF36F8FBFF34F8F7B61FEE7FB68C6
S315200027F003F118031846FEF75DFC47F26443C2F264
S3152000280000031B68002B2DD1FB6803F10403184637
S31520002810FEF750FCFB68DB6A4FF0010202FA03F276
S3152000282047F24443C2F200031B6842EA030247F21E
S315200028304443C2F200031A60FB68DA6A13464FEA81
S31520002840830313444FEA83031A4647F26833C2F2DE
S3152000285000031A44FB6803F1040310461946FEF7E9
S31520002860CBFB09E0FB6803F1180347F2FC30C2F208
S3152000287000001946FEF7C0FBFB68DA6A47F26433AC
S31520002880C2F200031B68DB6A9A420AD94FF00103A1
S315200028903B6147F25043C2F200034FF001021A6037
S315200028A002E04FF000033B613B69184607F1180729
S315200028B0BD4680BD80B485B000AF78607B68002BB4
S315200028C009D14FF0A00383F31188BFF36F8FBFF3B5
S315200028D04F8FFB60FEE747F25443C2F200031A68AB
S315200028E07B681A6047F24043C2F200031A687B688D
S315200028F05A6007F11407BD4680BC704780B586B084
S3152000290000AF786039607B68002B09D14FF0A003B7
S3152000291083F31188BFF36F8FBFF34F8F3B61FEE7C1
S315200029203B68002B09D14FF0A00383F31188BFF336
S315200029306F8FBFF34F8F7B61FEE701F0DFFB47F21E
S315200029404043C2F200031B68FB603B681B68B3F17F
S31520002950FF3F03D14FF00003BB602EE07B681A686F
S3152000296047F25443C2F200031B689A4208D07B68A0
S315200029705A68FB689A4203D84FF00103BB601CE0FB
S315200029807B685B68FA68C3EB02023B681B689A4265
S3152000299010D23B681A687B685968FB68C3EB010351
S315200029A01A443B681A607868FFF784FF4FF00003EB
S315200029B0BB6002E04FF00103BB6001F0D7FBBB68B0
S315200029C0184607F11807BD4680BD00BF80B400AF8A
S315200029D047F25043C2F200034FF001021A60BD468F
S315200029E080BC704780B582B000AF786000F068F890
S315200029F047F26833C2F200031B68012B0AD94EF650
S31520002A000453CEF200034FF080521A60BFF34F8F6B
S31520002A10BFF36F8FFDF710FDE8E700BF80B582B0EA
S31520002A2000AF4FF000037B6013E07A6813464FEA4D
S31520002A30830313444FEA83031A4647F26833C2F2EC
S31520002A40000313441846FEF7A5FA7B6803F1010339
S31520002A507B607B68042BE8D947F2CC30C2F20000B9
S31520002A60FEF798FA47F2E030C2F20000FEF792FA3B
S31520002A7047F2FC30C2F20000FEF78CFA47F2104013
S31520002A80C2F20000FEF786FA47F22840C2F20000A2
S31520002A90FEF780FA47F2F433C2F2000347F2CC3253
S31520002AA0C2F200021A6047F2F833C2F2000347F27C
S31520002AB0E032C2F200021A6007F10807BD4680BD67
S31520002AC080B582B000AF3CE0FFF75CFB47F21043D5
S31520002AD0C2F200031B68002B14BF002301233B60B6
S31520002AE0FFF762FB3B68002B2BD101F007FB47F277
S31520002AF01043C2F20003DB68DB687B607B6803F16E
S31520002B0004031846FEF7D6FA47F23C43C2F2000306
S31520002B101B6803F1FF3247F23C43C2F200031A60FE
S31520002B2047F22443C2F200031B6803F1FF3247F247
S31520002B302443C2F200031A6001F018FB786800F003
S31520002B400BF847F22443C2F200031B68002BBBD1CB
S31520002B5007F10807BD4680BD80B582B000AF78601A
S31520002B607B681B6B184601F077F8786801F074F8DB
S31520002B7007F10807BD4680BD80B483B000AF47F299
S31520002B80F433C2F200031B681B68002B02D14FF0FE
S31520002B90010301E04FF00003002B07D047F25C430E
S31520002BA0C2F200034FF0FF321A600EE047F2F43310
S31520002BB0C2F200031B68DB68DB687B607B685A68AF
S31520002BC047F25C43C2F200031A6007F10C07BD46C8
S31520002BD080BC704780B483B000AF47F24843C2F24E
S31520002BE000031B68002B03D14FF001037B600DE02F
S31520002BF047F26443C2F200031B68002B03D14FF057
S31520002C0002037B6002E04FF000037B607B6818467E
S31520002C1007F10C07BD4680BC704700BF80B584B065
S31520002C2000AF78607B68FB607B68002B00F09880A3
S31520002C30FB68DA6A47F26433C2F200031B68DB6A78
S31520002C409A4280F08D80FB689B69002B09DB47F256
S31520002C506433C2F200031B68DB6AC3F10502FB681A
S31520002C609A61FB685969FB68DA6A13464FEA83035F
S31520002C7013444FEA83031A4647F26833C2F200032D
S31520002C801344994202D14FF0010301E04FF00003B3
S31520002C90002B5DD0FB6803F104031846FEF70AFA01
S31520002CA00346002B24D1FB68DA6A13464FEA8303D6
S31520002CB013444FEA83031A4647F26833C2F20003ED
S31520002CC013441B68002B13D1FB68DB6A4FF001020B
S31520002CD002FA03F36FEA030247F24443C2F2000307
S31520002CE01B6802EA030247F24443C2F200031A6059
S31520002CF047F26433C2F200031B68DA6AFB68DA62C1
S31520002D00FB68DB6A4FF0010202FA03F247F2444302
S31520002D10C2F200031B6842EA030247F24443C2F2AE
S31520002D2000031A60FB68DA6A13464FEA83031344EA
S31520002D304FEA83031A4647F26833C2F200031A4465
S31520002D40FB6803F1040310461946FEF755F907E020
S31520002D5047F26433C2F200031B68DA6AFB68DA6260
S31520002D6007F11007BD4680BD80B586B000AF7860FC
S31520002D707B68BB604FF00003FB607B68002B00F094
S31520002D80928047F26433C2F200031B68BA689A4203
S31520002D9009D04FF0A00383F31188BFF36F8FBFF3E1
S31520002DA04F8F3B61FEE7BB68DB6C002B09D14FF0F0
S31520002DB0A00383F31188BFF36F8FBFF34F8F7B611F
S31520002DC0FEE7BB68DB6C03F1FF32BB68DA64BB68E5
S31520002DD0DA6ABB689B6C9A4265D0BB68DB6C002BB9
S31520002DE061D1BB6803F104031846FEF763F9034675
S31520002DF0002B24D1BB68DA6A13464FEA83031344B7
S31520002E004FEA83031A4647F26833C2F2000313449B
S31520002E101B68002B13D1BB68DB6A4FF0010202FA54
S31520002E2003F36FEA030247F24443C2F200031B682E
S31520002E3002EA030247F24443C2F200031A60BB6867
S31520002E409A6CBB68DA62BB68DB6AC3F10502BB68B1
S31520002E509A61BB68DB6A4FF0010202FA03F247F27D
S31520002E604443C2F200031B6842EA030247F244438A
S31520002E70C2F200031A60BB68DA6A13464FEA83037C
S31520002E8013444FEA83031A4647F26833C2F200031B
S31520002E901A44BB6803F1040310461946FEF7ACF842
S31520002EA04FF00103FB60FB68184607F11807BD4683
S31520002EB080BD00BF80B400AF47F26433C2F2000386
S31520002EC01B68002B08D047F26433C2F200031B684C
S31520002ED0DA6C02F10102DA6447F26433C2F20003CB
S31520002EE01B681846BD4680BC704700BF80B584B0BD
S31520002EF000AF7860396001F001F947F26433C2F21D
S31520002F0000031B685B6D002B1BD147F26433C2F2B2
S31520002F1000031B684FF0010283F858203B68002B02
S31520002F200FD038684FF0010100F05EF94EF60453D9
S31520002F30CEF200034FF080521A60BFF34F8FBFF3DB
S31520002F406F8F01F013F901F0D9F847F26433C2F21A
S31520002F5000031B685B6DFB60FB68002B14D07B684D
S31520002F60002B08D047F26433C2F200031B684FF0EF
S31520002F7000025A6508E047F26433C2F200031B6878
S31520002F80FA6802F1FF325A6547F26433C2F200034F
S31520002F901B684FF0000283F8582001F0E7F8FB6821
S31520002FA0184607F11007BD4680BD00BF80B586B024
S31520002FB000AFF860B9607A603B6001F09FF847F295
S31520002FC06433C2F200031B6893F85830DBB2022B3D
S31520002FD027D047F26433C2F200031B68596DFA68A2
S31520002FE06FEA020201EA02025A6547F26433C2F22C
S31520002FF000031B684FF0010283F858203B68002B22
S315200030000FD038684FF0010100F0EEF84EF6045369
S31520003010CEF200034FF080521A60BFF34F8FBFF3FA
S315200030206F8F01F0A3F801F069F87B68002B07D0B9
S3152000303047F26433C2F200031B685A6D7B681A603C
S3152000304047F26433C2F200031B6893F85830DBB2B0
S31520003050012B03D14FF000037B610EE047F264336E
S31520003060C2F200031B68596DBA686FEA020201EAD0
S3152000307002025A654FF001037B6147F26433C2F2C4
S3152000308000031B684FF0000283F8582001F06EF809
S315200030907B69184607F11807BD4680BD80B58AB002
S315200030A000AF786039607B68002B09D14FF0A00310
S315200030B083F31188BFF36F8FBFF34F8F7B61FEE7DA
S315200030C001F0F0F87B68BB60EFF311824FF0A003AC
S315200030D083F31188BFF36F8FBFF34F8FFA61BB6104
S315200030E0FB693B61BB6893F85830FB73BB684FF0B4
S315200030F0020283F85820BB685B6D03F10102BB68AE
S315200031005A65FB7B012B65D1BB689B6A002B09D0D6
S315200031104FF0A00383F31188BFF36F8FBFF34F8F58
S315200031203B62FEE747F26443C2F200031B68002BB2
S315200031302DD1BB6803F104031846FDF7BBFFBB681E
S31520003140DB6A4FF0010202FA03F247F24443C2F26D
S3152000315000031B6842EA030247F24443C2F200031B
S315200031601A60BB68DA6A13464FEA830313444FEAB0
S3152000317083031A4647F26833C2F200031A44BB6837
S3152000318003F1040310461946FDF736FF09E0BB6834
S3152000319003F1180347F2FC30C2F200001946FDF78E
S315200031A02BFFBB68DA6A47F26433C2F200031B685E
S315200031B0DB6A9A420ED93B68002B04D03B684FF05D
S315200031C001021A6006E047F25043C2F200034FF0B4
S315200031D001021A603B697B627B6A83F3118807F1DF
S315200031E02807BD4680BD00BF80B584B000AF78609B
S315200031F0396047F24043C2F200031B68FB6047F286
S315200032006433C2F200031B6803F104031846FDF77A
S3152000321051FF0346002B17D147F26433C2F2000355
S315200032201B68DB6A4FF0010202FA03F36FEA03021E
S3152000323047F24443C2F200031B6802EA030247F244
S315200032404443C2F200031A607B68B3F1FF3F11D1F9
S315200032503B68002B0ED047F26433C2F200031B6892
S3152000326003F1040347F22840C2F200001946FDF795
S31520003270C3FE3DE0FA687B681344BB6047F26433C3
S31520003280C2F200031B68BA685A60BA68FB689A42A1
S3152000329010D247F2F833C2F200031A6847F26433B9
S315200032A0C2F200031B6803F1040310461946FDF71A
S315200032B0C7FE1DE047F2F433C2F200031A6847F254
S315200032C06433C2F200031B6803F104031046194657
S315200032D0FDF7B6FE47F25C43C2F200031B68BA68EC
S315200032E09A4205D247F25C43C2F20003BA681A60DA
S315200032F007F11007BD4680BD80B584B002AF4FF000
S3152000330000033B6000F072FB47F2A043C2F20003C9
S315200033101B68002B17D04FF00203009347F2A443FB
S31520003320C2F20003019343F26950C2F2000047F251
S315200033308821C2F200014FF0A0024FF00003FEF7F1
S315200033404DFC03463B603B68002B09D14FF0A003A0
S3152000335083F31188BFF36F8FBFF34F8F7B60FEE738
S315200033603B68184607F10807BD4680BD80B588B082
S3152000337002AFF860B9607A603B604FF02C0000F035
S315200033806FFB03467B617B69002B09D03B6A009368
S315200033907B690193F868B9687A683B6800F006F89B
S315200033A07B69184607F11807BD4680BD80B586B0F3
S315200033B000AFF860B9607A603B60BB68002B09D12A
S315200033C04FF0A00383F31188BFF36F8FBFF34F8FA6
S315200033D07B61FEE77B6A002B16D000F007FB7B6A39
S315200033E0FA681A607B6ABA689A617B6A7A68DA61D7
S315200033F07B6A3A681A627B6A3A6A5A627B6A03F186
S3152000340004031846FDF7EAFD07F11807BD4680BDFF
S3152000341080B58AB000AFF860B9607A603B604FF043
S3152000342000033B62FB68002B09D14FF0A00383F316
S315200034301188BFF36F8FBFF34F8F7B62FEE747F292
S31520003440A043C2F200031B68002B40D0BB683B613F
S315200034507B687B61FB68BB61BB68052B27DCFFF7BC
S31520003460B9FB0346022B10D147F2A043C2F2000358
S315200034701A6807F11003104619463A6B4FF00003FD
S31520003480FDF758FF03463B6221E047F2A043C2F214
S3152000349000031A6807F11003104619464FF0000280
S315200034A04FF00003FDF746FF03463B620FE047F26D
S315200034B0A043C2F200031A6807F11003104619460A
S315200034C03A684FF00003FEF74DF803463B623B6A2D
S315200034D0184607F12807BD4680BD00BF80B588B0D5
S315200034E002AF7860396047F29843C2F200031B6846
S315200034F0DB68DB683B613B6903F104031846FDF793
S31520003500D9FD3B69DB69012B26D13B699A697B682A
S315200035101344386919463A687B6800F0DFF8034699
S31520003520002B19D04FF00003009338694FF00001AB
S315200035307A684FF00003FFF76BFF0346FB60FB68DA
S31520003540002B09D14FF0A00383F31188BFF36F8FAF
S31520003550BFF34F8F7B61FEE73B695B6A386998470B
S3152000356007F11807BD4680BD80B584B000AF7860EE
S3152000357007F10803184600F061F80346FB60BB68B4
S31520003580F868194600F004F800F0F4F8F0E700BFF8
S3152000359080B584B000AF78603960FEF7F3FD07F19F
S315200035A00803184600F072F80346FB60BB68002B40
S315200035B03BD13B68002B0BD17A68FB689A4207D82F
S315200035C0FEF7F2FD7868F968FFF788FF00BF30E064
S315200035D03B68002B0AD047F29C43C2F200031B68CB
S315200035E01B68002B14BF002301233B6047F2A04336
S315200035F0C2F200031A687968FB68C3EB0103104620
S3152000360019463A68FEF7B0FAFEF7CEFD0346002BC0
S315200036100ED14EF60453CEF200034FF080521A60BC
S31520003620BFF34F8FBFF36F8F03E0FEF7BDFD00E0C2
S3152000363000BF07F11007BD4680BD00BF80B485B02E
S3152000364000AF786047F29843C2F200031B681B68FC
S31520003650002B14BF002201227B681A607B681B683E
S31520003660002B08D147F29843C2F200031B68DB689F
S315200036701B68FB6002E04FF00003FB60FB68184606
S3152000368007F11407BD4680BC704700BF80B584B0E3
S3152000369000AF7860FEF758FE0346FB6047F2A8436A
S315200036A0C2F200031B68FA689A4206D200F024F997
S315200036B07B684FF001021A6003E07B684FF000023E
S315200036C01A6047F2A843C2F20003FA681A60FB6840
S315200036D0184607F11007BD4680BD00BF80B586B0ED
S315200036E000AFF860B9607A603B604FF000037B6101
S315200036F0FB68BA685A60FB68FA681A61BA687B6820
S315200037009A4218D87A683B68C3EB0202FB689B6929
S315200037109A4203D34FF001037B6124E047F29C4396
S31520003720C2F200031A68FB6803F104031046194627
S31520003730FDF786FC17E07A683B689A4207D2BA689A
S315200037403B689A4203D34FF001037B610BE047F2BB
S315200037509843C2F200031A68FB6803F1040310467B
S315200037601946FDF76DFC7B69184607F11807BD461B
S3152000377080BD00BF80B58EB002AFA5E07B68002B70
S315200037801ADA07F1040303F104033B623B6A002BB8
S3152000379009D14FF0A00383F31188BFF36F8FBFF3D6
S315200037A04F8F7B62FEE73B6A1B683A6A51683A6A2A
S315200037B092680846114698477B68002BC0F28480A1
S315200037C0FB687B617B695B69002B05D07B6903F114
S315200037D004031846FDF76EFC3B461846FFF756FFD6
S315200037E00346FB617B68092B6ED801A252F823F0B1
S315200037F0193800201938002019380020C93800202F
S315200038007F380020B73800201938002019380020CA
S31520003810C93800207F380020BA687B699B691A4422
S31520003820BB6878691146FA69FFF758FF0346002BF3
S3152000383045D07B695B6A786998477B69DB69012B90
S315200038403FD1BA687B699B6913444FF0000200920E
S3152000385078694FF000011A464FF00003FFF7D8FDB4
S315200038600346BB61BB69002B2DD14FF0A00383F328
S315200038701188BFF36F8FBFF34F8FBB62FEE7BA6825
S315200038807B699A617B699B69002B09D14FF0A00364
S3152000389083F31188BFF36F8FBFF34F8FFB62FEE771
S315200038A07B699A69FB69134478691946FA69FB6949
S315200038B0FFF714FF08E0786900F0CEF904E000BFB6
S315200038C002E000BF00E000BF47F2A043C2F20003BF
S315200038D01A6807F10403104619464FF000024FF00C
S315200038E00003FDF7E1FE0346002B7FF447AF07F107
S315200038F03007BD4680BD00BF80B588B002AF53E01B
S3152000390047F29843C2F200031B68DB681B683B60E2
S3152000391047F29843C2F200031B68DB68DB68FB6052
S31520003920FB6803F104031846FDF7C4FBFB685B6ADA
S31520003930F8689847FB68DB69012B35D1FB689A69E3
S315200039403B6813447B607A683B689A4212D9FB68CD
S315200039507A685A60FB68FA681A6147F29843C2F29D
S3152000396000031A68FB6803F1040310461946FDF7A5
S3152000397067FB19E04FF000030093F8684FF0000151
S315200039803A684FF00003FFF743FD03463B613B696E
S31520003990002B09D14FF0A00383F31188BFF36F8F5B
S315200039A0BFF34F8F7B61FEE747F29843C2F20003D5
S315200039B01B681B68002BA3D147F29843C2F2000371
S315200039C01B68BB6047F29C43C2F200031A6847F2A9
S315200039D09843C2F200031A6047F29C43C2F20003E6
S315200039E0BA681A6007F11807BD4680BD80B500AFDA
S315200039F000F084FB47F2A043C2F200031B68002BB1
S31520003A002BD147F27040C2F20000FDF7C3FA47F20D
S31520003A108440C2F20000FDF7BDFA47F29843C2F295
S31520003A20000347F27042C2F200021A6047F29C433A
S31520003A30C2F2000347F28442C2F200021A604FF03B
S31520003A4005004FF010014FF00002FDF7D5FB0246AE
S31520003A5047F2A043C2F200031A6000F087FB80BD44
S31520003A6080B58AB000AF78604FF00003BB61FEF7E7
S31520003A7089FB4DF25C63C2F200031B68002B01D167
S31520003A8000F056F94DF26863C2F200031A687B68AB
S31520003A9002EA0303002B40F0C2807B68002B21D072
S31520003AA047F29023C2F200031B687A6813447B60B6
S31520003AB07B6803F00703002B14D07B6823F00703F1
S31520003AC003F108037B607B6803F00703002B09D012
S31520003AD04FF0A00383F31188BFF36F8FBFF34F8F8F
S31520003AE0FB61FEE77B68002B00F099804DF2606356
S31520003AF0C2F200031B687A689A4200F290804DF267
S31520003B005463C2F200033B614DF25463C2F20003D8
S31520003B101B68FB6004E0FB683B61FB681B68FB607D
S31520003B20FB685A687B689A4203D2FB681B68002BA5
S31520003B30F1D14DF25C63C2F200031B68FA689A4227
S31520003B406DD03B691A6847F29023C2F200031B68C6
S31520003B501344BB61FB681A683B691A60FB685A68A4
S31520003B607B68C3EB020247F29023C2F200031B6874
S31520003B704FEA43039A421FD9FA687B6813447B6154
S31520003B807B6903F00703002B09D04FF0A00383F3D2
S31520003B901188BFF36F8FBFF34F8F3B62FEE7FB6841
S31520003BA05A687B68C3EB02027B695A60FB687A68B5
S31520003BB05A60786900F03EF94DF26063C2F2000364
S31520003BC01A68FB685B68C3EB02024DF26063C2F2BF
S31520003BD000031A604DF26063C2F200031A684DF2C8
S31520003BE06463C2F200031B689A4209D24DF26063F5
S31520003BF0C2F200031A684DF26463C2F200031A602F
S31520003C00FB685A684DF26863C2F200031B6842EAF9
S31520003C100302FB685A60FB684FF000021A60FEF749
S31520003C20C3FABB69002B01D1FCF7F8FBBB6903F093
S31520003C300703002B09D04FF0A00383F31188BFF3AD
S31520003C406F8FBFF34F8F7B62FEE7BB69184607F184
S31520003C502807BD4680BD00BF80B586B000AF78601E
S31520003C607B68BB607B68002B5ED047F29023C2F254
S31520003C7000031B68C3F10003BA681344BB60BB682A
S31520003C80FB60FB685A684DF26863C2F200031B684A
S31520003C9002EA0303002B09D14FF0A00383F3118816
S31520003CA0BFF36F8FBFF34F8F3B61FEE7FB681B6847
S31520003CB0002B09D04FF0A00383F31188BFF36F8F39
S31520003CC0BFF34F8F7B61FEE7FB685A684DF268634E
S31520003CD0C2F200031B6802EA0303002B24D0FB6810
S31520003CE01B68002B20D1FB685A684DF26863C2F22C
S31520003CF000031B686FEA030302EA0302FB685A60AB
S31520003D00FEF740FAFB685A684DF26063C2F2000380
S31520003D101B681A444DF26063C2F200031A60F86809
S31520003D2000F088F8FEF740FA07F11807BD4680BD77
S31520003D3080B485B000AF46F2A813FB6047F2AC43CF
S31520003D40C2F20003BB60BB6803F00703002B11D04F
S31520003D50BB6803F10703BB60BB6823F00703BB60A6
S31520003D60FA68BB68C3EB020247F2AC43C2F2000317
S31520003D701344FB60BB687B607A684DF25463C2F2E1
S31520003D8000031A604DF25463C2F200034FF00002A2
S31520003D905A607A68FB681344BB6047F29023C2F2EC
S31520003DA000031B68BA68C3EB0203BB60BB6823F041
S31520003DB00703BB60BA684DF25C63C2F200031A6067
S31520003DC04DF25C63C2F200031B684FF000025A609A
S31520003DD04DF25C63C2F200031B684FF000021A60CA
S31520003DE07B683B603B68BA68C3EB02023B685A605B
S31520003DF04DF25C63C2F200031A683B681A603B68A6
S31520003E005A684DF26463C2F200031A603B685A682E
S31520003E104DF26063C2F200031A604DF26863C2F28B
S31520003E2000034FF000421A6007F11407BD4680BC1C
S31520003E30704700BF80B485B000AF78604DF2546300
S31520003E40C2F20003BB6002E0BB681B68BB60BB68B4
S31520003E501A687B689A42F7D3BB68FB60BB685A68CE
S31520003E60FB681A447B689A4208D1BB685A687B680B
S31520003E705B681A44BB685A60BB687B607B68FB60E2
S31520003E807B685A68FB681A44BB681B689A421ED135
S31520003E90BB681A684DF25C63C2F200031B689A4243
S31520003EA00DD07B685A68BB681B685B681A447B68C0
S31520003EB05A60BB681B681A687B681A600BE04DF273
S31520003EC05C63C2F200031A687B681A6003E0BB6871
S31520003ED01A687B681A60BA687B689A4202D0BB6807
S31520003EE07A681A6007F11407BD4680BC704700BF88
S31520003EF080B485B000AFF860B9607A60FB68A3F142
S31520003F000403FB60FB684FF080721A60FB68A3F124
S31520003F100403FB60BB6823F00102FB681A60FB68A0
S31520003F20A3F10403FB6043F65973C2F20003FA6857
S31520003F301360FB68A3F11403FB607A68FB681A60C0
S31520003F40FB68A3F12003FB60FB68184607F1140702
S31520003F50BD4680BC704700BF80B483B000AF47F237
S31520003F60FC23C2F200031B68B3F1FF3F09D04FF0D8
S31520003F70A00383F31188BFF36F8FBFF34F8F3B608E
S31520003F80FEE74FF0A00383F31188BFF36F8FBFF3D3
S31520003F904F8F7B60FEE700BF00000000000000009E
S31520003FA0074B19680868B0E8F00F80F30988BFF35B
S31520003FB06F8F4FF0000080F311884EF00D0E704782
S31520003FC064730020AFF30080AFF30080AFF300806E
S31520003FD006480068006880F3088862B661B6BFF3B9
S31520003FE04F8FBFF36F8F00DF00BF000008ED00E0AA
S31520003FF080B584B000AF4EF20043CEF20003FB60E2
S31520004000FB681B78DBB2BB60FB684FF0FF321A708F
S31520004010FB681B78DBB2FB71FB79DBB21A4602F038
S31520004020A0024DF26C63C2F200031A704DF2706367
S31520004030C2F200034FF007021A6011E04DF27063DE
S31520004040C2F200031B6803F1FF324DF27063C2F225
S3152000405000031A60FB79DBB24FEA4303DBB2FB7144
S31520004060FB79DBB25BB2002BE8DB4DF27063C2F268
S3152000407000031B684FEA03224DF27063C2F200036D
S315200040801A604DF27063C2F200031B6803F4E0620B
S315200040904DF27063C2F200031A60BB68DAB2FB68A5
S315200040A01A704EF62053CEF200034EF62052CEF270
S315200040B00002126842F470021A604EF62053CEF2C5
S315200040C000034EF62052CEF20002126842F07042F1
S315200040D01A6000F0C7F847F2FC23C2F200034FF043
S315200040E000021A60FFF774FFFFF736FF4FF0000358
S315200040F0184607F11007BD4680BD00BF80B483B0C7
S3152000410000AF4FF0A00383F31188BFF36F8FBFF387
S315200041104F8F3B6047F2FC23C2F200031B6803F17A
S31520004120010247F2FC23C2F200031A6047F2FC2385
S31520004130C2F200031B68012B12D14EF60453CEF2B5
S3152000414000031B6803F0FF03002B09D04FF0A003E8
S3152000415083F31188BFF36F8FBFF34F8F7B60FEE72A
S3152000416007F10C07BD4680BC704700BF80B483B002
S3152000417000AF47F2FC23C2F200031B68002B09D1D3
S315200041804FF0A00383F31188BFF36F8FBFF34F8FD8
S315200041903B60FEE747F2FC23C2F200031B6803F1F3
S315200041A0FF3247F2FC23C2F200031A6047F2FC23D7
S315200041B0C2F200031B68002B05D14FF000037B6081
S315200041C07B6883F3118807F10C07BD4680BC7047D6
S315200041D0EFF30980BFF36F8F0D4B1A6820E9F00FBC
S315200041E010602DE908404FF0A00080F31188FEF7FB
S315200041F0C3F94FF0000080F31188BDE80840196824
S315200042000868B0E8F00F80F30988BFF36F8F704716
S3152000421064730020AFF30080AFF30080AFF300801B
S3152000422080B582B000AF4FF0A00383F31188BFF3AF
S315200042306F8FBFF34F8F3B60FEF796F80346002B38
S3152000424006D04EF60453CEF200034FF080521A6089
S315200042504FF000037B607B6883F3118807F1080722
S31520004260BD4680BD80B400AF4EF21403CEF20003EB
S3152000427047F23C32C2F20002116844F6D352C1F230
S315200042806202A2FB01024FEA921202F1FF321A6089
S315200042904EF21003CEF200034FF007021A60BD461D
S315200042A080BC704780B485B000AFEFF305833B60D8
S315200042B03B680F2B1AD947F29423C2F200031A68DF
S315200042C03B6813441B78FB714DF26C63C2F200030A
S315200042D01B78FA799A4209D24FF0A00383F311880A
S315200042E0BFF36F8FBFF34F8FBB60FEE74EF60C53C5
S315200042F0CEF200031B6803F4E0624DF27063C2F253
S3152000430000031B689A4209D94FF0A00383F3118852
S31520004310BFF36F8FBFF34F8FFB60FEE707F11407E4
S31520004320BD4680BC704700BF80B483B000AF034653
S31520004330FB714EF20013CEF2000397F907204FEAE5
S315200043405212F97901F01F014FF0010000FA01F134
S3152000435043F8221007F10C07BD4680BC704700BF0A
S3152000436080B483B000AF03463960FB7197F90730FC
S31520004370002B10DA4EF60053CEF20003FA7902F043
S315200043800F02A2F104013A68D2B24FEA0212D2B267
S315200043900B441A760DE04EF20013CEF2000397F985
S315200043A007103A68D2B24FEA0212D2B20B4483F80F
S315200043B0002307F10C07BD4680BC704790B589B035
S315200043C000AF78604DF69C53C2F200031B68184676
S315200043D0FDF782FD0346BB614DF6BC53C2F20003D6
S315200043E01B68002B00F0CF814FF00003BB774FF006
S315200043F00003FB774DF25872C2F200024DF6A45329
S31520004400C2F200031A6007F1160107F1140207F140
S315200044101203084611461A46FCF724F80346BB77D2
S3152000442007F10E0107F10C0207F10A0308461146AF
S315200044301A46FCF7ADF90346BB774DF6A453C2F2F4
S3152000444000031A684DF69453C2F200031B889BB2F0
S3152000445003F0FF014FF0000040EA010191734FEA9B
S3152000446013239BB24FF0000141EA0303D3734DF6A9
S31520004470A453C2F200031B68FA8A02F0FF014FF030
S31520004480000040EA010119744FEA122292B24FF05D
S31520004490000141EA02025A744DF6A453C2F2000307
S315200044A01B68BA8A02F0FF014FF0000040EA0101C2
S315200044B099744FEA122292B24FF0000141EA0202A9
S315200044C0DA744DF6A453C2F200031B687A8A02F00E
S315200044D0FF014FF0000040EA010119754FEA122250
S315200044E092B24FF0000141EA02025A754DF6A453EA
S315200044F0C2F200031B68FA8902F0FF014FF00000A8
S3152000450040EA010199754FEA122292B24FF000015A
S3152000451041EA0202DA754DF6A453C2F200031B6883
S31520004520BA8902F0FF014FF0000040EA0101197636
S315200045304FEA122292B24FF0000141EA02025A7665
S315200045404DF6A453C2F200031B687A8902F0FF01DC
S315200045504FF0000040EA010199764FEA122292B20A
S315200045604FF0000141EA0202DA7607F10803184605
S31520004570FCF780FA0346BB774DF6A453C2F200033C
S315200045801B683A8902F0FF014FF0000040EA010162
S3152000459019774FEA122292B24FF0000141EA020245
S315200045A05A774DF6A453C2F200031C6807F1110393
S315200045B04FF040004FF001011A46FCF78FFB0346EF
S315200045C09BB203F0FF024FF0000141EA0202E277BC
S315200045D04FEA13239BB24FF0000242EA030384F80A
S315200045E020307A7CFB7F1344FB774DF6A453C2F22E
S315200045F000031C6807F111034FF040004FF0020141
S315200046001A46FCF76BFB03469BB203F0FF024FF002
S31520004610000141EA020284F823204FEA13239BB2C9
S315200046204FF0000242EA030384F824307A7CFB7FB1
S315200046301344FB774DF6A453C2F200031C6807F11E
S3152000464011034FF040004FF003011A46FCF746FBDA
S3152000465003469BB203F0FF024FF0000141EA02023B
S3152000466084F827204FEA13239BB24FF0000242EA38
S31520004670030384F828307A7CFB7F1344FB774DF6BE
S31520004680A453C2F200031C6807F111034FF0400047
S315200046904FF001011A46FCF77FFB03469BB203F05D
S315200046A0FF024FF0000141EA020284F821204FEA7E
S315200046B013239BB24FF0000242EA030384F8223010
S315200046C07A7CFB7F1344FB774DF6A453C2F200039A
S315200046D01C6807F111034FF040004FF002011A4603
S315200046E0FCF75AFB03469BB203F0FF024FF0000192
S315200046F041EA020284F825204FEA13239BB24FF0A9
S31520004700000242EA030384F826307A7CFB7F1344B6
S31520004710FB774DF6A453C2F200031C6807F1110380
S315200047204FF040004FF003011A46FCF735FB0346D5
S315200047309BB203F0FF024FF0000141EA020284F827
S3152000474029204FEA13239BB24FF0000242EA0303CB
S3152000475084F82A307A7CFB7F1344FB774DF258731A
S31520004760C2F200034FF0010283F8FF214DF69C535D
S31520004770C2F200031A68BB6903F101031046194609
S31520004780FDF7C6FB3FE607F12407BD4690BD00BFF7
S31520004790B0B584B000AF78604FF00000FDF79CFB09
S315200047A00346BB604DF6CC53C2F200031B68002BB8
S315200047B04FD04DF27862C2F200024DF6D053C2F2CB
S315200047C000031A604FF00003FB732EE04DF6D05322
S315200047D0C2F200031C68FD7BBB7BFA7B4DF62050A2
S315200047E0C2F200004FF02101FCF736FB03461946C2
S315200047F005F1040201F0FF004FEA420323444FF083
S31520004800000C4CEA000098714FEA112398B24FEA47
S31520004810420323444FF000021146024641EA0202B7
S31520004820DA71FB7B03F10103FB73FB7B062BCDD9EE
S315200048304DF27863C2F200034FF0020283F8312072
S31520004840BB68A3F102034FF000001946FDF760FB99
S31520004850B8E707F11007BD46B0BD00BF80B485B0EC
S3152000486000AF78604FF00003FB814DF25873C2F21F
S31520004870000393F8FF31012B7BD14DF6A453C2F2EE
S3152000488000031B684FF0000242F008021A704FF036
S31520004890000242F001025A704DF6A453C2F2000300
S315200048A01A68FB8903F10103FB81FB896FEA8343C5
S315200048B06FEA93439BB29BB24FEA032399B2FB89DB
S315200048C003F10103FB81FB896FEA83436FEA93437C
S315200048D09BB29BB24FEA13239BB241EA03039BB2DE
S315200048E09BB203F0FF014FF0000040EA01019170F6
S315200048F04FEA13239BB24FF0000141EA0303D37022
S315200049004DF6A453C2F200031B684FF000021A7141
S315200049104FF0000242F02C025A714DF6A453C2F217
S3152000492000031B684FF000029A714FF00002DA7103
S315200049304FF000021A724FF000025A724DF6A4533D
S31520004940C2F200031B684FF000029A724FF0000279
S31520004950DA724FF000021A734FF000025A734DF6C6
S31520004960A453C2F200031A684DF6B853C2F20003EC
S315200049701A604DF27863C2F2000393F83130022BAD
S315200049807BD14DF6D053C2F200031B684FF00002D4
S3152000499042F008021A704FF0000242F002025A70EA
S315200049A04DF6D053C2F200031A68FB8903F10103C6
S315200049B0FB81FB896FEA83436FEA93439BB29BB2E9
S315200049C04FEA032399B2FB8903F10103FB81FB899B
S315200049D06FEA83436FEA93439BB29BB24FEA13235A
S315200049E09BB241EA03039BB29BB203F0FF014FF057
S315200049F0000040EA010191704FEA13239BB24FF069
S31520004A00000141EA0303D3704DF6D053C2F20003EE
S31520004A101B684FF000021A714FF0000242F01E028E
S31520004A205A714DF6D053C2F200031B684FF00002B4
S31520004A309A714FF00002DA714FF000021A724FF0AD
S31520004A4000025A724DF6D053C2F200031B684FF093
S31520004A5000029A724FF00002DA724FF000021A73C7
S31520004A604FF000025A734DF6D053C2F200031A6873
S31520004A704DF6C853C2F200031A6007F11407BD466B
S31520004A8080BC704780B582B000AF78604DF2587315
S31520004A90C2F2000393F8FF31012B0DD14DF6B85326
S31520004AA0C2F200031B684DF61860C2F200001946D8
S31520004AB04FF02C0200F02CFB4DF27863C2F200037B
S31520004AC093F83130022B0DD14DF6C853C2F20003B4
S31520004AD01B684DF61860C2F2000019464FF01E0200
S31520004AE000F016FB07F10807BD4680BD80B584B0EF
S31520004AF000AF786007F108034FF000004FF0000187
S31520004B001A464FF0FF33FEF751FA4FF001004FF0EF
S31520004B100101FEF7EBF94DF69453C2F200031B8810
S31520004B209BB203F101039AB24DF69453C2F20003ED
S31520004B301A807B68FB60FB681B787F2B3DD14DF686
S31520004B405833C2F200031B781A464DF23873C2F26C
S31520004B5000034FF0000199544DF65833C2F200037A
S31520004B601B7803F1FF324DF23873C2F200034FF087
S31520004B707F0199544DF65833C2F200031B7803F196
S31520004B80FF324DF23873C2F2000313444DF618601B
S31520004B90C2F2000019464FF0010200F0B9FA4DF6B4
S31520004BA05833C2F200031B7803F1FF33DAB24DF615
S31520004BB05833C2F200031A709CE74DF65833C2F2FE
S31520004BC000031B781A46FB6819784DF23873C2F237
S31520004BD0000399544DF65833C2F200031B781A4647
S31520004BE04DF23873C2F2000313444DF61860C2F238
S31520004BF0000019464FF0010200F08AFA4DF65833AC
S31520004C00C2F200031B7803F10103DAB24DF65833E2
S31520004C10C2F200031A706DE780B584B000AF7860E9
S31520004C2078684DF21871C2F200014FF0080200F0C8
S31520004C30E1FA02464DF25473C2F200031A604FF0B5
S31520004C400003FB604DF27463C2F200031A6807F199
S31520004C500C0310461946FEF721FAFB68002B0AD0F2
S31520004C604EF60453CEF200034FF080521A60BFF383
S31520004C704F8FBFF36F8F07F11007BD4680BD00BF72
S31520004C8090B587B002AF4DF65823C2F200033B60C1
S31520004C9047F20033C2F200037B603A6840F6F963BC
S31520004CA0C2F2000313603B681B684FF0000079686E
S31520004CB098474DF62050C2F2000044F20001C5F29A
S31520004CC000014FF021024FF0000300F023FF4DF6C4
S31520004CD05823C2F20003BB6047F22033C2F200031E
S31520004CE0FB60BA6840F6F963C2F200031360BB6842
S31520004CF01B684FF00A00F96898474FF001004FF003
S31520004D002C014FF00002FCF777FA02464DF6B85315
S31520004D10C2F200031A604FF001004FF01E014FF05F
S31520004D200002FCF769FA02464DF6C853C2F20003A8
S31520004D301A604FF00A00FFF7F7FA4FF00A004FF01B
S31520004D409F01FFF70DFB4DF61860C2F200004FF4ED
S31520004D5016514FF0030200F099F94DF61860C2F291
S31520004D60000044F61941C2F200014FF0800200F023
S31520004D70AFFA4FF00100FCF7C1FA02464DF6B453E4
S31520004D80C2F200031A604FF0020300934DF6C4539B
S31520004D90C2F20003019344F2BD30C2F2000047F292
S31520004DA09821C2F200014FF050024DF25873C2F220
S31520004DB00003FCF713FF02464DF6BC53C2F2000374
S31520004DC01A604FF0010300934DF69C53C2F2000384
S31520004DD0019344F29170C2F2000047F29C21C2F284
S31520004DE000014FF050024DF25873C2F20003FCF757
S31520004DF0F5FE02464DF6CC53C2F200031A604FF080
S31520004E00030300934DF27463C2F20003019344F648
S31520004E10ED20C2F2000047F2A421C2F200014FF0B9
S31520004E2050024FF00003FCF7D9FE44F65D03C2F2B0
S31520004E300003009347F2B020C2F2000041F288310D
S31520004E404FF001024FF00003FEF790FA02464DF6AE
S31520004E508C53C2F200031A604DF68C53C2F2000343
S31520004E601C68FDF771FA03464FF0000200922046B7
S31520004E704FF001011A464FF00003FEF7C9FA44F637
S31520004E808523C2F20003009347F2C020C2F200003D
S31520004E9041F28D314FF001024FF00003FEF766FA22
S31520004EA002464DF68C53C2F200035A604DF68C53DF
S31520004EB0C2F200035C68FDF747FA03464FF0000292
S31520004EC0009220464FF001011A464FF00003FEF7EC
S31520004ED09FFAFDF7FDF807F11407BD4690BD00BF08
S31520004EE080B500AF4DF66830C2F2000001F038F808
S31520004EF080BD00BF80B500AF4DF6D430C2F20000B1
S31520004F0001F02EF880BD00BF80B500AF4DF2AC6039
S31520004F10C2F2000001F024F880BD00BF80B500AFCA
S31520004F204DF6AC40C2F2000001F01AF880BD00BF79
S31520004F3080B500AF4DF62050C2F2000001F010F807
S31520004F4080BD00BF80B500AF4DF64040C2F20000E4
S31520004F5001F006F880BD00BF80B483B000AF0346E1
S31520004F60FB714EF20013CEF2000397F907204FEAA9
S31520004F705212F97901F01F014FF0010000FA01F1F8
S31520004F8043F8221007F10C07BD4680BC704700BFCE
S31520004F9080B483B000AF0346FB714EF20013CEF20D
S31520004FA0000397F907204FEA5212F97901F01F0101
S31520004FB04FF0010000FA01F102F1600243F82210DD
S31520004FC007F10C07BD4680BC704700BF80B483B094
S31520004FD000AF78600B46FB707B6803F070427B68FD
S31520004FE023F07F4323F470034FEA43131A44FB78DC
S31520004FF04FEA8303134403F100734FF001021A6052
S3152000500007F10C07BD4680BC704700BF80B483B053
S3152000501000AF78600B46FB707B6803F070427B68BC
S3152000502023F07F4323F470034FEA43131A44FB789B
S315200050304FEA8303134403F100734FF000021A6012
S3152000504007F10C07BD4680BC704700BF80B483B013
S3152000505000AF78600B46FB707B6803F070427B687C
S3152000506023F07F4323F470034FEA43131A44FB785B
S315200050704FEA8303134403F100731B68DBB218461F
S3152000508007F10C07BD4680BC704700BF80B584B0D1
S3152000509000AFF860B9601346FB71FA684DF61863E5
S315200050A0C2F200039A4207D0FA684DF6D853C2F2EC
S315200050B000039A4200D000BEFB79F868B9681A4608
S315200050C000F056FAFB681B6803F1300318464FF0D0
S315200050D00301FFF79BFFFB681B6803F134031846A7
S315200050E04FF00201FFF792FFFB681B6803F13803BC
S315200050F018464FF00001FFF789FFFA6845F60923A5
S31520005100C2F20003536207F11007BD4680BD00BFFF
S3152000511080B489B000AFF860B9607A604FF00003C0
S315200051203B61FA684DF61863C2F200039A4207D033
S31520005130FA684DF6D853C2F200039A4200D000BE58
S31520005140BB68002B00D100BE7B68002B00D100BEBF
S31520005150FA684DF61863C2F200039A4206D0FA683E
S315200051604DF6D853C2F200039A423DD1BB68002BBC
S315200051703AD07B68002B37D0FB681B681B7DFB76FB
S31520005180FB685A7BFB7E42EA0303DAB2FB685A735A
S31520005190FB7E03F02003002B23D04FF01003FB618E
S315200051A07B680F2B01D87B68FB614FF000037B6186
S315200051B00EE0FB681B68B9683A690A4412781A70CF
S315200051C03B6903F101033B617B6903F101037B61C9
S315200051D07A69FB699A42ECD37A687B69C3EB02034E
S315200051E07B607B68002BC7D107F12407BD4680BCB6
S315200051F0704700BF80B487B000AFF860B9607A60AE
S315200052004FF000033B614FF00003FB75FA684DF643
S315200052101863C2F200039A4207D0FA684DF6D853B3
S31520005220C2F200039A4200D000BEBB68002B00D118
S3152000523000BE7B68002B00D100BEFA684DF61863CD
S31520005240C2F200039A4206D0FA684DF6D853C2F24B
S3152000525000039A4234D1BB68002B31D07B68002BE7
S315200052602ED0FB681B681B7DFB75FB685A7BFB7D7C
S3152000527042EA0303DAB2FB685A7317E0BA683B695D
S315200052801344FA6812681278D2B21A703B6903F195
S3152000529001033B61FB681B681B7DFB75FB685A7B22
S315200052A0FB7D42EA0303DAB2FB685A73FB7D03F007
S315200052B00103DBB2002B03D03A697B689A42DDD327
S315200052C03B69184607F11C07BD4680BC704700BFE6
S315200052D080B584B000AFF860B9601346FB71FA68F8
S315200052E04DF61863C2F200039A4207D0FA684DF6CB
S315200052F0D853C2F200039A4200D000BEBB68002BEE
S3152000530000D100BEFB79C02B00D900BEFA684DF64D
S315200053101863C2F200039A4206D0FA684DF6D853B3
S31520005320C2F200039A422ED1BB68002B2BD0FB7908
S31520005330C02B28D8FB68BA681A62FB681A68FB6813
S315200053401B681B7ADBB2DBB203F03F03F879194600
S31520005350034641EA0303DBB2DBB21372FB681B7917
S315200053605BB21846FFF714FEFB681B6803F10403C3
S3152000537018464FF00001FFF729FEFB681B795BB248
S315200053801846FFF7E9FD07F11007BD4680BD00BFAF
S31520005390684620F007018D4689B500AF4DF61860A6
S315200053A0C2F2000000F01AFABD46BDE889408546E3
S315200053B0704700BF684620F007018D4689B500AFCB
S315200053C04DF6D850C2F2000000F008FABD46BDE8FE
S315200053D089408546704700BF80B588B000AF7860A9
S315200053E039607A684DF61863C2F200039A4207D0F4
S315200053F07A684DF6D853C2F200039A4200D000BE16
S315200054007A684DF61863C2F200039A4207D07A688A
S315200054104DF6D853C2F200039A4240F0A4807B682E
S315200054203A689A6001F0CAFB7A684DF61863C2F2B0
S3152000543000039A4206D147F24033C2F200031B68AA
S31520005440FB6105E047F24433C2F200031B68FB61AF
S31520005450FB694FEAC3023B68B2FBF3F37B617B69CE
S315200054604FEA53033B613B694FEA9313FB60FB68AA
S315200054704FEA83133A69C3EB0203BB61FB684FEA29
S31520005480C3137A69C3EB0202BB694FEA4303C3EB3A
S315200054900203BA691344BB61FA684FF6FF739A4256
S315200054A000D900BEFA684FF6FF739A425BD8FB68B4
S315200054B0012B31D97B681B6803F10C0318464FF08A
S315200054C00701FFF783FD7B681B68FA684FEA122203
S315200054D0D2B21A717B681B68FA68D2B21A707B68DE
S315200054E01B6803F10C0318464FF00701FFF78EFDEA
S315200054F07B681B6803F1300318464FF00701FFF75E
