:020000042000DA
:100000000000012089010020F9010020FB010020EF
:10001000FD010020FF01002001020020000000007F
:1000200000000000000000000000000091430020DC
:100030000502002000000000C145002011460020FC
:100040000B0200200D0200200F02002011020020F0
:1000500013020020150200201702002019020020C0
:100060001B0200201D0200200558002029580020F6
:100070002302002025020020270200202902002060
:100080002B0200202D0200202F0200203102002030
:100090003302002035020020370200203902002000
:1000A0003B0200203D0200203F02002041020020D0
:1000B00043020020450200204702002049020020A0
:1000C0004B0200204D0200205553002069530020B0
:1000D0007D53002091530020A5530020B9530020E8
:1000E0005B0200205D0200205F0200206102002010
:1000F00063020020650200206702002069020020E0
:100100006B0200206D0200206F02002071020020AF
:10011000730200207502002077020020790200207F
:100120007B0200207D0200207F020020810200204F
:10013000830200208502002087020020890200201F
:100140008B0200208D0200208F02002091020020EF
:1001500093020020950200209702002099020020BF
:100160009B0200209D0200209F020020A10200208F
:10017000A3020020A5020020A7020020A90200205F
:10018000AB020020AD0200204948804749480028C2
:100190000BD1494849494A4A884206D091421CBF7E
:1001A00050F8043B41F8043BF8D146484649474AD9
:1001B000884206D091421CBF50F8043B41F8043BF2
:1001C000F8D143484349444A914218BF41F8040BCF
:1001D000FAD1000000000000000000000000000054
:1001E000DFF8F8000FF2030E00474FF000004FF069
:1001F0000001DFF8ECF0FEE7FEE7FEE7FEE7FEE7D2
:10020000FEE7FEE7FEE7FEE7FEE7FEE7FEE7FEE7C6
:10021000FEE7FEE7FEE7FEE7FEE7FEE7FEE7FEE7B6
:10022000FEE7FEE7FEE7FEE7FEE7FEE7FEE7FEE7A6
:10023000FEE7FEE7FEE7FEE7FEE7FEE7FEE7FEE796
:10024000FEE7FEE7FEE7FEE7FEE7FEE7FEE7FEE786
:10025000FEE7FEE7FEE7FEE7FEE7FEE7FEE7FEE776
:10026000FEE7FEE7FEE7FEE7FEE7FEE7FEE7FEE766
:10027000FEE7FEE7FEE7FEE7FEE7FEE7FEE7FEE756
:10028000FEE7FEE7FEE7FEE7FEE7FEE7FEE7FEE746
:10029000FEE7FEE7FEE7FEE7FEE7FEE7FEE7FEE736
:1002A000FEE7FEE7FEE7FEE7FEE7FEE7FEE7704754
:1002B0000570002000000000000000200000002069
:1002C000707700207077002070770020D0770020B2
:1002D00000000000D077002010E3002011740020FF
:1002E0000D040020000000000000000000000000DD
:1002F00047F2D073C2F200031A780AB901201870CD
:10030000704700BF47F27070C2F2000008B5036882
:100310002BB140F20003C0F2000303B1984708BDBF
:1003200080B400AF4EF6FC53CEF200034EF6FC5202
:10033000CEF20002126842F080721A6041F20403A9
:10034000CEF200034FF000021A6041F20003CEF239
:10035000000341F20002CEF20002126842F00102F4
:100360001A60BD4680BC704780B483B000AF41F2D4
:100370000403CEF200031B687B6047F2D473C2F221
:1003800000031B687A689A420BD247F2D873C2F214
:1003900000031B6803F1010247F2D873C2F20003A5
:1003A0001A6047F2D473C2F200037A681A6047F207
:1003B000B473C2F200031A6841F67F53C0F22C43B3
:1003C0009A420ED87B684FEA53337B6047F2D8736A
:1003D000C2F200031B684FEAC3437A6813447B6090
:1003E0000DE07B684FEA93337B6047F2D873C2F22B
:1003F00000031B684FEA83437A6813447B607B6881
:10040000184607F10C07BD4680BC704780B500AFA9
:1004100004F022FE4FF00003184680BD80B483B084
:1004200000AF4FF0A00383F31188BFF36F8FBFF3CA
:100430004F8F7B60FEE700BF80B400AFBD4680BC3D
:10044000704700BF80B485B000AF786039604FF06E
:10045000A00383F31188BFF36F8FBFF34F8FFB604F
:10046000FEE700BF80B483B000AF02460B46FA71CE
:10047000BB71F979BB791A464FEA4212C3EB02020B
:100480004FEA820213444FEAC30398B24DF6D87282
:10049000C2F200020B464FEAC303C1EB03034FEA6B
:1004A0004303134403F1080302469A8007F10C0743
:1004B000BD4680BC704700BF80B592B004AFF86005
:1004C000B9607A6047F2C863C2F200031B88BB863A
:1004D0004FF0280387F830304FF02A0387F82C308C
:1004E0004FF02C0387F828304FF0290387F8243089
:1004F0004FF02B0387F820304FF02D033B774FF060
:10050000000387F8363007F134034FF00002009201
:100510004EF2E000C2F200004FF06A011A464FF0BE
:10052000020305F0A7FD07F118034FF00002009247
:100530004EF2E000C2F200004FF06A011A464FF09E
:10054000010305F009FE4EF2E000C2F200004FF098
:10055000000105F00BFF034687F8373097F8362087
:1005600097F83730134487F8363007F1280307F13E
:10057000180200924FF0010201924FF00002029225
:100580004EF2E000C2F200004FF06A011A464FF04E
:10059000010305F053FE4EF2E000C2F200004FF0FE
:1005A000000105F0E3FE034687F8373097F8362060
:1005B00097F83730134487F8363007F11C0307F1FA
:1005C000140200924FF0010201924FF000020292D9
:1005D0004EF2E000C2F200004FF06A011A464FF0FE
:1005E000010305F02BFE4EF2E000C2F200004FF0D6
:1005F000000105F0BBFE034687F8373097F8362038
:1006000097F83730134487F836303B7D4FEA0323A1
:100610009AB23B7E42EA03039BB29AB27B681A808D
:100620007B681B88B3F5004F06D97B681B886FEA8F
:1006300003039AB27B681A8007F12C0307F11802B2
:1006400000924FF0010201924FF0000202924EF22E
:10065000E000C2F200004FF06A011A464FF00103B9
:1006600005F0ECFD4EF2E000C2F200004FF0000198
:1006700005F07CFE034687F8373097F8362097F868
:100680003730134487F8363007F1200307F114029E
:1006900000924FF0010201924FF0000202924EF2DE
:1006A000E000C2F200004FF06A011A464FF0010369
:1006B00005F0C4FD4EF2E000C2F200004FF0000170
:1006C00005F054FE034687F8373097F8362097F840
:1006D0003730134487F836303B7D4FEA03239AB214
:1006E0003B7E42EA03039BB29AB2BB681A80BB68A6
:1006F0001B88B3F5004F06D9BB681B886FEA03035C
:100700009AB2BB681A8007F1300307F11802009211
:100710004FF0010201924FF0000202924EF2E0000F
:10072000C2F200004FF06A011A464FF0010305F0D3
:1007300085FD4EF2E000C2F200004FF0000105F02E
:1007400015FE034687F8373097F8362097F837308C
:10075000134487F8363007F1240307F1140200929E
:100760004FF0010201924FF0000202924EF2E000BF
:10077000C2F200004FF06A011A464FF0010305F083
:100780005DFD4EF2E000C2F200004FF0000105F006
:10079000EDFD034687F8373097F8362097F8373065
:1007A000134487F836303B7D4FEA03239AB23B7EF1
:1007B00042EA03039BB29AB2FB681A80FB681B886B
:1007C000B3F5004F06D9FB681B886FEA03039AB2A2
:1007D000FB681A8097F83730184607F13807BD468E
:1007E00080BD00BF80B592B004AFF860B9607A6098
:1007F00047F2C463C2F200031B883B864FF0180324
:1008000087F82C304FF01A0387F828304FF01C037C
:1008100087F824304FF0190387F820304FF01B037E
:100820003B774FF01D033B764FF06A0387F8353076
:100830004FF0000387F8363097F8352007F1300382
:1008400007F1140100914FF0010101914FF00001F7
:1008500002914EF2E000C2F2000011461A464FF03B
:10086000020305F0EBFC4EF2E000C2F200004FF094
:10087000000105F07BFD034687F8373097F83620F6
:1008800097F83730134487F8363097F8352007F15A
:10089000240307F1140100914FF0010101914FF081
:1008A000000102914EF2E000C2F2000011461A4629
:1008B0004FF0010305F0C2FC4EF2E000C2F200006E
:1008C0004FF0000105F052FD034687F8373097F8E6
:1008D000362097F83730134487F8363097F83520AC
:1008E00007F1180307F1100100914FF00101019188
:1008F0004FF0000102914EF2E000C2F200001146FA
:100900001A464FF0010305F099FC4EF2E000C2F2E6
:1009100000004FF0000105F029FD034687F837304D
:1009200097F8362097F83730134487F836303B7CF9
:100930004FEA03239AB23B7D42EA03039BB29AB289
:10094000FB681A8097F8352007F1280307F1140196
:1009500000914FF0010101914FF0000102914EF220
:10096000E000C2F2000011461A464FF0010305F004
:1009700065FC4EF2E000C2F200004FF0000105F00D
:10098000F5FC034687F8373097F8362097F837306C
:10099000134487F8363097F8352007F11C0307F128
:1009A000100100914FF0010101914FF000010291FF
:1009B0004EF2E000C2F2000011461A464FF0010369
:1009C00005F03CFC4EF2E000C2F200004FF00001E6
:1009D00005F0CCFC034687F8373097F8362097F8B7
:1009E0003730134487F836303B7C4FEA03239AB202
:1009F0003B7D42EA03039BB29AB2BB681A8097F828
:100A0000352007F12C0307F1140100914FF001018B
:100A100001914FF0000102914EF2E000C2F200009D
:100A200011461A464FF0010305F008FC4EF2E000B3
:100A3000C2F200004FF0000105F098FC034687F871
:100A4000373097F8362097F83730134487F8363028
:100A500097F8352007F1200307F1100100914FF0BE
:100A6000010101914FF0000102914EF2E000C2F24B
:100A7000000011461A464FF0010305F0DFFB4EF26D
:100A8000E000C2F200004FF0000105F06FFC0346E9
:100A900087F8373097F8362097F83730134487F8BF
:100AA00036303B7C4FEA03239AB23B7D42EA030394
:100AB0009BB29AB27B681A8097F83730184607F1D4
:100AC0003807BD4680BD00BF80B58AB004AF7860EE
:100AD0004FF015033B754FF016033B744FF06A035C
:100AE000BB75BA7D07F1140307F10C0100914FF0BB
:100AF000010101914FF0000102914EF2E000C2F2BB
:100B0000000011461A464FF0010305F097FB4EF224
:100B1000E000C2F200004FF0000105F027FC0346A0
:100B2000FB75BA7D07F1100307F1080100914FF042
:100B3000010101914FF0000102914EF2E000C2F27A
:100B4000000011461A464FF0010305F077FB4EF204
:100B5000E000C2F200004FF0000105F007FC034680
:100B6000FB753B7B1A463B7A4FEA03239BB242EA72
:100B700003039BB29AB27B681A804FF000031846B9
:100B800007F11807BD4680BD80B586B002AFB960D9
:100B900013460246FA73FB714EF20403C2F20003DD
:100BA0004FF000021A7032E0FB79FA7B4FF000013F
:100BB00000914DF62830C2F200001146BA6805F0E7
:100BC00059FA4DF62830C2F200004FF0000105F04E
:100BD000CDFB03461A464EF20603C2F200031A701A
:100BE0004EF20603C2F200031B78002B02D14FF035
:100BF000000318E04EF20403C2F200031B7803F175
:100C00000103DAB24EF20403C2F200031A704EF28C
:100C10000403C2F200031B78092BC5D94EF204036A
:100C2000C2F200031B78184607F11007BD4680BDCD
:100C300080B586B002AFB96013460246FA73FB7105
:100C40004EF20403C2F200034FF000021A7032E0C9
:100C5000FB79FA7B4FF0000100914DF62830C2F28B
:100C600000001146BA6805F077FA4DF62830C2F256
:100C700000004FF0000105F079FB03461A464EF2E2
:100C80000603C2F200031A704EF20603C2F200031A
:100C90001B78002B02D14FF0000318E04EF2040342
:100CA000C2F200031B7803F10103DAB24EF204032F
:100CB000C2F200031A704EF20403C2F200031B7862
:100CC000092BC5D94EF20403C2F200031B78184663
:100CD00007F11007BD4680BD80B582B000AF0B465E
:100CE0003A600246FA71BB71FA7907F106031046C1
:100CF00019464FF00102FFF747FF0346092B02D9BF
:100D00004FF001030EE0FB79184639684FF00202FC
:100D1000FFF78EFF0346092B02D94FF0010301E0D4
:100D20004FF00003184607F10807BD4680BD00BF1D
:100D300080B582B000AF0B463A600246FA71BB71D3
:100D40004EF20003C2F200034FF000021A704EF29E
:100D50000003C2F200034FF000025A704EF2020389
:100D6000C2F200034FF000021A80BB794FEA43033E
:100D7000DBB2FA79104619464EF20002C2F20002C6
:100D8000FFF7AAFF0346002B1AD14EF20003C2F26E
:100D900000031B784FEA03239AB24EF20003C2F21B
:100DA00000035B7842EA03039BB29AB24EF202035D
:100DB000C2F200031A803B684FF000021A700AE08A
:100DC0003B684FF001021A704EF20203C2F20003B8
:100DD0004FF000021A804EF20203C2F200031B8899
:100DE000184607F10807BD4680BD00BF80B582B038
:100DF00000AF0B463A600246FA71BB714EF2000337
:100E0000C2F200034FF000021A704EF20003C2F269
:100E100000034FF000025A704EF20203C2F20003C8
:100E20004FF000021A80BB794FEA4303DBB203F1B3
:100E3000FF33DBB2FA79104619464EF20002C2F2D5
:100E40000002FFF749FF0346002B1AD14EF20003C0
:100E5000C2F200031B784FEA03239AB24EF200035A
:100E6000C2F200035B7842EA03039BB29AB24EF2ED
:100E70000203C2F200031A803B684FF000021A70AE
:100E80000AE03B684FF001021A704EF20203C2F210
:100E900000034FF000021A804EF20203C2F2000378
:100EA0001B88184607F10807BD4680BD80B58CB089
:100EB00004AFF8607B600B46FB721346BB72BB7AD3
:100EC0003B753B7D43F00803DBB23B753B7D4FEA4E
:100ED0000313DBB23B75FA7A07F1140307F118012B
:100EE00000914FF0020101914FF000010291F8686A
:100EF00011461A464FF0010305F0A0F9F8684FF0CB
:100F0000000105F033FA03467B777B7F002B04D08A
:100F10007B684FF001021A7012E03B7E4FEA032318
:100F20009AB27B7E42EA03039BB2FB83FB8B4FEAC0
:100F300003534FEA1353FB837B684FF000021A7090
:100F4000FB8B184607F12007BD4680BD80B584B0F5
:100F500000AF03463960FB71FB79002B0ED13B6873
:100F6000BB60BB685968BB689A68BB681B7B084656
:100F700011464FF0880205F007F830E0FB790A2BA4
:100F80000ED13B68FB60FB685968FB689A68FB6898
:100F90001B7B084611464FF0880204F0F5FF1EE067
:100FA000FB790B2B1BD14EF2E000C2F2000045F2A0
:100FB0000001C5F200014FF088024FF0000304F079
:100FC000E3FF4DF62830C2F2000042F20001C5F204
:100FD00000014FF088024FF0000304F0D5FF07F145
:100FE0001007BD4680BD00BF80B483B000AF03468C
:100FF000FB80FB884FF47A7202FB03F244F6D35372
:10100000C1F26203A3FB02134FEA9313184607F1E0
:101010000C07BD4680BC704780B483B000AF7860D9
:101020004FF00103184607F10C07BD4680BC70471E
:1010300080B485B000AF78607B681A785B784FEA3F
:10104000032343EA02039BB24FEA03239AB27B686D
:1010500019785B784FEA032343EA01039BB24FEA16
:1010600013239BB242EA03039BB2FB814EF2482357
:10107000C2F200031A68FB894FEA43534FEA535305
:1010800003F0FF014FF0000040EA010151704FEA08
:1010900013239BB24FF0000141EA03039370FB89D5
:1010A0004FEAD3239BB203F00103DBB2002B02D043
:1010B0004FF0010301E04FF00003184607F1140759
:1010C000BD4680BC704700BF80B483B000AF0B4604
:1010D0003A600246FA71BB80F9794EF23022C2F2D0
:1010E00000020B464FEAC303C1EB03031344FA7932
:1010F0001A70F9794EF23022C2F200020B464FEA22
:10110000C303C1EB030313443A794FF0000141EAF2
:1011100002025A707A794FF0000141EA02029A7095
:10112000F8793A684EF23021C2F2000103464FEAE4
:10113000C303C0EB03030B4402F0FF014FF00000B8
:1011400040EA0101D9704FEA122101F0FF014FF08E
:10115000000040EA010119714FEA124101F0FF015C
:101160004FF0000040EA010159714FEA12624FF05E
:10117000000141EA02029A7107F10C07BD4680BCEA
:10118000704700BF80B400AFBD4680BC704700BF51
:1011900090B585B002AF786041F29523C2F20003AA
:1011A0004FF000004FF010011A46FFF78DFF41F29B
:1011B000A923C2F200034FF001004FF010011A46BC
:1011C000FFF782FF7868FFF733FF0346002B37D025
:1011D0007B681B794FF47A7202FB03F244F6D35317
:1011E000C1F26203A3FB02134FEA931241F285138B
:1011F000C2F20003009347F2CC60C2F20000114635
:101200004FF000024FF0000302F068FA02464EF27F
:101210002C23C2F200031A604EF22C23C2F2000308
:101220001C6801F049FA03464FF000020092204684
:101230004FF001011A464FF0000302F0A1FA25E039
:101240007B689A78DB784FEA032343EA02039BB278
:1012500003F1FF314EF23022C2F200020B464FEA98
:10126000C303C1EB03031344DA7819794FEA012170
:1012700041EA020259794FEA014141EA02029B79AF
:101280004FEA036343EA02037868984707F10C07C3
:10129000BD4690BD80B485B000AF786007F11407FB
:1012A000BD4680BC704700BF90B585B002AF786086
:1012B0007B689B791A464DF6F473C2F2000353F82B
:1012C00022407B68DB791A464FEA4212C3EB0202E6
:1012D0004FEA820213444FEAC3039BB21846FFF75A
:1012E00083FE03464FF00002009220464FF00401B7
:1012F0001A464FF0000302F043FA07F10C07BD460F
:1013000090BD00BF80B483B000AF78607B6803F10C
:1013100008031A467B685A607B684FF0FF329A6078
:101320007B6803F108031A467B68DA607B6803F187
:1013300008031A467B681A617B684FF000021A6046
:1013400007F10C07BD4680BC704700BF80B483B076
:1013500000AF78607B684FF000021A6107F10C075C
:10136000BD4680BC704700BF80B485B000AF7860D8
:1013700039607B685B68FB603B68FA685A60FB68B1
:101380009A683B689A60FB689B683A685A60FB6899
:101390003A689A603B687A681A617B681B6803F157
:1013A00001027B681A6007F11407BD4680BC7047D4
:1013B00080B485B000AF786039603B681B68FB6023
:1013C000FB68B3F1FF3F03D17B681B69BB600DE095
:1013D0007B6803F10803BB6002E0BB685B68BB602D
:1013E000BB685B681A68FB689A42F6D9BB685A68A2
:1013F0003B685A603B685B683A689A603B68BA68C9
:101400009A60BB683A685A603B687A681A617B6880
:101410001B6803F101027B681A6007F11407BD46DF
:1014200080BC704780B485B000AF78607B681B6972
:10143000FB607B685B687A6892689A607B689B68EF
:101440007A6852685A60FB685A687B689A4203D18E
:101450007B689A68FB685A607B684FF000021A61EB
:10146000FB681B6803F1FF32FB681A60FB681B68AE
:10147000184607F11407BD4680BC704780B584B09C
:1014800000AF786039607B68BB60BB68002B09D116
:101490004FF0A00383F31188BFF36F8FBFF34F8F1B
:1014A000FB60FEE703F022F8BB681A68BB68DB6BE1
:1014B000B968096C01FB03F31A44BB685A60BB6846
:1014C0004FF000029A63BB681A68BB689A60BB68F9
:1014D0001A68BB68DB6B03F1FF33B968096C01FB69
:1014E00003F31A44BB68DA60BB684FF0FF3283F83D
:1014F0004420BB684FF0FF3283F845203B68002B47
:1015000018D1BB681B69002B21D0BB6803F1100305
:10151000184601F00FFB0346002B1AD04EF6045379
:10152000CEF200034FF080521A60BFF34F8FBFF32B
:101530006F8F0FE0BB6803F110031846FFF7E2FE60
:10154000BB6803F124031846FFF7DCFE02E000BF8E
:1015500000E000BF03F002F84FF00103184607F166
:101560001007BD4680BD00BF80B58AB002AFF860ED
:10157000B9601346FB71FB68002B09D14FF0A00343
:1015800083F31188BFF36F8FBFF34F8FFB61FEE7CB
:10159000BB68002B03D14FF000037B6104E0FB68C4
:1015A000BA6802FB03F37B617B6903F150031846C1
:1015B00002F04EFC03463B613B69002B0BD03B69BC
:1015C00003F15003BB61FB793A690092F868B9688E
:1015D000BA6900F007F83B69184607F12007BD46D5
:1015E00080BD00BF80B584B000AFF860B9607A609C
:1015F000FB70BB68002B03D1BA69BB691A6002E0BB
:101600007A68BB691A60BB69FA68DA63BB69BA6851
:101610001A64B8694FF00101FFF730FFBB69FA782F
:1016200083F84C2007F11007BD4680BD80B582B01D
:1016300000AF78607B68002B14D07B684FF000020D
:101640005A607B684FF000021A607B684FF000021E
:10165000DA6078684FF000014FF000024FF00003AD
:1016600000F020F807F10807BD4680BD80B586B0C0
:1016700000AF0346FB714FF001033B614FF00003E5
:101680007B61FB79386979691A46FFF76DFF03467C
:10169000FB60F868FFF7CAFFFB68184607F11807F8
:1016A000BD4680BD80B58EB000AFF860B9607A608D
:1016B0003B604FF00003FB61FB687B627B6A002BA1
:1016C00009D14FF0A00383F31188BFF36F8FBFF3ED
:1016D0004F8FBB62FEE7BB68002B03D17B6A1B6C9C
:1016E000002B02D14FF0010301E04FF00003002B6B
:1016F00009D14FF0A00383F31188BFF36F8FBFF3BD
:101700004F8FFB62FEE73B68022B03D17B6ADB6BEA
:10171000012B02D14FF0010301E04FF00003002B39
:1017200009D14FF0A00383F31188BFF36F8FBFF38C
:101730004F8F3B63FEE701F005FC0346002B02D10F
:101740007B68002B02D14FF0010301E04FF0000352
:10175000002B0AD14FF0A00383F31188BFF36F8FE2
:10176000BFF34F8F7B63FEE700BF02F0BFFE7B6AD3
:101770009A6B7B6ADB6B9A4202D33B68022B34D1B3
:10178000786AB9683A6800F07BFA03463B627B6A84
:101790005B6A002B14D07B6A03F12403184601F026
:1017A000C9F90346002B1AD04EF60453CEF20003BB
:1017B0004FF080521A60BFF34F8FBFF36F8F0FE06F
:1017C0003B6A002B0CD04EF60453CEF200034FF0D0
:1017D00080521A60BFF34F8FBFF36F8F00E000BFDE
:1017E00002F0BCFE4FF001036FE07B68002B04D1D8
:1017F00002F0B4FE4FF0000367E0FB69002B07D155
:1018000007F11403184601F00DFA4FF00103FB61D4
:1018100002F0A4FE00F06EFE02F068FE7B6A93F810
:101820004430DBB25BB2B3F1FF3F04D17B6A4FF0CF
:10183000000283F844207B6A93F84530DBB25BB248
:10184000B3F1FF3F04D17B6A4FF0000283F84520DB
:1018500002F084FE07F1140207F104031046194652
:1018600001F004FA0346002B28D1786A00F018FB37
:101870000346002B1CD07B6A03F110027B681046E4
:10188000194601F005F9786A00F09AFA00F044FE72
:101890000346002B7FF468AF4EF60453CEF20003EC
:1018A0004FF080521A60BFF34F8FBFF36F8F5CE72A
:1018B000786A00F085FA00F02FFE56E7786A00F0AB
:1018C0007FFA00F029FE4FF00003184607F13807B1
:1018D000BD4680BD80B58EB000AFF860B9607A605B
:1018E0003B60FB68BB61BB69002B09D14FF0A003D3
:1018F00083F31188BFF36F8FBFF34F8F3B62FEE717
:10190000BB68002B03D1BB691B6C002B02D14FF0CD
:10191000010301E04FF00003002B09D14FF0A003B9
:1019200083F31188BFF36F8FBFF34F8F7B62FEE7A6
:101930003B68022B03D1BB69DB6B012B02D14FF05B
:10194000010301E04FF00003002B09D14FF0A00389
:1019500083F31188BFF36F8FBFF34F8FBB62FEE736
:1019600002F098FEEFF311824FF0A00383F3118889
:10197000BFF36F8FBFF34F8F3A63FB623B6B7B61AB
:10198000BB699A6BBB69DB6B9A4202D33B68022B43
:1019900034D1BB6993F84530FB77B869B9683A68C8
:1019A00000F06EF997F91F30B3F1FF3F14D1BB6916
:1019B0005B6A002B19D0BB6903F12403184601F0C0
:1019C000B9F80346002B12D07B68002B11D07B683E
:1019D0004FF001021A600DE0FB7F03F10103DBB25F
:1019E0001A46BB6983F8452004E000BF02E000BF4F
:1019F00000E000BF4FF001033B6102E04FF0000345
:101A00003B617B697B637B6B83F311883B69184681
:101A100007F13807BD4680BD80B58EB000AFF860D5
:101A2000B9607A603B604FF00003FB61FB687B624A
:101A30007B6A002B09D14FF0A00383F31188BFF319
:101A40006F8FBFF34F8FFB62FEE7BB68002B03D1A4
:101A50007B6A1B6C002B02D14FF0010301E04FF0B9
:101A60000003002B09D14FF0A00383F31188BFF3CB
:101A70006F8FBFF34F8F3B63FEE701F063FA0346BE
:101A8000002B02D17B68002B02D14FF0010301E053
:101A90004FF00003002B0CD14FF0A00383F311880B
:101AA000BFF36F8FBFF34F8F7B63FEE700BF00E094
:101AB00000BF02F01BFD7B6A9B6BBB62BB6A002B05
:101AC00055D07B6ADB683B62786AB96800F050F9F0
:101AD0003B68002B27D1BB6A03F1FF327B6A9A6314
:101AE0007B6A1B68002B05D101F09CFB03461A465C
:101AF0007B6A5A607B6A1B69002B30D07B6A03F1DA
:101B00001003184601F016F80346002B29D04EF6B4
:101B10000453CEF200034FF080521A60BFF34F8F90
:101B2000BFF36F8F1EE07B6A3A6ADA607B6A5B6A9A
:101B3000002B17D07B6A03F12403184600F0FAFF4C
:101B40000346002B0ED04EF60453CEF200034FF0A6
:101B500080521A60BFF34F8FBFF36F8F02E000BF58
:101B600000E000BF02F0FAFC4FF0010383E07B6865
:101B7000002B04D102F0F2FC4FF000037BE0FB6984
:101B8000002B07D107F11403184601F04BF84FF072
:101B90000103FB6102F0E2FC00F0ACFC02F0A6FCE9
:101BA0007B6A93F84430DBB25BB2B3F1FF3F04D100
:101BB0007B6A4FF0000283F844207B6A93F845303B
:101BC000DBB25BB2B3F1FF3F04D17B6A4FF000029E
:101BD00083F8452002F0C2FC07F1140207F1040368
:101BE0001046194601F042F80346002B35D1786AB9
:101BF00000F03CF90346002B29D07B6A1B68002BC0
:101C000008D102F073FC7B6A5B68184601F0BEF9EC
:101C100002F0A4FC7B6A03F124027B68104619469B
:101C200000F036FF786A00F0CBF800F075FC034650
:101C3000002B7FF43BAF4EF60453CEF200034FF07F
:101C400080521A60BFF34F8FBFF36F8F31E7786A0E
:101C500000F0B6F800F060FC2BE7786A00F0B0F80E
:101C600000F05AFC786A00F001F90346002B3FF4BB
:101C70001FAF4FF00003184607F13807BD4680BD7F
:101C800080B586B000AFF860B9607A604FF00003AD
:101C90003B61FB689B6B7B61FB681B6C002B0FD16E
:101CA000FB681B68002B55D1FB685B68184601F088
:101CB00013FA03463B61FB684FF000025A604CE0A8
:101CC0007B68002B1AD1FB689A68FB681B6C104676
:101CD000B9681A4605F0C4FBFB689A68FB681B6C80
:101CE0001A44FB689A60FB689A68FB685B689A42D2
:101CF00032D3FB681A68FB689A602EE0FB68DA68EA
:101D0000FB681B6C1046B9681A4605F0A9FBFB6816
:101D1000DA68FB681B6CC3F100031A44FB68DA60E5
:101D2000FB68DA68FB681B689A4208D2FB685A684D
:101D3000FB681B6CC3F100031A44FB68DA607B6824
:101D4000022B0AD17B69002B07D07B6903F1FF339B
:101D50007B6102E000BF00E000BF7B6903F101028C
:101D6000FB689A633B69184607F11807BD4680BDBA
:101D700080B582B000AF786039607B681B6C002B47
:101D800019D07B68DA687B681B6C1A447B68DA6060
:101D90007B68DA687B685B689A4203D37B681A6861
:101DA0007B68DA607B68DA687B681B6C3868114690
:101DB0001A4605F055FB07F10807BD4680BD00BF78
:101DC00080B584B000AF786002F090FB7B6893F838
:101DD0004530BB7312E07B685B6A002B13D07B68D5
:101DE00003F12403184600F0A5FE0346002B01D0A2
:101DF00000F0A4FFBB7B03F1FF33BB7397F90E30F8
:101E0000002BE8DC00E000BF7B684FF0FF3283F876
:101E1000452002F0A3FB02F069FB7B6893F8443095
:101E2000FB7312E07B681B69002B13D07B6803F106
:101E30001003184600F07EFE0346002B01D000F090
:101E40007DFFFB7B03F1FF33FB7397F90F30002B12
:101E5000E8DC00E000BF7B684FF0FF3283F84420ED
:101E600002F07CFB07F11007BD4680BD80B584B051
:101E700000AF786002F03AFB7B689B6B002B03D1CC
:101E80004FF00103FB6002E04FF00003FB6002F043
:101E900065FBFB68184607F11007BD4680BD00BF13
:101EA00080B584B000AF786002F020FB7B689A6B4D
:101EB0007B68DB6B9A4203D14FF00103FB6002E0C9
:101EC0004FF00003FB6002F049FBFB68184607F186
:101ED0001007BD4680BD00BF80B586B000AFF8607A
:101EE000B9607A60FB687B6102F000FB7B6993F864
:101EF0004430DBB25BB2B3F1FF3F04D17B694FF0FA
:101F0000000283F844207B6993F84530DBB25BB272
:101F1000B3F1FF3F04D17B694FF0000283F8452005
:101F200002F01CFB7B699B6B002B07D17B6903F1E3
:101F300024031846B9687A6800F0D0FD7869FFF785
:101F40003FFF07F11807BD4680BD00BF80B58CB0CC
:101F500004AFF860B9603B601346FB80FB884FEA32
:101F60008303184601F074FF0346FB61FB69002BF5
:101F700010D04FF05C0001F06BFF03467B617B6982
:101F8000002B03D07B69FA691A6306E0F86902F056
:101F90005BF802E04FF000037B617B69002B16D0F9
:101FA000FB88BA6A0092FA6A01927A6902924FF04B
:101FB00000020392F868B9681A463B6800F010F80E
:101FC000786900F0A3F84FF00103BB6102E04FF025
:101FD000FF33BB61BB69184607F12007BD4680BDD2
:101FE00080B588B000AFF860B9607A603B603B6B49
:101FF0001A6B7B684FEA830310464FF0A5011A461F
:1020000005F0F6FA3B6B1A6B7B6803F1FF334FEA7E
:10201000830313447B617B6923F007037B617B6946
:1020200003F00703002B09D04FF0A00383F31188BE
:10203000BFF36F8FBFF34F8FFB61FEE74FF00003DD
:10204000BB6112E0B969BA68BB6913441A783B6B8B
:102050000B4483F83420BA68BB6913441B78002B07
:1020600007D0BB6903F10103BB61BB69092BE9D947
:1020700000E000BF3B6B4FF0000283F83D20BB6ADD
:10208000042B02D94FF00403BB623B6BBA6ADA62DD
:102090003B6BBA6A9A643B6B4FF00002DA643B6BAD
:1020A00003F104031846FFF751F93B6B03F11803E2
:1020B0001846FFF74BF93B6B3A6B1A61BB6AC3F1E9
:1020C00005023B6B9A613B6B3A6B5A623B6B4FF07C
:1020D00000021A653B6B4FF000025A653B6B4FF0F4
:1020E000000283F858207869F9683A6802F0F8F835
:1020F00003461A463B6B1A60FB6A002B02D0FB6A50
:102100003A6B1A6007F12007BD4680BD80B582B0EA
:1021100000AF786002F0EAF947F6B403C2F20003B8
:102120001B6803F1010247F6B403C2F200031A6010
:1021300047F2DC73C2F200031B68002B0FD147F299
:10214000DC73C2F200037A681A6047F6B403C2F285
:1021500000031B68012B1AD100F018FE18E047F6A7
:10216000C003C2F200031B68002B11D147F2DC73DD
:10217000C2F200031B68DA6A7B68DB6A9A4207D8FE
:1021800047F2DC73C2F200037A681A6000E000BF15
:1021900047F6D003C2F200031B6803F1010247F6C1
:1021A000D003C2F200031A6047F6D003C2F2000364
:1021B0001A687B681A647B68DB6A4FF0010202FAD6
:1021C00003F247F6BC03C2F200031B6842EA0302B3
:1021D00047F6BC03C2F200031A607B68DA6A134652
:1021E0004FEA830313444FEA83031A4647F2E0732E
:1021F000C2F200031A447B6803F104031046194637
:10220000FFF7B2F802F0AAF947F6C003C2F20003E2
:102210001B68002B14D047F2DC73C2F200031B686A
:10222000DA6A7B68DB6A9A420AD24EF60453CEF22F
:1022300000034FF080521A60BFF34F8FBFF36F8FD0
:1022400007F10807BD4680BD80B584B000AF786057
:1022500002F04CF97B68002B05D147F2DC73C2F227
:1022600000031B6800E07B68BB60BB68DB6AFB6047
:1022700002F074F9FB68184607F11007BD4680BDEF
:1022800080B588B000AF786039604FF00003BB6163
:102290003B68042B09D94FF0A00383F31188BFF3E7
:1022A0006F8FBFF34F8FFB61FEE73B68042B02D9B2
:1022B0004FF004033B6002F019F97B68002B05D155
:1022C00047F2DC73C2F200031B6800E07B68FB602E
:1022D000FB689B6C3B613A693B689A4200F0A980BD
:1022E0003A683B699A4214D947F2DC73C2F20003A0
:1022F0001B68FA689A4218D047F2DC73C2F20003F6
:102300001B68DA6A3B689A4211D84FF00103BB613F
:102310000EE047F2DC73C2F200031B68FA689A42CF
:1023200006D14FF00103BB6102E000BF00E000BF37
:10233000FB68DB6A7B61FB689A6CFB68DB6A9A422C
:1023400002D1FB683A68DA62FB683A689A64FB6813
:102350009B69002B04DB3B68C3F10502FB689A61B3
:10236000FB6859697A6913464FEA830313444FEABD
:1023700083031A4647F2E073C2F200031344994202
:1023800002D14FF0010301E04FF00003002B42D0D7
:10239000FB6803F104031846FFF744F80346002BDB
:1023A00012D17B694FF0010202FA03F36FEA0302D4
:1023B00047F6BC03C2F200031B6802EA030247F6B9
:1023C000BC03C2F200031A60FB68DB6A4FF0010233
:1023D00002FA03F247F6BC03C2F200031B6842EAAA
:1023E000030247F6BC03C2F200031A60FB68DA6A14
:1023F00013464FEA830313444FEA83031A4647F216
:10240000E073C2F200031A44FB6803F104031046B0
:102410001946FEF7A9FFBB69002B0AD04EF60453FC
:10242000CEF200034FF080521A60BFF34F8FBFF31C
:102430006F8F02F093F807F12007BD4680BD00BF03
:1024400080B586B002AF4FF00003009347F6D80383
:10245000C2F20003019342F65550C2F2000047F267
:10246000D861C2F200014FF050024FF00003FFF7B5
:102470006DFD03467B607B68012B03D101F0F4F80E
:1024800003467B607B68012B22D14FF0A00383F3CE
:102490001188BFF36F8FBFF34F8FBB6047F6D40334
:1024A000C2F200034FF0FF321A6047F6C003C2F2D7
:1024B00000034FF001021A6047F6B803C2F20003AE
:1024C0004FF000021A60FDF72BFF01F089FF0DE0CD
:1024D0007B68B3F1FF3F09D14FF0A00383F311886C
:1024E000BFF36F8FBFF34F8FFB60FEE707F110075D
:1024F000BD4680BD80B400AF47F6DC03C2F20003E6
:102500001B6803F1010247F6DC03C2F200031A6004
:10251000BD4680BC704700BF80B584B000AF4FF0AF
:1025200000033B604FF000037B6047F6DC03C2F220
:1025300000031B68002B09D14FF0A00383F311881F
:10254000BFF36F8FBFF34F8FFB60FEE701F0CEFF4D
:1025500047F6DC03C2F200031B6803F1FF3247F6C3
:10256000DC03C2F200031A6047F6DC03C2F2000388
:102570001B68002B40F0988047F6B403C2F20003BA
:102580001B68002B00F090804AE047F67403C2F20B
:102590000003DB68DB683B603B6803F11803184607
:1025A000FEF740FF3B6803F104031846FEF73AFFCD
:1025B0003B68DB6A4FF0010202FA03F247F6BC0304
:1025C000C2F200031B6842EA030247F6BC03C2F2F0
:1025D00000031A603B68DA6A13464FEA8303134428
:1025E0004FEA83031A4647F2E073C2F200031A442B
:1025F0003B6803F1040310461946FEF7B5FE3B683D
:10260000DA6A47F2DC73C2F200031B68DB6A9A42A3
:1026100006D347F6C803C2F200034FF001021A6066
:1026200047F67403C2F200031B68002BADD13B6870
:10263000002B01D000F058FC47F6C403C2F200039F
:102640001B68BB60BB68002B19D000F045F803463F
:10265000002B06D047F6C803C2F200034FF0010278
:102660001A60BB6803F1FF33BB60BB68002BECD181
:1026700047F6C403C2F200034FF000021A6047F6A7
:10268000C803C2F200031B68002B0DD04FF00103FA
:102690007B604EF60453CEF200034FF080521A6076
:1026A000BFF34F8FBFF36F8F01F058FF7B68184661
:1026B00007F11007BD4680BD80B483B000AF47F678
:1026C000B803C2F200031B687B607B68184607F101
:1026D0000C07BD4680BC704780B586B000AF4FF098
:1026E0000003BB6047F6DC03C2F200031B68002B4B
:1026F00040F0DC8047F6B803C2F200031B6803F128
:102700000103FB6047F6B803C2F20003FA681A60DF
:10271000FB68002B35D147F66C03C2F200031B683F
:102720001B68002B09D04FF0A00383F31188BFF37F
:102730006F8FBFF34F8F7B61FEE747F66C03C2F2EA
:1027400000031B683B6147F67003C2F200031A687E
:1027500047F66C03C2F200031A6047F67003C2F238
:1027600000033A691A6047F6CC03C2F200031B6803
:1027700003F1010247F6CC03C2F200031A6000F035
:10278000B3FB47F6D403C2F200031B68FA689A420F
:1027900073D300E000BF47F66C03C2F200031B686E
:1027A0001B68002B02D14FF0010301E04FF0000342
:1027B000002B07D047F6D403C2F200034FF0FF32DC
:1027C0001A605AE047F66C03C2F200031B68DB682C
:1027D000DB683B603B685B687B60FA687B689A42B9
:1027E00006D247F6D403C2F200037A681A6044E0C6
:1027F0003B6803F104031846FEF714FE3B689B6A2E
:10280000002B05D03B6803F118031846FEF70AFEBB
:102810003B68DB6A4FF0010202FA03F247F6BC03A1
:10282000C2F200031B6842EA030247F6BC03C2F28D
:1028300000031A603B68DA6A13464FEA83031344C5
:102840004FEA83031A4647F2E073C2F200031A44C8
:102850003B6803F1040310461946FEF785FD3B680B
:10286000DA6A47F2DC73C2F200031B68DB6A9A4241
:1028700090D34FF00103BB608DE747F2DC73C2F2E7
:1028800000031B68DA6A13464FEA830313444FEAD6
:1028900083031A4647F2E073C2F2000313441B6835
:1028A000012B10D94FF00103BB600DE047F6C403C4
:1028B000C2F200031B6803F1010247F6C403C2F22F
:1028C00000031A6000E000BF47F6C803C2F200032D
:1028D0001B68002B02D04FF00103BB60BB68184699
:1028E00007F11807BD4680BD80B588B000AF47F638
:1028F000DC03C2F200031B68002B07D047F6C803B5
:10290000C2F200034FF001021A60BCE047F6C803B0
:10291000C2F200034FF000021A60FDF725FD0246E7
:1029200047F6E403C2F200031A6047F6E403C2F27A
:1029300000031A6847F6E003C2F200031B689A42DC
:1029400013D947F2DC73C2F200031A68116D47F61F
:10295000E403C2F20003186847F6E003C2F2000382
:102960001B68C3EB00030B44136547F6E403C2F294
:1029700000031A6847F6E003C2F200031A6047F248
:10298000DC73C2F200031B681B6B7B604FF0A53346
:10299000BB607B681A68BB689A4214D17B6803F1FC
:1029A00004031A68BB689A420DD17B6803F10803DF
:1029B0001A68BB689A4206D17B6803F10C031A6857
:1029C000BB689A420FD047F2DC73C2F200031A6868
:1029D00047F2DC73C2F200031B6803F134031046B4
:1029E0001946FDF72FFD47F6BC03C2F200031B6832
:1029F0007B617B69B3FA83F3FB76FB7EC3F11F0334
:102A0000FB60FA6813464FEA830313444FEA8303DB
:102A10001A4647F2E073C2F2000313441B68002B0E
:102A200009D14FF0A00383F31188BFF36F8FBFF379
:102A30004F8FFB61FEE7FA6813464FEA83031344A6
:102A40004FEA83031A4647F2E073C2F200031344CD
:102A50003B613B695B685A683B695A603B695A68ED
:102A60003B6903F108039A4204D13B695B685A68E9
:102A70003B695A603B695B68DB681A4647F2DC7366
:102A8000C2F200031A6007F12007BD4680BD00BFF7
:102A900080B584B000AF786039607B68002B09D1C5
:102AA0004FF0A00383F31188BFF36F8FBFF34F8FF5
:102AB000FB60FEE747F2DC73C2F200031B6803F120
:102AC000180378681946FEF773FC38684FF0010167
:102AD00000F042FD07F11007BD4680BD80B586B00D
:102AE00000AFF860B9607A60FB68002B09D14FF045
:102AF000A00383F31188BFF36F8FBFF34F8F7B6108
:102B0000FEE747F2DC73C2F200031B6803F118030F
:102B1000F8681946FEF728FC7B68002B02D04FF0BE
:102B2000FF33BB60B868796800F016FD07F118073D
:102B3000BD4680BD80B586B000AF78607B68DB683D
:102B4000DB68FB60FB68002B09D14FF0A00383F327
:102B50001188BFF36F8FBFF34F8F7B61FEE7FB6878
:102B600003F118031846FEF75DFC47F6DC03C2F2DA
:102B700000031B68002B2DD1FB6803F104031846EA
:102B8000FEF750FCFB68DB6A4FF0010202FA03F229
:102B900047F6BC03C2F200031B6842EA030247F691
:102BA000BC03C2F200031A60FB68DA6A13464FEAFC
:102BB000830313444FEA83031A4647F2E073C2F2D9
:102BC00000031A44FB6803F1040310461946FEF79C
:102BD000CBFB09E0FB6803F1180347F67400C2F26F
:102BE00000001946FEF7C0FBFB68DA6A47F2DC73A7
:102BF000C2F200031B68DB6A9A420AD94FF0010354
:102C00003B6147F6C803C2F200034FF001021A60AD
:102C100002E04FF000033B613B69184607F11807DB
:102C2000BD4680BD80B485B000AF78607B68002B66
:102C300009D14FF0A00383F31188BFF36F8FBFF367
:102C40004F8FFB60FEE747F6CC03C2F200031A6821
:102C50007B681A6047F6B803C2F200031A687B6803
:102C60005A6007F11407BD4680BC704780B586B036
:102C700000AF786039607B68002B09D14FF0A0036A
:102C800083F31188BFF36F8FBFF34F8F3B61FEE774
:102C90003B68002B09D14FF0A00383F31188BFF3E9
:102CA0006F8FBFF34F8F7B61FEE701F01FFC47F68C
:102CB000B803C2F200031B68FB603B681B68B3F1FA
:102CC000FF3F03D14FF00003BB602EE07B681A6822
:102CD00047F6CC03C2F200031B689A4208D07B6817
:102CE0005A68FB689A4203D84FF00103BB601CE0AE
:102CF0007B685B68FA68C3EB02023B681B689A4218
:102D000010D23B681A687B685968FB68C3EB010303
:102D10001A443B681A607868FFF784FF4FF000039D
:102D2000BB6002E04FF00103BB6001F017FCBB6821
:102D3000184607F11807BD4680BD00BF80B400AF3C
:102D400047F6C803C2F200034FF001021A60BD4605
:102D500080BC704780B582B000AF786000F068F842
:102D600047F2E073C2F200031B68012B0AD94EF64A
:102D70000453CEF200034FF080521A60BFF34F8F1E
:102D8000BFF36F8FFDF758FBE8E700BF80B582B057
:102D900000AF4FF000037B6013E07A6813464FEA00
:102DA000830313444FEA83031A4647F2E073C2F2E7
:102DB000000313441846FEF7A5FA7B6803F10103EC
:102DC0007B607B68042BE8D947F64400C2F2000020
:102DD000FEF798FA47F65800C2F20000FEF792FAA2
:102DE00047F67400C2F20000FEF78CFA47F688003E
:102DF000C2F20000FEF786FA47F6A000C2F2000019
:102E0000FEF780FA47F66C03C2F2000347F644026D
:102E1000C2F200021A6047F67003C2F2000347F6DE
:102E20005802C2F200021A6007F10807BD4680BDD1
:102E300080B582B000AF3CE0FFF75CFB47F688034B
:102E4000C2F200031B68002B14BF002301233B6068
:102E5000FFF762FB3B68002B2BD101F047FB47F6E5
:102E60008803C2F20003DB68DB687B607B6803F1E8
:102E700004031846FEF7D6FA47F6B403C2F200037D
:102E80001B6803F1FF3247F6B403C2F200031A6075
:102E900047F69C03C2F200031B6803F1FF3247F6BA
:102EA0009C03C2F200031A6001F058FB786800F03E
:102EB0000BF847F69C03C2F200031B68002BBBD142
:102EC00007F10807BD4680BD80B582B000AF7860CD
:102ED0007B681B6B184601F0B7F8786801F0B4F80E
:102EE00007F10807BD4680BD80B483B000AF47F648
:102EF0006C03C2F200031B681B68002B02D14FF069
:102F0000010301E04FF00003002B07D047F6D40384
:102F1000C2F200034FF0FF321A600EE047F66C0376
:102F2000C2F200031B68DB68DB687B607B685A6861
:102F300047F6D403C2F200031A6007F10C07BD463E
:102F400080BC704780B483B000AF47F6C003C2F2C4
:102F500000031B68002B03D14FF001037B600DE0E1
:102F600047F6DC03C2F200031B68002B03D14FF0CD
:102F700002037B6002E04FF000037B607B68184631
:102F800007F10C07BD4680BC704700BF80B584B018
:102F900000AF78607B68FB607B68002B00F0988056
:102FA000FB68DA6A47F2DC73C2F200031B68DB6A73
:102FB0009A4280F08D80FB689B69002B09DB47F209
:102FC000DC73C2F200031B68DB6AC3F10502FB6815
:102FD0009A61FB685969FB68DA6A13464FEA830312
:102FE00013444FEA83031A4647F2E073C2F2000328
:102FF0001344994202D14FF0010301E04FF0000366
:10300000002B5DD0FB6803F104031846FEF70AFAB3
:103010000346002B24D1FB68DA6A13464FEA830388
:1030200013444FEA83031A4647F2E073C2F20003E7
:1030300013441B68002B13D1FB68DB6A4FF00102BD
:1030400002FA03F36FEA030247F6BC03C2F200037D
:103050001B6802EA030247F6BC03C2F200031A60CF
:1030600047F2DC73C2F200031B68DA6AFB68DA62BB
:10307000FB68DB6A4FF0010202FA03F247F6BC0379
:10308000C2F200031B6842EA030247F6BC03C2F225
:1030900000031A60FB68DA6A13464FEA830313449D
:1030A0004FEA83031A4647F2E073C2F200031A4460
:1030B000FB6803F1040310461946FEF755F907E0D3
:1030C00047F2DC73C2F200031B68DA6AFB68DA625B
:1030D00007F11007BD4680BD80B586B000AF7860AF
:1030E0007B68BB604FF00003FB607B68002B00F047
:1030F000928047F2DC73C2F200031B68BA689A42FE
:1031000009D04FF0A00383F31188BFF36F8FBFF393
:103110004F8F3B61FEE7BB68DB6C002B09D14FF0A2
:10312000A00383F31188BFF36F8FBFF34F8F7B61D1
:10313000FEE7BB68DB6C03F1FF32BB68DA64BB6897
:10314000DA6ABB689B6C9A4265D0BB68DB6C002B6B
:1031500061D1BB6803F104031846FEF763F9034627
:10316000002B24D1BB68DA6A13464FEA8303134469
:103170004FEA83031A4647F2E073C2F20003134496
:103180001B68002B13D1BB68DB6A4FF0010202FA07
:1031900003F36FEA030247F6BC03C2F200031B68A5
:1031A00002EA030247F6BC03C2F200031A60BB68DE
:1031B0009A6CBB68DA62BB68DB6AC3F10502BB6864
:1031C0009A61BB68DB6A4FF0010202FA03F247F62C
:1031D000BC03C2F200031B6842EA030247F6BC03C9
:1031E000C2F200031A60BB68DA6A13464FEA83032F
:1031F00013444FEA83031A4647F2E073C2F2000316
:103200001A44BB6803F1040310461946FEF7ACF8F4
:103210004FF00103FB60FB68184607F11807BD4635
:1032200080BD00BF80B400AF47F2DC73C2F2000380
:103230001B68002B08D047F2DC73C2F200031B6846
:10324000DA6C02F10102DA6447F2DC73C2F20003C5
:103250001B681846BD4680BC704700BF80B584B06F
:1032600000AF7860396001F041F947F2DC73C2F2D7
:1032700000031B685B6D002B1BD147F2DC73C2F2AD
:1032800000031B684FF0010283F858203B68002BB5
:103290000FD038684FF0010100F05EF94EF604538C
:1032A000CEF200034FF080521A60BFF34F8FBFF38E
:1032B0006F8F01F053F901F019F947F2DC73C2F294
:1032C00000031B685B6DFB60FB68002B14D07B6800
:1032D000002B08D047F2DC73C2F200031B684FF0EA
:1032E00000025A6508E047F2DC73C2F200031B6873
:1032F000FA6802F1FF325A6547F2DC73C2F200034A
:103300001B684FF0000283F8582001F027F9FB6892
:10331000184607F11007BD4680BD00BF80B586B0D6
:1033200000AFF860B9607A603B6001F0DFF847F207
:10333000DC73C2F200031B6893F85830DBB2022B37
:1033400027D047F2DC73C2F200031B68596DFA689C
:103350006FEA020201EA02025A6547F2DC73C2F226
:1033600000031B684FF0010283F858203B68002BD4
:103370000FD038684FF0010100F0EEF84EF604531C
:10338000CEF200034FF080521A60BFF34F8FBFF3AD
:103390006F8F01F0E3F801F0A9F87B68002B07D0EC
:1033A00047F2DC73C2F200031B685A6D7B681A6037
:1033B00047F2DC73C2F200031B6893F85830DBB2AB
:1033C000012B03D14FF000037B610EE047F2DC7369
:1033D000C2F200031B68596DBA686FEA020201EA83
:1033E00002025A654FF001037B6147F2DC73C2F2BF
:1033F00000031B684FF0000283F8582001F0AEF87C
:103400007B69184607F11807BD4680BD80B58AB0B4
:1034100000AF786039607B68002B09D14FF0A003C2
:1034200083F31188BFF36F8FBFF34F8F7B61FEE78C
:1034300001F030F97B68BB60EFF311824FF0A0031D
:1034400083F31188BFF36F8FBFF34F8FFA61BB61B6
:10345000FB693B61BB6893F85830FB73BB684FF066
:10346000020283F85820BB685B6D03F10102BB6860
:103470005A65FB7B012B65D1BB689B6A002B09D089
:103480004FF0A00383F31188BFF36F8FBFF34F8F0B
:103490003B62FEE747F6DC03C2F200031B68002B29
:1034A0002DD1BB6803F104031846FDF7BBFFBB68D1
:1034B000DB6A4FF0010202FA03F247F6BC03C2F2E4
:1034C00000031B6842EA030247F6BC03C2F2000392
:1034D0001A60BB68DA6A13464FEA830313444FEA63
:1034E00083031A4647F2E073C2F200031A44BB6832
:1034F00003F1040310461946FDF736FF09E0BB68E7
:1035000003F1180347F67400C2F200001946FDF7F4
:103510002BFFBB68DA6A47F2DC73C2F200031B6858
:10352000DB6A9A420ED93B68002B04D03B684FF00F
:1035300001021A6006E047F6C803C2F200034FF02A
:1035400001021A603B697B627B6A83F3118807F191
:103550002807BD4680BD00BF80B584B000AF78604D
:10356000396047F6B803C2F200031B68FB6047F2FC
:10357000DC73C2F200031B6803F104031846FDF775
:1035800051FF0346002B17D147F2DC73C2F2000350
:103590001B68DB6A4FF0010202FA03F36FEA0302D1
:1035A00047F6BC03C2F200031B6802EA030247F6B7
:1035B000BC03C2F200031A607B68B3F1FF3F11D174
:1035C0003B68002B0ED047F2DC73C2F200031B688D
:1035D00003F1040347F6A000C2F200001946FDF70C
:1035E000C3FE3DE0FA687B681344BB6047F2DC73BE
:1035F000C2F200031B68BA685A60BA68FB689A4254
:1036000010D247F67003C2F200031A6847F2DC7367
:10361000C2F200031B6803F1040310461946FDF7CC
:10362000C7FE1DE047F66C03C2F200031A6847F2BA
:10363000DC73C2F200031B6803F104031046194651
:10364000FDF7B6FE47F6D403C2F200031B68BA6862
:103650009A4205D247F6D403C2F20003BA681A6050
:1036600007F11007BD4680BD80B584B002AF4FF0B2
:1036700000033B6000F072FB47F61813C2F2000330
:103680001B68002B17D04FF00203009347F61C1362
:10369000C2F20003019343F6D900C2F2000047F2E0
:1036A0000871C2F200014FF0A0024FF00003FEF7D4
:1036B0004DFC03463B603B68002B09D14FF0A00353
:1036C00083F31188BFF36F8FBFF34F8F7B60FEE7EB
:1036D0003B68184607F10807BD4680BD80B588B035
:1036E00002AFF860B9607A603B604FF02C0000F0E8
:1036F000AFFB03467B617B69002B09D03B6A0093DB
:103700007B690193F868B9687A683B6800F006F84D
:103710007B69184607F11807BD4680BD80B586B0A5
:1037200000AFF860B9607A603B60BB68002B09D1DC
:103730004FF0A00383F31188BFF36F8FBFF34F8F58
:103740007B61FEE77B6A002B16D000F007FB7B6AEB
:10375000FA681A607B6ABA689A617B6A7A68DA6189
:103760007B6A3A681A627B6A3A6A5A627B6A03F138
:1037700004031846FDF7EAFD07F11807BD4680BDB2
:1037800080B58AB000AFF860B9607A603B604FF0F6
:1037900000033B62FB68002B09D14FF0A00383F3C9
:1037A0001188BFF36F8FBFF34F8F7B62FEE747F641
:1037B0001813C2F200031B68002B40D0BB683B61AA
:1037C0007B687B61FB68BB61BB68052B27DCFFF76F
:1037D000B9FB0346022B10D147F61813C2F20003BF
:1037E0001A6807F11003104619463A6B4FF00003B0
:1037F000FDF758FF03463B6221E047F61813C2F27B
:1038000000031A6807F11003104619464FF0000232
:103810004FF00003FDF746FF03463B620FE047F61B
:103820001813C2F200031A6807F110031046194674
:103830003A684FF00003FEF74DF803463B623B6ADF
:10384000184607F12807BD4680BD00BF80B588B087
:1038500002AF7860396047F61013C2F200031B68AC
:10386000DB68DB683B613B6903F104031846FDF745
:10387000D9FD3B69DB69012B26D13B699A697B68DD
:103880001344386919463A687B6800F0DFF803464C
:10389000002B19D04FF00003009338694FF000015E
:1038A0007A684FF00003FFF76BFF0346FB60FB688D
:1038B000002B09D14FF0A00383F31188BFF36F8F62
:1038C000BFF34F8F7B61FEE73B695B6A38699847BE
:1038D00007F11807BD4680BD80B584B000AF7860A1
:1038E00007F10803184600F061F80346FB60BB6867
:1038F000F868194600F004F800F0F4F8F0E700BFAB
:1039000080B584B000AF78603960FEF7F3FD07F151
:103910000803184600F072F80346FB60BB68002BF2
:103920003BD13B68002B0BD17A68FB689A4207D8E1
:10393000FEF7F2FD7868F968FFF788FF00BF30E016
:103940003B68002B0AD047F61413C2F200031B6831
:103950001B68002B14BF002301233B6047F618139C
:10396000C2F200031A687968FB68C3EB01031046D2
:1039700019463A68FEF7B0FAFEF7CEFD0346002B73
:103980000ED14EF60453CEF200034FF080521A606F
:10399000BFF34F8FBFF36F8F03E0FEF7BDFD00E075
:1039A00000BF07F11007BD4680BD00BF80B485B0E1
:1039B00000AF786047F61013C2F200031B681B6863
:1039C000002B14BF002201227B681A607B681B68F1
:1039D000002B08D147F61013C2F200031B68DB6806
:1039E0001B68FB6002E04FF00003FB60FB681846B9
:1039F00007F11407BD4680BC704700BF80B584B096
:103A000000AF7860FEF758FE0346FB6047F62013D0
:103A1000C2F200031B68FA689A4206D200F024F949
:103A20007B684FF001021A6003E07B684FF00002F0
:103A30001A6047F62013C2F20003FA681A60FB68A6
:103A4000184607F11007BD4680BD00BF80B586B09F
:103A500000AFF860B9607A603B604FF000037B61B3
:103A6000FB68BA685A60FB68FA681A61BA687B68D2
:103A70009A4218D87A683B68C3EB0202FB689B69DC
:103A80009A4203D34FF001037B6124E047F61413FD
:103A9000C2F200031A68FB6803F1040310461946DA
:103AA000FDF786FC17E07A683B689A4207D2BA684D
:103AB0003B689A4203D34FF001037B610BE047F66A
:103AC0001013C2F200031A68FB6803F104031046E6
:103AD0001946FDF76DFC7B69184607F11807BD46CE
:103AE00080BD00BF80B58EB002AFA5E07B68002B23
:103AF0001ADA07F1040303F104033B623B6A002B6B
:103B000009D14FF0A00383F31188BFF36F8FBFF388
:103B10004F8F7B62FEE73B6A1B683A6A51683A6ADC
:103B200092680846114698477B68002BC0F2848053
:103B3000FB687B617B695B69002B05D07B6903F1C6
:103B400004031846FDF76EFC3B461846FFF756FF88
:103B50000346FB617B68092B6ED801A252F823F063
:103B6000893B0020893B0020893B0020393C002014
:103B7000EF3B0020273C0020893B0020893B0020B0
:103B8000393C0020EF3B0020BA687B699B691A44EE
:103B9000BB6878691146FA69FFF758FF0346002BA6
:103BA00045D07B695B6A786998477B69DB69012B43
:103BB0003FD1BA687B699B6913444FF000020092C1
:103BC00078694FF000011A464FF00003FFF7D8FD67
:103BD0000346BB61BB69002B2DD14FF0A00383F3DB
:103BE0001188BFF36F8FBFF34F8FBB62FEE7BA68D8
:103BF0007B699A617B699B69002B09D14FF0A00317
:103C000083F31188BFF36F8FBFF34F8FFB62FEE723
:103C10007B699A69FB69134478691946FA69FB69FB
:103C2000FFF714FF08E0786900F00EFA04E000BF27
:103C300002E000BF00E000BF47F61813C2F2000325
:103C40001A6807F10403104619464FF000024FF0BE
:103C50000003FDF7E1FE0346002B7FF447AF07F1B9
:103C60003007BD4680BD00BF80B588B002AF53E0CD
:103C700047F61013C2F200031B68DB681B683B6049
:103C800047F61013C2F200031B68DB68DB68FB60B9
:103C9000FB6803F104031846FDF7C4FBFB685B6A8D
:103CA000F8689847FB68DB69012B35D1FB689A6996
:103CB0003B6813447B607A683B689A4212D9FB6880
:103CC0007A685A60FB68FA681A6147F61013C2F204
:103CD00000031A68FB6803F1040310461946FDF758
:103CE00067FB19E04FF000030093F8684FF0000104
:103CF0003A684FF00003FFF743FD03463B613B6921
:103D0000002B09D14FF0A00383F31188BFF36F8F0D
:103D1000BFF34F8F7B61FEE747F61013C2F200033B
:103D20001B681B68002BA3D147F61013C2F20003D7
:103D30001B68BB6047F61413C2F200031A6847F60B
:103D40001013C2F200031A6047F61413C2F2000304
:103D5000BA681A6007F11807BD4680BD80B500AF8C
:103D600000F0C4FB47F61813C2F200031B68002BD7
:103D70002BD147F6E800C2F20000FDF7C3FA47F680
:103D8000FC00C2F20000FDF7BDFA47F61013C2F2C4
:103D9000000347F6E802C2F200021A6047F6141365
:103DA000C2F2000347F6FC02C2F200021A604FF0B2
:103DB00005004FF010014FF00002FDF7D5FB024661
:103DC00047F61813C2F200031A6000F0C7FB80BD6B
:103DD00080B586B000AF78607B68FB607B68002BA5
:103DE00009D14FF0A00383F31188BFF36F8FBFF3A6
:103DF0004F8F7B61FEE700F079FBFB681B6A3B613C
:103E000000F0ACFB3B69184607F11807BD4680BDC2
:103E100080B584B000AF786039607B68BB607B6838
:103E2000002B09D14FF0A00383F31188BFF36F8FEC
:103E3000BFF34F8FFB60FEE700F058FBBB683A68AA
:103E40001A6200F08BFB07F11007BD4680BD00BF72
:103E500080B58AB000AF78604FF00003BB61FEF719
:103E600049FB4DF6D423C2F200031B68002B01D19D
:103E700000F056F94DF6E023C2F200031A687B68A1
:103E800002EA0303002B40F0C2807B68002B21D0A4
:103E900047F21073C2F200031B687A6813447B6018
:103EA0007B6803F00703002B14D07B6823F0070323
:103EB00003F108037B607B6803F00703002B09D044
:103EC0004FF0A00383F31188BFF36F8FBFF34F8FC1
:103ED000FB61FEE77B68002B00F099804DF6D8234C
:103EE000C2F200031B687A689A4200F290804DF695
:103EF000CC23C2F200033B614DF6CC23C2F2000397
:103F00001B68FB6004E0FB683B61FB681B68FB60AF
:103F1000FB685A687B689A4203D2FB681B68002BD7
:103F2000F1D14DF6D423C2F200031B68FA689A421D
:103F30006DD03B691A6847F21073C2F200031B6828
:103F40001344BB61FB681A683B691A60FB685A68D6
:103F50007B68C3EB020247F21073C2F200031B68D6
:103F60004FEA43039A421FD9FA687B6813447B6186
:103F70007B6903F00703002B09D04FF0A00383F304
:103F80001188BFF36F8FBFF34F8F3B62FEE7FB6873
:103F90005A687B68C3EB02027B695A60FB687A68E7
:103FA0005A60786900F03EF94DF6D823C2F200035A
:103FB0001A68FB685B68C3EB02024DF6D823C2F2B5
:103FC00000031A604DF6D823C2F200031A684DF6BA
:103FD000DC23C2F200031B689A4209D24DF6D823B3
:103FE000C2F200031A684DF6DC23C2F200031A6025
:103FF000FB685A684DF6E023C2F200031B6842EAF0
:104000000302FB685A60FB684FF000021A60FEF77B
:1040100083FABB69002B01D1FCF700FABB6903F0FE
:104020000703002B09D04FF0A00383F31188BFF3DF
:104030006F8FBFF34F8F7B62FEE7BB69184607F1B6
:104040002807BD4680BD00BF80B586B000AF786050
:104050007B68BB607B68002B5ED047F21073C2F2B6
:1040600000031B68C3F10003BA681344BB60BB685C
:10407000FB60FB685A684DF6E023C2F200031B6840
:1040800002EA0303002B09D14FF0A00383F3118848
:10409000BFF36F8FBFF34F8F3B61FEE7FB681B6879
:1040A000002B09D04FF0A00383F31188BFF36F8F6B
:1040B000BFF34F8F7B61FEE7FB685A684DF6E02344
:1040C000C2F200031B6802EA0303002B24D0FB6842
:1040D0001B68002B20D1FB685A684DF6E023C2F222
:1040E00000031B686FEA030302EA0302FB685A60DD
:1040F000FEF700FAFB685A684DF6D823C2F20003B7
:104100001B681A444DF6D823C2F200031A60F868FF
:1041100000F088F8FEF700FA07F11807BD4680BDE9
:1041200080B485B000AF46F2A813FB6047F62413B5
:10413000C2F20003BB60BB6803F00703002B11D081
:10414000BB6803F10703BB60BB6823F00703BB60D8
:10415000FA68BB68C3EB020247F62413C2F20003FD
:104160001344FB60BB687B607A684DF6CC23C2F2D7
:1041700000031A604DF6CC23C2F200034FF0000298
:104180005A607A68FB681344BB6047F21073C2F24E
:1041900000031B68BA68C3EB0203BB60BB6823F073
:1041A0000703BB60BA684DF6D423C2F200031A605D
:1041B0004DF6D423C2F200031B684FF000025A6090
:1041C0004DF6D423C2F200031B684FF000021A60C0
:1041D0007B683B603B68BA68C3EB02023B685A608D
:1041E0004DF6D423C2F200031A683B681A603B689C
:1041F0005A684DF6DC23C2F200031A603B685A6825
:104200004DF6D823C2F200031A604DF6E023C2F245
:1042100000034FF000421A6007F11407BD4680BC4E
:10422000704700BF80B485B000AF78604DF6CC23F6
:10423000C2F20003BB6002E0BB681B68BB60BB68E6
:104240001A687B689A42F7D3BB68FB60BB685A6800
:10425000FB681A447B689A4208D1BB685A687B683D
:104260005B681A44BB685A60BB687B607B68FB6014
:104270007B685A68FB681A44BB681B689A421ED167
:10428000BB681A684DF6D423C2F200031B689A4239
:104290000DD07B685A68BB681B685B681A447B68F2
:1042A0005A60BB681B681A687B681A600BE04DF6A1
:1042B000D423C2F200031A687B681A6003E0BB686B
:1042C0001A687B681A60BA687B689A4202D0BB6839
:1042D0007A681A6007F11407BD4680BC704700BFBA
:1042E00080B485B000AFF860B9607A60FB68A3F174
:1042F0000403FB60FB684FF080721A60FB68A3F157
:104300000403FB60BB6823F00102FB681A60FB68D2
:10431000A3F10403FB6044F24933C2F20003FA68DC
:104320001360FB68A3F11403FB607A68FB681A60F2
:10433000FB68A3F12003FB60FB68184607F1140734
:10434000BD4680BC704700BF80B483B000AF47F269
:104350007473C2F200031B68B3F1FF3F09D04FF042
:10436000A00383F31188BFF36F8FBFF34F8F3B60C0
:10437000FEE74FF0A00383F31188BFF36F8FBFF305
:104380004F8F7B60FEE700BF0000000000000000D0
:10439000074B19680868B0E8F00F80F30988BFF38D
:1043A0006F8F4FF0000080F311884EF00D0E7047B4
:1043B000DC770020AFF30080AFF30080AFF3008024
:1043C00006480068006880F3088862B661B6BFF3EB
:1043D0004F8FBFF36F8F00DF00BF000008ED00E0DC
:1043E00080B584B000AF4EF20043CEF20003FB6014
:1043F000FB681B78DBB2BB60FB684FF0FF321A70C2
:10440000FB681B78DBB2FB71FB79DBB21A4602F06A
:10441000A0024DF6E423C2F200031A704DF6E82321
:10442000C2F200034FF007021A6011E04DF6E823D4
:10443000C2F200031B6803F1FF324DF6E823C2F21B
:1044400000031A60FB79DBB24FEA4303DBB2FB7176
:10445000FB79DBB25BB2002BE8DB4DF6E823C2F25E
:1044600000031B684FEA03224DF6E823C2F2000363
:104470001A604DF6E823C2F200031B6803F4E06201
:104480004DF6E823C2F200031A60BB68DAB2FB689B
:104490001A704EF62053CEF200034EF62052CEF2A2
:1044A0000002126842F470021A604EF62053CEF2F7
:1044B00000034EF62052CEF20002126842F0704223
:1044C0001A6000F0C7F847F27473C2F200034FF0AD
:1044D00000021A60FFF774FFFFF736FF4FF000038A
:1044E000184607F11007BD4680BD00BF80B483B0F9
:1044F00000AF4FF0A00383F31188BFF36F8FBFF3BA
:104500004F8F3B6047F27473C2F200031B6803F1E4
:10451000010247F27473C2F200031A6047F2747327
:10452000C2F200031B68012B12D14EF60453CEF2E7
:1045300000031B6803F0FF03002B09D04FF0A0031A
:1045400083F31188BFF36F8FBFF34F8F7B60FEE75C
:1045500007F10C07BD4680BC704700BF80B483B034
:1045600000AF47F27473C2F200031B68002B09D13D
:104570004FF0A00383F31188BFF36F8FBFF34F8F0A
:104580003B60FEE747F27473C2F200031B6803F15D
:10459000FF3247F27473C2F200031A6047F2747379
:1045A000C2F200031B68002B05D14FF000037B60B3
:1045B0007B6883F3118807F10C07BD4680BC704708
:1045C000EFF30980BFF36F8F0D4B1A6820E9F00FEE
:1045D00010602DE908404FF0A00080F31188FEF72D
:1045E00083F94FF0000080F31188BDE80840196896
:1045F0000868B0E8F00F80F30988BFF36F8F704749
:10460000DC770020AFF30080AFF30080AFF30080D1
:1046100080B582B000AF4FF0A00383F31188BFF3E1
:104620006F8FBFF34F8F3B60FEF756F80346002BAA
:1046300006D04EF60453CEF200034FF080521A60BB
:104640004FF000037B607B6883F3118807F1080754
:10465000BD4680BD80B400AF4EF21403CEF200031D
:1046600047F2B472C2F20002116844F6D352C1F2AA
:104670006202A2FB01024FEA921202F1FF321A60BB
:104680004EF21003CEF200034FF007021A60BD464F
:1046900080BC704780B485B000AFEFF305833B600A
:1046A0003B680F2B1AD947F21473C2F200031A6841
:1046B0003B6813441B78FB714DF6E423C2F2000300
:1046C0001B78FA799A4209D24FF0A00383F311883C
:1046D000BFF36F8FBFF34F8FBB60FEE74EF60C53F7
:1046E000CEF200031B6803F4E0624DF6E823C2F249
:1046F00000031B689A4209D94FF0A00383F3118885
:10470000BFF36F8FBFF34F8FFB60FEE707F1140716
:10471000BD4680BC704700BF80B483B000AF034685
:10472000FB714EF20013CEF2000397F907204FEA17
:104730005212F97901F01F014FF0010000FA01F166
:1047400043F8221007F10C07BD4680BC704700BF3C
:1047500080B483B000AF03463960FB7197F907302E
:10476000002B10DA4EF60053CEF20003FA7902F075
:104770000F02A2F104013A68D2B24FEA0212D2B299
:104780000B441A760DE04EF20013CEF2000397F9B7
:1047900007103A68D2B24FEA0212D2B20B4483F841
:1047A000002307F10C07BD4680BC704790B589B067
:1047B00000AF78604EF25423C2F200031B68184623
:1047C000FDF742FD0346BB614EF27023C2F20003C7
:1047D0001B68002B00F0EA814FF00003BB774FF01D
:1047E0000003FB774DF6D432C2F200024EF25C2396
:1047F000C2F200031A6007F1160107F1140207F173
:104800001203084611461A46FBF756FE0346BB77CD
:1048100007F10E0107F10C0207F10A0308461146E1
:104820001A46FBF7DFFF0346BB774EF25C23C2F26A
:1048300000031A684DF6EC23C2F200031B889BB2FA
:1048400003F0FF014FF0000040EA010191734FEACD
:1048500013239BB24FF0000141EA0303D3734EF2DE
:104860005C23C2F200031A684EF28823C2F20003EE
:104870001B889BB203F0FF014FF0000040EA0101EA
:1048800011744FEA13239BB24FF0000141EA030376
:1048900053744EF25C23C2F200031B68FA8A02F0E2
:1048A000FF014FF0000040EA010199744FEA122223
:1048B00092B24FF0000141EA0202DA744EF25C2338
:1048C000C2F200031B68BA8A02F0FF014FF0000039
:1048D00040EA010119754FEA122292B24FF000012D
:1048E00041EA02025A754EF25C23C2F200031B68D1
:1048F0007A8A02F0FF014FF0000040EA0101997549
:104900004FEA122292B24FF0000141EA0202DA7538
:104910004EF25C23C2F200031B68FA8902F0FF0129
:104920004FF0000040EA010119764FEA122292B2DC
:104930004FF0000141EA02025A764EF25C23C2F2C5
:1049400000031B68BA8902F0FF014FF0000040EA43
:10495000010199764FEA122292B24FF0000141EA2A
:104960000202DA764EF25C23C2F200031B687A89F7
:1049700002F0FF014FF0000040EA010119774FEA11
:10498000122292B24FF0000141EA02025A7707F177
:1049900008031846FCF798F80346BB774EF25C23F1
:1049A000C2F200031B683A8902F0FF014FF00000D9
:1049B00040EA010199774FEA122292B24FF00001CA
:1049C00041EA0202DA774EF25C23C2F200031C686D
:1049D00007F111034FF040004FF001011A46FCF7B8
:1049E000A7F903469BB203F0FF024FF0000141EA32
:1049F000020284F821204FEA13239BB24FF00002F9
:104A000042EA030384F822307A7CFB7F1344FB776D
:104A10004EF25C23C2F200031C6807F111034FF051
:104A200040004FF002011A46FCF782F903469BB2A0
:104A300003F0FF024FF0000141EA020284F8252052
:104A40004FEA13239BB24FF0000242EA030384F8BB
:104A500026307A7CFB7F1344FB774EF25C23C2F254
:104A600000031C6807F111034FF040004FF00301F1
:104A70001A46FCF75DF903469BB203F0FF024FF0C4
:104A8000000141EA020284F829204FEA13239BB275
:104A90004FF0000242EA030384F82A307A7CFB7F5D
:104AA0001344FB774EF25C23C2F200031C6807F14B
:104AB00011034FF040004FF001011A46FCF796F940
:104AC00003469BB203F0FF024FF0000141EA0202ED
:104AD00084F823204FEA13239BB24FF0000242EAEE
:104AE000030384F824307A7CFB7F1344FB774EF277
:104AF0005C23C2F200031C6807F111034FF0400071
:104B00004FF002011A46FCF771F903469BB203F01D
:104B1000FF024FF0000141EA020284F827204FEA29
:104B200013239BB24FF0000242EA030384F82830BB
:104B30007A7CFB7F1344FB774EF25C23C2F20003C6
:104B40001C6807F111034FF040004FF003011A46B3
:104B5000FCF74CF903469BB203F0FF024FF0000153
:104B600041EA020284F82B204FEA13239BB24FF054
:104B7000000242EA030384F82C307A7CFB7F134462
:104B8000FB774DF6D433C2F200034FF0010283F8F5
:104B9000FF214EF25423C2F200031A68BB6903F1ED
:104BA000010310461946FDF76BFB24E607F12407C5
:104BB000BD4690BDB0B584B000AF78604FF0000046
:104BC000FDF742FB0346BB604EF27C23C2F20003BA
:104BD0001B68002B4FD04DF6F422C2F200024EF2B9
:104BE0008423C2F200031A604FF00003FB732EE02F
:104BF0004EF28423C2F200031C68FD7BBB7BFA7B70
:104C00004EF2C010C2F200004FF02101FCF74EF945
:104C10000346194605F1040201F0FF004FEA420382
:104C200023444FF0000C4CEA000098714FEA112326
:104C300098B24FEA420323444FF000021146024665
:104C400041EA0202DA71FB7B03F10103FB73FB7B98
:104C5000062BCDD94DF6F423C2F200034FF0020229
:104C600083F83120BB68A3F102034FF0000019461E
:104C7000FDF706FBB8E707F11007BD46B0BD00BF62
:104C800080B588B000AFB96013460246FA73FB7175
:104C9000FB7B3B75BB68BB61FB793B77F97B4DF6D2
:104CA000D872C2F200020B464FEAC303C1EB030302
:104CB0004FEA4303134403F108039B88002B11D0F0
:104CC0004EF28023C2F200031A6807F11403104663
:104CD00019464FF000024FF00003FCF7E3FC00F030
:104CE00027F90EE04EF24C23C2F200031A6807F1D6
:104CF0001403104619464FF000024FF00003FCF772
:104D0000D1FC07F12007BD4680BD00BF80B584B04F
:104D100000AF78604FF000037B817868FFF758F8A8
:104D20000346FB60FB68002B7DD14EF25C23C2F290
:104D300000031B684FF0000242F008021A704FF0A7
:104D4000000242F001025A704EF25C23C2F20003EC
:104D50001A687B8903F101037B817B896FEA8343B6
:104D60006FEA93439BB29BB24FEA032399B27B89CC
:104D700003F101037B817B896FEA83436FEA9343ED
:104D80009BB29BB24FEA13239BB241EA03039BB24F
:104D90009BB203F0FF014FF0000040EA0101917067
:104DA0004FEA13239BB24FF0000141EA0303D37093
:104DB0004EF25C23C2F200031B684FF000021A712E
:104DC0004FF0000242F02E025A714EF25C23C2F202
:104DD00000031B684FF000029A714FF00002DA7175
:104DE0004FF000021A724FF000025A724EF25C232A
:104DF000C2F200031B684FF000029A724FF00002EB
:104E0000DA724FF000021A734FF000025A734EF23A
:104E10005C23C2F200031B684FF0000019464FF0FC
:104E20002E02FFF72DFFFB68012B7DD14EF284236C
:104E3000C2F200031B684FF0000242F008021A7031
:104E40004FF0000242F002025A704EF28423C2F286
:104E500000031A687B8903F101037B817B896FEA78
:104E600083436FEA93439BB29BB24FEA032399B209
:104E70007B8903F101037B817B896FEA83436FEABE
:104E800093439BB29BB24FEA13239BB241EA0303C5
:104E90009BB29BB203F0FF014FF0000040EA01011A
:104EA00091704FEA13239BB24FF0000141EA0303D4
:104EB000D3704EF28423C2F200031B684FF000024D
:104EC0001A714FF0000242F01E025A714EF2842312
:104ED000C2F200031B684FF000029A714FF000020B
:104EE000DA714FF000021A724FF000025A724EF25D
:104EF0008423C2F200031B684FF000029A724FF045
:104F00000002DA724FF000021A734FF000025A7377
:104F10004EF28423C2F200031B684FF001001946D1
:104F20004FF01E02FFF7ACFE07F11007BD4680BD33
:104F300080B586B000AF78604EF28023C2F20003E5
:104F40001A6807F10C03104619464FF0FF324FF074
:104F50000003FCF761FD3B691A463B7D4EF2D02011
:104F6000C2F2000011461A4600F00CFB07F11807C8
:104F7000BD4680BD80B584B000AF786007F10803FE
:104F80004FF000004FF000011A464FF0FF33FEF7DC
:104F9000C5F94FF001004FF00101FEF75FF97B68A2
:104FA000FB60F868FCF738F80346002B11D0F8686E
:104FB000FCF7EEF84DF6EC23C2F200031B889BB21F
:104FC00003F101039AB24DF6EC23C2F200031A80FA
:104FD000D4E74EF28823C2F200031B889BB203F190
:104FE00001039AB24EF28823C2F200031A80C5E789
:104FF00080B584B000AF786078684DF69431C2F225
:1050000000014FF0080200F02FFB02464DF6D033AE
:10501000C2F200031A604FF00003FB604DF6F0236C
:10502000C2F200031A6807F10C0310461946FEF796
:10503000EDF9FB68002B0AD04EF60453CEF20003C4
:105040004FF080521A60BFF34F8FBFF36F8F07F19D
:105050001007BD4680BD00BF90B58DB002AF4FF0C8
:1050600038033B744FF000037B744FF00003BB74B4
:1050700047F23C72C2F2000207F10C0312681146BB
:10508000198003F102034FEA12421A7047F240728C
:10509000C2F2000207F1080312681146198003F1F9
:1050A00002034FEA12421A7047F24472C2F200023F
:1050B00007F1040312681146198003F102034FEA55
:1050C00012421A704DF6D463C2F200037B6147F2BC
:1050D0007873C2F20003BB617A6940F64D73C2F285
:1050E000000313607B691B684FF00000B9699847A3
:1050F0004EF2C010C2F2000044F20001C5F20001FD
:105100004FF021024FF0000300F03EFF4DF6D46354
:10511000C2F20003FB6147F29873C2F200033B62E4
:10512000FA6940F64D73C2F200031360FB691B6815
:105130004FF00A00396A98474FF003004FF00C0116
:105140004FF00002FCF710FA02464EF28023C2F242
:1051500000031A604FF003004FF00C014FF0000203
:10516000FCF702FA02464EF24C23C2F200031A6028
:105170004FF000004FF00301FBF774F94FF001000E
:105180004FF00501FBF76EF94FF00A00FFF7C4FA84
:105190004FF00A004FF09F01FFF7DAFA4EF2D020ED
:1051A000C2F200004FF416514FF0030200F0A8F9CC
:1051B0004EF2D020C2F2000044F6F171C2F20001BA
:1051C0004FF0800200F0BEFA4FF00100FCF74EFAFB
:1051D00002464EF26C23C2F200031A604FF0020343
:1051E00000934EF27823C2F20003019344F2AD70B3
:1051F000C2F2000047F21871C2F200014FF05002F3
:105200004DF6D433C2F20003FCF7A0FE02464EF284
:105210007023C2F200031A604FF0010300934EF2B4
:105220005423C2F20003019344F6B530C2F20000E9
:1052300047F21C71C2F200014FF050024DF6D43318
:10524000C2F20003FCF782FE02464EF27C23C2F259
:1052500000031A604FF0030300934DF6F023C2F2EF
:105260000003019344F67570C2F2000047F2247106
:10527000C2F200014FF050024DF69433C2F2000327
:10528000FCF764FE4FF0000387F8273057E097F8EB
:10529000274097F827104DF6D872C2F200020B464D
:1052A0004FEAC303C1EB03034FEA4303134403F183
:1052B00008039B881846FBF797FE024644F60D53F9
:1052C000C2F20003009347F23070C2F200001146B0
:1052D0004FF001024FF00003FEF700FA02464DF6D0
:1052E000F473C2F2000343F8242097F827204DF608
:1052F000F473C2F2000353F8222097F827301046C7
:105300001946FEF785FD97F827204DF6F473C2F293
:10531000000353F82240FDF7CFF903464FF0000297
:10532000009220464FF001011A464FF00003FEF7AD
:1053300027FA97F8273003F1010387F8273097F809
:105340002730012BA3D9FDF77BF807F12C07BD46C9
:1053500090BD00BF80B500AF4EF20800C2F2000061
:1053600001F038F880BD00BF80B500AF4EF2740088
:10537000C2F2000001F02EF880BD00BF80B500AF82
:105380004DF62830C2F2000001F024F880BD00BFC5
:1053900080B500AF4EF24C10C2F2000001F01AF8D6
:1053A00080BD00BF80B500AF4EF2C010C2F2000059
:1053B00001F010F880BD00BF80B500AF4EF2E000F4
:1053C000C2F2000001F006F880BD00BF80B483B0D7
:1053D00000AF0346FB714EF20013CEF2000397F9C3
:1053E00007204FEA5212F97901F01F014FF0010036
:1053F00000FA01F143F8221007F10C07BD4680BC0A
:10540000704700BF80B483B000AF0346FB714EF21B
:105410000013CEF2000397F907204FEA5212F979F0
:1054200001F01F014FF0010000FA01F102F16002EA
:1054300043F8221007F10C07BD4680BC704700BF3F
:1054400080B483B000AF78600B46FB707B6803F0DC
:1054500070427B6823F07F4323F470034FEA4313C9
:105460001A44FB784FEA8303134403F100734FF0AF
:1054700001021A6007F10C07BD4680BC704700BFEF
:1054800080B483B000AF78600B46FB707B6803F09C
:1054900070427B6823F07F4323F470034FEA431389
:1054A0001A44FB784FEA8303134403F100734FF06F
:1054B00000021A6007F10C07BD4680BC704700BFB0
:1054C00080B483B000AF78600B46FB707B6803F05C
:1054D00070427B6823F07F4323F470034FEA431349
:1054E0001A44FB784FEA8303134403F100731B68EB
:1054F000DBB2184607F10C07BD4680BC704700BF01
:1055000080B584B000AFF860B9601346FB71FA68EB
:105510004EF2D023C2F200039A4207D0FA684EF24C
:105520009023C2F200039A4200D000BEFB79F868D3
:10553000B9681A4600F056FAFB681B6803F130039D
:1055400018464FF00301FFF79BFFFB681B6803F150
:10555000340318464FF00201FFF792FFFB681B6807
:1055600003F1380318464FF00001FFF789FFFA688E
:1055700045F67D63C2F20003536207F11007BD4692
:1055800080BD00BF80B489B000AFF860B9607A60B8
:105590004FF000033B61FA684EF2D023C2F20003E1
:1055A0009A4207D0FA684EF29023C2F200039A4260
:1055B00000D000BEBB68002B00D100BE7B68002B72
:1055C00000D100BEFA684EF2D023C2F200039A4224
:1055D00006D0FA684EF29023C2F200039A423DD1FF
:1055E000BB68002B3AD07B68002B37D0FB681B6868
:1055F0001B7DFB76FB685A7BFB7E42EA0303DAB233
:10560000FB685A73FB7E03F02003002B23D04FF07E
:105610001003FB617B680F2B01D87B68FB614FF0A7
:1056200000037B610EE0FB681B68B9683A690A44B5
:1056300012781A703B6903F101033B617B6903F146
:1056400001037B617A69FB699A42ECD37A687B69D2
:10565000C3EB02037B607B68002BC7D107F12407F3
:10566000BD4680BC704700BF80B487B000AFF86013
:10567000B9607A604FF000033B614FF00003FB75A7
:10568000FA684EF2D023C2F200039A4207D0FA68B9
:105690004EF29023C2F200039A4200D000BEBB68D3
:1056A000002B00D100BE7B68002B00D100BEFA6841
:1056B0004EF2D023C2F200039A4206D0FA684EF2AC
:1056C0009023C2F200039A4234D1BB68002B31D040
:1056D0007B68002B2ED0FB681B681B7DFB75FB686D
:1056E0005A7BFB7D42EA0303DAB2FB685A7317E088
:1056F000BA683B691344FA6812681278D2B21A7019
:105700003B6903F101033B61FB681B681B7DFB7573
:10571000FB685A7BFB7D42EA0303DAB2FB685A73EB
:10572000FB7D03F00103DBB2002B03D03A697B68F9
:105730009A42DDD33B69184607F11C07BD4680BC81
:10574000704700BF80B584B000AFF860B960134601
:10575000FB71FA684EF2D023C2F200039A4207D0DE
:10576000FA684EF29023C2F200039A4200D000BEC3
:10577000BB68002B00D100BEFB79C02B00D900BE56
:10578000FA684EF2D023C2F200039A4206D0FA68B9
:105790004EF29023C2F200039A422ED1BB68002B36
:1057A0002BD0FB79C02B28D8FB68BA681A62FB683B
:1057B0001A68FB681B681B7ADBB2DBB203F03F039D
:1057C000F8791946034641EA0303DBB2DBB21372F0
:1057D000FB681B795BB21846FFF714FEFB681B6879
:1057E00003F1040318464FF00001FFF729FEFB68A0
:1057F0001B795BB21846FFF7E9FD07F11007BD46BC
:1058000080BD00BF684620F007018D4689B500AF16
:105810004EF2D020C2F2000000F01AFABD46BDE8F8
:1058200089408546704700BF684620F007018D46D5
:1058300089B500AF4EF29020C2F2000000F008FAE5
:10584000BD46BDE889408546704700BF80B588B039
:1058500000AF786039607A684EF2D023C2F200035C
:105860009A4207D07A684EF29023C2F200039A421D
:1058700000D000BE7A684EF2D023C2F200039A42F2
:1058800007D07A684EF29023C2F200039A4240F0A9
:10589000A4807B683A689A6001F0CAFB7A684EF28D
:1058A000D023C2F200039A4206D147F2B873C2F283
:1058B00000031B68FB6105E047F2BC73C2F2000302
:1058C0001B68FB61FB694FEAC3023B68B2FBF3F361
:1058D0007B617B694FEA53033B613B694FEA93135A
:1058E000FB60FB684FEA83133A69C3EB0203BB61B9
:1058F000FB684FEAC3137A69C3EB0202BB694FEA44
:105900004303C3EB0203BA691344BB61FA684FF661
:10591000FF739A4200D900BEFA684FF6FF739A42AD
:105920005BD8FB68012B31D97B681B6803F10C0342
:1059300018464FF00701FFF783FD7B681B68FA6884
:105940004FEA1222D2B21A717B681B68FA68D2B28F
:105950001A707B681B6803F10C0318464FF00701AF
:10596000FFF78EFD7B681B6803F1300318464FF08C
:105970000701FFF765FDBB69FF2B00D900BE7B68FF
:105980001B68BA69D2B283F83C2026E07B681B68AA
:1059900003F10C0318464FF00701FFF751FD7B6838
:1059A0001B68FA684FEA1222D2B21A717B681B6830
:1059B000FA68D2B21A707B681B6803F10C031846B0
:1059C0004FF00701FFF75CFD7B681B6803F13003B4
:1059D00018464FF00701FFF753FD07F12007BD46BA
:1059E00080BD00BF80B584B000AFF860B9601346D9
:1059F000FB71FA684EF2D023C2F200039A4207D03C
:105A0000FA684EF29023C2F200039A4200D000BE20
:105A1000FA684EF2D023C2F200039A4224D1FB6806
:105A20004FF080421A60FB684FF00A021A7148F288
:105A30000003C4F2030348F20002C4F20302926CB2
:105A400042F080029A644FF00A00FFF7DBFC48F254
:105A50000003C4F2030348F20002C4F20302926C92
:105A600022F080029A6425E0FA6840F20003C4F252
:105A700001031360FB684FF00B021A7148F2000338
:105A8000C4F2030348F20002C4F20302926C42F42F
:105A900080729A644FF00B00FFF7B4FC48F20003E9
:105AA000C4F2030348F20002C4F20302926C22F42F
:105AB00080729A64FB681B684FF000021A71FB68E1
:105AC0001B684FF000021A72FB681B6803F10803A1
:105AD00018464FF00101FFF7B3FCFB681B6803F1A8
