:020000042000DA
:100000000000012089010020F9010020FB010020EF
:10001000FD010020FF01002001020020000000007F
:10002000000000000000000000000000A13D0020D2
:100030000502002000000000D13F002021400020E8
:100040000B0200200D0200200F02002011020020F0
:1000500013020020150200201702002019020020C0
:100060001B0200201D020020555100207951002064
:100070002302002025020020270200202902002060
:100080002B0200202D0200202F0200203102002030
:100090003302002035020020370200203902002000
:1000A0003B0200203D0200203F02002041020020D0
:1000B00043020020450200204702002049020020A0
:1000C0004B0200204D020020A54C0020B94C00201E
:1000D000CD4C0020E14C0020F54C0020094D0020C3
:1000E0005B0200205D0200205F0200206102002010
:1000F00063020020650200206702002069020020E0
:100100006B0200206D0200206F02002071020020AF
:10011000730200207502002077020020790200207F
:100120007B0200207D0200207F020020810200204F
:10013000830200208502002087020020890200201F
:100140008B0200208D0200208F02002091020020EF
:1001500093020020950200209702002099020020BF
:100160009B0200209D0200209F020020A10200208F
:10017000A3020020A5020020A7020020A90200205F
:10018000AB020020AD0200204948804749480028C2
:100190000BD1494849494A4A884206D091421CBF7E
:1001A00050F8043B41F8043BF8D146484649474AD9
:1001B000884206D091421CBF50F8043B41F8043BF2
:1001C000F8D143484349444A914218BF41F8040BCF
:1001D000FAD1000000000000000000000000000054
:1001E000DFF8F8000FF2030E00474FF000004FF069
:1001F0000001DFF8ECF0FEE7FEE7FEE7FEE7FEE7D2
:10020000FEE7FEE7FEE7FEE7FEE7FEE7FEE7FEE7C6
:10021000FEE7FEE7FEE7FEE7FEE7FEE7FEE7FEE7B6
:10022000FEE7FEE7FEE7FEE7FEE7FEE7FEE7FEE7A6
:10023000FEE7FEE7FEE7FEE7FEE7FEE7FEE7FEE796
:10024000FEE7FEE7FEE7FEE7FEE7FEE7FEE7FEE786
:10025000FEE7FEE7FEE7FEE7FEE7FEE7FEE7FEE776
:10026000FEE7FEE7FEE7FEE7FEE7FEE7FEE7FEE766
:10027000FEE7FEE7FEE7FEE7FEE7FEE7FEE7FEE756
:10028000FEE7FEE7FEE7FEE7FEE7FEE7FEE7FEE746
:10029000FEE7FEE7FEE7FEE7FEE7FEE7FEE7FEE736
:1002A000FEE7FEE7FEE7FEE7FEE7FEE7FEE7704754
:1002B0005569002000000000000000200000002020
:1002C000C8700020C8700020C8700020287100206D
:1002D000000000002871002030DC0020616D00204B
:1002E0000D040020000000000000000000000000DD
:1002F00047F22813C2F200031A780AB901201870D5
:10030000704700BF47F2C800C2F2000008B503689A
:100310002BB140F20003C0F2000303B1984708BDBF
:1003200080B400AF4EF6FC53CEF200034EF6FC5202
:10033000CEF20002126842F080721A6041F20403A9
:10034000CEF200034FF000021A6041F20003CEF239
:10035000000341F20002CEF20002126842F00102F4
:100360001A60BD4680BC704780B483B000AF41F2D4
:100370000403CEF200031B687B6047F22C13C2F229
:1003800000031B687A689A420BD247F23013C2F21C
:1003900000031B6803F1010247F23013C2F20003AD
:1003A0001A6047F22C13C2F200037A681A6047F20F
:1003B0000C13C2F200031A6841F67F53C0F22C43BB
:1003C0009A420ED87B684FEA53337B6047F2301372
:1003D000C2F200031B684FEAC3437A6813447B6090
:1003E0000DE07B684FEA93337B6047F23013C2F233
:1003F00000031B684FEA83437A6813447B607B6881
:10040000184607F10C07BD4680BC704780B500AFA9
:1004100004F000FB4FF00003184680BD80B483B0A9
:1004200000AF4FF0A00383F31188BFF36F8FBFF3CA
:100430004F8F7B60FEE700BF80B400AFBD4680BC3D
:10044000704700BF80B485B000AF786039604FF06E
:10045000A00383F31188BFF36F8FBFF34F8FFB604F
:10046000FEE700BF80B592B004AFF860B9607A6073
:1004700047F21803C2F200031B88BB864FF0280323
:1004800087F830304FF02A0387F82C304FF02C03D8
:1004900087F828304FF0290387F824304FF02B03DA
:1004A00087F820304FF02D033B774FF0000387F89B
:1004B000363007F134034FF0000200924DF6102061
:1004C000C2F200004FF06A011A464FF0020305F035
:1004D00079FA07F118034FF0000200924DF6102050
:1004E000C2F200004FF06A011A464FF0010305F016
:1004F000DBFA4DF61020C2F200004FF0000105F0CB
:10050000DDFB034687F8373097F8362097F8373009
:10051000134487F8363007F1280307F118020092D8
:100520004FF0010201924FF0000202924DF61020AE
:10053000C2F200004FF06A011A464FF0010305F0C5
:1005400025FB4DF61020C2F200004FF0000105F02F
:10055000B5FB034687F8373097F8362097F83730E1
:10056000134487F8363007F11C0307F11402009298
:100570004FF0010201924FF0000202924DF610205E
:10058000C2F200004FF06A011A464FF0010305F075
:10059000FDFA4DF61020C2F200004FF0000105F008
:1005A0008DFB034687F8373097F8362097F83730B9
:1005B000134487F836303B7D4FEA03239AB23B7EE3
:1005C00042EA03039BB29AB27B681A807B681B885D
:1005D000B3F5004F06D97B681B886FEA03039AB214
:1005E0007B681A8007F12C0307F1180200924FF084
:1005F000010201924FF0000202924DF61020C2F269
:1006000000004FF06A011A464FF0010305F0BEFAF0
:100610004DF61020C2F200004FF0000105F04EFB35
:10062000034687F8373097F8362097F83730134469
:1006300087F8363007F1200307F1140200924FF0DB
:10064000010201924FF0000202924DF61020C2F218
:1006500000004FF06A011A464FF0010305F096FAC8
:100660004DF61020C2F200004FF0000105F026FB0D
:10067000034687F8373097F8362097F83730134419
:1006800087F836303B7D4FEA03239AB23B7E42EA3D
:1006900003039BB29AB2BB681A80BB681B88B3F590
:1006A000004F06D9BB681B886FEA03039AB2BB6888
:1006B0001A8007F1300307F1180200924FF001028F
:1006C00001924FF0000202924DF61020C2F200009B
:1006D0004FF06A011A464FF0010305F057FA4DF644
:1006E0001020C2F200004FF0000105F0E7FA0346C7
:1006F00087F8373097F8362097F83730134487F863
:10070000363007F1240307F1140200924FF0010282
:1007100001924FF0000202924DF61020C2F200004A
:100720004FF06A011A464FF0010305F02FFA4DF61B
:100730001020C2F200004FF0000105F0BFFA03469E
:1007400087F8373097F8362097F83730134487F812
:1007500036303B7D4FEA03239AB23B7E42EA0303E5
:100760009BB29AB2FB681A80FB681B88B3F5004FF6
:1007700006D9FB681B886FEA03039AB2FB681A80EC
:1007800097F83730184607F13807BD4680BD00BFDF
:1007900080B592B004AFF860B9607A6047F2140394
:1007A000C2F200031B883B864FF0180387F82C30F9
:1007B0004FF01A0387F828304FF01C0387F82430D5
:1007C0004FF0190387F820304FF01B033B774FF0B1
:1007D0001D033B764FF06A0387F835304FF0000376
:1007E00087F8363097F8352007F1300307F1140108
:1007F00000914FF0010101914FF0000102914DF67F
:100800001020C2F2000011461A464FF0020305F014
:10081000BDF94DF61020C2F200004FF0000105F0C6
:100820004DFA034687F8373097F8362097F8373077
:10083000134487F8363097F8352007F1240307F181
:10084000140100914FF0010101914FF0000102915C
:100850004DF61020C2F2000011461A464FF0010377
:1008600005F094F94DF61020C2F200004FF000019F
:1008700005F024FA034687F8373097F8362097F8C2
:100880003730134487F8363097F8352007F11803CE
:1008900007F1100100914FF0010101914FF00001AB
:1008A00002914DF61020C2F2000011461A464FF098
:1008B000010305F06BF94DF61020C2F200004FF075
:1008C000000105F0FBF9034687F8373097F836202A
:1008D00097F83730134487F836303B7C4FEA0323D0
:1008E0009AB23B7D42EA03039BB29AB2FB681A803C
:1008F00097F8352007F1280307F1140100914FF014
:10090000010101914FF0000102914DF61020C2F259
:10091000000011461A464FF0010305F037F94DF675
:100920001020C2F200004FF0000105F0C7F90346A5
:1009300087F8373097F8362097F83730134487F820
:10094000363097F8352007F11C0307F110010091AC
:100950004FF0010101914FF0000102914DF610207E
:10096000C2F2000011461A464FF0010305F00EF9DD
:100970004DF61020C2F200004FF0000105F09EF984
:10098000034687F8373097F8362097F83730134406
:1009900087F836303B7C4FEA03239AB23B7D42EA2C
:1009A00003039BB29AB2BB681A8097F8352007F10F
:1009B0002C0307F1140100914FF0010101914FF058
:1009C000000102914DF61020C2F2000011461A46B5
:1009D0004FF0010305F0DAF84DF61020C2F20000E6
:1009E0004FF0000105F06AF9034687F8373097F8B1
:1009F000362097F83730134487F8363097F835208B
:100A000007F1200307F1100100914FF0010101915E
:100A10004FF0000102914DF61020C2F20000114685
:100A20001A464FF0010305F0B1F84DF61020C2F25E
:100A300000004FF0000105F041F9034687F8373018
:100A400097F8362097F83730134487F836303B7CD8
:100A50004FEA03239AB23B7D42EA03039BB29AB268
:100A60007B681A8097F83730184607F13807BD467B
:100A700080BD00BF80B58AB004AF78604FF0150329
:100A80003B754FF016033B744FF06A03BB75BA7D9C
:100A900007F1140307F10C0100914FF001010191DE
:100AA0004FF0000102914DF61020C2F200001146F5
:100AB0001A464FF0010305F069F84DF61020C2F216
:100AC00000004FF0000105F0F9F80346FB75BA7D10
:100AD00007F1100307F1080100914FF001010191A6
:100AE0004FF0000102914DF61020C2F200001146B5
:100AF0001A464FF0010305F049F84DF61020C2F2F6
:100B000000004FF0000105F0D9F80346FB753B7B70
:100B10001A463B7A4FEA03239BB242EA03039BB295
:100B20009AB27B681A804FF00003184607F1180745
:100B3000BD4680BD80B586B002AFB960134602469F
:100B4000FA73FB714DF63413C2F200034FF000024A
:100B50001A7032E0FB79FA7B4FF0000100914DF200
:100B60007C40C2F200001146BA6804F02BFF4DF23F
:100B70007C40C2F200004FF0000105F09FF80346F0
:100B80001A464DF63613C2F200031A704DF63613AC
:100B9000C2F200031B78002B02D14FF0000318E0D3
:100BA0004DF63413C2F200031B7803F10103DAB2ED
:100BB0004DF63413C2F200031A704DF63413C2F22C
:100BC00000031B78092BC5D94DF63413C2F200037C
:100BD0001B78184607F11007BD4680BD80B586B06A
:100BE00002AFB96013460246FA73FB714DF6341337
:100BF000C2F200034FF000021A7032E0FB79FA7B78
:100C00004FF0000100914DF27C40C2F2000011460D
:100C1000BA6804F049FF4DF27C40C2F200004FF088
:100C2000000105F04BF803461A464DF63613C2F2A2
:100C300000031A704DF63613C2F200031B78002B26
:100C400002D14FF0000318E04DF63413C2F2000356
:100C50001B7803F10103DAB24DF63413C2F200033C
:100C60001A704DF63413C2F200031B78092BC5D954
:100C70004DF63413C2F200031B78184607F1100733
:100C8000BD4680BD80B582B000AF0B463A600246DB
:100C9000FA71BB71FA7907F10603104619464FF055
:100CA0000102FFF747FF0346092B02D94FF001036A
:100CB0000EE0FB79184639684FF00202FFF78EFF0D
:100CC0000346092B02D94FF0010301E04FF0000366
:100CD000184607F10807BD4680BD00BF80B582B049
:100CE00000AF0B463A600246FA71BB714DF6301305
:100CF000C2F200034FF000021A704DF63013C2F238
:100D000000034FF000025A704DF63213C2F2000396
:100D10004FF000021A80BB794FEA4303DBB2FA7945
:100D2000104619464DF63012C2F20002FFF7AAFF34
:100D30000346002B1AD14DF63013C2F200031B7884
:100D40004FEA03239AB24DF63013C2F200035B78E8
:100D500042EA03039BB29AB24DF63213C2F2000389
:100D60001A803B684FF000021A700AE03B684FF0AF
:100D700001021A704DF63213C2F200034FF0000266
:100D80001A804DF63213C2F200031B88184607F191
:100D90000807BD4680BD00BF80B582B000AF0B46DE
:100DA0003A600246FA71BB714DF63013C2F200038D
:100DB0004FF000021A704DF63013C2F200034FF0EC
:100DC00000025A704DF63213C2F200034FF00002D7
:100DD0001A80BB794FEA4303DBB203F1FF33DBB286
:100DE000FA79104619464DF63012C2F20002FFF7AA
:100DF00049FF0346002B1AD14DF63013C2F200030F
:100E00001B784FEA03239AB24DF63013C2F2000367
:100E10005B7842EA03039BB29AB24DF63213C2F2F8
:100E200000031A803B684FF000021A700AE03B682A
:100E30004FF001021A704DF63213C2F200034FF068
:100E400000021A804DF63213C2F200031B881846C6
:100E500007F10807BD4680BD80B58CB004AFF860CF
:100E60007B600B46FB721346BB72BB7A3B753B7DC6
:100E700043F00803DBB23B753B7D4FEA0313DBB263
:100E80003B75FA7A07F1140307F1180100914FF04E
:100E9000020101914FF000010291F86811461A46D3
:100EA0004FF0010304F072FEF8684FF0000104F007
:100EB00005FF03467B777B7F002B04D07B684FF0D8
:100EC00001021A7012E03B7E4FEA03239AB27B7E46
:100ED00042EA03039BB2FB83FB8B4FEA03534FEAC7
:100EE0001353FB837B684FF000021A70FB8B18468C
:100EF00007F12007BD4680BD80B584B000AF034632
:100F00003960FB71FB79002B0ED13B68BB60BB687D
:100F10005968BB689A68BB681B7B084611464FF04E
:100F2000880204F0D9FC30E0FB790A2B0ED13B6833
:100F3000FB60FB685968FB689A68FB681B7B084686
:100F400011464FF0880204F0C7FC1EE0FB790B2B22
:100F50001BD14DF61020C2F2000045F20001C5F28F
:100F600000014FF088024FF0000304F0B5FC4DF291
:100F70007C40C2F2000042F20001C5F200014FF0D5
:100F800088024FF0000304F0A7FC07F11007BD46EC
:100F900080BD00BF80B483B000AF78607B6803F190
:100FA00008031A467B685A607B684FF0FF329A60EC
:100FB0007B6803F108031A467B68DA607B6803F1FB
:100FC00008031A467B681A617B684FF000021A60BA
:100FD00007F10C07BD4680BC704700BF80B483B0EA
:100FE00000AF78607B684FF000021A6107F10C07D0
:100FF000BD4680BC704700BF80B485B000AF78604C
:1010000039607B685B68FB603B68FA685A60FB6824
:101010009A683B689A60FB689B683A685A60FB680C
:101020003A689A603B687A681A617B681B6803F1CA
:1010300001027B681A6007F11407BD4680BC704747
:1010400080B485B000AF786039603B681B68FB6096
:10105000FB68B3F1FF3F03D17B681B69BB600DE008
:101060007B6803F10803BB6002E0BB685B68BB60A0
:10107000BB685B681A68FB689A42F6D9BB685A6815
:101080003B685A603B685B683A689A603B68BA683C
:101090009A60BB683A685A603B687A681A617B68F4
:1010A0001B6803F101027B681A6007F11407BD4653
:1010B00080BC704780B485B000AF78607B681B69E6
:1010C000FB607B685B687A6892689A607B689B6863
:1010D0007A6852685A60FB685A687B689A4203D102
:1010E0007B689A68FB685A607B684FF000021A615F
:1010F000FB681B6803F1FF32FB681A60FB681B6822
:10110000184607F11407BD4680BC704780B584B00F
:1011100000AF786039607B68BB60BB68002B09D189
:101120004FF0A00383F31188BFF36F8FBFF34F8F8E
:10113000FB60FEE702F0E2FEBB681A68BB68DB6B8F
:10114000B968096C01FB03F31A44BB685A60BB68B9
:101150004FF000029A63BB681A68BB689A60BB686C
:101160001A68BB68DB6B03F1FF33B968096C01FBDC
:1011700003F31A44BB68DA60BB684FF0FF3283F8B0
:101180004420BB684FF0FF3283F845203B68002BBA
:1011900018D1BB681B69002B21D0BB6803F1100379
:1011A000184601F013FA0346002B1AD04EF60453EA
:1011B000CEF200034FF080521A60BFF34F8FBFF39F
:1011C0006F8F0FE0BB6803F110031846FFF7E2FED4
:1011D000BB6803F124031846FFF7DCFE02E000BF02
:1011E00000E000BF02F0C2FE4FF00103184607F115
:1011F0001007BD4680BD00BF80B58AB002AFF86061
:10120000B9601346FB71FB68002B09D14FF0A003B6
:1012100083F31188BFF36F8FBFF34F8FFB61FEE73E
:10122000BB68002B03D14FF000037B6104E0FB6837
:10123000BA6802FB03F37B617B6903F15003184634
:1012400002F012FB03463B613B69002B0BD03B696C
:1012500003F15003BB61FB793A690092F868B96801
:10126000BA6900F007F83B69184607F12007BD4648
:1012700080BD00BF80B584B000AFF860B9607A600F
:10128000FB70BB68002B03D1BA69BB691A6002E02E
:101290007A68BB691A60BB69FA68DA63BB69BA68C5
:1012A0001A64B8694FF00101FFF730FFBB69FA78A3
:1012B00083F84C2007F11007BD4680BD80B582B091
:1012C00000AF78607B68002B14D07B684FF0000281
:1012D0005A607B684FF000021A607B684FF0000292
:1012E000DA6078684FF000014FF000024FF0000321
:1012F00000F020F807F10807BD4680BD80B586B034
:1013000000AF0346FB714FF001033B614FF0000358
:101310007B61FB79386979691A46FFF76DFF0346EF
:10132000FB60F868FFF7CAFFFB68184607F118076B
:10133000BD4680BD80B58EB000AFF860B9607A6000
:101340003B604FF00003FB61FB687B627B6A002B14
:1013500009D14FF0A00383F31188BFF36F8FBFF360
:101360004F8FBB62FEE7BB68002B03D17B6A1B6C0F
:10137000002B02D14FF0010301E04FF00003002BDE
:1013800009D14FF0A00383F31188BFF36F8FBFF330
:101390004F8FFB62FEE73B68022B03D17B6ADB6B5E
:1013A000012B02D14FF0010301E04FF00003002BAD
:1013B00009D14FF0A00383F31188BFF36F8FBFF300
:1013C0004F8F3B63FEE701F009FB0346002B02D180
:1013D0007B68002B02D14FF0010301E04FF00003C6
:1013E000002B0AD14FF0A00383F31188BFF36F8F56
:1013F000BFF34F8F7B63FEE700BF02F07FFD7B6A88
:101400009A6B7B6ADB6B9A4202D33B68022B34D126
:10141000786AB9683A6800F07BFA03463B627B6AF7
:101420005B6A002B14D07B6A03F12403184601F099
:10143000CDF80346002B1AD04EF60453CEF200032B
:101440004FF080521A60BFF34F8FBFF36F8F0FE0E2
:101450003B6A002B0CD04EF60453CEF200034FF043
:1014600080521A60BFF34F8FBFF36F8F00E000BF51
:1014700002F07CFD4FF001036FE07B68002B04D18C
:1014800002F074FD4FF0000367E0FB69002B07D109
:1014900007F11403184601F011F94FF00103FB6145
:1014A00002F064FD00F072FD02F028FD7B6A93F803
:1014B0004430DBB25BB2B3F1FF3F04D17B6A4FF043
:1014C000000283F844207B6A93F84530DBB25BB2BC
:1014D000B3F1FF3F04D17B6A4FF0000283F845204F
:1014E00002F044FD07F1140207F104031046194607
:1014F00001F008F90346002B28D1786A00F018FBA8
:101500000346002B1CD07B6A03F110027B68104657
:10151000194601F009F8786A00F09AFA00F048FDDF
:101520000346002B7FF468AF4EF60453CEF200035F
:101530004FF080521A60BFF34F8FBFF36F8F5CE79D
:10154000786A00F085FA00F033FD56E7786A00F01B
:101550007FFA00F02DFD4FF00003184607F1380721
:10156000BD4680BD80B58EB000AFF860B9607A60CE
:101570003B60FB68BB61BB69002B09D14FF0A00346
:1015800083F31188BFF36F8FBFF34F8F3B62FEE78A
:10159000BB68002B03D1BB691B6C002B02D14FF041
:1015A000010301E04FF00003002B09D14FF0A0032D
:1015B00083F31188BFF36F8FBFF34F8F7B62FEE71A
:1015C0003B68022B03D1BB69DB6B012B02D14FF0CF
:1015D000010301E04FF00003002B09D14FF0A003FD
:1015E00083F31188BFF36F8FBFF34F8FBB62FEE7AA
:1015F00002F058FDEFF311824FF0A00383F311883E
:10160000BFF36F8FBFF34F8F3A63FB623B6B7B611E
:10161000BB699A6BBB69DB6B9A4202D33B68022BB6
:1016200034D1BB6993F84530FB77B869B9683A683B
:1016300000F06EF997F91F30B3F1FF3F14D1BB6989
:101640005B6A002B19D0BB6903F12403184600F034
:10165000BDFF0346002B12D07B68002B11D07B68A6
:101660004FF001021A600DE0FB7F03F10103DBB2D2
:101670001A46BB6983F8452004E000BF02E000BFC2
:1016800000E000BF4FF001033B6102E04FF00003B8
:101690003B617B697B637B6B83F311883B691846F5
:1016A00007F13807BD4680BD80B58EB000AFF86049
:1016B000B9607A603B604FF00003FB61FB687B62BE
:1016C0007B6A002B09D14FF0A00383F31188BFF38D
:1016D0006F8FBFF34F8FFB62FEE7BB68002B03D118
:1016E0007B6A1B6C002B02D14FF0010301E04FF02D
:1016F0000003002B09D14FF0A00383F31188BFF33F
:101700006F8FBFF34F8F3B63FEE701F067F903462E
:10171000002B02D17B68002B02D14FF0010301E0C6
:101720004FF00003002B0CD14FF0A00383F311887E
:10173000BFF36F8FBFF34F8F7B63FEE700BF00E007
:1017400000BF02F0DBFB7B6A9B6BBB62BB6A002BBA
:1017500055D07B6ADB683B62786AB96800F050F963
:101760003B68002B27D1BB6A03F1FF327B6A9A6387
:101770007B6A1B68002B05D101F0A0FA03461A46CC
:101780007B6A5A607B6A1B69002B30D07B6A03F14D
:101790001003184600F01AFF0346002B29D04EF61E
:1017A0000453CEF200034FF080521A60BFF34F8F04
:1017B000BFF36F8F1EE07B6A3A6ADA607B6A5B6A0E
:1017C000002B17D07B6A03F12403184600F0FEFEBD
:1017D0000346002B0ED04EF60453CEF200034FF01A
:1017E00080521A60BFF34F8FBFF36F8F02E000BFCC
:1017F00000E000BF02F0BAFB4FF0010383E07B681A
:10180000002B04D102F0B2FB4FF000037BE0FB6938
:10181000002B07D107F11403184600F04FFF4FF0DB
:101820000103FB6102F0A2FB00F0B0FB02F066FBDB
:101830007B6A93F84430DBB25BB2B3F1FF3F04D173
:101840007B6A4FF0000283F844207B6A93F84530AE
:10185000DBB25BB2B3F1FF3F04D17B6A4FF0000211
:1018600083F8452002F082FB07F1140207F104031C
:101870001046194600F046FF0346002B35D1786A22
:1018800000F03CF90346002B29D07B6A1B68002B33
:1018900008D102F033FB7B6A5B68184601F0C2F89E
:1018A00002F064FB7B6A03F124027B681046194650
:1018B00000F03AFE786A00F0CBF800F079FB0346BE
:1018C000002B7FF43BAF4EF60453CEF200034FF0F3
:1018D00080521A60BFF34F8FBFF36F8F31E7786A82
:1018E00000F0B6F800F064FB2BE7786A00F0B0F87F
:1018F00000F05EFB786A00F001F90346002B3FF42C
:101900001FAF4FF00003184607F13807BD4680BDF2
:1019100080B586B000AFF860B9607A604FF0000320
:101920003B61FB689B6B7B61FB681B6C002B0FD1E1
:10193000FB681B68002B55D1FB685B68184601F0FB
:1019400017F903463B61FB684FF000025A604CE018
:101950007B68002B1AD1FB689A68FB681B6C1046E9
:10196000B9681A4605F024FAFB689A68FB681B6C94
:101970001A44FB689A60FB689A68FB685B689A4245
:1019800032D3FB681A68FB689A602EE0FB68DA685D
:10199000FB681B6C1046B9681A4605F009FAFB682B
:1019A000DA68FB681B6CC3F100031A44FB68DA6059
:1019B000FB68DA68FB681B689A4208D2FB685A68C1
:1019C000FB681B6CC3F100031A44FB68DA607B6898
:1019D000022B0AD17B69002B07D07B6903F1FF330F
:1019E0007B6102E000BF00E000BF7B6903F1010200
:1019F000FB689A633B69184607F11807BD4680BD2E
:101A000080B582B000AF786039607B681B6C002BBA
:101A100019D07B68DA687B681B6C1A447B68DA60D3
:101A20007B68DA687B685B689A4203D37B681A68D4
:101A30007B68DA607B68DA687B681B6C3868114603
:101A40001A4605F0B5F907F10807BD4680BD00BF8D
:101A500080B584B000AF786002F050FA7B6893F8EC
:101A60004530BB7312E07B685B6A002B13D07B6848
:101A700003F12403184600F0A9FD0346002B01D012
:101A800000F0A8FEBB7B03F1FF33BB7397F90E3068
:101A9000002BE8DC00E000BF7B684FF0FF3283F8EA
:101AA000452002F063FA02F029FA7B6893F844308B
:101AB000FB7312E07B681B69002B13D07B6803F17A
:101AC0001003184600F082FD0346002B01D000F001
:101AD00081FEFB7B03F1FF33FB7397F90F30002B83
:101AE000E8DC00E000BF7B684FF0FF3283F8442061
:101AF00002F03CFA07F11007BD4680BD80B584B006
:101B000000AF786002F0FAF97B689B6B002B03D181
:101B10004FF00103FB6002E04FF00003FB6002F0B6
:101B200025FAFB68184607F11007BD4680BD00BFC7
:101B300080B584B000AF786002F0E0F97B689A6B02
:101B40007B68DB6B9A4203D14FF00103FB6002E03C
:101B50004FF00003FB6002F009FAFB68184607F13A
:101B60001007BD4680BD00BF80B586B000AFF860ED
:101B7000B9607A60FB687B6102F0C0F97B6993F819
:101B80004430DBB25BB2B3F1FF3F04D17B694FF06D
:101B9000000283F844207B6993F84530DBB25BB2E6
:101BA000B3F1FF3F04D17B694FF0000283F8452079
:101BB00002F0DCF97B699B6B002B07D17B6903F199
:101BC00024031846B9687A6800F0D4FC7869FFF7F6
:101BD0003FFF07F11807BD4680BD00BF80B58CB040
:101BE00004AFF860B9603B601346FB80FB884FEAA6
:101BF0008303184601F038FE0346FB61FB69002BA6
:101C000010D04FF05C0001F02FFE03467B617B6932
:101C1000002B03D07B69FA691A6306E0F86901F0CA
:101C20001FFF02E04FF000037B617B69002B16D0A1
:101C3000FB88BA6A0092FA6A01927A6902924FF0BE
:101C400000020392F868B9681A463B6800F010F881
:101C5000786900F0A3F84FF00103BB6102E04FF098
:101C6000FF33BB61BB69184607F12007BD4680BD45
:101C700080B588B000AFF860B9607A603B603B6BBC
:101C80001A6B7B684FEA830310464FF0A5011A4692
:101C900005F056F93B6B1A6B7B6803F1FF334FEA93
:101CA000830313447B617B6923F007037B617B69BA
:101CB00003F00703002B09D04FF0A00383F3118832
:101CC000BFF36F8FBFF34F8FFB61FEE74FF0000351
:101CD000BB6112E0B969BA68BB6913441A783B6BFF
:101CE0000B4483F83420BA68BB6913441B78002B7B
:101CF00007D0BB6903F10103BB61BB69092BE9D9BB
:101D000000E000BF3B6B4FF0000283F83D20BB6A50
:101D1000042B02D94FF00403BB623B6BBA6ADA6250
:101D20003B6BBA6A9A643B6B4FF00002DA643B6B20
:101D300003F104031846FFF751F93B6B03F1180355
:101D40001846FFF74BF93B6B3A6B1A61BB6AC3F15C
:101D500005023B6B9A613B6B3A6B5A623B6B4FF0EF
:101D600000021A653B6B4FF000025A653B6B4FF067
:101D7000000283F858207869F9683A6801F0BCFFDE
:101D800003461A463B6B1A60FB6A002B02D0FB6AC3
:101D90003A6B1A6007F12007BD4680BD80B582B05E
:101DA00000AF786002F0AAF847F20C23C2F20003F9
:101DB0001B6803F1010247F20C23C2F200031A6010
:101DC00047F23413C2F200031B68002B0FD147F215
:101DD0003413C2F200037A681A6047F20C23C2F28D
:101DE00000031B68012B1AD100F01CFD18E047F21C
:101DF0001823C2F200031B68002B11D147F23413E1
:101E0000C2F200031B68DA6A7B68DB6A9A4207D871
:101E100047F23413C2F200037A681A6000E000BF90
:101E200047F22823C2F200031B6803F1010247F2C4
:101E30002823C2F200031A6047F22823C2F20003EB
:101E40001A687B681A647B68DB6A4FF0010202FA49
:101E500003F247F21423C2F200031B6842EA0302B2
:101E600047F21423C2F200031A607B68DA6A134651
:101E70004FEA830313444FEA83031A4647F23813A9
:101E8000C2F200031A447B6803F1040310461946AA
:101E9000FFF7B2F802F06AF847F21823C2F2000323
:101EA0001B68002B14D047F23413C2F200031B68E6
:101EB000DA6A7B68DB6A9A420AD24EF60453CEF2A3
:101EC00000034FF080521A60BFF34F8FBFF36F8F44
:101ED00007F10807BD4680BD80B586B002AF4FF060
:101EE0000003009347F23023C2F20003019342F251
:101EF000ED70C2F2000047F21C01C2F200014FF087
:101F000050024FF00003FFF769FE03467B607B68D9
:101F1000012B03D101F0F4F803467B607B68012BB1
:101F200022D14FF0A00383F31188BFF36F8FBFF36B
:101F30004F8FBB6047F22C23C2F200034FF0FF32F9
:101F40001A6047F21823C2F200034FF001021A6030
:101F500047F21023C2F200034FF000021A60FEF7AE
:101F6000DFF901F045FF0DE07B68B3F1FF3F09D1D8
:101F70004FF0A00383F31188BFF36F8FBFF34F8F30
:101F8000FB60FEE707F11007BD4680BD80B400AFDF
:101F900047F23423C2F200031B6803F1010247F247
:101FA0003423C2F200031A60BD4680BC704700BFF4
:101FB00080B584B000AF4FF000033B604FF00003EA
:101FC0007B6047F23423C2F200031B68002B09D167
:101FD0004FF0A00383F31188BFF36F8FBFF34F8FD0
:101FE000FB60FEE701F08AFF47F23423C2F20003F0
:101FF0001B6803F1FF3247F23423C2F200031A6078
:1020000047F23423C2F200031B68002B40F0988093
:1020100047F20C23C2F200031B68002B00F09080F3
:102020004AE047F2CC13C2F20003DB68DB683B6096
:102030003B6803F118031846FFF73CF83B6803F1CF
:1020400004031846FFF736F83B68DB6A4FF00102DD
:1020500002FA03F247F21423C2F200031B6842EAB9
:10206000030247F21423C2F200031A603B68DA6AE3
:1020700013464FEA830313444FEA83031A4647F299
:102080003813C2F200031A443B6803F104031046FC
:102090001946FEF7B1FF3B68DA6A47F23413C2F221
:1020A00000031B68DB6A9A4206D347F22023C2F280
:1020B00000034FF001021A6047F2CC13C2F2000392
:1020C0001B68002BADD13B68002B01D000F058FC01
:1020D00047F21C23C2F200031B68BB60BB68002BE5
:1020E00019D000F045F80346002B06D047F2202314
:1020F000C2F200034FF001021A60BB6803F1FF3324
:10210000BB60BB68002BECD147F21C23C2F200037A
:102110004FF000021A6047F22023C2F200031B684E
:10212000002B0DD04FF001037B604EF60453CEF22E
:1021300000034FF080521A60BFF34F8FBFF36F8FD1
:1021400001F014FF7B68184607F11007BD4680BDFB
:1021500080B483B000AF47F21023C2F200031B68C3
:102160007B607B68184607F10C07BD4680BC704752
:1021700080B586B000AF4FF00003BB6047F2342358
:10218000C2F200031B68002B40F0DC8047F21023F2
:10219000C2F200031B6803F10103FB6047F2102346
:1021A000C2F20003FA681A60FB68002B35D147F2CF
:1021B000C413C2F200031B681B68002B09D04FF048
:1021C000A00383F31188BFF36F8FBFF34F8F7B6141
:1021D000FEE747F2C413C2F200031B683B6147F2FB
:1021E000C813C2F200031A6847F2C413C2F2000314
:1021F0001A6047F2C813C2F200033A691A6047F244
:102200002423C2F200031B6803F1010247F22423D6
:10221000C2F200031A6000F0B3FB47F22C23C2F2B3
:1022200000031B68FA689A4273D300E000BF47F2CC
:10223000C413C2F200031B681B68002B02D14FF0CD
:10224000010301E04FF00003002B07D047F22C23DD
:10225000C2F200034FF0FF321A605AE047F2C41393
:10226000C2F200031B68DB68DB683B603B685B68AD
:102270007B60FA687B689A4206D247F22C23C2F24E
:1022800000037A681A6044E03B6803F104031846CF
:10229000FEF710FF3B689B6A002B05D03B6803F1FB
:1022A00018031846FEF706FF3B68DB6A4FF0010291
:1022B00002FA03F247F21423C2F200031B6842EA57
:1022C000030247F21423C2F200031A603B68DA6A81
:1022D00013464FEA830313444FEA83031A4647F237
:1022E0003813C2F200031A443B6803F1040310469A
:1022F0001946FEF781FE3B68DA6A47F23413C2F2F0
:1023000000031B68DB6A9A4290D34FF00103BB6065
:102310008DE747F23413C2F200031B68DA6A1346F2
:102320004FEA830313444FEA83031A4647F23813F4
:10233000C2F2000313441B68012B10D94FF00103B4
:10234000BB600DE047F21C23C2F200031B6803F1DF
:10235000010247F21C23C2F200031A6000E000BF32
:1023600047F22023C2F200031B68002B02D04FF07B
:102370000103BB60BB68184607F11807BD4680BD66
:1023800080B588B000AF47F23423C2F200031B6867
:10239000002B07D047F22023C2F200034FF00102C6
:1023A0001A60BCE047F22023C2F200034FF00002A3
:1023B0001A60FDF7D9FF024647F23C23C2F2000340
:1023C0001A6047F23C23C2F200031A6847F238232E
:1023D000C2F200031B689A4213D947F23413C2F2C7
:1023E00000031A68116D47F23C23C2F2000318681B
:1023F00047F23823C2F200031B68C3EB00030B440F
:10240000136547F23C23C2F200031A6847F23823EF
:10241000C2F200031A6047F23413C2F200031B68D1
:102420001B6B7B604FF0A533BB607B681A68BB6891
:102430009A4214D17B6803F104031A68BB689A427C
:102440000DD17B6803F108031A68BB689A4206D174
:102450007B6803F10C031A68BB689A420FD047F2FD
:102460003413C2F200031A6847F23413C2F20003B5
:102470001B6803F1340310461946FDF7E3FF47F2EA
:102480001423C2F200031B687B617B69B3FA83F3F8
:10249000FB76FB7EC3F11F03FB60FA6813464FEA2D
:1024A000830313444FEA83031A4647F23813C2F2F8
:1024B000000313441B68002B09D14FF0A00383F3E2
:1024C0001188BFF36F8FBFF34F8FFB61FEE7FA6890
:1024D00013464FEA830313444FEA83031A4647F235
:1024E0003813C2F2000313443B613B695B685A68CE
:1024F0003B695A603B695A683B6903F108039A4299
:1025000004D13B695B685A683B695A603B695B6808
:10251000DB681A4647F23413C2F200031A6007F16F
:102520002007BD4680BD00BF80B584B000AF786095
:1025300039607B68002B09D14FF0A00383F3118829
:10254000BFF36F8FBFF34F8FFB60FEE747F234138B
:10255000C2F200031B6803F1180378681946FEF7FE
:102560006FFD38684FF0010100F042FD07F11007E0
:10257000BD4680BD80B586B000AFF860B9607A60B6
:10258000FB68002B09D14FF0A00383F31188BFF340
:102590006F8FBFF34F8F7B61FEE747F23413C2F2B8
:1025A00000031B6803F11803F8681946FEF724FDC1
:1025B0007B68002B02D04FF0FF33BB60B8687968AE
:1025C00000F016FD07F11807BD4680BD80B586B046
:1025D00000AF78607B68DB68DB68FB60FB68002B22
:1025E00009D14FF0A00383F31188BFF36F8FBFF3BE
:1025F0004F8F7B61FEE7FB6803F118031846FEF777
:1026000059FD47F23423C2F200031B68002B2DD181
:10261000FB6803F104031846FEF74CFDFB68DB6A18
:102620004FF0010202FA03F247F21423C2F2000350
:102630001B6842EA030247F21423C2F200031A6045
:10264000FB68DA6A13464FEA830313444FEA8303B5
:102650001A4647F23813C2F200031A44FB6803F12A
:10266000040310461946FEF7C7FC09E0FB6803F1B6
:10267000180347F2CC10C2F200001946FEF7BCFC6A
:10268000FB68DA6A47F23413C2F200031B68DB6AA4
:102690009A420AD94FF001033B6147F22023C2F26C
:1026A00000034FF001021A6002E04FF000033B61AB
:1026B0003B69184607F11807BD4680BD80B485B058
:1026C00000AF78607B68002B09D14FF0A00383F343
:1026D0001188BFF36F8FBFF34F8FFB60FEE747F2A8
:1026E0002423C2F200031A687B681A6047F21023A1
:1026F000C2F200031A687B685A6007F11407BD46EE
:1027000080BC704780B586B000AF786039607B6868
:10271000002B09D14FF0A00383F31188BFF36F8F13
:10272000BFF34F8F3B61FEE73B68002B09D14FF0B1
:10273000A00383F31188BFF36F8FBFF34F8F7B61CB
:10274000FEE701F0DBFB47F21023C2F200031B6837
:10275000FB603B681B68B3F1FF3F03D14FF0000300
:10276000BB602EE07B681A6847F22423C2F20003A4
:102770001B689A4208D07B685A68FB689A4203D863
:102780004FF00103BB601CE07B685B68FA68C3EB39
:1027900002023B681B689A4210D23B681A687B6849
:1027A0005968FB68C3EB01031A443B681A607868F8
:1027B000FFF784FF4FF00003BB6002E04FF001031E
:1027C000BB6001F0D3FBBB68184607F11807BD4694
:1027D00080BD00BF80B400AF47F22023C2F20003E7
:1027E0004FF001021A60BD4680BC704780B582B0D0
:1027F00000AF786000F068F847F23813C2F20003C7
:102800001B68012B0AD94EF60453CEF200034FF099
:1028100080521A60BFF34F8FBFF36F8FFDF70CFE2E
:10282000E8E700BF80B582B000AF4FF000037B60E7
:1028300013E07A6813464FEA830313444FEA830395
:102840001A4647F23813C2F2000313441846FEF743
:10285000A1FB7B6803F101037B607B68042BE8D953
:1028600047F29C10C2F20000FEF794FB47F2B01052
:10287000C2F20000FEF78EFB47F2CC10C2F200005D
:10288000FEF788FB47F2E010C2F20000FEF782FB81
:1028900047F2F810C2F20000FEF77CFB47F2C413C7
:1028A000C2F2000347F29C12C2F200021A6047F221
:1028B000C813C2F2000347F2B012C2F200021A605B
:1028C00007F10807BD4680BD80B582B000AF3CE08F
:1028D000FFF75CFB47F2E013C2F200031B68002B1A
:1028E00014BF002301233B60FFF762FB3B68002B12
:1028F0002BD101F003FB47F2E013C2F20003DB68C7
:10290000DB687B607B6803F104031846FEF7D2FBAB
:1029100047F20C23C2F200031B6803F1FF3247F2B7
:102920000C23C2F200031A6047F2F413C2F2000350
:102930001B6803F1FF3247F2F413C2F200031A607E
:1029400001F014FB786800F00BF847F2F413C2F2C0
:1029500000031B68002BBBD107F10807BD4680BDF3
:1029600080B582B000AF78607B681B6B184601F0C1
:1029700077F8786801F074F807F10807BD4680BD64
:1029800080B483B000AF47F2C413C2F200031B68E7
:102990001B68002B02D14FF0010301E04FF0000350
:1029A000002B07D047F22C23C2F200034FF0FF3276
:1029B0001A600EE047F2C413C2F200031B68DB6822
:1029C000DB687B607B685A6847F22C23C2F2000305
:1029D0001A6007F10C07BD4680BC704780B483B015
:1029E00000AF47F21823C2F200031B68002B03D18B
:1029F0004FF001037B600DE047F23423C2F2000385
:102A00001B68002B03D14FF002037B6002E04FF004
:102A100000037B607B68184607F10C07BD4680BC4D
:102A2000704700BF80B584B000AF78607B68FB6002
:102A30007B68002B00F09880FB68DA6A47F2341359
:102A4000C2F200031B68DB6A9A4280F08D80FB684B
:102A50009B69002B09DB47F23413C2F200031B68A9
:102A6000DB6AC3F10502FB689A61FB685969FB6880
:102A7000DA6A13464FEA830313444FEA83031A4684
:102A800047F23813C2F200031344994202D14FF0C7
:102A9000010301E04FF00003002B5DD0FB6803F160
:102AA00004031846FEF706FB0346002B24D1FB68FF
:102AB000DA6A13464FEA830313444FEA83031A4644
:102AC00047F23813C2F2000313441B68002B13D1E2
:102AD000FB68DB6A4FF0010202FA03F36FEA0302BC
:102AE00047F21423C2F200031B6802EA030247F212
:102AF0001423C2F200031A6047F23413C2F2000337
:102B00001B68DA6AFB68DA62FB68DB6A4FF0010275
:102B100002FA03F247F21423C2F200031B6842EAEE
:102B2000030247F21423C2F200031A60FB68DA6A58
:102B300013464FEA830313444FEA83031A4647F2CE
:102B40003813C2F200031A44FB6803F10403104671
:102B50001946FEF751FA07E047F23413C2F20003B8
:102B60001B68DA6AFB68DA6207F11007BD4680BDB0
:102B700080B586B000AF78607B68BB604FF0000323
:102B8000FB607B68002B00F0928047F23413C2F2A6
:102B900000031B68BA689A4209D04FF0A00383F380
:102BA0001188BFF36F8FBFF34F8F3B61FEE7BB68A8
:102BB000DB6C002B09D14FF0A00383F31188BFF326
:102BC0006F8FBFF34F8F7B61FEE7BB68DB6C03F158
:102BD000FF32BB68DA64BB68DA6ABB689B6C9A42F6
:102BE00065D0BB68DB6C002B61D1BB6803F10403CB
:102BF0001846FEF75FFA0346002B24D1BB68DA6A59
:102C000013464FEA830313444FEA83031A4647F2FD
:102C10003813C2F2000313441B68002B13D1BB68A6
:102C2000DB6A4FF0010202FA03F36FEA030247F294
:102C30001423C2F200031B6802EA030247F21423C2
:102C4000C2F200031A60BB689A6CBB68DA62BB68A8
:102C5000DB6AC3F10502BB689A61BB68DB6A4FF0AF
:102C6000010202FA03F247F21423C2F200031B68C6
:102C700042EA030247F21423C2F200031A60BB685F
:102C8000DA6A13464FEA830313444FEA83031A4672
:102C900047F23813C2F200031A44BB6803F104037D
:102CA00010461946FEF7A8F94FF00103FB60FB68D8
:102CB000184607F11807BD4680BD00BF80B400AFBD
:102CC00047F23413C2F200031B68002B08D047F20E
:102CD0003413C2F200031B68DA6C02F10102DA64F9
:102CE00047F23413C2F200031B681846BD4680BC8D
:102CF000704700BF80B584B000AF7860396001F0E4
:102D0000FDF847F23413C2F200031B685B6D002B21
:102D10001BD147F23413C2F200031B684FF00102CB
:102D200083F858203B68002B0FD038684FF0010122
:102D300000F05EF94EF60453CEF200034FF08052DD
:102D40001A60BFF34F8FBFF36F8F01F00FF901F0DF
:102D5000D5F847F23413C2F200031B685B6DFB60C9
:102D6000FB68002B14D07B68002B08D047F234138B
:102D7000C2F200031B684FF000025A6508E047F2F8
:102D80003413C2F200031B68FA6802F1FF325A657D
:102D900047F23413C2F200031B684FF0000283F8BD
:102DA000582001F0E3F8FB68184607F11007BD460C
:102DB00080BD00BF80B586B000AFF860B9607A60B2
:102DC0003B6001F09BF847F23413C2F200031B682A
:102DD00093F85830DBB2022B27D047F23413C2F2FB
:102DE00000031B68596DFA686FEA020201EA0202E9
:102DF0005A6547F23413C2F200031B684FF0010218
:102E000083F858203B68002B0FD038684FF0010141
:102E100000F0EEF84EF60453CEF200034FF080526D
:102E20001A60BFF34F8FBFF36F8F01F09FF801F06F
:102E300065F87B68002B07D047F23413C2F2000319
:102E40001B685A6D7B681A6047F23413C2F20003A4
:102E50001B6893F85830DBB2012B03D14FF000030D
:102E60007B610EE047F23413C2F200031B68596D18
:102E7000BA686FEA020201EA02025A654FF00103E2
:102E80007B6147F23413C2F200031B684FF000026B
:102E900083F8582001F06AF87B69184607F1180793
:102EA000BD4680BD80B58AB000AF786039607B6870
:102EB000002B09D14FF0A00383F31188BFF36F8F6C
:102EC000BFF34F8F7B61FEE701F0ECF87B68BB60DE
:102ED000EFF311824FF0A00383F31188BFF36F8FDC
:102EE000BFF34F8FFA61BB61FB693B61BB6893F82D
:102EF0005830FB73BB684FF0020283F85820BB6860
:102F00005B6D03F10102BB685A65FB7B012B65D148
:102F1000BB689B6A002B09D04FF0A00383F3118894
:102F2000BFF36F8FBFF34F8F3B62FEE747F234234F
:102F3000C2F200031B68002B2DD1BB6803F1040310
:102F40001846FEF7B7F8BB68DB6A4FF0010202FAD9
:102F500003F247F21423C2F200031B6842EA0302A1
:102F600047F21423C2F200031A60BB68DA6A134600
:102F70004FEA830313444FEA83031A4647F2381398
:102F8000C2F200031A44BB6803F104031046194659
:102F9000FEF732F809E0BB6803F1180347F2CC10E2
:102FA000C2F200001946FEF727F8BB68DA6A47F25A
:102FB0003413C2F200031B68DB6A9A420ED93B68E5
:102FC000002B04D03B684FF001021A6006E047F284
:102FD0002023C2F200034FF001021A603B697B62BA
:102FE0007B6A83F3118807F12807BD4680BD00BFC7
:102FF00080B584B000AF7860396047F21023C2F228
:1030000000031B68FB6047F23413C2F200031B6825
:1030100003F104031846FEF74DF80346002B17D1C1
:1030200047F23413C2F200031B68DB6A4FF001025F
:1030300002FA03F36FEA030247F21423C2F2000319
:103040001B6802EA030247F21423C2F200031A606B
:103050007B68B3F1FF3F11D13B68002B0ED047F2E4
:103060003413C2F200031B6803F1040347F2F810A3
:10307000C2F200001946FDF7BFFF3DE0FA687B6829
:103080001344BB6047F23413C2F200031B68BA68F2
:103090005A60BA68FB689A4210D247F2C813C2F26B
:1030A00000031A6847F23413C2F200031B6803F1ED
:1030B000040310461946FDF7C3FF1DE047F2C41391
:1030C000C2F200031A6847F23413C2F200031B680D
:1030D00003F1040310461946FDF7B2FF47F22C2313
:1030E000C2F200031B68BA689A4205D247F22C2349
:1030F000C2F20003BA681A6007F11007BD4680BD2E
:1031000080B584B002AF4FF000033B6000F072FB6B
:1031100047F27023C2F200031B68002B17D04FF058
:103120000203009347F27423C2F20003019343F2B7
:103130007130C2F2000047F24C01C2F200014FF0C0
:10314000A0024FF00003FEF749FD03463B603B68D9
:10315000002B09D14FF0A00383F31188BFF36F8FC9
:10316000BFF34F8F7B60FEE73B68184607F1080707
:10317000BD4680BD80B588B002AFF860B9607A60A6
:103180003B604FF02C0000F06FFB03467B617B69D6
:10319000002B09D03B6A00937B690193F868B968FA
:1031A0007A683B6800F006F87B69184607F1180753
:1031B000BD4680BD80B586B000AFF860B9607A606A
:1031C0003B60BB68002B09D14FF0A00383F311884B
:1031D000BFF36F8FBFF34F8F7B61FEE77B6A002BDE
:1031E00016D000F007FB7B6AFA681A607B6ABA683F
:1031F0009A617B6A7A68DA617B6A3A681A627B6AEA
:103200003A6A5A627B6A03F104031846FDF7E6FE48
:1032100007F11807BD4680BD80B58AB000AFF860E1
:10322000B9607A603B604FF000033B62FB68002BA3
:1032300009D14FF0A00383F31188BFF36F8FBFF361
:103240004F8F7B62FEE747F27023C2F200031B68D8
:10325000002B40D0BB683B617B687B61FB68BB6136
:10326000BB68052B27DCFFF7B9FB0346022B10D107
:1032700047F27023C2F200031A6807F110031046E8
:1032800019463A6B4FF00003FEF754F803463B62D1
:1032900021E047F27023C2F200031A6807F110031D
:1032A000104619464FF000024FF00003FEF742F8B7
:1032B00003463B620FE047F27023C2F200031A6834
:1032C00007F11003104619463A684FF00003FEF765
:1032D00049F903463B623B6A184607F12807BD4699
:1032E00080BD00BF80B588B002AF7860396047F21A
:1032F0006823C2F200031B68DB68DB683B613B6943
:1033000003F104031846FDF7D5FE3B69DB69012B89
:1033100026D13B699A697B681344386919463A6833
:103320007B6800F0DFF80346002B19D04FF0000354
:10333000009338694FF000017A684FF00003FFF7FF
:103340006BFF0346FB60FB68002B09D14FF0A00325
:1033500083F31188BFF36F8FBFF34F8F7B61FEE75D
:103360003B695B6A3869984707F11807BD4680BD1D
:1033700080B584B000AF786007F10803184600F00C
:1033800061F80346FB60BB68F868194600F004F872
:1033900000F0F4F8F0E700BF80B584B000AF7860CB
:1033A0003960FEF7F3FD07F10803184600F072F8E4
:1033B0000346FB60BB68002B3BD13B68002B0BD165
:1033C0007A68FB689A4207D8FEF7F2FD7868F968D8
:1033D000FFF788FF00BF30E03B68002B0AD047F2C0
:1033E0006C23C2F200031B681B68002B14BF002370
:1033F00001233B6047F27023C2F200031A68796828
:10340000FB68C3EB0103104619463A68FEF7ACFBB4
:10341000FEF7CEFD0346002B0ED14EF60453CEF23E
:1034200000034FF080521A60BFF34F8FBFF36F8FCE
:1034300003E0FEF7BDFD00E000BF07F11007BD4649
:1034400080BD00BF80B485B000AF786047F26823CC
:10345000C2F200031B681B68002B14BF002201226C
:103460007B681A607B681B68002B08D147F26823D1
:10347000C2F200031B68DB681B68FB6002E04FF0D0
:103480000003FB60FB68184607F11407BD4680BCCB
:10349000704700BF80B584B000AF7860FEF758FE7B
:1034A0000346FB6047F27823C2F200031B68FA6808
:1034B0009A4206D200F024F97B684FF001021A60AC
:1034C00003E07B684FF000021A6047F27823C2F2F3
:1034D0000003FA681A60FB68184607F11007BD463A
:1034E00080BD00BF80B586B000AFF860B9607A607B
:1034F0003B604FF000037B61FB68BA685A60FB6871
:10350000FA681A61BA687B689A4218D87A683B6888
:10351000C3EB0202FB689B699A4203D34FF001039D
:103520007B6124E047F26C23C2F200031A68FB6857
:1035300003F1040310461946FDF782FD17E07A688F
:103540003B689A4207D2BA683B689A4203D34FF06D
:1035500001037B610BE047F26823C2F200031A68A3
:10356000FB6803F1040310461946FDF769FD7B690A
:10357000184607F11807BD4680BD00BF80B58EB064
:1035800002AFA5E07B68002B1ADA07F1040303F110
:1035900004033B623B6A002B09D14FF0A00383F385
:1035A0001188BFF36F8FBFF34F8F7B62FEE73B6ADB
:1035B0001B683A6A51683A6A926808461146984709
:1035C0007B68002BC0F28480FB687B617B695B6950
:1035D000002B05D07B6903F104031846FDF76AFD53
:1035E0003B461846FFF756FF0346FB617B68092BF5
:1035F0006ED801A252F823F0213600202136002097
:1036000021360020D136002087360020BF3600202A
:103610002136002021360020D136002087360020B8
:10362000BA687B699B691A44BB6878691146FA6974
:10363000FFF758FF0346002B45D07B695B6A78692A
:1036400098477B69DB69012B3FD1BA687B699B692D
:1036500013444FF00002009278694FF000011A46BF
:103660004FF00003FFF7D8FD0346BB61BB69002B99
:103670002DD14FF0A00383F31188BFF36F8FBFF3F9
:103680004F8FBB62FEE7BA687B699A617B699B6971
:10369000002B09D14FF0A00383F31188BFF36F8F84
:1036A000BFF34F8FFB62FEE77B699A69FB691344A6
:1036B00078691946FA69FB69FFF714FF08E0786931
:1036C00000F0CEF904E000BF02E000BF00E000BF60
:1036D00047F27023C2F200031A6807F10403104690
:1036E00019464FF000024FF00003FDF7DDFF0346DF
:1036F000002B7FF447AF07F13007BD4680BD00BF08
:1037000080B588B002AF53E047F26823C2F20003ED
:103710001B68DB681B683B6047F26823C2F200034A
:103720001B68DB68DB68FB60FB6803F10403184679
:10373000FDF7C0FCFB685B6AF8689847FB68DB69CB
:10374000012B35D1FB689A693B6813447B607A682A
:103750003B689A4212D9FB687A685A60FB68FA683B
:103760001A6147F26823C2F200031A68FB6803F18A
:10377000040310461946FDF763FC19E04FF00003FF
:103780000093F8684FF000013A684FF00003FFF72C
:1037900043FD03463B613B69002B09D14FF0A00379
:1037A00083F31188BFF36F8FBFF34F8F7B61FEE709
:1037B00047F26823C2F200031B681B68002BA3D1E9
:1037C00047F26823C2F200031B68BB6047F26C2318
:1037D000C2F200031A6847F26823C2F200031A60BB
:1037E00047F26C23C2F20003BA681A6007F11807A7
:1037F000BD4680BD80B500AF00F080FB47F270236E
:10380000C2F200031B68002B2BD147F24020C2F20A
:103810000000FDF7BFFB47F25420C2F20000FDF7A5
:10382000B9FB47F26823C2F2000347F24022C2F21A
:1038300000021A6047F26C23C2F2000347F25422DE
:10384000C2F200021A604FF005004FF010014FF075
:103850000002FDF7D1FC024647F27023C2F20003DA
:103860001A6000F083FB80BD80B58AB000AF78603D
:103870004FF00003BB61FEF789FB4DF22C43C2F20F
:1038800000031B68002B01D100F056F94DF23843BC
:10389000C2F200031A687B6802EA0303002B40F0BF
:1038A000C2807B68002B21D047F25403C2F2000390
:1038B0001B687A6813447B607B6803F00703002B66
:1038C00014D07B6823F0070303F108037B607B6857
:1038D00003F00703002B09D04FF0A00383F31188F6
:1038E000BFF36F8FBFF34F8FFB61FEE77B68002B49
:1038F00000F099804DF23043C2F200031B687A68F1
:103900009A4200F290804DF22443C2F200033B61E0
:103910004DF22443C2F200031B68FB6004E0FB6825
:103920003B61FB681B68FB60FB685A687B689A42D6
:1039300003D2FB681B68002BF1D14DF22C43C2F27D
:1039400000031B68FA689A426DD03B691A6847F217
:103950005403C2F200031B681344BB61FB681A687E
:103960003B691A60FB685A687B68C3EB020247F246
:103970005403C2F200031B684FEA43039A421FD963
:10398000FA687B6813447B617B6903F00703002BB3
:1039900009D04FF0A00383F31188BFF36F8FBFF3FB
:1039A0004F8F3B62FEE7FB685A687B68C3EB0202FD
:1039B0007B695A60FB687A685A60786900F03EF962
:1039C0004DF23043C2F200031A68FB685B68C3EB38
:1039D00002024DF23043C2F200031A604DF230434E
:1039E000C2F200031A684DF23443C2F200031B68AE
:1039F0009A4209D24DF23043C2F200031A684DF2E6
:103A00003443C2F200031A60FB685A684DF238432F
:103A1000C2F200031B6842EA0302FB685A60FB68BB
:103A20004FF000021A60FEF7C3FABB69002B01D108
:103A3000FCF7F4FCBB6903F00703002B09D04FF03F
:103A4000A00383F31188BFF36F8FBFF34F8F7B62A7
:103A5000FEE7BB69184607F12807BD4680BD00BFD9
:103A600080B586B000AF78607B68BB607B68002B58
:103A70005ED047F25403C2F200031B68C3F1000397
:103A8000BA681344BB60BB68FB60FB685A684DF2C0
:103A90003843C2F200031B6802EA0303002B09D17A
:103AA0004FF0A00383F31188BFF36F8FBFF34F8FE5
:103AB0003B61FEE7FB681B68002B09D04FF0A003B9
:103AC00083F31188BFF36F8FBFF34F8F7B61FEE7E6
:103AD000FB685A684DF23843C2F200031B6802EAE1
:103AE0000303002B24D0FB681B68002B20D1FB684C
:103AF0005A684DF23843C2F200031B686FEA0303B1
:103B000002EA0302FB685A60FEF740FAFB685A6853
:103B10004DF23043C2F200031B681A444DF23043A9
:103B2000C2F200031A60F86800F088F8FEF740FA65
:103B300007F11807BD4680BD80B485B000AF46F2DE
:103B4000A813FB6047F27C23C2F20003BB60BB6892
:103B500003F00703002B11D0BB6803F10703BB6020
:103B6000BB6823F00703BB60FA68BB68C3EB0202C3
:103B700047F27C23C2F200031344FB60BB687B6006
:103B80007A684DF22443C2F200031A604DF22443D6
:103B9000C2F200034FF000025A607A68FB681344D7
:103BA000BB6047F25403C2F200031B68BA68C3EB60
:103BB0000203BB60BB6823F00703BB60BA684DF229
:103BC0002C43C2F200031A604DF22C43C2F20003F0
:103BD0001B684FF000025A604DF22C43C2F2000302
:103BE0001B684FF000021A607B683B603B68BA6854
:103BF000C3EB02023B685A604DF22C43C2F2000351
:103C00001A683B681A603B685A684DF23443C2F246
:103C100000031A603B685A684DF23043C2F2000359
:103C20001A604DF23843C2F200034FF000421A60AE
:103C300007F11407BD4680BC704700BF80B485B053
:103C400000AF78604DF22443C2F20003BB6002E093
:103C5000BB681B68BB60BB681A687B689A42F7D375
:103C6000BB68FB60BB685A68FB681A447B689A4271
:103C700008D1BB685A687B685B681A44BB685A60A5
:103C8000BB687B607B68FB607B685A68FB681A4492
:103C9000BB681B689A421ED1BB681A684DF22C4360
:103CA000C2F200031B689A420DD07B685A68BB6859
:103CB0001B685B681A447B685A60BB681B681A689B
:103CC0007B681A600BE04DF22C43C2F200031A68C5
:103CD0007B681A6003E0BB681A687B681A60BA6880
:103CE0007B689A4202D0BB687A681A6007F11407B1
:103CF000BD4680BC704700BF80B485B000AFF8609F
:103D0000B9607A60FB68A3F10403FB60FB684FF0C5
:103D100080721A60FB68A3F10403FB60BB6823F0A8
:103D20000102FB681A60FB68A3F10403FB6043F621
:103D30006153C2F20003FA681360FB68A3F1140335
:103D4000FB607A68FB681A60FB68A3F12003FB60E4
:103D5000FB68184607F11407BD4680BC704700BFDA
:103D600080B483B000AF47F2CC03C2F200031B68FB
:103D7000B3F1FF3F09D04FF0A00383F31188BFF3E5
:103D80006F8FBFF34F8F3B60FEE74FF0A00383F3CD
:103D90001188BFF36F8FBFF34F8F7B60FEE700BFCB
:103DA000074B19680868B0E8F00F80F30988BFF383
:103DB0006F8F4FF0000080F311884EF00D0E7047AA
:103DC00034710020AFF30080AFF30080AFF30080C8
:103DD00006480068006880F3088862B661B6BFF3E1
:103DE0004F8FBFF36F8F00DF00BF000008ED00E0D2
:103DF00080B584B000AF4EF20043CEF20003FB600A
:103E0000FB681B78DBB2BB60FB684FF0FF321A70B7
:103E1000FB681B78DBB2FB71FB79DBB21A4602F060
:103E2000A0024DF23C43C2F200031A704DF240432F
:103E3000C2F200034FF007021A6011E04DF2404356
:103E4000C2F200031B6803F1FF324DF24043C2F29D
:103E500000031A60FB79DBB24FEA4303DBB2FB716C
:103E6000FB79DBB25BB2002BE8DB4DF24043C2F2E0
:103E700000031B684FEA03224DF24043C2F20003E5
:103E80001A604DF24043C2F200031B6803F4E06283
:103E90004DF24043C2F200031A60BB68DAB2FB681D
:103EA0001A704EF62053CEF200034EF62052CEF298
:103EB0000002126842F470021A604EF62053CEF2ED
:103EC00000034EF62052CEF20002126842F0704219
:103ED0001A6000F0C7F847F2CC03C2F200034FF0BB
:103EE00000021A60FFF774FFFFF73AFF4FF000037C
:103EF000184607F11007BD4680BD00BF80B483B0EF
:103F000000AF4FF0A00383F31188BFF36F8FBFF3AF
:103F10004F8F3B6047F2CC03C2F200031B6803F1F2
:103F2000010247F2CC03C2F200031A6047F2CC034D
:103F3000C2F200031B68012B12D14EF60453CEF2DD
:103F400000031B6803F0FF03002B09D04FF0A00310
:103F500083F31188BFF36F8FBFF34F8F7B60FEE752
:103F600007F10C07BD4680BC704700BF80B483B02A
:103F700000AF47F2CC03C2F200031B68002B09D14B
:103F80004FF0A00383F31188BFF36F8FBFF34F8F00
:103F90003B60FEE747F2CC03C2F200031B6803F16B
:103FA000FF3247F2CC03C2F200031A6047F2CC039F
:103FB000C2F200031B68002B05D14FF000037B60A9
:103FC0007B6883F3118807F10C07BD4680BC7047FE
:103FD000EFF30980BFF36F8F0D4B1A6820E9F00FE4
:103FE00010602DE908404FF0A00080F31188FEF723
:103FF000C7F94FF0000080F31188BDE80840196848
:104000000868B0E8F00F80F30988BFF36F8F70473E
:1040100034710020AFF30080AFF30080AFF3008075
:1040200080B582B000AF4FF0A00383F31188BFF3D7
:104030006F8FBFF34F8F3B60FEF79AF80346002B5C
:1040400006D04EF60453CEF200034FF080521A60B1
:104050004FF000037B607B6883F3118807F108074A
:10406000BD4680BD80B400AF4EF21403CEF2000313
:1040700047F20C12C2F20002116844F6D352C1F2A8
:104080006202A2FB01024FEA921202F1FF321A60B1
:104090004EF21003CEF200034FF007021A60BD4645
:1040A00080BC704780B485B000AFEFF305833B6000
:1040B0003B680F2B1AD947F25803C2F200031A6863
:1040C0003B6813441B78FB714DF23C43C2F2000382
:1040D0001B78FA799A4209D24FF0A00383F3118832
:1040E000BFF36F8FBFF34F8FBB60FEE74EF60C53ED
:1040F000CEF200031B6803F4E0624DF24043C2F2CB
:1041000000031B689A4209D94FF0A00383F311887A
:10411000BFF36F8FBFF34F8FFB60FEE707F114070C
:10412000BD4680BC704700BF80B483B000AF03467B
:10413000FB714EF20013CEF2000397F907204FEA0D
:104140005212F97901F01F014FF0010000FA01F15C
:1041500043F8221007F10C07BD4680BC704700BF32
:1041600080B483B000AF03463960FB7197F9073024
:10417000002B10DA4EF60053CEF20003FA7902F06B
:104180000F02A2F104013A68D2B24FEA0212D2B28F
:104190000B441A760DE04EF20013CEF2000397F9AD
:1041A00007103A68D2B24FEA0212D2B20B4483F837
:1041B000002307F10C07BD4680BC704790B589B05D
:1041C00000AF78604FF00003BB774FF00003FB7740
:1041D0004DF22852C2F200024DF68033C2F20003C3
:1041E0001A6007F11C0107F11A0207F118030846CB
:1041F00011461A46FCF736F90346BB7707F114015E
:1042000007F1120207F11003084611461A46FCF79F
:10421000BFFA0346BB774DF68033C2F200031A683B
:104220004DF67033C2F200031B8803F0FF014FF01C
:10423000000040EA010191734FEA13239BB24FF053
:10424000000141EA0303D3734DF68033C2F2000349
:104250001B68BA8B02F0FF014FF0000040EA010139
:1042600019744FEA122292B24FF0000141EA0202A1
:104270005A744DF68033C2F200031B687A8B02F049
:10428000FF014FF0000040EA010199744FEA122249
:1042900092B24FF0000141EA0202DA744DF6803327
:1042A000C2F200031B683A8B02F0FF014FF00000DE
:1042B00040EA010119754FEA122292B24FF0000153
:1042C00041EA02025A754DF68033C2F200031B68C0
:1042D000BA8A02F0FF014FF0000040EA010199752F
:1042E0004FEA122292B24FF0000141EA0202DA755F
:1042F0004DF68033C2F200031B687A8A02F0FF0198
:104300004FF0000040EA010119764FEA122292B202
:104310004FF0000141EA02025A764DF68033C2F2B4
:1043200000031B683A8A02F0FF014FF0000040EAE8
:10433000010199764FEA122292B24FF0000141EA50
:104340000202DA7607F10E031846FCF793FB0346E8
:10435000BB774DF68033C2F200031B68FA8902F086
:10436000FF014FF0000040EA010119774FEA1222E5
:1043700092B24FF0000141EA02025A774DF68033C3
:10438000C2F200031C6807F117034FF040004FF022
:1043900001011A46FCF7A2FC03469BB203F0FF02A0
:1043A0004FF0000141EA0202E2774FEA13239BB289
:1043B0004FF0000242EA030384F82030FA7DFB7FCD
:1043C0001344FB774DF68033C2F200031C6807F1FB
:1043D00017034FF040004FF002011A46FCF77EFC35
:1043E00003469BB203F0FF024FF0000141EA0202D4
:1043F00084F823204FEA13239BB24FF0000242EAD5
:10440000030384F82430FA7DFB7F1344FB774DF6D9
:104410008033C2F200031C6807F117034FF040001D
:104420004FF003011A46FCF759FC03469BB203F018
:10443000FF024FF0000141EA020284F827204FEA10
:1044400013239BB24FF0000242EA030384F82830A2
:10445000FA7DFB7F1344FB774DF68033C2F20003F5
:104460001C6807F117034FF040004FF001011A4696
:10447000FCF792FC03469BB203F0FF024FF00001F1
:1044800041EA020284F821204FEA13239BB24FF045
:10449000000242EA030384F82230FA7DFB7F1344D2
:1044A000FB774DF68033C2F200031C6807F1170357
:1044B0004FF040004FF002011A46FCF76DFC034636
:1044C0009BB203F0FF024FF0000141EA020284F8C0
:1044D00025204FEA13239BB24FF0000242EA030368
:1044E00084F82630FA7DFB7F1344FB774DF680334A
:1044F000C2F200031C6807F117034FF040004FF0B1
:1045000003011A46FCF748FC03469BB203F0FF0286
:104510004FF0000141EA020284F829204FEA1323F8
:104520009BB24FF0000242EA030384F82A30FA7D7E
:10453000FB7F1344FB774DF22853C2F200034FF088
:10454000010283F8FF2107F12407BD4690BD00BF9B
:10455000B0B584B000AF78604DF24842C2F20002BC
:104560004DF6A833C2F200031A604FF00003FB734C
:104570002EE04DF6A833C2F200031C68FD7BBB7B26
:10458000FA7B4DF6F020C2F200004FF02101FCF75B
:1045900063FC0346194605F1040201F0FF004FEAEF
:1045A000420323444FF0000C4CEA000098714FEA9C
:1045B000112398B24FEA420323444FF00002114600
:1045C000024641EA0202DA71FB7B03F10103FB734D
:1045D000FB7B062BCDD94DF24843C2F200034FF0CE
:1045E000020283F8312007F11007BD46B0BD00BFBD
:1045F00080B485B000AF78604FF00003FB814DF2CE
:104600002853C2F2000393F8FF31012B7BD14DF602
:104610008033C2F200031B684FF0000242F0080230
:104620001A704FF0000242F001025A704DF68033CA
:10463000C2F200031A68FB8903F10103FB81FB89C5
:104640006FEA83436FEA93439BB29BB24FEA032323
:1046500099B2FB8903F10103FB81FB896FEA834374
:104660006FEA93439BB29BB24FEA13239BB241EA9A
:1046700003039BB29BB203F0FF014FF0000040EA3E
:10468000010191704FEA13239BB24FF0000141EA00
:104690000303D3704DF68033C2F200031B684FF062
:1046A00000021A714FF0000242F02C025A714DF6CE
:1046B0008033C2F200031B684FF000029A714FF082
:1046C0000002DA714FF000021A724FF000025A72C3
:1046D0004DF68033C2F200031B684FF000029A725D
:1046E0004FF00002DA724FF000021A734FF000022E
:1046F0005A734DF68033C2F200031A684DF69033B8
:10470000C2F200031A604DF24843C2F2000393F86C
:104710003130022B7BD14DF6A833C2F200031B6867
:104720004FF0000242F008021A704FF0000242F00F
:1047300002025A704DF6A833C2F200031A68FB89D0
:1047400003F10103FB81FB896FEA83436FEA934323
:104750009BB29BB24FEA032399B2FB8903F1010399
:10476000FB81FB896FEA83436FEA93439BB29BB261
:104770004FEA13239BB241EA03039BB29BB203F0BF
:10478000FF014FF0000040EA010191704FEA13234E
:104790009BB24FF0000141EA0303D3704DF6A833FA
:1047A000C2F200031B684FF000021A714FF00002C2
:1047B00042F01E025A714DF6A833C2F200031B6884
:1047C0004FF000029A714FF00002DA714FF00002D0
:1047D0001A724FF000025A724DF6A833C2F200036B
:1047E0001B684FF000029A724FF00002DA724FF02D
:1047F00000021A734FF000025A734DF6A833C2F24A
:1048000000031A684DF6A033C2F200031A6007F1E4
:104810001407BD4680BC704780B582B000AF786099
:104820004DF22853C2F2000393F8FF31012B0DD152
:104830004DF69033C2F200031B684DF6EC30C2F225
:10484000000019464FF02C0200F044FB4DF24843A3
:10485000C2F2000393F83130022B0DD14DF6A03394
:10486000C2F200031B684DF6EC30C2F2000019469C
:104870004FF01E0200F02EFB07F10807BD4680BD79
:1048800080B584B000AF786007F108034FF00000F6
:104890004FF000011A464FF0FF33FEF78BFA4FF04E
:1048A00001004FF00101FEF725FA4DF67033C2F218
:1048B00000031B8803F101039AB24DF67033C2F274
:1048C00000031A807B68FB60FB681B787F2B3DD15F
:1048D0004DF62813C2F200031B781A464DF2085316
:1048E000C2F200034FF0000199544DF62813C2F2B2
:1048F00000031B7803F1FF324DF20853C2F20003AC
:104900004FF07F0199544DF62813C2F200031B7833
:1049100003F1FF324DF20853C2F2000313444DF687
:10492000EC30C2F2000019464FF0010200F0D2FA5A
:104930004DF62813C2F200031B7803F1FF33DAB2FD
:104940004DF62813C2F200031A709DE74DF62813A6
:10495000C2F200031B781A46FB6819784DF208531F
:10496000C2F2000399544DF62813C2F200031B78DB
:104970001A464DF20853C2F2000313444DF6EC30D0
:10498000C2F2000019464FF0010200F0A3FA4DF602
:104990002813C2F200031B7803F10103DAB24DF6CB
:1049A0002813C2F200031A706EE700BF80B584B00E
:1049B00000AF786078684DF2E841C2F200014FF034
:1049C000010200F0F9FA02464DF22453C2F200034C
:1049D0001A604FF00003BB604DF24443C2F2000383
:1049E0001A6807F1080310461946FEF75BFABB6820
:1049F000002B0AD04EF60453CEF200034FF0805243
:104A00001A60BFF34F8FBFF36F8F07F11007BD46DA
:104A100080BD00BF90B587B002AF4DF62803C2F24B
:104A200000033B6047F2D003C2F200037B603A68A8
:104A300040F6F963C2F2000313603B681B684FF055
:104A40000000796898474DF6F020C2F2000044F269
:104A50000001C5F200014FF021024FF0000300F009
:104A60003BFF4DF62803C2F20003BB6047F2F003A0
:104A7000C2F20003FB60BA6840F6F963C2F20003B9
:104A80001360BB681B684FF00A00F96898474FF045
:104A900001004FF02C014FF00002FCF7ADFB024685
:104AA0004DF69033C2F200031A604FF001004FF050
:104AB0001E014FF00002FCF79FFB02464DF6A033AB
:104AC000C2F200031A604FF00A00FFF72DFB4FF00F
:104AD0000A004FF09F01FFF743FB44F2BD13C2F2FF
:104AE0000003009347F25C00C2F200004FF4FA6149
:104AF0004FF001024FF00003FEF73CFB02464DF67B
:104B00005C33C2F200031A604DF65C33C2F200035C
:104B10001C68FDF71DFB03464FF000020092204683
:104B20004FF001011A464FF00003FEF775FB44F207
:104B30005153C2F20003009347F26800C2F2000032
:104B40004FF47A614FF001024FF00003FEF712FBC1
:104B500002464DF65C33C2F20003DA604DF65C3378
:104B6000C2F20003DC68FDF7F3FA03464FF00002DF
:104B7000009220464FF001011A464FF00003FEF765
:104B80004BFB44F2F153C2F20003009347F274006E
:104B9000C2F2000041F292314FF001024FF00003E7
:104BA000FEF7E8FA02464DF65C33C2F200035A60A3
:104BB0004DF65C33C2F200035C68FDF7C9FA0346A8
:104BC0004FF00002009220464FF001011A464FF0CC
:104BD0000003FEF721FB44F61903C2F20003009321
:104BE00047F28400C2F2000041F297314FF0010217
:104BF0004FF00003FEF7BEFA02464DF65C33C2F2F8
:104C000000039A604DF65C33C2F200039C68FDF726
:104C10009FFA03464FF00002009220464FF0010138
:104C20001A464FF00003FEF7F7FA4DF6EC30C2F2E9
:104C300000004FF416514FF0030200F009F94DF651
:104C4000EC30C2F2000044F6AD11C2F200014FF0A8
:104C5000000200F01FFA4FF00100FCF74FFB024684
:104C60004DF68C33C2F200031A604FF09F0300939D
:104C70004DF24443C2F20003019344F68100C2F2B4
:104C8000000047F29401C2F200014FF050024FF0D1
:104C90000003FCF7A3FFFDF71FF907F11407BD465A
:104CA00090BD00BF80B500AF4DF63810C2F20000D5
:104CB00001F038F880BD00BF80B500AF4DF6A410FC
:104CC000C2F2000001F02EF880BD00BF80B500AF39
:104CD0004DF27C40C2F2000001F024F880BD00BF1C
:104CE00080B500AF4DF67C20C2F2000001F01AF84A
:104CF00080BD00BF80B500AF4DF6F020C2F20000CD
:104D000001F010F880BD00BF80B500AF4DF6102057
:104D1000C2F2000001F006F880BD00BF80B483B08D
:104D200000AF0346FB714EF20013CEF2000397F979
:104D300007204FEA5212F97901F01F014FF00100EC
:104D400000FA01F143F8221007F10C07BD4680BCC0
:104D5000704700BF80B483B000AF0346FB714EF2D2
:104D60000013CEF2000397F907204FEA5212F979A7
:104D700001F01F014FF0010000FA01F102F16002A1
:104D800043F8221007F10C07BD4680BC704700BFF6
:104D900080B483B000AF78600B46FB707B6803F093
:104DA00070427B6823F07F4323F470034FEA431380
:104DB0001A44FB784FEA8303134403F100734FF066
:104DC00001021A6007F10C07BD4680BC704700BFA6
:104DD00080B483B000AF78600B46FB707B6803F053
:104DE00070427B6823F07F4323F470034FEA431340
:104DF0001A44FB784FEA8303134403F100734FF026
:104E000000021A6007F10C07BD4680BC704700BF66
:104E100080B483B000AF78600B46FB707B6803F012
:104E200070427B6823F07F4323F470034FEA4313FF
:104E30001A44FB784FEA8303134403F100731B68A1
:104E4000DBB2184607F10C07BD4680BC704700BFB7
:104E500080B584B000AFF860B9601346FB71FA68A2
:104E60004DF6EC33C2F200039A4207D0FA684DF6D1
:104E7000AC33C2F200039A4200D000BEFB79F8685E
:104E8000B9681A4600F056FAFB681B6803F1300354
:104E900018464FF00301FFF79BFFFB681B6803F107
:104EA000340318464FF00201FFF792FFFB681B68BE
:104EB00003F1380318464FF00001FFF789FFFA6845
:104EC00045F2CD73C2F20003536207F11007BD46ED
:104ED00080BD00BF80B489B000AFF860B9607A606F
:104EE0004FF000033B61FA684DF6EC33C2F2000369
:104EF0009A4207D0FA684DF6AC33C2F200039A42E8
:104F000000D000BEBB68002B00D100BE7B68002B28
:104F100000D100BEFA684DF6EC33C2F200039A42AB
:104F200006D0FA684DF6AC33C2F200039A423DD186
:104F3000BB68002B3AD07B68002B37D0FB681B681E
:104F40001B7DFB76FB685A7BFB7E42EA0303DAB2E9
:104F5000FB685A73FB7E03F02003002B23D04FF035
:104F60001003FB617B680F2B01D87B68FB614FF05E
:104F700000037B610EE0FB681B68B9683A690A446C
:104F800012781A703B6903F101033B617B6903F1FD
:104F900001037B617A69FB699A42ECD37A687B6989
:104FA000C3EB02037B607B68002BC7D107F12407AA
:104FB000BD4680BC704700BF80B487B000AFF860CA
:104FC000B9607A604FF000033B614FF00003FB755E
:104FD000FA684DF6EC33C2F200039A4207D0FA6841
:104FE0004DF6AC33C2F200039A4200D000BEBB685B
:104FF000002B00D100BE7B68002B00D100BEFA68F8
:105000004DF6EC33C2F200039A4206D0FA684DF630
:10501000AC33C2F200039A4234D1BB68002B31D0CA
:105020007B68002B2ED0FB681B681B7DFB75FB6823
:105030005A7BFB7D42EA0303DAB2FB685A7317E03E
:10504000BA683B691344FA6812681278D2B21A70CF
:105050003B6903F101033B61FB681B681B7DFB752A
:10506000FB685A7BFB7D42EA0303DAB2FB685A73A2
:10507000FB7D03F00103DBB2002B03D03A697B68B0
:105080009A42DDD33B69184607F11C07BD4680BC38
:10509000704700BF80B584B000AFF860B9601346B8
:1050A000FB71FA684DF6EC33C2F200039A4207D066
:1050B000FA684DF6AC33C2F200039A4200D000BE4B
:1050C000BB68002B00D100BEFB79C02B00D900BE0D
:1050D000FA684DF6EC33C2F200039A4206D0FA6841
:1050E0004DF6AC33C2F200039A422ED1BB68002BBE
:1050F0002BD0FB79C02B28D8FB68BA681A62FB68F2
:105100001A68FB681B681B7ADBB2DBB203F03F0353
:10511000F8791946034641EA0303DBB2DBB21372A6
:10512000FB681B795BB21846FFF714FEFB681B682F
:1051300003F1040318464FF00001FFF729FEFB6856
:105140001B795BB21846FFF7E9FD07F11007BD4672
:1051500080BD00BF684620F007018D4689B500AFCD
:105160004DF6EC30C2F2000000F01AFABD46BDE880
:1051700089408546704700BF684620F007018D468C
:1051800089B500AF4DF6AC30C2F2000000F008FA6D
:10519000BD46BDE889408546704700BF80B588B0F0
:1051A00000AF786039607A684DF6EC33C2F20003E4
:1051B0009A4207D07A684DF6AC33C2F200039A42A5
:1051C00000D000BE7A684DF6EC33C2F200039A427A
:1051D00007D07A684DF6AC33C2F200039A4240F031
:1051E000A4807B683A689A6001F0CAFB7A684DF641
:1051F000EC33C2F200039A4206D147F21013C2F216
:1052000000031B68FB6105E047F21413C2F20003C0
:105210001B68FB61FB694FEAC3023B68B2FBF3F317
:105220007B617B694FEA53033B613B694FEA931310
:10523000FB60FB684FEA83133A69C3EB0203BB616F
:10524000FB684FEAC3137A69C3EB0202BB694FEAFA
:105250004303C3EB0203BA691344BB61FA684FF618
:10526000FF739A4200D900BEFA684FF6FF739A4264
:105270005BD8FB68012B31D97B681B6803F10C03F9
:1052800018464FF00701FFF783FD7B681B68FA683B
:105290004FEA1222D2B21A717B681B68FA68D2B246
:1052A0001A707B681B6803F10C0318464FF0070166
:1052B000FFF78EFD7B681B6803F1300318464FF043
:1052C0000701FFF765FDBB69FF2B00D900BE7B68B6
:1052D0001B68BA69D2B283F83C2026E07B681B6861
:1052E00003F10C0318464FF00701FFF751FD7B68EF
:1052F0001B68FA684FEA1222D2B21A717B681B68E7
:10530000FA68D2B21A707B681B6803F10C03184666
:105310004FF00701FFF75CFD7B681B6803F130036A
:1053200018464FF00701FFF753FD07F12007BD4670
:1053300080BD00BF80B584B000AFF860B96013468F
:10534000FB71FA684DF6EC33C2F200039A4207D0C3
:10535000FA684DF6AC33C2F200039A4200D000BEA8
:10536000FA684DF6EC33C2F200039A4224D1FB688E
:105370004FF080421A60FB684FF00A021A7148F23F
:105380000003C4F2030348F20002C4F20302926C69
:1053900042F080029A644FF00A00FFF7DBFC48F20B
:1053A0000003C4F2030348F20002C4F20302926C49
:1053B00022F080029A6425E0FA6840F20003C4F209
:1053C00001031360FB684FF00B021A7148F20003EF
:1053D000C4F2030348F20002C4F20302926C42F4E6
:1053E00080729A644FF00B00FFF7B4FC48F20003A0
:1053F000C4F2030348F20002C4F20302926C22F4E6
:1054000080729A64FB681B684FF000021A71FB6897
:105410001B684FF000021A72FB681B6803F1080357
:1054200018464FF00101FFF7B3FCFB681B6803F15E
:10543000080318464FF00201FFF7AAFCFB681B683F
:1054400003F1080318464FF00001FFF7A1FCFB68C9
:105450001B6803F1100318464FF00401FFF7B8FC76
:10546000FB681B6803F1100318464FF00501FFF7B6
:10547000AFFCFB681B6803F1340318464FF00101D1
:10548000FFF7A6FCFB681B6803F1340318464FF0D6
:105490000001FFF79DFCFB681B6803F13803184609
:1054A0004FF00101FFF794FCFB681B6803F1300328
:1054B00018464FF00501FFF78BFCFB681B6803F1F2
:1054C000300318464FF00601FFF782FCFB681B68AB
:1054D00003F1300318464FF00701FFF779FCFB6832
:1054E0001B6803F1380318464FF00301FFF770FC07
:1054F000FB681B684FF0000283F84420FB681B68C0
:105500004FF0000283F84820FB681B684FF0000250
:1055100083F84C20F868B968FFF740FEFB681B6809
:10552000FA791A73FB68BA689A60FB68FA791A7399
:10553000FB684FF000025A61FB684FF000021A61ED
:10554000FB684FF000029A61FB684FF000021A629C
:10555000FB684FF000025A62FB684FF00002DA610C
:10556000FB684FF000029A62FB684FF00002DA62BB
:10557000FB684FF000021A63FB684FF000025A63A9
:10558000FB684FF000029A63FB684FF00002DA6399
:10559000FB684FF000025A7307F11007BD4680BD4B
:1055A00080B584B000AF78607A684DF6EC33C2F213
:1055B00000039A4207D07A684DF6AC33C2F200037A
:1055C0009A4200D000BE7A684DF6EC33C2F2000376
:1055D0009A4207D07A684DF6AC33C2F200039A4281
:1055E00040F0EF807B681B681B7ADBB203F00F038F
:1055F000FB73FB7B0C2B00F2D78001A252F823F047
:1056000035560020A957002053560020AD560020E3
:1056100071560020A95700208F560020A95700205E
:10562000A9570020A9570020A9570020A9570020FA
:10563000715600207B689B6A002B00D100BE7B68FE
:105640009B6A002B00F0B2807B689B6A7868984761
:10565000B7E07B685B6A002B00D100BE7B685B6AA9
:10566000002B00F0A5807B685B6A78689847A8E00B
:105670007B681B6A002B00D100BE7B681B6A002B75
:1056800000F098807B681B6A7868984799E07B688F
:10569000DB69002B00D100BE7B68DB69002B00F0CA
:1056A0008B807B68DB69786898478AE07B681B6839
:1056B00003F1280318464FF00001FFF7A9FB03464A
:1056C000002B0CD07B68DB6A002B00D100BE7B680E
:1056D000DB6A002B03D07B68DB6A786898477B68BD
:1056E0001B6803F1280318464FF00101FFF790FBF8
:1056F0000346002B0CD07B681B6B002B00D100BE37
:105700007B681B6B002B03D07B681B6B786898470A
:105710007B681B6803F1280318464FF00201FFF76E
:1057200077FB0346002B0CD07B685B6B002B00D112
:1057300000BE7B685B6B002B03D07B685B6B78687B
:1057400098477B681B6803F1280318464FF0030154
:10575000FFF75EFB0346002B0CD07B689B6B002B96
:1057600000D100BE7B689B6B002B03D07B689B6BDA
:10577000786898477B681B6803F1280318464FF048
:105780000401FFF745FB0346002B17D07B68DB6B5A
:10579000002B00D100BE7B68DB6B002B10D07B6838
:1057A000DB6B786898470CE000BE0AE000BF08E0B9
:1057B00000BF06E000BF04E000BF02E000BF00E061
:1057C00000BF07F11007BD4680BD00BF80B586B0A1
:1057D00000AF78607A684DF6EC33C2F200039A426B
:1057E00007D07A684DF6AC33C2F200039A4200D07B
:1057F00000BE7B681B69002B00D100BE7B685B6923
:10580000002B00D100BE7A684DF6EC33C2F20003E3
:105810009A4206D07A684DF6AC33C2F200039A423F
:1058200055D17B681B69002B51D07B685B69002BCD
:105830004DD07B681B681B7DFB727B685A7BFB7AB3
:1058400042EA0303DAB27B685A73FB7A03F020035F
:10585000002B29D04FF010033B617B685A697B68AD
:105860009B69C3EB02037B617B690F2B01D87B69CA
:105870003B614FF00003FB6012E07B681B687A68B5
:1058800011697A6892690A4412781A707B689B6978
:1058900003F101027B689A61FB6803F10103FB607D
:1058A000FA683B699A42E8D37B689A697B685B69CE
:1058B0009A420CD17B684FF000025A617B681B68EA
:1058C00003F1040318464FF00101FFF781FA07F1D5
:1058D0001807BD4680BD00BF80B586B000AFF86038
:1058E000B960FA71BB71BB797B6101F0E9F90346DC
:1058F0003B61F8684FF000014FF06C0201F020FBB3
:10590000FB68BA681A60FB794FEA4302FB685A6089
:10591000FB681B6818464FF006014FF040024FF03D
:10592000000301F008FAFB681B6818464FF00601F7
:105930004FF040024FF0010301F0FDF9FB681A68D7
:105940007B694FEA930303F0010310464FF0070110
:105950004FF0800201F0EFF9FB681A687B694FEAAB
:10596000530303F0010310464FF001014FF0020210
:1059700001F0E1F9FB681A687B6903F00103104646
:105980004FF000014FF0010201F0D5F9FB681B68F0
:1059900003F10C02FB685B681046194601F0C7F979
:1059A000FB681B6803F11C02FB685B681046194624
:1059B00001F0BDF9386901F087F907F11807BD4614
:1059C00080BD00BF80B586B000AFF8607A600A463F
:1059D000FA727B8001F074F903467B61FB681B7BE4
:1059E000002B03D1FB684FF001021A73FB684FF0E4
:1059F000010283F86A20FB7A4FEA4302FB689A604F
:105A0000FB684FF000025A62FB687A689A617A88F4
:105A1000FB68DA61FB684FF000021A62FB684FF026
:105A2000010283F83420FB6897F820201A75FB6880
:105A300093F85430DBB2012B05D1FB684FF0010223
:105A400083F869200AE0FB681B6818464FF00501DF
:105A50004FF020024FF0010301F06DF9FB6893F85D
:105A60006830012B0AD1FB681B6818464FF0030110
:105A70004FF008024FF0000301F05DF9FB681B686E
:105A800003F10403184601F054F90346FB74FB7C50
:105A9000DBB2FB74F86800F0C9FE786901F014F914
:105AA00007F11807BD4680BD80B586B000AFF8602D
:105AB0007A600A46FA727B8001F002F903467B6144
:105AC000FB681B7B002B03D1FB684FF002021A73AB
:105AD000FB684FF0020283F86A20FB7A4FEA430228
