:020000042000DA
:100000000000012089010020F9010020FB010020EF
:10001000FD010020FF01002001020020000000007F
:10002000000000000000000000000000B1080020F7
:100030000502002000000000E10800203109002036
:100040000B0200200D0200200F02002011020020F0
:100050000D18002015020020170200203118002082
:100060001B0200201D020020410C0020650C002016
:100070002302002025020020270200202902002060
:100080002B0200202D0200202F0200203102002030
:100090003302002035020020370200203902002000
:1000A0003B0200203D0200203F02002041020020D0
:1000B00043020020450200204702002049020020A0
:1000C0004B0200204D020020890B00209D0B0020D8
:1000D000B10B0020C50B0020D90B0020ED0B002038
:1000E0005B0200205D0200205F0200206102002010
:1000F00063020020650200206702002069020020E0
:100100006B0200206D0200206F02002071020020AF
:10011000730200207502002077020020790200207F
:100120007B0200207D0200207F020020810200204F
:10013000830200208502002087020020890200201F
:100140008B0200208D0200208F02002091020020EF
:1001500093020020950200209702002099020020BF
:100160009B0200209D0200209F020020A10200208F
:10017000A3020020A5020020A7020020A90200205F
:10018000AB020020AD0200204948804749480028C2
:100190000BD1494849494A4A884206D091421CBF7E
:1001A00050F8043B41F8043BF8D146484649474AD9
:1001B000884206D091421CBF50F8043B41F8043BF2
:1001C000F8D143484349444A914218BF41F8040BCF
:1001D000FAD1000000000000000000000000000054
:1001E000DFF8F8000FF2030E00474FF000004FF069
:1001F0000001DFF8ECF0FEE7FEE7FEE7FEE7FEE7D2
:10020000FEE7FEE7FEE7FEE7FEE7FEE7FEE7FEE7C6
:10021000FEE7FEE7FEE7FEE7FEE7FEE7FEE7FEE7B6
:10022000FEE7FEE7FEE7FEE7FEE7FEE7FEE7FEE7A6
:10023000FEE7FEE7FEE7FEE7FEE7FEE7FEE7FEE796
:10024000FEE7FEE7FEE7FEE7FEE7FEE7FEE7FEE786
:10025000FEE7FEE7FEE7FEE7FEE7FEE7FEE7FEE776
:10026000FEE7FEE7FEE7FEE7FEE7FEE7FEE7FEE766
:10027000FEE7FEE7FEE7FEE7FEE7FEE7FEE7FEE756
:10028000FEE7FEE7FEE7FEE7FEE7FEE7FEE7FEE746
:10029000FEE7FEE7FEE7FEE7FEE7FEE7FEE7FEE736
:1002A000FEE7FEE7FEE7FEE7FEE7FEE7FEE7704754
:1002B000A127002000000000000000200000002016
:1002C000102B0020102B0020102B0020182B0020BA
:1002D00000000000182B002028340020B129002045
:1002E000C503002000000000000000000000000026
:1002F00042F61833C2F200031A780AB901201870C6
:10030000704700BF42F61030C2F2000008B5036823
:100310002BB140F20003C0F2000303B1984708BDBF
:1003200080B483B000AF41F20403CEF200031B6837
:100330007B6042F61C33C2F200031B687A689A4263
:100340000BD242F62033C2F200031B6803F1010214
:1003500042F62033C2F200031A6042F61C33C2F2A6
:1003600000037A681A6042F61433C2F200031A6876
:1003700041F67F53C0F22C439A420ED87B684FEA75
:1003800053337B6042F62033C2F200031B684FEA0E
:10039000C3437A6813447B600DE07B684FEA933374
:1003A0007B6042F62033C2F200031B684FEA8343AE
:1003B0007A6813447B607B68184607F10C07BD46DA
:1003C00080BC704780B586B000AF00F0D3FA4FF024
:1003D0000003184607F11807BD4680BD80B485B0FC
:1003E00000AF786039604FF0A00383F31188BFF34A
:1003F0006F8FBFF34F8FFB60FEE700BF80B485B007
:1004000000AF786039607B685B68FB603B68FA68C6
:100410005A60FB689A683B689A60FB689B683A6818
:100420005A60FB683A689A603B687A681A617B6830
:100430001B6803F101027B681A6007F11407BD46CF
:1004400080BC704780B485B000AF78607B681B6962
:10045000FB607B685B687A6892689A607B689B68DF
:100460007A6852685A60FB685A687B689A4203D17E
:100470007B689A68FB685A607B684FF000021A61DB
:10048000FB681B6803F1FF32FB681A60FB681B689E
:10049000184607F11407BD4680BC704780B586B08A
:1004A00000AF4FF00003BB6042F6AC33C2F2000372
:1004B0001B68002B40F0DC8042F69433C2F200034C
:1004C0001B6803F10103FB6042F69433C2F20003A0
:1004D000FA681A60FB68002B35D142F68C33C2F201
:1004E00000031B681B68002B09D04FF0A00383F3A7
:1004F0001188BFF36F8FBFF34F8F7B61FEE742F62A
:100500008C33C2F200031B683B6142F69033C2F2A7
:1005100000031A6842F68C33C2F200031A6042F6F6
:100520009033C2F200033A691A6042F6A433C2F271
:1005300000031B6803F1010242F6A433C2F2000378
:100540001A6000F087F942F6A833C2F200031B6874
:10055000FA689A4273D300E000BF42F68C33C2F2CD
:1005600000031B681B68002B02D14FF0010301E060
:100570004FF00003002B07D042F6A833C2F200036D
:100580004FF0FF321A605AE042F68C33C2F2000399
:100590001B68DB68DB683B603B685B687B60FA6814
:1005A0007B689A4206D242F6A833C2F200037A6808
:1005B0001A6044E03B6803F104031846FFF742FF6A
:1005C0003B689B6A002B05D03B6803F11803184673
:1005D000FFF738FF3B68DB6A4FF0010202FA03F2D3
:1005E00042F69833C2F200031B6842EA030242F665
:1005F0009833C2F200031A603B68DA6A13464FEA86
:10060000830313444FEA83031A4642F62833C2F2A7
:1006100000031A443B6803F1040310461946FFF730
:10062000EDFE3B68DA6A42F62433C2F200031B682F
:10063000DB6A9A4290D34FF00103BB608DE742F62C
:100640002433C2F200031B68DA6A13464FEA8303BD
:1006500013444FEA83031A4642F62833C2F20003DA
:1006600013441B68012B10D94FF00103BB600DE050
:1006700042F69C33C2F200031B6803F1010242F60A
:100680009C33C2F200031A6000E000BF42F6A033C0
:10069000C2F200031B68002B02D04FF00103BB60C5
:1006A000BB68184607F11807BD4680BD80B588B005
:1006B00000AF42F6AC33C2F200031B68002B07D038
:1006C00042F6A033C2F200034FF001021A60BCE010
:1006D00042F6A033C2F200034FF000021A60FFF7A7
:1006E0001FFE024642F6B433C2F200031A6042F61D
:1006F000B433C2F200031A6842F6B033C2F2000308
:100700001B689A4213D942F62433C2F200031A68D6
:10071000116D42F6B433C2F20003186842F6B033EA
:10072000C2F200031B68C3EB00030B44136542F6DF
:10073000B433C2F200031A6842F6B033C2F20003C7
:100740001A6042F62433C2F200031B681B6B7B6005
:100750004FF0A533BB607B681A68BB689A4214D11E
:100760007B6803F104031A68BB689A420DD17B6869
:1007700003F108031A68BB689A4206D17B6803F14B
:100780000C031A68BB689A420FD042F62433C2F2B7
:1007900000031A6842F62433C2F200031B6803F117
:1007A000340310461946FFF719FE42F69833C2F299
:1007B00000031B687B617B69B3FA83F3FB76FB7EE6
:1007C000C3F11F03FB60FA6813464FEA8303134427
:1007D0004FEA83031A4642F62833C2F20003134459
:1007E0001B68002B09D14FF0A00383F31188BFF3DE
:1007F0006F8FBFF34F8FFB61FEE7FA6813464FEA36
:10080000830313444FEA83031A4642F62833C2F2A5
:10081000000313443B613B695B685A683B695A605B
:100820003B695A683B6903F108039A4204D13B696A
:100830005B685A683B695A603B695B68DB681A46CB
:1008400042F62433C2F200031A6007F12007BD46C6
:1008500080BD00BF80B483B000AF42F68C33C2F2DB
:1008600000031B681B68002B02D14FF0010301E05D
:100870004FF00003002B07D042F6A833C2F200036A
:100880004FF0FF321A600EE042F68C33C2F20003E2
:100890001B68DB68DB687B607B685A6842F6A833BC
:1008A000C2F200031A6007F10C07BD4680BC704716
:1008B000074B19680868B0E8F00F80F30988BFF3A8
:1008C0006F8F4FF0000080F311884EF00D0E7047CF
:1008D000242B0020AFF30080AFF30080AFF3008043
:1008E000EFF30980BFF36F8F0D4B1A6820E9F00F0B
:1008F00010602DE908404FF0A00080F31188FFF749
:10090000D5FE4FF0000080F31188BDE8084019685B
:100910000868B0E8F00F80F30988BFF36F8F704765
:10092000242B0020AFF30080AFF30080AFF30080F2
:1009300080B582B000AF4FF0A00383F31188BFF3FE
:100940006F8FBFF34F8F3B60FFF7A8FD0346002B6F
:1009500006D04EF60453CEF200034FF080521A60D8
:100960004FF000037B607B6883F3118807F1080771
:10097000BD4680BD80B58EB002AF42F6D422C2F231
:10098000000207F1280312681146198003F10203DF
:100990004FEA12421A7042F6D822C2F2000207F160
:1009A000240312681146198003F102034FEA124230
:1009B0001A7042F6DC22C2F2000207F1200312682C
:1009C0001146198003F102034FEA12421A704FF0E8
:1009D00028033B774FF000037B774FF00003BB7792
:1009E00042F6E022C2F2000207F118031268114633
:1009F000198003F102034FEA12421A7043F2E01029
:100A0000C2F2000043F20001C5F200014FF00E02F5
:100A10004FF0000300F01EFF07F11C034FF000022F
:100A2000009243F2E010C2F200004FF00E011A46AD
:100A30004FF0030300F084FF43F2E010C2F2000025
:100A40004FF0000101F060F8034687F82B3007F102
:100A500018034FF00002009243F2E010C2F20000CF
:100A60004FF00E011A464FF0030300F069FF43F206
:100A7000E010C2F200004FF0000101F045F803461B
:100A800087F82B3007F128034FF00002009243F261
:100A9000E010C2F200004FF00E011A464FF00303BF
:100AA00000F04EFF43F2E010C2F200004FF00001F0
:100AB00001F02AF8034687F82B3042F6E422C2F20E
:100AC000000207F1140312681146198003F10203B2
:100AD0004FEA12421A7042F6E822C2F2000207F10F
:100AE000100312681146198003F102034FEA124203
:100AF0001A704FF000033B734FF008033B7242F64D
:100B0000EC22C2F2000207F10403126811461980B8
:100B100003F102034FEA12421A7007F114034FF077
:100B20000002009243F2E010C2F200004FF00E010A
:100B30001A464FF0030300F003FF43F2E010C2F245
:100B400000004FF0000100F0DFFF034687F82B3074
:100B50003B464FF00002009243F2E010C2F2000068
:100B60004FF00E011A464FF0030300F05BFF43F213
:100B7000E010C2F200004FF0000100F0C5FF034694
:100B800087F82B30C9E700BF80B500AF43F29C0067
:100B9000C2F2000000F0ECFF80BD00BF80B500AFE6
:100BA00043F20810C2F2000000F0E2FF80BD00BF77
:100BB00080B500AF42F6EC30C2F2000000F0D8FF82
:100BC00080BD00BF80B500AF43F2E010C2F200006C
:100BD00000F0CEFF80BD00BF80B500AF43F25420CF
:100BE000C2F2000000F0C4FF80BD00BF80B500AFBE
:100BF00043F27410C2F2000000F0BAFF80BD00BFE3
:100C000080B483B000AF78600B46FB707B6803F064
:100C100070427B6823F07F4323F470034FEA431351
:100C20001A44FB784FEA8303134403F100731B68F3
:100C3000DBB2184607F10C07BD4680BC704700BF09
:100C4000684620F007018D4689B500AF43F20030B9
:100C5000C2F2000000F018F8BD46BDE889408546A4
:100C6000704700BF684620F007018D4689B500AF88
:100C700043F2C020C2F2000000F006F8BD46BDE815
:100C800089408546704700BF80B584B000AF78606A
:100C90007A6843F20033C2F200039A4207D07A68BE
:100CA00043F2C023C2F200039A4200D000BE7A6829
:100CB00043F20033C2F200039A4207D07A6843F24B
:100CC000C023C2F200039A4240F0EF807B681B68A9
:100CD0001B7ADBB203F00F03FB73FB7B0C2B00F2E0
:100CE000D78001A252F823F01D0D0020910E0020A4
:100CF0003B0D0020950D0020590D0020910E002085
:100D0000770D0020910E0020910E0020910E002002
:100D1000910E0020910E0020590D00207B689B6AE7
:100D2000002B00D100BE7B689B6A002B00F0B280D4
:100D30007B689B6A78689847B7E07B685B6A002BA2
:100D400000D100BE7B685B6A002B00F0A5807B6849
:100D50005B6A78689847A8E07B681B6A002B00D123
:100D600000BE7B681B6A002B00F098807B681B6AC2
:100D70007868984799E07B68DB69002B00D100BE5A
:100D80007B68DB69002B00F08B807B68DB6978680F
:100D900098478AE07B681B6803F1280318464FF0E8
:100DA0000001FFF72DFF0346002B0CD07B68DB6AA8
:100DB000002B00D100BE7B68DB6A002B03D07B6870
:100DC000DB6A786898477B681B6803F1280318463C
:100DD0004FF00101FFF714FF0346002B0CD07B6896
:100DE0001B6B002B00D100BE7B681B6B002B03D05C
:100DF0007B681B6B786898477B681B6803F1280346
:100E000018464FF00201FFF7FBFE0346002B0CD003
:100E10007B685B6B002B00D100BE7B685B6B002B9B
:100E200003D07B685B6B786898477B681B6803F12D
:100E3000280318464FF00301FFF7E2FE0346002B9C
:100E40000CD07B689B6B002B00D100BE7B689B6B3A
:100E5000002B03D07B689B6B786898477B681B6886
:100E600003F1280318464FF00401FFF7C9FE0346BB
:100E7000002B17D07B68DB6B002B00D100BE7B689A
:100E8000DB6B002B10D07B68DB6B786898470CE03D
:100E900000BE0AE000BF08E000BF06E000BF04E0BB
:100EA00000BF02E000BF00E000BF07F11007BD4631
:100EB00080BD00BF80B483B000AF0346FB714EF22B
:100EC0000013CEF2000397F907204FEA5212F97986
:100ED00001F01F014FF0010000FA01F102F12002C0
:100EE00043F8221007F10C07BD4680BC704700BFD5
:100EF00080B483B000AF78607B6893F86830002BD3
:100F000004D07B689B694FF001029A6007F10C07DF
:100F1000BD4680BC704700BF80B584B000AF78602C
:100F20004FF00103BB737A6843F24033C2F200030F
:100F30009A4207D07A6843F2B433C2F200039A426D
:100F400000D000BE7B685B691B79FB72FB7ADBB269
:100F5000A3F10803D02B00F21C8401A252F823F065
:100F6000A51200209317002093170020931700204C
:100F70009317002093170020931700209317002049
:100F8000A51200209317002093170020931700202C
:100F90009317002093170020931700209317002029
:100FA0004913002093170020931700209317002067
:100FB0009317002093170020931700209317002009
:100FC000251300209317002093170020931700206B
:100FD00093170020931700209317002093170020E9
:100FE0004913002093170020931700209317002027
:100FF00093170020931700209317002093170020C9
:10100000DD13002093170020931700209317002072
:1010100093170020931700209317002093170020A8
:101020001913002093170020931700209317002016
:101030009317002093170020931700209317002088
:10104000011400209317002093170020931700200D
:101050009317002093170020931700209317002068
:10106000511400209317002093170020931700209D
:101070009317002093170020931700209317002048
:101080007514002093170020931700209317002059
:101090009317002093170020931700209317002028
:1010A000AF140020931700209317002093170020FF
:1010B0009317002093170020931700209317002008
:1010C000511500209317002093170020931700203C
:1010D00093170020931700209317002093170020E8
:1010E0004715002093170020931700209317002026
:1010F00093170020931700209317002093170020C8
:1011000051150020931700209317002093170020FB
:1011100093170020931700209317002093170020A7
:1011200047150020931700209317002093170020E5
:101130009317002093170020931700209317002087
:101140009315002093170020931700209317002079
:101150009317002093170020931700209317002067
:1011600013150020931700209317002093170020D9
:101170009317002093170020931700209317002047
:101180009315002093170020931700209317002039
:101190009317002093170020931700209317002027
:1011A0001315002093170020931700209317002099
:1011B0009317002093170020931700209317002007
:1011C000EF1500209317002093170020931700209D
:1011D00093170020931700209317002093170020E7
:1011E000C7160020931700209317002093170020A4
:1011F00093170020931700209317002093170020C7
:10120000C716002093170020931700209317002083
:1012100093170020931700209317002093170020A6
:10122000C716002093170020931700209317002063
:101230009317002093170020931700209317002086
:1012400059170020931700209317002093170020B0
:101250009317002093170020931700209317002066
:101260005917002093170020931700209317002090
:101270009317002093170020931700209317002046
:101280009317002093170020931700209317002036
:101290009317002093170020931700209317002026
:1012A000991600207B689B694FF000025A617B68A9
:1012B0005B697A685268D2B21A727B689B697A68F5
:1012C000D26AC3F800217B68DB6A002B04D17B68FB
:1012D0004FF000029A6207E07B68DB6A012B03D1C2
:1012E0007B684FF000029A637B6893F87130002BA3
:1012F00004D07B684FF0000283F871207B681A7A73
:101300007B6893F872309A4200F067827B6893F8AA
:1013100072207B681A7269E27B689B694FF0010258
:101320005A6163E27B689B694FF001021A617B6836
:101330004FF0020283F83C207B684FF000021A72E3
:101340007868FFF7D5FD51E27B689A6A7B685B6A33
:101350009A420DD27B685A697B68196A7B689B6ADE
:1013600019440978117203F101027B689A623DE227
:101370007B681B7A032B09D17B684FF00102DA628C
:101380007B689B694FF001025A612FE27B684FF046
:1013900000021A727B681B7C03F001037B737B687D
:1013A0007A7B83F870207B7B002B08D17B689B695C
:1013B0004FF001021A617868FFF79AFD08E07B6838
:1013C0005B7C5BB21846FFF775FD4FF00003BB7303
:1013D0007B684FF0000283F83C2007E27B689B6942
:1013E0004FF001021A617B684FF0020283F83C2043
:1013F0007B684FF000021A727868FFF779FDF5E11B
:101400007B685B6B012B05D97B689B694FF0010200
:101410009A60EBE17B685B6B012B05D17B689B6974
:101420004FF000029A60E1E17B689B694FF0010296
:101430009A607B689B694FF001021A617B684FF0EC
:10144000000283F83C207B684FF000021A72CDE165
:101450007B689B694FF001021A617B684FF00202C2
:1014600083F83C207B684FF000021A727868FFF71F
:101470003FFDBBE17B681A6B7B689B6B1A44796804
:101480004969097AC9B2117003F101027B689A6354
:101490007B689A6B7B685B6B03F1FF339A42C0F009
:1014A0009E817B689B694FF000029A609EE17B6899
:1014B0001A6B7B689B6B13447A685269127AD2B2BA
:1014C0001A707B681B7C03F001037B737B687A7B5B
:1014D00083F870207B7B002B08D17B689B694FF0E1
:1014E00001021A617868FFF703FD08E07B685B7C06
:1014F0005BB21846FFF7DEFC4FF00003BB737B685E
:101500004FF000021A727B684FF0000283F83C2013
:101510006CE17B689B694FF001029A607B684FF039
:1015200000021A727B684FF0000283F85C207B682F
:1015300093F87130002B00F054817B689B694FF069
:1015400001025A6152E17B684FF0010283F8712079
:101550007B684FF004021A727B684FF000029A65B4
:101560007B684FF00002DA607B689B695B69002B47
:1015700009D07B689B694FF000025A617B684FF08D
:10158000010283F871207B684FF0010283F85C2030
:101590002CE17B681B6D002B1CD07B689A6D7B68EF
:1015A0005B6D9A4216D27B685B691B7A3B737B68E2
:1015B0001A6D7B689B6D1A44397B117003F101022F
:1015C0007B689A657B68DB684FEA03223B7B1A44A1
:1015D0007B68DA607B689A6D7B685B6D9A42C0F0CD
:1015E00002817B689B694FF000029A60FEE07B6895
:1015F0001B7A042B35D17B689A6D7B681B6E9A42EF
:1016000003D17B68DA687B68DA647B685B6E002BE9
:1016100021D07B685B6E7A68116D7A68926D92B2A8
:10162000786898470346FB73FB7B002B08D17868EA
:10163000FFF75EFC7B689B694FF001029A6017E040
:101640007B689B694FF000029A607B684FF0000254
:1016500083F868200CE07B689B694FF001029A6078
:1016600006E07B684FF00002DA647868FFF740FC20
:101670007B684FF0000283F85C207B6893F8713040
:10168000002B04D07B689B694FF001025A617B6894
:101690004FF000021A72A9E07B684FF000021A7244
:1016A0007B684FF00002DA647B6893F85C30DBB251
:1016B000012B04D17B684FF0020283F85C2078682C
:1016C000FFF716FC92E0FB7ADBB2A82B1BD17B68FC
:1016D0004FF005021A727B684FF00002DA607B68F7
:1016E0004FF0010283F85C207B689B695B69002BEB
:1016F00009D07B689B694FF000025A617B684FF00C
:10170000010283F871207B68DA6C7B689B6C9A42DB
:1017100005D37B685B694FF0FF321A720CE07B687F
:101720005A697B68596C7B68DB6C194409781172C3
:1017300003F101027B68DA647B68DA6C7B689B6C7E
:101740009A4252D37B689B694FF000029A607B6893
:101750004FF00002DA6449E07B684FF00002DA647F
:101760007B689B694FF001029A607B684FF0000232
:1017700083F85C207B6893F87130002B04D07B6881
:101780009B694FF001025A617B684FF000021A72A8
:101790002CE07B689B694FF000025A617B684FF038
:1017A00000021A727B684FF00002DA647B6893F8DB
:1017B0003C30DBB2012B04D17B684FF0020283F88E
:1017C0003C207B6893F85C30DBB2012B0ED17B6848
:1017D0004FF0020283F85C2008E000BF06E000BF83
:1017E00004E000BF02E000BF00E000BFBB7B002BB5
:1017F00004D07B689B694FF00002DA607B685B690C
:101800001B79FB7207F11007BD4680BD684620F0CA
:1018100007018D4689B500AF43F24030C2F20000A7
:10182000FFF77AFBBD46BDE889408546704700BF9B
:10183000684620F007018D4689B500AF43F2B43009
:10184000C2F20000FFF768FBBD46BDE8894085464F
:10185000704700BF80B586B000AFF860B960FA711C
:10186000BB71BB797B6101F053F803463B61F868BB
:101870004FF000014FF06C0201F0C2F8FB68BA684B
:101880001A60FB794FEA4302FB685A60FB681B68E9
:1018900018464FF006014FF040024FF0000301F0F0
:1018A00072F8FB681B6818464FF006014FF04002C3
:1018B0004FF0010301F067F8FB681A687B694FEA93
:1018C000930303F0010310464FF007014FF080022D
:1018D00001F059F8FB681A687B694FEA530303F07B
:1018E000010310464FF001014FF0020201F04BF8E6
:1018F000FB681A687B6903F0010310464FF0000192
:101900004FF0010201F03FF8FB681B6803F10C0285
:10191000FB685B681046194601F031F8FB681B68EC
:1019200003F11C02FB685B681046194601F027F8BA
:10193000386900F0F1FF07F11807BD4680BD00BF10
:1019400080B586B000AFF8607A600A46FA727B8094
:1019500000F0DEFF03467B61FB681B7B002B03D19D
:10196000FB684FF001021A73FB684FF0010283F825
:101970006A20FB7A4FEA4302FB689A60FB684FF0EB
:1019800000025A62FB687A689A617A88FB68DA61B9
:10199000FB684FF000021A62FB684FF0010283F807
:1019A0003420FB6897F820201A75FB6893F85430B0
:1019B000DBB2012B05D1FB684FF0010283F86920EF
:1019C0000AE0FB681B6818464FF005014FF0200243
:1019D0004FF0010300F0D7FFFB6893F86830012B4C
:1019E0000AD1FB681B6818464FF003014FF008024C
:1019F0004FF0000300F0C7FFFB681B6803F104030E
:101A0000184600F0BEFF0346FB74FB7CDBB2FB74A0
:101A1000F86800F031FE786900F07EFF07F11807E2
:101A2000BD4680BD80B586B000AFF8607A600A46DA
:101A3000FA727B8000F06CFF03467B61FB681B7BC6
:101A4000002B03D1FB684FF002021A73FB684FF0C2
:101A5000020283F86A20FB7A4FEA4302FB689A602D
:101A6000FB684FF001025A62FB687A689A627A88D2
:101A7000FB68DA62FB684FF000021A63FB684FF004
:101A8000010283F83420FB6897F820201A75FB6860
:101A900093F85430DBB2012B05D1FB684FF0010203
:101AA00083F869200AE0FB681B6818464FF00501BF
:101AB0004FF020024FF0010300F065FFFB6893F840
:101AC0006830012B0AD1FB681B6818464FF00301F0
:101AD0004FF008024FF0000300F055FFFB681B6851
:101AE00003F10403184600F04CFF0346FB74FB7C33
:101AF000DBB2FB74F86800F0BFFD786900F00CFF02
:101B000007F11807BD4680BD80B584B000AF78608E
:101B1000396000F0FDFE0346FB607B683A689A631B
:101B2000F86800F0F9FE7B6893F83430FB72FB7ABA
:101B3000012BF8D0FB7A184607F11007BD4680BD8F
:101B400080B582B000AF78607B6893F86030002B7E
:101B50000AD07B681B6818464FF002014FF0040260
:101B60004FF0010300F00FFF07F10807BD4680BDED
:101B7000B0B584B000AF78604FF00103BB737B68F1
:101B80001B6803F10403184600F0FBFE0346FB72DA
:101B9000FB7ADBB2A3F10803D82B00F2E38401A2A5
:101BA00052F823F0091F002065250020652500203C
:101BB000652500206525002065250020652500207D
:101BC00065250020091F00206525002065250020CF
:101BD000652500206525002065250020652500205D
:101BE00065250020DF1F00206525002065250020D9
:101BF000652500206525002065250020652500203D
:101C000065250020AF1F00206525002065250020E8
:101C1000652500206525002065250020652500201C
:101C200065250020DF1F0020652500206525002098
:101C300065250020652500206525002065250020FC
:101C4000652500208F2000206525002065250020C7
:101C500065250020652500206525002065250020DC
:101C600065250020971F00206525002065250020A0
:101C700065250020652500206525002065250020BC
:101C800065250020BF200020652500206525002057
:101C9000652500206525002065250020652500209C
:101CA000652500203F2100206525002065250020B6
:101CB000652500206525002065250020652500207C
:101CC000652500206F210020652500206525002066
:101CD000652500206525002065250020652500205C
:101CE00065250020BF2100206525002065250020F6
:101CF000652500206525002065250020652500203C
:101D0000652500208922002065250020652500200A
:101D1000652500206525002065250020652500201B
:101D2000652500207F2200206525002065250020F4
:101D300065250020652500206525002065250020FB
:101D400065250020892200206525002065250020CA
:101D500065250020652500206525002065250020DB
:101D6000652500207F2200206525002065250020B4
:101D700065250020652500206525002065250020BB
:101D800065250020E522002065250020652500202E
:101D9000652500206525002065250020652500209B
:101DA00065250020332200206525002065250020C0
:101DB000652500206525002065250020652500207B
:101DC00065250020E52200206525002065250020EE
:101DD000652500206525002065250020652500205B
:101DE0006525002033220020652500206525002080
:101DF000652500206525002065250020652500203B
:101E0000652500205723002065250020652500203A
:101E1000652500206525002065250020652500201A
:101E20006525002049240020652500206525002027
:101E300065250020652500206525002065250020FA
:101E40006525002049240020652500206525002007
:101E500065250020652500206525002065250020DA
:101E600065250020492400206525002065250020E7
:101E700065250020652500206525002065250020BA
:101E800065250020132500206525002065250020FC
:101E9000652500206525002065250020652500209A
:101EA00065250020132500206525002065250020DC
:101EB000652500206525002065250020652500207A
:101EC000652500206525002065250020652500206A
:101ED000652500206525002065250020652500205A
:101EE000652500201B240020652500206525002095
:101EF000652500206525002065250020652500203A
:101F000065250020B92500207B681B6818464FF026
:101F100005014FF020024FF0000300F034FD7B6814
:101F20001B6803F108027B689B681046194600F0A5
:101F300026FD7B681B6803F108027B685B6A10461C
:101F40004FF000014FF0010200F01DFD7B685B6A5D
:101F5000002B04D17B684FF000021A6203E07B681B
:101F60004FF000021A637B6893F86930002B04D0AD
:101F70007B684FF0000283F869207B681A7B7B68DE
:101F800093F86A309A4200F019837B6893F86A20CC
:101F90007B681A731BE37B681B6818464FF00501CA
:101FA0004FF020024FF0010300F0EDFC0FE37B68DF
:101FB0001B6818464FF004014FF010024FF0010368
:101FC00000F0E1FC7B684FF0020283F834207B686C
:101FD0004FF000021A737868FFF7B2FDF7E27B68F2
:101FE0001A6A7B68DB699A4212D27B681B6803F12C
:101FF00008017B689A697B681B6A1A44127803F1AE
:1020000001007B6818620846114600F0B8FCDEE269
:102010007B681B7B032B0FD17B684FF001025A6258
:102020007B681B6818464FF005014FF020024FF007
:10203000010300F0A8FCCAE27B684FF000021A73AB
:102040007B681B7D03F001037B737B687A7B83F8DD
:1020500068207B7B002B0ED17B681B6818464FF0F5
:1020600004014FF010024FF0010300F08CFC78687F
:10207000FFF766FD05E0786800F048FB4FF00003CD
:10208000BB737B684FF0000283F834209FE27B68CB
:102090001B6818464FF004014FF010024FF0010387
:1020A00000F071FC7B684FF0020283F834207B68FB
:1020B0004FF000021A737868FFF742FD87E27B68F1
:1020C000DB6A012B0BD97B681B6818464FF00201B5
:1020D0004FF004024FF0010300F055FC77E27B68FB
:1020E000DB6A012B0BD17B681B6818464FF002019D
:1020F0004FF004024FF0000300F045FC67E27B68FC
:102100001B6818464FF002014FF004024FF0010324
:1021100000F039FC7B681B6818464FF004014FF053
:1021200010024FF0010300F02EFC7B684FF000021C
:1021300083F834207B684FF000021A7347E27B6813
:102140001B6818464FF004014FF010024FF00103D6
:1021500000F019FC7B684FF0020283F834207B68A2
:102160004FF000021A737868FFF7EAFC2FE27B68F1
:102170009B6A7A68146B03EB04057B681B6803F1A8
:102180000803184600F0FDFB03462B7004F1010222
:102190007B681A637B681A6B7B68DB6A03F1FF3329
:1021A0009A42C0F00D827B681B6818464FF002010E
:1021B0004FF004024FF0000300F0E5FB07E27B68FC
:1021C0009A6A7B681B6B02EB03047B681B6803F154
:1021D0000803184600F0D5FB034623707B681B7D7F
:1021E00003F001037B737B687A7B83F868207B7B39
:1021F000002B0ED17B681B6818464FF004014FF08E
:1022000010024FF0010300F0BEFB7868FFF798FC66
:1022100005E0786800F07AFA4FF00003BB737B6842
:102220004FF000021A737B684FF0000283F83420ED
:10223000CDE17B681B6818464FF002014FF00402A5
:102240004FF0010300F09FFB7B684FF000021A7310
:102250007B684FF0000283F854207B6893F8693064
:10226000002B00F0AF817B681B6818464FF005011A
:102270004FF020024FF0010300F085FBA7E17B68DF
:102280004FF0010283F869207B684FF004021A7353
:102290007B684FF000021A657B684FF000021A61FC
:1022A0007B681B6818464FF005014FF0200200F0D4
:1022B00078FB0346002B0FD07B681B6818464FF055
:1022C00005014FF020024FF0000300F05CFB7B683B
:1022D0004FF0010283F869207B684FF0010283F818
:1022E000542074E17B689B6C002B21D07B681A6DB5
:1022F0007B68DB6C9A421BD27B681B6803F1080386
:10230000184600F03EFB03463B737B689A6C7B6883
:102310001B6D1A44397B117003F101027B681A6549
:102320007B681B694FEA03223B7B1A447B681A6176
:102330007B681A6D7B68DB6C9A42C0F045817B68D4
:102340001B6818464FF002014FF004024FF00003E3
:1023500000F019FB3BE17B681B7B042B3CD17B68C5
:102360001A6D7B689B6D9A4203D17B681A697B6802
:102370005A647B68DB6D002B22D07B68DB6D7A684A
:10238000916C7A68126D92B2786898470346FB7335
:10239000FB7B002B03D17868FFF7D2FB23E07B683F
:1023A0001B6818464FF002014FF004024FF0000383
:1023B00000F0E9FA7B684FF0000283F8602012E039
:1023C0007B681B6818464FF002014FF004024FF083
:1023D000010300F0D8FA06E07B684FF000025A646F
:1023E0007868FFF7ADFB7B684FF0000283F854205C
:1023F0007B6893F86930002B0AD07B681B6818460D
:102400004FF005014FF020024FF0010300F0BBFA3E
:102410007B684FF000021A73D9E07B684FF000022E
:102420001A737B684FF000025A647B6893F854304B
:10243000DBB2012B04D17B684FF0020283F85420F9
:102440007868FFF77DFBC2E0FB7ADBB2A82B28D1CE
:102450007B684FF005021A737B684FF000021A6127
:102460007B684FF0010283F854207B681B68184694
:102470004FF005014FF0200200F093FA0346002BC5
:102480000FD07B681B6818464FF005014FF0200203
:102490004FF0000300F077FA7B684FF0010283F8F9
:1024A00069207B685A6C7B681B6C9A4209D37B68F5
:1024B0001B6803F1080318464FF0FF0100F05FFAB4
:1024C00011E07B681B6803F108017B68DA6B7B68AD
:1024D0005B6C1A44127803F101007B68586408466B
:1024E000114600F04CFA7B685A6C7B681B6C9A4270
:1024F0006CD37B681B6818464FF002014FF0040252
:102500004FF0000300F03FFA7B684FF000025A647E
:102510005DE07B684FF000025A647B681B681846D8
:102520004FF002014FF004024FF0010300F02BFACC
:102530007B684FF0000283F854207B6893F8693081
:10254000002B0AD07B681B6818464FF005014FF03E
:1025500020024FF0010300F016FA7B684FF00002F2
:102560001A7334E07B681B6818464FF005014FF082
:1025700020024FF0000300F006FA7B684FF00002E3
:102580001A737B684FF000025A647B6893F834300A
:10259000DBB2012B04D17B684FF0020283F83420B8
:1025A0007B6893F85430DBB2012B10D17B684FF07D
:1025B000020283F854200AE000BF08E000BF06E0F2
:1025C00000BF04E000BF02E000BF00E000BFBB7B33
:1025D000002B0AD07B681B6818464FF003014FF0B0
:1025E00008024FF0000300F0CEF97B681B6803F18E
:1025F0000403184600F0C5F90346FB7207F1100703
:10260000BD46B0BD80B483B000AF0346FB714EF24F
:102610000013CEF2000397F907204FEA5212F9791E
:1026200001F01F014FF0010000FA01F143F8221000
:1026300007F10C07BD4680BC704700BF80B483B073
:1026400000AF0346FB714EF20013CEF2000397F980
:1026500007204FEA5212F97901F01F014FF00100F3
:1026600000FA01F102F1200243F8221007F10C07F1
:10267000BD4680BC704700BF80B582B000AF7860B7
:102680007A6843F29C03C2F200039A4203D14FF0EE
:102690002200FFF7B7FF7A6843F20813C2F2000383
:1026A0009A4203D14FF02300FFF7ACFF7A6842F65D
:1026B000EC33C2F200039A4203D14FF02400FFF73B
:1026C000A1FF7A6843F2E013C2F200039A4203D1F9
:1026D0004FF02500FFF796FF7A6843F25423C2F2C9
:1026E00000039A4203D14FF02600FFF78BFF7A6870
:1026F00043F27413C2F200039A4203D14FF0270051
:10270000FFF780FF07F10807BD4680BD80B582B0A6
:1027100000AF78607A6843F29C03C2F200039A42E9
:1027200003D14FF02200FFF789FF7A6843F20813C4
:10273000C2F200039A4203D14FF02300FFF77EFF5D
:102740007A6842F6EC33C2F200039A4203D14FF0AA
:102750002400FFF773FF7A6843F2E013C2F200032C
:102760009A4203D14FF02500FFF768FF7A6843F2E1
:102770005423C2F200039A4203D14FF02600FFF720
:102780005DFF7A6843F27413C2F200039A4203D1E8
:102790004FF02700FFF752FF07F10807BD4680BD45
:1027A00080B500AF00F06CF800F038F84EF600533A
:1027B000CEF200034EF60052CEF20002526942F40D
:1027C00000725A61FDF773FD80BD00BF80B483B015
:1027D00000AF48F20003C4F20303D3F84C317B602E
:1027E0007A684FF602039A4206D04FF60203C0F20F
:1027F00001039A4204D007E04FF001033B6006E07A
:102800004FF002033B6002E04FF000033B603B6887
:10281000184607F10C07BD4680BC704780B582B0F2
:1028200000AFFFF7D3FF03467B607B68012B01D12C
:1028300000F004F807F10807BD4680BD80B400AF82
:1028400048F20003C4F2030348F20002C4F2030298
:10285000D2F8982042F48072C3F8982048F200031E
:10286000C4F2030348F20002C4F20302D2F8982033
:1028700022F08062C3F89820BD4680BC704700BF3C
:1028800080B483B000AF48F20003C4F20303D3F86E
:10289000503103F001037B607B68002BF3D048F2DA
:1028A0000003C4F2030348F20002C4F20302D2F8A8
:1028B000942022F00102C3F8942048F20003C4F2ED
:1028C0000303D3F8503103F002037B607B68002BD5
:1028D000F3D048F20003C4F2030348F20002C4F24A
:1028E0000302D2F8982022F48052C3F8982048F2CC
:1028F0000003C4F2030348F20002C4F20302926C24
:1029000022F480329A6407F10C07BD4680BC704700
:10291000EFF3108072B6704780F310887047016043
:102920007047006870470EB503FA01F303EA02032B
:1029300001686FEA020201EA020141EA0301016053
:102940000EBD006800EA020020FA01F07047018025
:102950007047008870470EB503FA01F303EA0203DB
:1029600001886FEA020201EA020141EA03010180E3
:102970000EBD008800EA020020FA01F070470170E5
:102980007047007870470EB503FA01F303EA0203BB
:1029900001786FEA020201EA020141EA03010170D3
:1029A0000EBD007800EA020020FA01F07047000036
:1029B00070B542F6083642F60835C2F20006C2F299
:1029C0000005761BB61006D0002455F824300134DB
:1029D0009847A642F9D842F6083542F60C36C2F2BC
:1029E0000005C2F20006761B00F082F8B61006D091
:1029F000002455F8243001349847A642F9D870BD18
:102A0000032AC9B230B407D822B10023C15401331C
:102A10009342FBD130BC704700EB020C034601E04F
:102A200003F8011C03F003041A460133002CF7D10C
:102A30004FF00133C2EB0C0403FB01F31FE042F83B
:102A4000403C42F83C3C42F8383C42F8343C42F8C6
:102A5000303C42F82C3C42F8283C42F8243C42F8F6
:102A6000203C42F81C3C42F8183C42F8143C42F826
:102A7000103C42F80C3C42F8083C42F8043C154635
:102A800040323F2CA4F14004D9DC2A46C5EB0C04AB
:102A900007E042F8103C42F80C3C42F8083C42F88F
:102AA000043C154610320F2CA4F11004F1DC2A4628
:102AB000C5EB0C0501E042F8043C14460432032D3A
:102AC000A5F10405F7DC01E004F8011B6445FBD324
:102AD000A0E700BF3800050020003F0030000F00D5
:102AE000280001001811000010FFF00018EEE000AF
:102AF000F8B500BFF8BC08BC9E467047F8B500BFEB
:102B0000F8BC08BC9E46704705030020F102002077
:082B10000000000000E1F505E2
:04000005200001894D
:00000001FF
